:020000040800F2
:1000000070070020650200089530000831200008C4
:1000100091300008CF0400081538000800000000E7
:100020000000000000000000000000003937000858
:100030005906000800000000993000083B3700080E
:100040007F0200087F0200087F0200087F0200088C
:100050007F0200087F0200087F0200087F0200087C
:100060007F0200087F0200087F0200087F0200086C
:100070007F0200087F0200087F0200087F0200085C
:100080007F0200087F0200087F0200087F0200084C
:100090007F0200087F0200087F0200087F0200083C
:1000A0007F0200087F0200087F0200087F0200082C
:1000B0007F0200087F0200087F0200087F0200081C
:1000C0007F0200087F0200087F0200087F0200080C
:1000D0007F0200087F0200087F0200087F020008FC
:1000E0007F0200087F0200087F0200087F020008EC
:1000F0007F0200087F0200087F0200087F020008DC
:100100007F0200087F0200087F0200087F020008CB
:100110007F0200087F0200087F0200087F020008BB
:100120007F0200087F0200087F0200087F020008AB
:100130007F02000800000000000000007F020008AD
:100140007F0200087F0200087F0200087F0200088B
:100150007F0200087F0200087F0200087F0200087B
:100160007F0200087F0200087F0200087F0200086B
:100170007F0200087F0200087F02000800000000E4
:10018000000000007F0200080000000000000000E6
:100190007F02000800000000000000007F0200084D
:1001A0000000000000000000000000007F020008C6
:1001B0007F0200087F0200087F0200087F0200081B
:1001C0007F02000800F002F800F03CF80AA090E876
:1001D000000C82448344AAF10107DA4501D100F002
:1001E00031F8AFF2090EBAE80F0013F0010F18BF93
:1001F000FB1A43F0010318474C4100006C4100001A
:10020000103A24BF78C878C1FAD8520724BF30C842
:1002100030C144BF04680C60704700000023002414
:1002200000250026103A28BF78C1FBD8520728BF06
:1002300030C148BF0B6070471FB504F06CF81FBD9C
:1002400010B510BD00F0E2F81146FFF7F5FF03F01E
:10025000ABFD00F000F903B4FFF7F2FF03BC00F0C0
:1002600003F900000948804709480047FEE7FEE718
:10027000FEE7FEE7FEE7FEE7FEE7FEE7FEE7FEE756
:1002800004480549054A064B70470000013800083C
:10029000C5010008700100207007002070030020D5
:1002A0007003002053EA020C00F069802DE9F04B46
:1002B0004FF00006002B1FBFB3FA83F503FA05F4D5
:1002C00024FA05F65E4012BF1643B2FA82F502FA2E
:1002D00005F4C5F120051EBF22FA05FC44EA0C0412
:1002E000203556EA044C4FEA144418BF641C4FF002
:1002F00000084FF00009904271EB030C39D300293C
:1003000019BFB1FA81F701FA07F6B0FA80F700FADF
:1003100007F6C7F120071EBF20FA07FC46EA0C06C5
:100320002037B6FBF4FCA7EB0507103F07F01F0BC7
:10033000CBF120060CFA0BFB2CFA06F644BFB346B1
:100340000026202FA4BF5E464FF0000B5BEA060C90
:1003500008BF4FF0010B19EB0B09ABFB027C48EB1C
:100360000608C01B06FB02CC0BFB03CC71EB0C0197
:10037000C1E70B46024641464846BDE8F08B13B53F
:100380004FF000004FF00001AFF30080BDE81C40CB
:1003900070474FF0000200B5134694469646203948
:1003A00022BFA0E80C50A0E80C50B1F12001BFF42E
:1003B000F7AF090728BFA0E80C5048BF0CC05DF894
:1003C00004EB890028BF40F8042B08BF704748BFE2
:1003D00020F8022B11F0804F18BF00F8012B704756
:1003E00070477047704710B500F008F8006810BDFE
:1003F00010B5044600F002F8046010BD00487047D4
:100400001001002000487047100100207546FFF7DA
:10041000F9FFAE4605006946534620F007008546C1
:1004200018B020B5FFF72CFFBDE820404FF00006C4
:100430004FF000074FF000084FF0000B21F00701CC
:10044000AC46ACE8C009ACE8C009ACE8C009ACE80F
:10045000C0098D46704710B50446AFF300802046B2
:10046000BDE81040FFF7F7BE01491820ABBEFEE71C
:1004700026000200704710B5B6217E2003F0CCF9AB
:10048000322000F0EDF804217D2003F0C5F90021B1
:100490007C2003F0C1F9B621142003F0F1F93220D9
:1004A00000F0DEF80021112003F0EAF900214120DC
:1004B00003F0B2F98C21402003F0AEF902210F20A5
:1004C00003F0DEF90021102003F0DAF910BD00BFBF
:1004D000FEE700002DE9F0412DED048B04460D46AA
:1004E0001646574890ED001AD0ED001A21EE211A59
:1004F0005448D0ED001A90ED002A01EE821AF7EE72
:10050000001AB0EE002A52EE011AF0EE610A4C48D1
:1005100090ED001A4C48D0ED001A21EE211A4948FE
:10052000D0ED001A494890ED002A01EE821AF0EE53
:10053000001A21EE211AB0EE410A03F09BFA10EEE8
:10054000107A384603F076FE41EC190B9FED400B14
:1005500053EC102B03F0A4FC41EC180B03F06EFCE1
:1005600030603848D0ED000A374890ED001A60EE50
:10057000810A334890ED001A3448D0ED001A41EE5C
:10058000610AB8EE001A60EE810AB0EE600A03F06C
:10059000DBF910EE107A384603F04CFE41EC190BF3
:1005A0009FED2B0B53EC102B03F07AFC41EC180B56
:1005B00003F044FC2860224890ED001AD0ED001AA8
:1005C00021EE211A2048D0ED001A90ED002A01EE0C
:1005D000821AF7EE001AB0EE002A52EE011AF0EE7F
:1005E000610A174890ED001A1648D0ED001A21EE66
:1005F000211A1648D0ED001A134890ED002A01EE9A
:10060000821AF0EE001A21EE211AB0EE410A03F030
:1006100031FA10EE107A384603F00CFE41EC180B5C
:100620009FED0B0B53EC102B03F03AFC41EC190B34
:1006300003F004FC2060BDEC048BBDE8F0810000F9
:100640001400002018000020200000201C000020C2
:10065000F8C1631ADCA54C40704772B600BFFEE7D4
:1006600070B5044600F008F906462546681C10B12E
:1006700004480078054400BF00F0FEF8801BA84243
:10068000FAD370BD38000020F8B502460B460025AD
:10069000002400200021D1E0012606FA01F51E68A1
:1006A00006EA0504AC4274D11E7906F00306012E59
:1006B00004D01E7906F00306022E13D190684F0075
:1006C0000326BE40B0434F00DE68BE40304390601A
:1006D000506801268E40B0431E79C6F300168E4046
:1006E000304350601E7906F00306032E09D0D0680F
:1006F0004F000326BE40B0434F009E68BE403043CB
:10070000D0601E7906F00306022E13D1CF0802F145
:10071000200656F827004E07F70E0F26BE40B043BE
:100720004F07FF0E1E69BE403043CF0802F120067E
:1007300046F8270010684F000326BE40B0431E79DC
:1007400006F003064F00BE40304310605E6806F4BA
:100750004036002E71D000BF00260096394E366814
:1007600046F48046374F3E603E46366806F4804683
:10077000009600BF00BF344E8F0856F827008E0742
:10078000370F0F26BE40B043304EB24202D1002692
:100790001FE052E02E4EB24201D1012619E02D4E4B
:1007A000B24201D1022614E02B4EB24201D10326FF
:1007B0000FE02A4EB24201D104260AE0284EB2428E
:1007C00001D1052605E0274EB24201D1062600E000
:1007D00007268F073F0FBE4030431B4E8F0846F859
:1007E0002700214E3068A0435E6806F4801606B1EB
:1007F00020431D4E3060361D3068A0435E6806F40D
:10080000001606B12043184E361D3060164E361FB6
:100810003068A0435E6806F4003606B12043124EED
:10082000361F3060361F3068A0435E6806F480369D
:1008300006B120430C4E083E3060491C1029FFF4DD
:100840002BAFF8BD44380240083801400000024098
:100850000004024000080240000C02400010024068
:100860000014024000180240083C01400AB18161B6
:1008700001E00B0483617047014800687047000085
:100880003000002070B504460CB9012070BD94F80A
:100890003D0028B9002084F83C00204600F016FBFB
:1008A000242084F83D002068006820F001002168C1
:1008B00008602068006840F40040216808602068F3
:1008C000006820F400402168086000F017FD05462C
:1008D0005C496068884206D85B48854201D20120A5
:1008E00007E0002005E05948854201D2012000E0E0
:1008F0000020012800D1C9E75548B5FBF0F6206873
:10090000406820F03F003043216848604D496068EE
:10091000884201D8701C07E04FF4967070434FF482
:100920007A71B0FBF1F0401C2168096A21F03F01A7
:1009300008432168086243496068884214D8681EE9
:1009400061684900B0FBF1F0401CC0F30B000428C3
:1009500001D204203DE0681E61684900B0FBF1F05F
:10096000401CC0F30B0034E0A06838B9681E616811
:1009700001EB4101B0FBF1F0401C0AE0681E616828
:1009800001EBC10202EB0111B0FBF1F0401C40F49D
:100990008040C0F30B0008B901201AE0A06848B9F4
:1009A000681E616801EB4101B0FBF1F0401CC0F32F
:1009B0000B000CE0681E616801EBC10202EB011143
:1009C000B0FBF1F0401CC0F30B0040F4804040F459
:1009D00000402168C9694CF6FF72914308432168C1
:1009E000C861D4E9070108432168096821F0C00102
:1009F000084321680860D4E9031008432168896826
:100A000048F2FF329143084321688860D4E9050128
:100A100008432168C96821F0FF0108432168C860C4
:100A20002068006840F00100216808600020206410
:100A3000202084F83D000020206384F83E0000BFA1
:100A400024E70000A086010080841E0000093D000C
:100A500040420F002DE9F8430446894616461F46DA
:100A6000DDF82080FFF708FF054694F83D002028B8
:100A70007ED11923012251492046009501F03DFC09
:100A800010B10220BDE8F88300BF94F83C000128B3
:100A900001D10220F6E7012084F83C0000BF206865
:100AA000006800F0010028B92068006840F00100EB
:100AB000216808602068006820F4006021680860F0
:100AC000212084F83D00102084F83E00002020649E
:100AD00066626785608D20853948E0622B46424614
:100AE0004946204601F0C6FA08B10120CAE700BF16
:100AF0000020009020684069009020688069009084
:100B000000BF00BF44E02A464146204601F016FDE2
:100B100050B1206C042805D12068006840F40070B2
:100B2000216808600120ADE7606A007821680861EB
:100B3000606A401C6062608D401E6085208D401E92
:100B4000208520684069C0F3800070B1208D60B1BD
:100B5000606A007821680861606A401C6062608D8C
:100B6000401E6085208D401E20852A46414600E0BB
:100B700022E0204601F08EFB50B1206C042805D104
:100B80002068006840F4007021680860012079E75F
:100B9000208D0028B7D12068006840F400702168DB
:100BA0000860202084F83D00002084F83E0000BF4B
:100BB00084F83C0000BF65E7022063E702001000F4
:100BC0000000FFFF2DE9FC5F04460F469046994662
:100BD000DDE90CAB0E9EFFF74FFE054694F83D0095
:100BE000202870D119230122B5492046009501F033
:100BF00084FB10B10220BDE8FC9F00BF94F83C00CC
:100C0000012801D10220F6E7012084F83C0000BF52
:100C10002068006800F0010028B92068006840F0F2
:100C20000100216808602068006820F400602168E5
:100C30000860222084F83D00402084F83E00002017
:100C40002064C4F824A0A4F82AB0608D20859D48B3
:100C5000E0624B46424639462046CDE9006501F048
:100C600069FA08B10120C6E7208D88B900BF0020CD
:100C7000019020684069019020688069019000BF60
:100C800000BF2068006840F400702168086040E000
:100C9000208D012818D12068006820F48060216828
:100CA000086000BF00200190206840690190206822
:100CB0008069019000BF00BF2068006840F40070A8
:100CC0002168086025E0F8E0208D022816D1206810
:100CD000006820F48060216808602068006840F4A3
:100CE00000602168086000BF002001902068406912
:100CF000019020688069019000BF0AE000BF0020D9
:100D0000019020684069019020688069019000BFCF
:100D100000BFC3E0208D03287ED8208D012815D187
:100D20002A463146204601F0C4FB08B1012062E7A3
:100D300020680069616A0870606A401C6062208DEA
:100D4000401E2085608D401E6085A7E0208D022812
:100D50002AD1334600225C492046009501F0CDFAA5
:100D600008B1012047E72068006840F4007021685E
:100D7000086020680069616A0870606A401C6062EF
:100D8000208D401E2085608D401E60852068006992
:100D9000616A0870606A401C6062208D401E208578
:100DA000608D401E608579E033460022464920462A
:100DB000009501F0A2FA08B101201CE72068006844
:100DC00020F480602168086020680069616A08700A
:100DD000606A401C6062208D401E2085608D401E30
:100DE00060853346002238492046009501F085FA97
:100DF00008B10120FFE62068006840F40070216817
:100E0000086020680069616A0870606A401C60625E
:100E1000208D401E208500E010E0608D401E608522
:100E200020680069616A0870606A401C6062208DF9
:100E3000401E2085608D401E60852FE02A46314689
:100E4000204601F036FB08B10120D4E62068006995
:100E5000616A0870606A401C6062208D401E2085B7
:100E6000608D401E608520684069C0F38000A8B195
:100E7000208D032805D12068006820F48060216857
:100E8000086020680069616A0870606A401C6062DE
:100E9000208D401E2085608D401E6085208D00289D
:100EA0007FF438AF202084F83D00002084F83E0015
:100EB00000BF84F83C0000BF9DE602209BE60000D6
:100EC000020010000000FFFF0400010010B586B012
:100ED0000446142101A8FFF75CFA1B4920688842E8
:100EE0002FD100BF002000901848006840F0020099
:100EF000164908600846006800F00200009000BF34
:100F000000BFC02001901220029000200390032017
:100F100004900420059001A90D48FFF7B5FB00BF20
:100F20000020009009481030006840F40010074984
:100F3000103108600846006800F40010009000BFFF
:100F400000BF06B010BD0000005400403038024021
:100F50000004024003480068034909780844014935
:100F600008607047300000203800002010B50D48A0
:100F7000006840F400700B4908600846006840F4BF
:100F8000806008600846006840F4807008600320B4
:100F900000F092F80F2000F007F800F02BF8002086
:100FA00010BD0000003C024070B504460E480078B9
:100FB0004FF47A71B1FBF0F00C490968B1FBF0F520
:100FC000284601F01BF808B1012070BD102C07D293
:100FD00000222146501E00F031F80548046001E06F
:100FE0000120F2E70020F0E7380000203C0000205C
:100FF0003400002008B500BF002000900E480068B3
:1010000040F480400C4908600846006800F48040C5
:10101000009000BF00BF00BF00200090081F0068C4
:1010200040F08050091F08600846006800F08050BA
:10103000009000BF00BF08BD443802402DE9F05FBA
:1010400080460D461646002702F062FC07463946E8
:101050002A46334601F00700C0F1070ABAF1040F2F
:1010600002D94FF0040A01E0C0F1070AD14600F1AD
:10107000040ABAF1070F02D24FF0000A01E0A0F112
:10108000030AD4464FF0010A0AFA09FAAAF1010A42
:101090000AEA020A0AFA0CFA4FF0010B0BFA0CFBEF
:1010A000ABF1010B0BEA030B4AEA0B042146404665
:1010B00002F036FCBDE8F09F00BF00F00702064BCF
:1010C00019684FF6FF031940044B0B4343EA022112
:1010D000014B196000BF70470CED00E00000FA05FD
:1010E00038B5002400BF002000901D48006840F083
:1010F00080501B4908600846006800F0805000904E
:1011000000BF00BF012017490864FFF7B5FB044684
:1011100007E0FFF7B1FB001BB0F57A7F01D9032090
:1011200038BD1148406800F48030B0F5803FF0D100
:1011300001200C494864FFF79FFB044607E0FFF7D6
:101140009BFB001BB0F57A7F01D90320E8E7064836
:10115000406800F40030B0F5003FF0D10020DFE738
:101160004038024000000E420070004070B5044656
:101170000D460CB9012070BD5848006800F00F0002
:10118000A84209D255490D700846006800F00F00CA
:10119000A84201D00120EEE7207800F002000228EA
:1011A0001DD1207800F00400042805D14C480068C7
:1011B00040F4E0504A490860207800F00800082810
:1011C00005D14748006840F46040454908604448FC
:1011D000006820F0F000A1680843414908602078C9
:1011E00000F00100A8B36068012807D13C48083826
:1011F0000068C0F34040B8B90120BCE7606802282D
:1012000002D06068032807D1354808380068C0F369
:10121000406048B90120AEE7314808380068C0F3A3
:10122000400008B90120A6E72D48006820F003001F
:10123000616808432A490860FFF71EFB064609E07B
:10124000FFF71AFB801B41F28831884202D9032044
:1012500091E707E02248006800F00C006168B0EBFD
:10126000810FEDD11D48006800F00F00A84209D998
:101270001A490D700846006800F00F00A84201D01E
:10128000012078E7207800F00400042807D11448F2
:10129000006820F4E050E1680843114908602078B4
:1012A00000F00800082808D10D48006820F46040CC
:1012B000216940EAC1000A49086000F02FF8084996
:1012C0000968C1F30311074A515CC8400649086028
:1012D00006480068FFF768FE00204CE7003C02402B
:1012E000083802402A4300083C0000203400002057
:1012F00001480068704700003C00002000B5FFF77F
:10130000F7FF04490968C1F38221034A515CC840D0
:1013100000BD0000083802403A4300082DE9F047BC
:10132000002400250026A146A2463F48006800F0A0
:101330000C0030B1042807D0082808D00C286BD145
:1013400038E0DFF8E8A06AE0DFF8E4A067E03648BC
:10135000001F006800F03F043348001F006800F4DD
:10136000800078B132483049091F0968C1F38811FB
:10137000A0FB01700146224600233846FEF792FF8B
:1013800005460DE029482849091F0968C1F388115D
:10139000A0FB0171224600233846FEF783FF054675
:1013A0002148001F0068C0F30140401C4600B5FB07
:1013B000F6FA34E01C48001F006800F03F041A48A9
:1013C000001F006800F4800078B119481649091F11
:1013D0000968C1F38811A0FB017001462246002371
:1013E0003846FEF75FFF05460EE010480E49091F1C
:1013F0000968C1F38811A0FB017001462246002351
:101400003846FEF74FFF05460748001F0068C0F347
:101410000279B5FBF9FA02E0DFF810A000BF00BFC7
:101420005046BDE8F0870000083802400024F40070
:1014300000127A00F8B504460CB90120F8BD2078F6
:1014400000F0010000286FD0FE48006800F00C009A
:1014500004281BD0FB48006800F00C00082807D1C6
:10146000F848001F006800F48000B0F5800F0DD030
:10147000F448006800F00C000C2813D1F148001F5C
:10148000006800F48000B0F5800F0BD1ED480838FB
:101490000068C0F34040002859D06068002856D149
:1014A0000120CBE700BF6068B0F5803F08D1E54878
:1014B0000838006840F48030E249083908601EE0CE
:1014C0006068B0F5A02F0DD1DE480838006840F400
:1014D0008020DC49083908600846006840F4803004
:1014E00008600CE0D7480838006820F48030D549FF
:1014F000083908600846006820F48020086000BFB2
:10150000606890B1FFF7B8F9054606E0FFF7B4F957
:10151000401B642801D9032090E7CA4808380068B6
:10152000C0F340400028F1D011E0FFF7A5F90546CF
:1015300006E0FFF7A1F9401B642801D903207DE7ED
:10154000C04808380068C0F340400028F1D1207836
:1015500000F0020002286BD1BA48006800F00C00CD
:10156000B8B1B848006800F00C00082805D1B548AB
:10157000001F006800F4800058B1B248006800F015
:101580000C000C281CD1AF48001F006800F480003C
:10159000B0B9AC4808380068C0F3400020B1E0683A
:1015A000012801D0012049E7A6480838006820F04A
:1015B000F800216940EAC100A2490839086037E013
:1015C000E06800B30120A0490860FFF755F905461F
:1015D00006E0FFF751F9401B022801D903202DE74F
:1015E000984808380068C0F340000028F1D09548BA
:1015F0000838006820F0F800216940EAC1009149EC
:101600000839086014E000208F490860FFF734F9BA
:10161000054606E0FFF730F9401B022801D90320F8
:101620000CE7884808380068C0F340000028F1D172
:10163000207800F0080008282CD16069A8B10120AA
:1016400082490860FFF718F9054606E0FFF714F92C
:10165000401B022801D90320F0E67A486C3000686C
:10166000C0F340000028F1D014E000207749086062
:10167000FFF702F9054606E0FFF7FEF8401B0228D7
:1016800001D90320DAE66F486C300068C0F34000EF
:101690000028F1D1207800F00400042870D1002740
:1016A00068483830006800F0805090B900BF0020D2
:1016B000009064483830006840F08050614938310B
:1016C00008600846006800F08050009000BF00BF2E
:1016D00001275F48006800F48070B0B95C4800687A
:1016E00040F480705A490860FFF7C6F8054606E0E6
:1016F000FFF7C2F8401B022801D903209EE6544898
:10170000006800F480700028F2D000BFA0680128B3
:1017100008D14C486830006840F001004949683100
:1017200008601DE0A06805280DD1464868300068B3
:1017300040F004004349683108600846006840F002
:10174000010008600CE03F486830006820F00100AC
:101750003C49683108600846006820F004000860D1
:1017600000BFA068A8B1FFF787F8054609E0FFF7BA
:1017700083F8401B41F28831884202D903205DE69C
:1017800026E0304868300068C0F340000028EED002
:1017900013E0FFF771F8054608E0FFF76DF8401B0E
:1017A00041F28831884201D9032047E62548683054
:1017B0000068C0F340000028EFD1012F07D1214875
:1017C0003830006820F080501E493831086000BF72
:1017D000A069002851D01B48006800F00C000828C0
:1017E00061D0A069022849D1002017490866FFF797
:1017F00043F8054606E0FFF73FF8401B022801D9F1
:1018000003201BE60F4808380068C0F3406000283A
:10181000F1D1D4E907010843616A40EA811101224C
:10182000A06AC2EB500041EA00412C20005D41EA71
:1018300000613020005D41EA00700249091F086024
:10184000012007E00838024000004742800E47426E
:10185000007000402F490866FFF70EF8054606E0C5
:10186000FFF70AF8401B022801D90320E6E52A48C1
:101870000068C0F340600028F2D048E0002025490D
:101880000866FEF7F9FF054606E0FEF7F5FF401B88
:10189000022801D90320D1E51F480068C0F3406049
:1018A0000028F2D133E0A069012800D1C6E51A482A
:1018B000001D0668A069012827D006F48001E069B0
:1018C000814222D106F03F01206A81421DD147F6B4
:1018D000C0703040616AB0EB811F16D106F4403110
:1018E0000122A06AC2EB5000B1EB004F0DD106F00F
:1018F00070612C20005DB1EB006F06D106F0E04175
:101900003020005DB1EB007F01D0012096E5002082
:1019100094E500000000474200380240014691F87B
:101920005100704710B504460CB9012010BD606A23
:1019300038B96068B0F5827F00D105E00021E1612F
:1019400002E00021216161610021A16294F851004F
:1019500028B9002084F85000204600F047F8022003
:1019600084F851002068006820F040002168086079
:10197000A08800F48270218901F404410843A18900
:1019800001F400610843217C01F002010843217D3C
:1019900001F001010843218B01F400710843217F0C
:1019A00001F0380108432021095D01F0800108435E
:1019B000218D01F400510843216808600421A069C9
:1019C00001EA104094F8241001F010010843216846
:1019D00048602068C06920F400602168C861002068
:1019E0006065012084F8510000209FE710B586B0A3
:1019F0000446142101A8FEF7CCFC1B49206888424C
:101A00002FD100BF002000901848006840F480509B
:101A1000164908600846006800F48050009000BF36
:101A200000BF00BF0020009010481438006840F04C
:101A300001000E49143908600846006800F00100F2
:101A4000009000BF00BFE020019002200290002023
:101A50000390032004900520059001A90448FEF797
:101A600013FE06B010BD00000030014044380240B3
:101A7000000002402DE9F8430446884616461D46FC
:101A800094F85100012802D00220BDE8F883606874
:101A9000B0F5827F0CD1A06850B9042084F85100C1
:101AA0003346424641462046009500F083F9ECE774
:101AB000FEF7E2FE0746B8F1000F00D00EB9012094
:101AC000E3E700BF94F85000012801D10220DCE7D1
:101AD000012084F8500000BF042084F85100002049
:101AE0006065C4F83880A687E6872063A086E08614
:101AF00020646064A068B0F5004F0BD120680068D6
:101B000020F04000216808602068006820F48040D0
:101B1000216808602068006800F04000402805D077
:101B20002068006840F0400021680860E06830BB31
:101B300021E02068806800F0010050B12068007B3F
:101B4000A16B0870A06B401CA063E08F401EE08773
:101B500011E0FEF791FEC01BA84201D3681C00B93A
:101B60004DB9012084F8510000BF002084F85000D6
:101B700000BF032089E7E08F0028DAD125E021E0CB
:101B80002068806800F0010050B12068C068A16B37
:101B90000880A06B801CA063E08F401EE08711E0EE
:101BA000FEF76AFEC01BA84201D3681C00B94DB9FC
:101BB000012084F8510000BF002084F8500000BFCD
:101BC000032062E7E08F0028DAD13A462946204612
:101BD00001F0B8FC08B120206065012084F85100B4
:101BE00000BF002084F8500000BF606D08B10120E4
:101BF0004BE7002049E72DE9F84304460F46164617
:101C00001D46FEF739FE8046B14694F85100012882
:101C100002D00220BDE8F88307B10EB90120F9E730
:101C200000BF94F85000012801D10220F2E7012002
:101C300084F8500000BF032084F851000020606544
:101C40002763A686E686A063A087E0876064206499
:101C5000A068B0F5004F0BD12068006820F040006C
:101C6000216808602068006840F4804021680860AE
:101C70002068006800F04000402805D02068006817
:101C800040F0400021680860E068B0F5006F37D18F
:101C9000606810B1B9F1010F09D1206B008821688B
:101CA000C860206B801C2063E08E401EE08623E02D
:101CB0002068806800F0020002280AD1206B0088AA
:101CC0002168C860206B801C2063E08E401EE08687
:101CD00012E0FEF7D1FDA0EB0800A84201D3681C7A
:101CE00000B94DB9012084F8510000BF002084F8EC
:101CF000500000BF03208DE7E08E0028D8D136E0E9
:101D0000606810B1B9F1010F09D1206B007821682A
:101D10000873206B401C2063E08E401EE08623E0A9
:101D20002068806800F0020002280AD1206B007849
:101D300021680873206B401C2063E08E401EE08603
:101D400012E0FEF799FDA0EB0800A84201D3681C41
:101D500000B94DB9012084F8510000BF002084F87B
:101D6000500000BF032055E7E08E0028D8D142463E
:101D70002946204601F030FC08B120206065A068AB
:101D800050B900BF002000902068C0680090206813
:101D90008068009000BF00BF012084F8510000BFA0
:101DA000002084F8500000BF606D08B1012031E7C9
:101DB00000202FE72DE9FE4F04460F4690461D46B2
:101DC0000C9E01200190FEF757FD814694F851B01A
:101DD00060680290AA46BBF1010F0BD00298B0F5E3
:101DE000827F04D1A06810B9BBF1040F02D0022099
:101DF000BDE8FE8F1FB1B8F1000F00D00DB9012072
:101E0000F6E700BF94F85000012801D10220EFE767
:101E1000012084F8500000BF94F85100042802D03B
:101E2000052084F8510000206065C4F83880E587FB
:101E3000A5872763E586A58620646064206800681E
:101E400000F04000402805D02068006840F04000C5
:101E500021680860E068B0F5006F52D1606810B189
:101E6000BAF1010F09D1206B00882168C860206B8E
:101E7000801C2063E08E401EE0863BE02068806886
:101E800000F00200022810D1E08E70B10198012804
:101E90000BD1206B00882168C860206B801C2063F8
:101EA000E08E401EE086002001902068806800F0EF
:101EB000010068B1E08F58B12068C068A16B08804C
:101EC000A06B801CA063E08F401EE0870120019082
:101ED000FEF7D2FCA0EB0900B0420BD3701C48B156
:101EE000012084F8510000BF002084F8500000BF9A
:101EF00003207DE7E08E0028C0D1E08F0028BDD10F
:101F000052E0606810B1BAF1010F09D1206B00787E
:101F100021680873206B401C2063E08E401EE08621
:101F20003CE02068806800F00200022810D1E08EBA
:101F300070B1019801280BD1206B007821680873DB
:101F4000206B401C2063E08E401EE0860020019044
:101F50002068806800F0010068B1E08F58B1206807
:101F6000C068A16B0870A06B401CA063E08F401E8E
:101F7000E08701200190FEF77FFCA0EB0900B04252
:101F800001D3701C00B94EB9012084F8510000BF84
:101F9000002084F8500000BF032029E7E08E0028CD
:101FA000BFD1E08F0028BCD14A463146204601F01F
:101FB00013FB40B12020606500BF002084F8500072
:101FC00000BF012014E7A06850B900BF00200090B6
:101FD0002068C068009020688068009000BF00BF43
:101FE000012084F8510000BF002084F8500000BF99
:101FF000606D08B10120FBE60020F9E670B50446EB
:102000002546681EB0F1807F01D301200FE0681ED5
:102010004FF0E02148610F214FF0FF3001F080FCCC
:1020200000204FF0E021886107200861002070BD8A
:1020300000BFFEE7014608684069C0F38020B0B1E8
:102040006FF480600A68506100200863202081F8E6
:102050003D00002081F83E00086C40F00400086458
:1020600000BF002081F83C0000BF01207047002025
:10207000FCE700002DE9F84304460D461746984654
:10208000E66A082E04D0012E02D016F5803F06D154
:102090002068006840F480702168086008E0206BC8
:1020A000122805D12068006840F48070216808601B
:1020B0003B4600224FF001112046CDF8008000F091
:1020C0001CF960B12068006800F48070B0F5807F72
:1020D00002D14FF4007020640320BDE8F88320692A
:1020E000B0F5804F04D105F0FE002168086112E0D0
:1020F00005F44070F02141EAE01021680861434690
:102100003A460B49204600F057F908B10120E4E7B0
:10211000E8B22168086143463A460549891F2046CE
:1021200000F04AF908B10120D7E70020D5E7000008
:10213000080001002DE9F84304460F46154699466C
:10214000DDE908862068006840F480602168086046
:102150002068006840F480702168086043460022CF
:102160004FF001112046009600F0C7F860B12068DA
:10217000006800F48070B0F5807F02D14FF40070E9
:1021800020640320BDE8F88307F0FE0021680861A1
:10219000334642463E49204600F00EF908B1012080
:1021A000F0E700BF002000902068406900902068A0
:1021B0008069009000BF00BF32464146204600F0D3
:1021C000BDF950B1206C042805D12068006840F4A6
:1021D0000070216808600120D4E7B9F1010F03D134
:1021E000E8B22168086117E0C5F30720216808619B
:1021F00032464146204600F0A1F950B1206C042837
:1022000005D12068006840F4007021680860012052
:10221000B8E7E8B22168086132464146204600F03E
:102220008DF950B1206C042805D12068006840F475
:102230000070216808600120A4E72068006840F46D
:10224000807021680860434600224FF0011120464B
:10225000009600F052F858B12068006800F48070D1
:10226000B0F5807F02D14FF400702064032089E72D
:10227000F8B240F001002168086133464246044943
:10228000204600F099F808B101207BE7002079E7AB
:102290000200010070B504460D46164625E02046B2
:1022A000FFF7C8FE08B1012070BD681CE8B1FEF759
:1022B000E3FA801BA84200D8BDB920684069C0F38A
:1022C000800090B900202063202084F83D00002089
:1022D00084F83E00206C40F02000206400BF002005
:1022E00084F83C0000BF0120DEE720684069C0F3AD
:1022F00080000028D3D00020D6E72DE9F041044625
:102300000D4617461E46DDF8188038E0701CA8B34D
:10231000FEF7B2FAA0EB0800B04200D876BBC5F3D6
:10232000074001280AD120684069A9B20840A9B233
:10233000884201D101200BE0002009E0206880697B
:10234000A9B20840A9B2884201D1012000E00020D2
:10235000B84214D100202063202084F83D000020E2
:1023600084F83E00206C40F02000206400BF002074
:1023700084F83C0000BF0120BDE8F081FFE7C5F311
:10238000074001280AD120684069A9B20840A9B2D3
:10239000884201D101200BE0002009E0206880691B
:1023A000A9B20840A9B2884201D1012000E0002072
:1023B000B842ABD00020DFE72DE9F04104460D46DE
:1023C00016461F4658E020684069C0F38020E8B1F7
:1023D0002068006840F40070216808606FF4806035
:1023E0002168486100202063202084F83D000020FF
:1023F00084F83E00206C40F00400206400BF002000
:1024000084F83C0000BF0120BDE8F081701C90B34F
:10241000FEF732FAC01BB04200D866BBC5F30740D6
:1024200001280AD120684069A9B20840A9B28842AF
:1024300001D101200BE0002009E020688069A9B2E9
:102440000840A9B2884201D1012000E0002090B9E3
:1024500000202063202084F83D00002084F83E0006
:10246000206C40F02000206400BF002084F83C0075
:1024700000BF0120C8E7FFE7C5F3074001280AD1E4
:1024800020684069A9B20840A9B2884201D1012060
:102490000BE0002009E020688069A9B20840A9B2D9
:1024A000884201D1012000E0002000288BD00020CC
:1024B000AAE770B504460D46164637E02068406925
:1024C000C0F30010A0B16FF0100021684861002037
:1024D0002063202084F83D00002084F83E00206C1A
:1024E000206400BF002084F83C0000BF012070BDC4
:1024F000FEF7C2F9801BA84200D8BDB92068406928
:10250000C0F3801090B900202063202084F83D00A3
:10251000002084F83E00206C40F02000206400BFC2
:10252000002084F83C0000BF0120E0E720684069FB
:10253000C0F380100028C1D00020D8E770B5044651
:102540000D46164625E02046FFF774FD08B1012030
:1025500070BD681CE8B1FEF78FF9801BA84200D857
:10256000BDB920684069C0F3C01090B90020206355
:10257000202084F83D00002084F83E00206C40F0CC
:102580002000206400BF002084F83C0000BF012030
:10259000DEE720684069C0F3C0100028D3D00020D7
:1025A000D6E7000000B587B0142102A8FDF7F1FEC0
:1025B00000BF002001902E48006840F004002C4924
:1025C00008600846006800F00400019000BF00BFEA
:1025D00000BF002001900846006840F080000860BD
:1025E0000846006800F08000019000BF00BF00BFF7
:1025F000002001900846006840F00100086008468D
:10260000006800F00100019000BF00BF00BF002083
:1026100001900846006840F0020008600846006823
:1026200000F00200019000BF00BF012210211148FC
:10263000FEF71CF9012210210F48FEF717F91020B0
:1026400002900120039000200490059002A90948FF
:10265000FEF71AF810200290012003900020049049
:10266000059002A90448FEF70FF807B000BD00006E
:1026700030380240000002400008024010B50B480C
:102680000B4908600B484860002109488160C1601F
:102690004FF480410161002141618161C1610162AA
:1026A000FEF7F0F808B1FDF7D8FF10BD0054004068
:1026B00064000020A086010010B50F480F49086093
:1026C0004FF48270486000210C488160C160022193
:1026D000016101214161490281612021C161002123
:1026E0000162416281620A21C162FFF71BF908B1F0
:1026F000FDF7B3FF10BD000000300140B80000201E
:1027000070B52DED108B96B0F0EE408AB0EE609A69
:10271000F0EE419AB0EE61BAB0EE42AAF0EE62AAD3
:1027200006460C46154696ED000AB5EEC00AF1EED7
:1027300010FA1FD194ED000AB5EEC00AF1EE10FABE
:1027400018D195ED000AB5EEC00AF1EE10FA11D1DC
:10275000F0EE6A2AB0EE4A2AF0EE4B1AB0EE691A91
:10276000F0EE490AB0EE680A00F0F0FA16B0BDECDF
:10277000108B70BDB5EEC0BAF1EE10FA09D1B5EE0E
:10278000C0AAF1EE10FA04D1F5EEC0AAF1EE10FAEB
:102790007DD06BEE0B0A4AEE0A0A4AEEAA0AB0EEA8
:1027A000600A01F0E3FAB0EE408A2BEE080AB0EEC0
:1027B00040BA2AEE080AB0EE40AA2AEE880AF0EEE5
:1027C00040AAD6ED000A60EEA00A94ED001AD4EDFE
:1027D000001A41EE210A95ED001AD5ED001A41EEDE
:1027E000210AB0EE600A01F0C1FAB0EE408A96ED1F
:1027F000000A20EE080A86ED000A94ED000A20EE99
:10280000080A84ED000A95ED000A20EE080A85ED1D
:10281000000AFE4890ED000AD0ED000A20EE200AE2
:102820008DED140A90ED000AF948D0ED000A60EE33
:1028300020CAF64890ED000AF648D0ED000A60EE96
:1028400020BAF24890ED000AF348D0ED000A20EEDD
:1028500020FAEF4890ED000AD0ED000A60EE20FA71
:1028600090ED000AEB48D0ED000A20EE200A8DED35
:10287000130AE74890ED000AE748D0ED000A20EE81
:1028800020CAE44890ED000AD0ED000A00E088E19B
:1028900020EE20DA90ED000ADF48D0ED000A60EE6D
:1028A00020DA90ED000AD0ED000A20EE20EA96ED45
:1028B000000AF6EE000A70EECD0A70EECE0A60EE67
:1028C000200A94ED001A9DED130A70EE4F1AB0EE37
:1028D000600A01EE210AD5ED000A3CEE2B1A00EE4B
:1028E000810AF0EE000A20EE200A8DED120AD6EDE4
:1028F000000A9DED130A30EE0F0A20EE800AD4ED97
:10290000000AB6EE001A31EE6F1A31EE4E1A00EEE2
:10291000810AD5ED000A3DEEEC1A00EE810AF0EED8
:10292000000A20EE200A8DED110A9DED120A60EEDC
:10293000000A9DED110A40EE000A10EE901A0846BA
:1029400001F078FCCDE900019DED000B01F0BAF932
:102950008DED020B9DED020B51EC100B01F06EFAA8
:102960000EEE900A96ED000A7CEE6B0A20EE200A2D
:10297000D4ED000A3DEEAC1A00EE810AD5ED000A56
:10298000B6EE001A31EE6F1A31EE4D1A00EE810AE2
:10299000F0EE000A20EE200A8DED100A3CEE6B0AE4
:1029A0008DED0F0A3CEEAD0A8DED0E0A9DED140A79
:1029B000F6EE000A30EE600A30EE0E0A8DED0D0ADA
:1029C000B6EE000A30EE4D0A30EE4E0A20EE2E0A28
:1029D0003CEE6B1ADDED100A00EE810A8DED0C0A5B
:1029E0009DED130A30EE4F0A20EE2E0A3CEEAD1A92
:1029F000DDED100A00EE810A8DED0B0A3BEE8C0A2C
:102A000020EE2E0AF6EE000A70EEEF0A30EECD1A36
:102A1000DDED100A00EE810A8DED0A0A9DED0D0A2A
:102A20006AEE000A9DED0E0A4AEEC00A94ED001A05
:102A30009DED0A0A21EE001AD5ED001A9DED0B0A54
:102A400001EEC01A30EE810A8DED090A9DED0F0AE4
:102A50006AEE800A9DED0D0A4BEE400A95ED001AD4
:102A60009DED0C0A21EE001AD6ED001A9DED0A0A22
:102A700001EEC01A30EE810A8DED080A9DED0E0AB6
:102A80006BEE000A9DED0F0A4AEE400A96ED001A21
:102A90009DED0B0A21EE001AD4ED001A9DED0C0AF3
:102AA00001EEC01A30EE810A8DED070A5B4890ED09
:102AB000000AB5EEC00AF1EE10FA44DDD0ED000ACE
:102AC0009DED090A60EE800A554890ED000A9FEDE1
:102AD000551A00EE810A80ED000A5048D0ED000A38
:102AE0009DED080A60EE800A4F4890ED000A9FEDC8
:102AF0004D1A00EE810A80ED000A4848D0ED000A28
:102B00009DED070A60EE800A484890ED000A9FEDAF
:102B1000451A00EE810A80ED000A414890ED000A56
:102B200038EE800AF0EE408A3F4890ED000A39EE18
:102B3000000AB0EE409A3D4890ED000A39EE800A56
:102B4000F0EE409A0EE09FED3A0A354880ED000A1B
:102B50009FED370A344880ED000A9FED350A33486F
:102B600080ED000A334890ED001A9DED090AF0EE61
:102B7000680A41EE000AF0EE608A90ED001A9DEDC1
:102B8000080AF0EE490A41EE000AB0EE609A90EDB4
:102B9000001A9DED070AF0EE690A41EE000AF0EE18
:102BA000609A9FED250A28EE800AF0EE408A9FED9C
:102BB000220A29EE000AB0EE409A9FED1F0A29EE84
:102BC000800AF0EE409A114890ED000A8DED060A59
:102BD0000F4890ED000A8DED050A0E4890ED000AB1
:102BE0008DED040A9DED050AB1EE400A60EE280A5B
:102BF0009DED040A40EE490A074890ED000A40EEB8
:102C0000690A024890ED000A18E000001400002054
:102C1000180000201C0000202000002010000020D0
:102C2000240000206F12833A280000202C0000208E
:102C3000000000000C0000206F12033A30EE800A02
:102C400080ED000A9DED060A60EE280A9DED040A5B
:102C500040EE290A394890ED000A40EE490A38480A
:102C600090ED000A30EE800A80ED000A9DED060A24
:102C700060EE090A9DED050A40EE690A2F4890EDC5
:102C8000000A40EE280A2F4890ED000A30EE800A34
:102C900080ED000A9DED060A20EE290ADDED050A09
:102CA00000EE890ADDED040A00EEE80A2348D0EDC3
:102CB000000A30EE200A80ED000A2348D0ED000A19
:102CC00090ED001A60EE810A1D4890ED001AD0EDDB
:102CD000001A41EE210A1B4890ED001AD0ED001AAF
:102CE00041EE210A154890ED001AD0ED001A41EE90
:102CF000210AB0EE600A01F039F8B0EE408A1248BD
:102D000090ED000A20EE080A80ED000A0C4890EDD4
:102D1000000A20EE080A80ED000A0A4890ED000A39
:102D200020EE080A80ED000A044890ED000A20EE2B
:102D3000080A80ED000A00BF18E50000200000200E
:102D4000180000201C0000201400002000B52DED0C
:102D5000068BB0EE403AF0EE603AB0EE414AF0EE4B
:102D6000615AF0EE424AB0EE625AF5EEC05AF1EE08
:102D700010FA09D1F5EEC04AF1EE10FA04D1B5EE21
:102D8000C05AF1EE10FA7DD065EEA50A44EEA40A11
:102D900045EE050AB0EE600A00F0E8FFF0EE402ACA
:102DA00025EEA20AF0EE405A24EEA20AF0EE404AC6
:102DB00025EE220AB0EE405AA94890ED000AA94833
:102DC000D0ED000A20EE200AA748D0ED000AA7485F
:102DD00090ED001AF0EE407A40EEC17AA24890EDF4
:102DE000000A9F48D0ED000A20EE200A9F48D0ED4F
:102DF000000A9C4890ED001AB0EE408A00EE818AED
:102E00009948D0ED000A90ED001AB6EE000A10EED7
:102E1000810A9448D0ED000A90ED001AF0EE408A45
:102E200040EE818A24EEA80AB0EE409A05EE489A58
:102E300025EE270AF0EE409A45EEE89A25EE880A3C
:102E4000B0EE40AA04EEE7AA894890ED000AB5EE7C
:102E5000C00AF1EE10FA40DD90ED000A60EE090ABA
:102E6000844890ED000A9FED841A00EE810A80EDFF
:102E7000000A7F4890ED000A60EE290A7F4890ED35
:102E8000000A00E051E09FED7C1A00EE810A80ED1F
:102E9000000A774890ED000A60EE0A0A784890ED43
:102EA000000A9FED751A00EE810A80ED000A714854
:102EB00090ED000A33EE000AB0EE403A6F4890ED14
:102EC000000A33EE800AF0EE403A6D4890ED000AB9
:102ED00034EE000AB0EE404A0EE09FED6A0A654803
:102EE00080ED000A9FED670A644880ED000A9FEDBF
:102EF000650A634880ED000A6348D0ED000AB0EE31
:102F0000430A00EE890AB0EE403AD0ED000AB0EE76
:102F1000630A00EEA90AF0EE403AD0ED000AB0EEE6
:102F2000440A00EE8A0AB0EE404A9FED580A23EEAA
:102F3000000AB0EE403A9FED550A23EE800AF0EE0B
:102F4000403A9FED520A24EE000AB0EE404A46484D
:102F500090ED006A4248D0ED006A444890ED007A56
:102F6000B1EE660A20EE030A07EE630A3D48D0ED93
:102F7000000A00EEC40A3C48D0ED000A30EE200AF8
:102F800080ED000A26EE030A07EE040A3548D0ED6C
:102F9000000A00EEE30A3248D0ED000A30EE200AC3
:102FA00080ED000A26EE230A06EEC40A2D48D0ED75
:102FB000000A00EE830A2D48D0ED000A30EE200A08
:102FC00080ED000A26EE040A06EEA30A07EE430A85
:102FD0002448D0ED000A30EE200A80ED000A224895
:102FE000D0ED000A90ED001A60EE810A1C4890EDC9
:102FF000001AD0ED001A41EE210A1C4890ED001A8B
:10300000D0ED001A41EE210A164890ED001AD0EDDD
:10301000001A41EE210AB0EE600A00F0A7FEF0EEC1
:10302000402A114890ED000A20EE220A80ED000AA5
:103030000B4890ED000A20EE220A80ED000A0B48B2
:1030400090ED000A20EE220A80ED000A054890ED7E
:10305000000A20EE220A80ED000ABDEC068B00BDBE
:103060001800002020000020140000201C00002078
:1030700010000020240000206F12833A2800002056
:103080002C000020000000000C0000206F12033A0A
:1030900000BFFEE700BFFEE7704700001CB5092037
:1030A0008DF8040001208DF80500801E022301AA7E
:1030B0001A2100900148FDF7CDFC1CBD64000020E2
:1030C00070B52DED028B86B004460D4616460020E5
:1030D00008EE100A401E062104AA0123CDE90021B2
:1030E000029000221A211D48FDF76CFD9DF810008A
:1030F0009DF8111040EA012000B208EE100AB8EE67
:10310000C80ADFED170A20EE200A84ED000A9DF8B8
:1031100012009DF8131040EA012000B208EE100AD8
:10312000B8EEC80ADFED0E0A20EE200A85ED000A8F
:103130009DF814009DF8151040EA012000B208EE39
:10314000100AB8EEC80ADFED060A20EE200A86ED66
:10315000000A06B0BDEC028B70BD000064000020C8
:103160009A99993E10B586B0044603A9412000F013
:103170004BF904AA0621122000F0C4F89DF81000B3
:103180009DF8111000EB012000B2ADF804009DF88D
:1031900012009DF8131000EB012000B2ADF80600FC
:1031A0009DF814009DF8151000EB012000B2ADF859
:1031B0000800BDF9040000EE100AB8EEC00ADFED09
:1031C000100A20EE200A84ED000ABDF9060000EE88
:1031D000100AB8EEC00ADFED0A0A20EE200A84EDDC
:1031E000010ABDF9080000EE100AB8EEC00ADFEDD2
:1031F000040A20EE200A84ED020A06B010BD000089
:10320000E7416B3A10B52DED028B86B0044603A959
:103210000F2000F035F99DF80C00052813D2DFE8E7
:1032200000F00306090C0F009FED308A0EE09FEDC1
:10323000308A0BE09FED2F8A08E09FED2F8A05E092
:103240009FED2E8A02E09FED298A00BF00BF04AAED
:103250000621022000F09EF89DF810009DF8111044
:1032600000EB012000B2ADF804009DF812009DF8BB
:10327000131000EB012000B2ADF806009DF8140019
:103280009DF8151000EB012000B2ADF80800BDF963
:10329000040000EE100AB8EEC00AC0EE080A9FED66
:1032A000180A20EE800A84ED000ABDF9060000EE3F
:1032B000100AB8EEC00AC0EE080A9FED110A20EE0F
:1032C000800A84ED010ABDF9080000EE100AF8EE4C
:1032D000C00A80EE880ADFED0A0A20EE200A84ED9B
:1032E000020A06B0BDEC028B10BD00006F128341D4
:1032F0006F1203426F1283426F1203436F128343B4
:1033000035FA8E3C2DE9FC4105460E461746002253
:1033100010211E48FDF7AAFA45F0800001904FF4F5
:103320007A73012201A91A48FEF765FC00BF18480C
:10333000FEF7F4FA0328FAD04FF47A7301226946B3
:103340001348FEF797FB00BF1148FEF7E7FA042881
:10335000FAD0002410E04FF47A73012269460C4839
:10336000FEF788FB00BF0A48FEF7D8FA0428FAD017
:103370009DF800003855641CB442ECDB012210219A
:103380000248FDF773FABDE8FC810000000002402E
:10339000B80000202DE9FC4105460E4617460022E4
:1033A00010211748FDF762FA45F0800001904FF4B4
:1033B0007A73012201A91348FEF71DFC00BF1148D2
:1033C000FEF7ACFA0328FAD0002410E04FF47A7329
:1033D000012269460B48FEF74DFB00BF0948FEF786
:1033E0009DFA0428FAD09DF800003855641CB442B8
:1033F000ECDB012210210248FDF738FABDE8FC8120
:1034000000080240B800002038B504460D460022EE
:1034100010211948FDF72AFA44F0800000904FF47B
:103420007A73012269461548FEF7E5FB00BF134891
:10343000FEF774FA0328FAD04FF47A730122294672
:103440000E48FEF717FB00BF0C48FEF767FA04288A
:10345000FAD04FF47A73012229460848FEF70AFB96
:1034600000BF0648FEF75AFA0428FAD001221021BC
:103470000148FDF7FBF938BD00000240B80000200C
:1034800038B504460D46002210211348FDF7EEF929
:1034900044F0800000904FF47A73012269460F488F
:1034A000FEF7A9FB00BF0D48FEF738FA0328FAD053
:1034B0004FF47A73012229460848FEF7DBFA00BF71
:1034C0000648FEF72BFA0428FAD001221021024800
:1034D000FDF7CCF938BD000000080240B80000201C
:1034E0002DE9F04105460C4616461F46DDF81880CA
:1034F0002846FFF737FE2046FFF784FE424639464E
:103500003046FFF7DDFD95ED023AF0EE432A95EDEA
:10351000013AB0EE432A95ED003AF0EE431A94EDED
:10352000023AB0EE431A94ED013AF0EE430A94EDFC
:10353000003AB0EE430A424639463046FFF7E0F81B
:10354000BDE8F081F8B504460E4615466068B0F552
:10355000827F0DD1A068B0F5004F03D0A068B0F510
:10356000806F05D12068006820F040002168086065
:103570006068B0F5827F1FD1A068B0F5806F0DD074
:103580003346002280212046009500F069F808B3F8
:10359000606D40F0200060650320F8BD33460022D6
:1035A00001212046009500F05BF898B1606D40F075
:1035B000200060650320F0E7334600220121204609
:1035C000009500F04DF828B1606D40F02000606576
:1035D0000320E2E70020E0E77CB504460E461546EE
:1035E0003346012202212046009500F039F828B127
:1035F000606D40F02000606503207CBD16480068C7
:103600001821B0FBF1F01549B0FBF1F04FF47A71DD
:10361000484301906068B0F5827F0DD133460022A7
:1036200080212046009500F01BF898B1606D40F0B5
:10363000200060650320E0E700BF019800B908E0C2
:103640000198401E019020688068C0F3C0100028D7
:10365000F3D100BF0020D0E73C00002040420F0023
:103660002DE9F84F04460D4690461E46DDF8289099
:10367000FDF702F9A0EB0900371AFDF7FDF88246C5
:103680002C480068C0F3CB307843009045E0701CB4
:10369000002842D0FDF7F0F8A0EB0A00B84200D2B3
:1036A000A7BB2068406820F0E0002168486060689F
:1036B000B0F5827F0DD1A068B0F5004F03D0A068AF
:1036C000B0F5806F05D12068006820F040002168C7
:1036D0000860A06AB0F5005F0DD100BF20680068E7
:1036E00020F40050216808602068006840F4005011
:1036F0002168086000BF012084F8510000BF00204D
:1037000084F8500000BF0320BDE8F88FFFE7009861
:1037100000B900270098401E00902068806828406B
:10372000A84201D1012000E000204045AFD1002097
:10373000EAE700003C000020704710B5FDF70AFCE6
:1037400010BD000000B593B0342106A8FCF721FE9F
:10375000142101A8FCF71DFE00BF002000902648A0
:10376000006840F08050244908600846006800F076
:103770008050009000BF00BF00BF002000901F4895
:10378000006840F440401D4908600846006800F4A5
:103790004040009000BF00BF012006900004079049
:1037A00002200C9041050D9104210E91B4210F913E
:1037B000022110911191129106A8FDF73BFE08B16C
:1037C000FCF74BFFFDF78CFC08B1FCF746FF0F2020
:1037D000019002200290002003904FF4A05004902A
:1037E0004FF480500590052101A8FDF7BFFC08B1FA
:1037F000FCF733FF13B000BD4038024000700040BA
:103800000348006840F470000149086070470000F8
:1038100088ED00E000BFFEE738B504460D46002203
:1038200010211548FDF722F804F07F0000904FF4B6
:103830007A73012269461148FEF7DDF900BF0F488F
:10384000FEF76CF80328FAD000954FF47A73012242
:1038500069460A48FEF7CFF900BF0848FEF75EF850
:103860000328FAD00120FCF7FBFE012210210248B8
:10387000FCF7FCFF38BD000000000240B80000204B
:1038800038B504460D46002210211548FCF7EEFF1E
:1038900004F07F0000904FF47A73012269461148CA
:1038A000FEF7A9F900BF0F48FEF738F80328FAD051
:1038B00000954FF47A73012269460A48FEF79BF996
:1038C00000BF0848FEF72AF80328FAD00122102189
:1038D0000348FCF7CBFF0120FCF7C2FE38BD000017
:1038E00000080240B80000204100080218BF042070
:1038F0000A0E18BF40F001004FF07F4232EA01018A
:1039000008BF40F00200012808BF052070470000F2
:1039100002480068C0F30220704700000CED00E090
:1039200010B5002804DB0A07130E054A135406E0FD
:103930000A07140E034A00F00F031B1FD45410BDD6
:1039400000E400E018ED00E010B54FF00E402DED62
:10395000028BB0EE408A18EE104A00EB4400B0F142
:10396000506F4AD84FF0FC40B0EB440F22D2B0EE7B
:10397000C80AF7EE000A30EEC00AF6EE000A60EE62
:10398000208A18EE900A00F039FA01EE100A14F0BD
:10399000004F1DBFDFED2D0A9FED2D0AB1EE411A3C
:1039A000DFED2C0A08BF9FED2C0AF8EE001A21EE7D
:1039B000218A05E0DFED290A68EE088AB0EE600A88
:1039C0009FED271ADFED271A30EE080A48EE811A1C
:1039D0009FED251A08EEA11ADFED241A48EE811A90
:1039E0009FED231A08EEA11A68EE281ABDEC028B8F
:1039F00001EE810A30EE200A10BD4FF0E440B0EB3A
:103A0000440F0CD918EE100AFFF76EFF042808BF08
:103A100000F0A4F9B0EE480ABDEC028B10BD4FF0E7
:103A20007F40B0EB440F07D2B0EE480ABDEC028BEA
:103A3000BDE8104000F083B90120FCF7D9FCBDECD3
:103A4000028BBDE8104000F081B900000000C9BF42
:103A500022AAFDB90000C93F22AAFD3900000000DA
:103A600024FE1C3DC78AD83C1E67383D1B93993DF8
:103A7000AFAA2A3E10EE100A10B510EE901A4FF0C1
:103A8000684202EB40032DED028BB3F1654F3CBF62
:103A900002EB4102B2F1654F7CD200BFC0F3C753C5
:103AA000C1F3C7529A1A1B2A09DD10F0004F14BF48
:103AB0009FED6E0A9FED6E0ABDEC028B10BD12F1F8
:103AC0001A0F1BDA11F0004F09D010F0004F0CBF95
:103AD0009FED680A9FED680ABDEC028B10BD80EE79
:103AE000208A18EE100AFFF7FFFE042808BF00F036
:103AF00035F9B0EE480ABDEC028B10BD4200B2EBC6
:103B0000410F37D910F0004F19BFDFED5C1A9FED60
:103B10005C1ADFED5C1A9FED5C1AB0EE602A0A4673
:103B2000F1EE400A80F00041B0EE420A10460A1A57
:103B30005200B2F1807F34D2484010F0004FDFEDE8
:103B4000532A9FED533A1DBFBEEE002A71EEE21AD2
:103B500031EE431AB6EE002A04BF71EEA21A31EE1E
:103B6000031AF0EE402A42EE602A40EE020A82EE8C
:103B7000A02A18E011F0004F04BF9FED461AF0EEA6
:103B8000411AD4D010F0004F1CBFDFED431A9FED57
:103B9000431A00E026E004BFDFED411A9FED411A11
:103BA000C5E780EE202A22EE020ADFED3F0ADFEDB4
:103BB0003F2ABDEC028B40EE202ADFED3D0A40EEAD
:103BC000220ADFED3C2A40EE202ADFED3B0A40EEE0
:103BD000220A22EE000A00EE201A31EE020A30EE2E
:103BE000210A10BD4FF07F42B2EB400F28BFB2EB6D
:103BF000410F05D2BDEC028BBDE8104000F0A2B829
:103C000040EA01035B0008BF41F0FF410BD0B2EB7B
:103C1000400F08BFB2EB410F08D120F0804000EE0A
:103C2000100A21F0804100EE901A37E7B2EB400F06
:103C300012BF5FEA410240F0FF4001F000413FF453
:103C40002DAF4A0092EA40033FF528AF002AACBFEF
:103C50009FED1A1A9FED1A1A20EE010A60EE810AF2
:103C600010EE100A10EE901A18E70000DB0FC9BF23
:103C7000DB0FC93FDB0F4940DB0F49C00000C9BF64
:103C800022AAFDB90000C93F22AAFD390060ED3E1D
:103C9000C30ACE3700000000000049C022AA7DBA46
:103CA0000000494022AA7D3A2DAD65BD8FB8D53DB3
:103CB0000FB511BE61C84C3EA8AAAABE0000804F35
:103CC0000000802F00B52DED048BB0EE409AF0EE91
:103CD000609A83B051EC190B00F0E0F941EC180B3D
:103CE00018EE100A18EE901A8DED008B002818BF00
:103CF0000120084320F00040C0F17F6000F1E04067
:103D0000C00F14D019EE101A19EE900A8DED009B19
:103D1000002918BF0121084320F00040C0F17F6056
:103D200000F1E040C00F04BF0120FCF761FBB0EEE2
:103D3000480A03B0F0EE680ABDEC048B00BD30EE1B
:103D4000000A704730EE200A70470000DFED020ADB
:103D500080EEA00A70470000000000009FED020AFC
:103D600020EE000A7047000000000010F0EE400A4C
:103D7000F6EE001A60EEA11AB0EE611AB0EE600A1B
:103D800010EE100A0749A1EB600000EE100A21EEC8
:103D9000002AF7EE081A42EE401A61EE801AB0EEE1
:103DA000610A7047DF59375F08B5FDF7DFF8FFF7A5
:103DB000C9FCFEF7F7FBFEF77FFCFEF75FFCFCF7A4
:103DC0005AFBFFF76BF90CE00648074B074A084916
:103DD00000900848FFF784FB074A111F081FFCF7F3
:103DE00079FBF1E70800002004000020000000201B
:103DF0004C000020400000206000002010B500EEC4
:103E0000100A2DED028BB1EEC08A18EE100A20F0D8
:103E10000040C0F1FF40C00F0AD010EE100A20F0A1
:103E20000040C0F1FF40C00F04BF0120FCF7E0FAE2
:103E300018EE100ABDEC028B10BD000021F000420C
:103E4000A2F16052B2F5801F01F0004328BFD2F109
:103E50007F6C0BD95FEA001C43EAC20242EB507050
:103E600018BF704728BF20F001007047B2F5801FCF
:103E7000BCBF184670474FEA410C1CF5001F02D228
:103E8000084600F04DBA70B500F0B4F800000089A3
:103E9000FFF7F6BF4FF00040A0F58000704700002C
:103EA000DFF848C170B51CEA111E1EBF1CEA1315CD
:103EB0009EEA0C0F95EA0C0F00F06F8081EA030474
:103EC00023EA4C134EEAD47E21EA4C1141F48011CE
:103ED00043F48013AE44A1FB024CA0FB0365AEF19A
:103EE0007F7E361955EB0C05A1FB034C4CF100030A
:103EF000A0FB021C16EB0C06654153F100030942BE
:103F000018BF46F0010613F4007F0BD14FEA0331CE
:103F10004FEA0530340341EA155140EA16506FF07C
:103F200003020AE04FEAC3214FEAC520F40241EA46
:103F3000555140EA56506FF0020202EB2E4201EB5F
:103F4000025585EACE710AD05FEA440C18BF24F00E
:103F5000004450F1000041F1000120EAD47040F229
:103F6000FE7C624500D270BDA84214BF4FF0804471
:103F70004FF04044002E08BF0024BEF1806FA8BF60
:103F8000A1F1C041BDE8704080F282804FF0000096
:103F900001F1C04101F0004170479EEA0C0F0CEAAC
:103FA000131518BF95EA0C0F06D04FF0000081EAF8
:103FB000030E0EF0004170BD00F01CF88900013EB8
:103FC00000F007B800F009B84FEA430C5FEA5C5C08
:103FD00008D081EA030100F05BB84FEA410C5FEAC8
:103FE0005C5CF6D14FF00000014970470000FF070C
:103FF0000000F87F0EF1020E2EF0030E5EF8046B47
:10400000364205D4012A43EB030515F5001F12D8EB
:10401000012841EB010C1CF5001F0CD80ED14FEA12
:10402000D17C15F5001F0CEB4C0C0CF1020C08BFF9
:104030004CEBD37C04E04FF0080C01E04FEAD37C5A
:104040000CEB4C0526FA05F606F00706B6F1040C53
:1040500006D20EEB860CBDE870404CF0010C6047B8
:10406000DFE80CF0090B02024FF000414FF00000B6
:10407000A1F5002170BD19461046012851EB01043D
:1040800018BFD4F5001484BF002001F0004170BDBA
:104090000808A0F500114FEA310170472DE9F04101
:1040A00001F5801CBCF5001FC0F2A9804FEA115C2D
:1040B00021EA0C510CF1FD0C41F480115FEA5C0C1B
:1040C0000CF5C07C01D34000494130A4890241EA8B
:1040D000905187028E0E0A0CA45D04FB04F602FBCD
:1040E00006F6C6F14046A4FB0662F60D46EA4226F5
:1040F00006FB06F4A4FB01235242C3F1404338BF40
:104100005B1EA6FB02420024E6FB0324D20B42EA1C
:104110004446A6FB0623A1FB02E2A3FB07E4E3FB64
:1041200061426442C2F1404E38BFAEF1010EA6FBBF
:1041300004234FF00002E6FB0E32A2FB03463400DC
:10414000E2FB6264A1FB06E6A4FB07E8E4FB61680E
:104150007642C8F1405838BFA8F10108A2FB06E436
:10416000A3FB08E5E2FB6854A1FB05E6A7FB04E816
:10417000E1FB648618F1200556F10006A809A8F1B4
:104180001B08B10908F03F08B8F10A0F40EA866041
:104190001CD901EB0C51BDE8F08100BFFCF5EEE845
:1041A000E2DDD8D3CFCBC7C3C0BDB9B6B4B1AEACD6
:1041B000A9A7A5A3A19F9D9B9A9896959392908F4E
:1041C0008D8C8B898887868584838281A0FB00689B
:1041D00000FB01F208EB4208B8EB872807D534183A
:1041E00058EB0104D5D5401C51F10001D1E7341A38
:1041F00078EB0104CDD4401E71F10001C9E75FEAFC
:104200004C0C5FEA9C5C0DD105D34FF0000001F02F
:104210000041BDE8F081BDE8F04170B5FFF7EAFE6E
:104220006DDBFFBEBDE8F0414FF000000049704774
:104230000000F87F43004FEAD30C4FEA3C0C4340A8
:104240001FBF40070CF1605113F0FE4F70471CF088
:10425000006F03D100200CF0004170470CF00043C8
:1042600043EA507010B540EACC0000F00EF800BFF1
:10427000000000924FEA0001FFF70ABF4FF0004133
:104280004FF00000A1F5002170470EF1020E2EF054
:10429000030E5EF8044B244204D44FEA4102B2F10B
:1042A0007F4F11D84FEA4003B3F17F4F0CD80ED1A6
:1042B0004FEAD07CB2F17F4F0CEB4C0C0CF1020CAE
:1042C00008BF4CEBD17C04E04FF0080C01E04FEA52
:1042D000D17C0CEB4C0324FA03F404F00704B4F192
:1042E000040C06D20EEB840CBDE810404CF0010C1F
:1042F0006047DFE80CF0070802024FF00040A0F52D
:10430000800010BD0846420018BFD2F1807288BFFD
:1043100000F0004010BD4FF04070E1EE100A704711
:10432000FF2141EAD050C0057047000000000000A6
:104330000000010203040607080900000000010252
:104340000304000064430008000000204000000057
:1043500000020008A44300084000002030070000CD
:104360001C02000800000000000000000000000027
:1043700000007A430000A0400000803F00000000E1
:10438000000000000000000000000000000000002D
:10439000000000000000000010000000010000000C
:0443A0000024F40001
:04000005080001C529
:00000001FF
