:020000040800F2
:1000000020070020650200089D2400087D1E0008CE
:1000100099240008B3040008612B000800000000C8
:10002000000000000000000000000000852A000819
:10003000B704000800000000A1240008872A000877
:100040007F0200087F0200087F0200087F0200088C
:100050007F0200087F0200087F0200087F0200087C
:100060007F0200087F0200087F0200087F0200086C
:100070007F0200087F0200087F0200087F0200085C
:100080007F0200087F0200087F0200087F0200084C
:100090007F0200087F0200087F0200087F0200083C
:1000A0007F0200087F0200087F0200087F0200082C
:1000B0007F0200087F0200087F0200087F0200081C
:1000C0007F0200087F0200087F0200087F0200080C
:1000D0007F0200087F0200087F0200087F020008FC
:1000E0007F0200087F0200087F0200087F020008EC
:1000F0007F0200087F0200087F0200087F020008DC
:100100007F0200087F0200087F0200087F020008CB
:100110007F0200087F0200087F0200087F020008BB
:100120007F0200087F0200087F0200087F020008AB
:100130007F02000800000000000000007F020008AD
:100140007F0200087F0200087F0200087F0200088B
:100150007F0200087F0200087F0200087F0200087B
:100160007F0200087F0200087F0200087F0200086B
:100170007F0200087F0200087F02000800000000E4
:10018000000000007F0200080000000000000000E6
:100190007F02000800000000000000007F0200084D
:1001A0000000000000000000000000007F020008C6
:1001B0007F0200087F0200087F0200087F0200081B
:1001C0007F02000800F002F800F03CF80AA090E876
:1001D000000C82448344AAF10107DA4501D100F002
:1001E00031F8AFF2090EBAE80F0013F0010F18BF93
:1001F000FB1A43F001031847D02A0000F02A000040
:10020000103A24BF78C878C1FAD8520724BF30C842
:1002100030C144BF04680C60704700000023002414
:1002200000250026103A28BF78C1FBD8520728BF06
:1002300030C148BF0B6070471FB502F033FD1FBDD2
:1002400010B510BD00F0CFF81146FFF7F5FF02F032
:100250000DFD00F0EDF803B4FFF7F2FF03BC00F072
:10026000F5F800000948804709480047FEE7FEE727
:10027000FEE7FEE7FEE7FEE7FEE7FEE7FEE7FEE756
:1002800004480549054A064B704700004D2B0008FD
:10029000C5010008200100202007002020030020C5
:1002A0002003002053EA020C00F069802DE9F04B96
:1002B0004FF00006002B1FBFB3FA83F503FA05F4D5
:1002C00024FA05F65E4012BF1643B2FA82F502FA2E
:1002D00005F4C5F120051EBF22FA05FC44EA0C0412
:1002E000203556EA044C4FEA144418BF641C4FF002
:1002F00000084FF00009904271EB030C39D300293C
:1003000019BFB1FA81F701FA07F6B0FA80F700FADF
:1003100007F6C7F120071EBF20FA07FC46EA0C06C5
:100320002037B6FBF4FCA7EB0507103F07F01F0BC7
:10033000CBF120060CFA0BFB2CFA06F644BFB346B1
:100340000026202FA4BF5E464FF0000B5BEA060C90
:1003500008BF4FF0010B19EB0B09ABFB027C48EB1C
:100360000608C01B06FB02CC0BFB03CC71EB0C0197
:10037000C1E70B46024641464846BDE8F08B13B53F
:100380004FF000004FF00001AFF30080BDE81C40CB
:1003900070474FF0000200B5134694469646203948
:1003A00022BFA0E80C50A0E80C50B1F12001BFF42E
:1003B000F7AF090728BFA0E80C5048BF0CC05DF894
:1003C00004EB890028BF40F8042B08BF704748BFE2
:1003D00020F8022B11F0804F18BF00F8012B704756
:1003E000704770477047754600F02CF8AE46050020
:1003F0006946534620F00700854618B020B5FFF740
:100400003FFFBDE820404FF000064FF000074FF0DF
:1004100000084FF0000B21F00701AC46ACE8C00922
:10042000ACE8C009ACE8C009ACE8C0098D4670472B
:1004300010B50446AFF300802046BDE81040FFF73A
:100440000ABF000000487047BC0000200149182086
:10045000ABBEFEE726000200704710B5B6217E2035
:1004600002F080FB322000F02BF804217D2002F006
:1004700079FB00217C2002F075FBB621142002F0EC
:10048000A5FB322000F01CF80021112002F09EFB99
:100490000021412002F066FB8C21402002F062FB2B
:1004A00002210F2002F092FB0021102002F08EFBAF
:1004B00010BD00BFFEE7704772B600BFFEE7000048
:1004C00070B5044600F008F906462546681C10B1D0
:1004D00004480078054400BF00F0FEF8801BA842E5
:1004E000FAD370BD08000020F8B502460B4600257F
:1004F000002400200021D1E0012606FA01F51E6843
:1005000006EA0504AC4274D11E7906F00306012EFA
:1005100004D01E7906F00306022E13D190684F0016
:100520000326BE40B0434F00DE68BE4030439060BB
:10053000506801268E40B0431E79C6F300168E40E7
:10054000304350601E7906F00306032E09D0D068B0
:100550004F000326BE40B0434F009E68BE4030436C
:10056000D0601E7906F00306022E13D1CF0802F1E7
:10057000200656F827004E07F70E0F26BE40B04360
:100580004F07FF0E1E69BE403043CF0802F1200620
:1005900046F8270010684F000326BE40B0431E797E
:1005A00006F003064F00BE40304310605E6806F45C
:1005B0004036002E71D000BF00260096394E3668B6
:1005C00046F48046374F3E603E46366806F4804625
:1005D000009600BF00BF344E8F0856F827008E07E4
:1005E000370F0F26BE40B043304EB24202D1002634
:1005F0001FE052E02E4EB24201D1012619E02D4EED
:10060000B24201D1022614E02B4EB24201D10326A0
:100610000FE02A4EB24201D104260AE0284EB2422F
:1006200001D1052605E0274EB24201D1062600E0A1
:1006300007268F073F0FBE4030431B4E8F0846F8FA
:100640002700214E3068A0435E6806F4801606B18C
:1006500020431D4E3060361D3068A0435E6806F4AE
:10066000001606B12043184E361D3060164E361F58
:100670003068A0435E6806F4003606B12043124E8F
:10068000361F3060361F3068A0435E6806F480363F
:1006900006B120430C4E083E3060491C1029FFF47F
:1006A0002BAFF8BD4438024008380140000002403A
:1006B0000004024000080240000C0240001002400A
:1006C0000014024000180240083C01400AB1816158
:1006D00001E00B0483617047014800687047000027
:1006E0000000002070B504460CB9012070BD94F8DC
:1006F0003D0028B9002084F83C00204600F00EFBA5
:10070000242084F83D002068006820F00100216862
:1007100008602068006840F4004021680860206894
:10072000006820F400402168086000F00FFD0546D5
:100730005C496068884206D85B48854201D2012046
:1007400007E0002005E05948854201D2012000E081
:100750000020012800D1C9E75548B5FBF0F6206814
:10076000406820F03F003043216848604D49606890
:10077000884201D8701C07E04FF4967070434FF424
:100780007A71B0FBF1F0401C2168096A21F03F0149
:1007900008432168086243496068884214D8681E8B
:1007A00061684900B0FBF1F0401CC0F30B00042865
:1007B00001D204203DE0681E61684900B0FBF1F001
:1007C000401CC0F30B0034E0A06838B9681E6168B3
:1007D00001EB4101B0FBF1F0401C0AE0681E6168CA
:1007E00001EBC10202EB0111B0FBF1F0401C40F43F
:1007F0008040C0F30B0008B901201AE0A06848B996
:10080000681E616801EB4101B0FBF1F0401CC0F3D0
:100810000B000CE0681E616801EBC10202EB0111E4
:10082000B0FBF1F0401CC0F30B0040F4804040F4FA
:1008300000402168C9694CF6FF7291430843216862
:10084000C861D4E9070108432168096821F0C001A3
:10085000084321680860D4E90310084321688968C7
:1008600048F2FF329143084321688860D4E90501CA
:1008700008432168C96821F0FF0108432168C86066
:100880002068006840F001002168086000202064B2
:10089000202084F83D000020206384F83E0000BF43
:1008A00024E70000A086010080841E0000093D00AE
:1008B00040420F002DE9F843044689461746984602
:1008C000089EFFF709FF054694F83D0020287DD1DA
:1008D00019230122B2492046009501F01BFC10B1FA
:1008E0000220BDE8F88300BF94F83C00012801D144
:1008F0000220F6E7012084F83C0000BF2068006871
:1009000000F0010028B92068006840F0010021686B
:1009100008602068006820F40060216808602220D8
:1009200084F83D00102084F83E00002020646762B7
:10093000A4F82A80608D20859A48E0622B463246D2
:100940004946204601F0BCFA08B10120C9E7208DD4
:1009500088B900BF0020009020684069009020689E
:100960008069009000BF00BF2068006840F40070FC
:100970002168086047E0208D012817D120680068B1
:1009800020F480602168086000BF0020009020688B
:100990004069009020688069009000BF00BF206817
:1009A000006840F40070216808602CE0208D022867
:1009B00018D12068006820F48060216808602068F1
:1009C000006840F400602168086000E0E6E000BFD5
:1009D00000200090206840690090206880690090A5
:1009E00000BF10E02068006840F480602168086063
:1009F00000BF002000902068406900902068806956
:100A0000009000BF00BFBAE0208D03287ED8208D63
:100A1000012815D12A463146204601F020FC08B1B4
:100A200001205EE720680069616A0870606A401C06
:100A30006062208D401E2085608D401E60859EE096
:100A4000208D02282AD1334600225749204600959E
:100A500001F060FB08B1012043E72068006840F422
:100A600000702168086020680069616A0870606A27
:100A7000401C6062208D401E2085608D401E608578
:100A800020680069616A0870606A401C6062208D9D
:100A9000401E2085608D401E608570E03346002238
:100AA00041492046009501F035FB08B1012018E7C7
:100AB0002068006820F48060216808602068006970
:100AC000616A0870606A401C6062208D401E20854B
:100AD000608D401E608533460022334920460095D4
:100AE00001F018FB08B10120FBE62068006840F423
:100AF00000702168086020680069616A0870606A97
:100B0000401C6062208D401E208500E010E0608D5A
:100B1000401E608520680069616A0870606A401C38
:100B20006062208D401E2085608D401E608526E01D
:100B30002A463146204601F092FB08B10120D0E65A
:100B400020680069616A0870606A401C6062208DDC
:100B5000401E2085608D401E608520684069C0F37E
:100B6000800060B120680069616A0870606A401C9A
:100B70006062208D401E2085608D401E6085208D26
:100B800000287FF441AF202084F83D00002084F845
:100B90003E0000BF84F83C0000BFA2E60220A0E6B1
:100BA000020010000000FFFF040001002DE9F843DF
:100BB0000446894616461F46DDF82080FFF78CFD67
:100BC000054694F83D0020287ED119230122514981
:100BD0002046009501F09EFA10B10220BDE8F8838E
:100BE00000BF94F83C00012801D10220F6E7012063
:100BF00084F83C0000BF2068006800F0010028B9BC
:100C00002068006840F001002168086020680068E2
:100C100020F4006021680860212084F83D00102045
:100C200084F83E000020206466626785608D208520
:100C30003948E0622B4642464946204601F0DCF93D
:100C400008B10120CAE700BF002000902068406979
:100C5000009020688069009000BF00BF44E02A46F1
:100C60004146204601F03BFB50B1206C042805D1E1
:100C70002068006840F40070216808600120ADE73A
:100C8000606A007821680861606A401C6062608D5B
:100C9000401E6085208D401E208520684069C0F37D
:100CA000800070B1208D60B1606A007821680861B1
:100CB000606A401C6062608D401E6085208D401E11
:100CC00020852A46414600E022E0204601F0F4F962
:100CD00050B1206C042805D12068006840F40070F1
:100CE00021680860012079E7208D0028B7D12068AD
:100CF000006840F4007021680860202084F83D00FE
:100D0000002084F83E0000BF84F83C0000BF65E787
:100D1000022063E7020010000000FFFF10B586B05C
:100D20000446142101A8FFF734FB1B4920688842C0
:100D30002FD100BF002000901848006840F002004A
:100D4000164908600846006800F00200009000BFE5
:100D500000BFC020019012200290002003900320C9
:100D600004900420059001A90D48FFF7BDFB00BFCA
:100D70000020009009481030006840F40010074936
:100D8000103108600846006800F40010009000BFB1
:100D900000BF06B010BD00000054004030380240D3
:100DA00000040240034800680349097808440149E7
:100DB00008607047000000200800002010B50D48B2
:100DC000006840F400700B4908600846006840F471
:100DD000806008600846006840F480700860032066
:100DE00000F092F80F2000F007F800F02BF8002038
:100DF00010BD0000003C024070B504460E4800786B
:100E00004FF47A71B1FBF0F00C490968B1FBF0F5D1
:100E1000284601F019F808B1012070BD102C07D246
:100E200000222146501E00F031F80548046001E020
:100E30000120F2E70020F0E7080000200C0000206D
:100E40000400002008B500BF002000900E48006894
:100E500040F480400C4908600846006800F4804077
:100E6000009000BF00BF00BF00200090081F006876
:100E700040F08050091F08600846006800F080506C
:100E8000009000BF00BF08BD443802402DE9F05F6C
:100E900080460D461646002701F0CCFE074639462F
:100EA0002A46334601F00700C0F1070ABAF1040FE1
:100EB00002D94FF0040A01E0C0F1070AD14600F15F
:100EC000040ABAF1070F02D24FF0000A01E0A0F1C4
:100ED000030AD4464FF0010A0AFA09FAAAF1010AF4
:100EE0000AEA020A0AFA0CFA4FF0010B0BFA0CFBA1
:100EF000ABF1010B0BEA030B4AEA0B042146404617
:100F000001F0A0FEBDE8F09F00BF00F00702064B15
:100F100019684FF6FF031940044B0B4343EA0221C3
:100F2000014B196000BF70470CED00E00000FA05AE
:100F300038B5002400BF002000901D48006840F034
:100F400080501B4908600846006800F080500090FF
:100F500000BF00BF012017490864FFF7BDFB04462E
:100F600007E0FFF7B9FB001BB0F57A7F01D903203A
:100F700038BD1148406800F48030B0F5803FF0D1B2
:100F800001200C494864FFF7A7FB044607E0FFF780
:100F9000A3FB001BB0F57A7F01D90320E8E70648E0
:100FA000406800F40030B0F5003FF0D10020DFE7EA
:100FB0004038024000000E420070004070B5044608
:100FC0000D460CB9012070BD5848006800F00F00B4
:100FD000A84209D255490D700846006800F00F007C
:100FE000A84201D00120EEE7207800F0020002289C
:100FF0001DD1207800F00400042805D14C48006879
:1010000040F4E0504A490860207800F008000828C1
:1010100005D14748006840F46040454908604448AD
:10102000006820F0F000A16808434149086020787A
:1010300000F00100A8B36068012807D13C480838D7
:101040000068C0F34040B8B90120BCE760680228DE
:1010500002D06068032807D1354808380068C0F31B
:10106000406048B90120AEE7314808380068C0F355
:10107000400008B90120A6E72D48006820F00300D1
:10108000616808432A490860FFF726FB064609E025
:10109000FFF722FB801B41F28831884202D90320EE
:1010A00091E707E02248006800F00C006168B0EBAF
:1010B000810FEDD11D48006800F00F00A84209D94A
:1010C0001A490D700846006800F00F00A84201D0D0
:1010D000012078E7207800F00400042807D11448A4
:1010E000006820F4E050E168084311490860207866
:1010F00000F00800082808D10D48006820F460407E
:10110000216940EAC1000A49086000F02FF8084947
:101110000968C1F30311074A515CC84006490860D9
:1011200006480068FFF768FE00204CE7003C0240DC
:1011300008380240AE2C00080C00002004000020FB
:1011400001480068704700000C00002000B5FFF760
:10115000F7FF04490968C1F38221034A515CC84082
:1011600000BD000008380240BE2C00082DE9F04701
:10117000002400250026A146A2463F48006800F052
:101180000C0030B1042807D0082808D00C286BD1F7
:1011900038E0DFF8E8A06AE0DFF8E4A067E036486E
:1011A000001F006800F03F043348001F006800F48F
:1011B000800078B132483049091F0968C1F38811AD
:1011C000A0FB01700146224600233846FFF76AF86B
:1011D00005460DE029482849091F0968C1F388110F
:1011E000A0FB0171224600233846FFF75BF8054655
:1011F0002148001F0068C0F30140401C4600B5FBB9
:10120000F6FA34E01C48001F006800F03F041A485A
:10121000001F006800F4800078B119481649091FC2
:101220000968C1F38811A0FB017001462246002322
:101230003846FFF737F805460EE010480E49091FFB
:101240000968C1F38811A0FB017001462246002302
:101250003846FFF727F805460748001F0068C0F327
:101260000279B5FBF9FA02E0DFF810A000BF00BF79
:101270005046BDE8F0870000083802400024F40022
:1012800000127A00F8B504460CB90120F8BD2078A8
:1012900000F0010000286FD0FE48006800F00C004C
:1012A00004281BD0FB48006800F00C00082807D178
:1012B000F848001F006800F48000B0F5800F0DD0E2
:1012C000F448006800F00C000C2813D1F148001F0E
:1012D000006800F48000B0F5800F0BD1ED480838AD
:1012E0000068C0F34040002859D06068002856D1FB
:1012F0000120CBE700BF6068B0F5803F08D1E5482A
:101300000838006840F48030E249083908601EE07F
:101310006068B0F5A02F0DD1DE480838006840F4B1
:101320008020DC49083908600846006840F48030B5
:1013300008600CE0D7480838006820F48030D549B0
:10134000083908600846006820F48020086000BF63
:10135000606890B1FFF7C0F9054606E0FFF7BCF9F9
:10136000401B642801D9032090E7CA480838006868
:10137000C0F340400028F1D011E0FFF7ADF9054679
:1013800006E0FFF7A9F9401B642801D903207DE797
:10139000C04808380068C0F340400028F1D12078E8
:1013A00000F0020002286BD1BA48006800F00C007F
:1013B000B8B1B848006800F00C00082805D1B5485D
:1013C000001F006800F4800058B1B248006800F0C7
:1013D0000C000C281CD1AF48001F006800F48000EE
:1013E000B0B9AC4808380068C0F3400020B1E068EC
:1013F000012801D0012049E7A6480838006820F0FC
:10140000F800216940EAC100A2490839086037E0C4
:10141000E06800B30120A0490860FFF75DF90546C8
:1014200006E0FFF759F9401B022801D903202DE7F8
:10143000984808380068C0F340000028F1D095486B
:101440000838006820F0F800216940EAC10091499D
:101450000839086014E000208F490860FFF73CF964
:10146000054606E0FFF738F9401B022801D90320A2
:101470000CE7884808380068C0F340000028F1D124
:10148000207800F0080008282CD16069A8B101205C
:1014900082490860FFF720F9054606E0FFF71CF9CE
:1014A000401B022801D90320F0E67A486C3000681E
:1014B000C0F340000028F1D014E000207749086014
:1014C000FFF70AF9054606E0FFF706F9401B022878
:1014D00001D90320DAE66F486C300068C0F34000A1
:1014E0000028F1D1207800F00400042870D10027F2
:1014F00068483830006800F0805090B900BF002084
:10150000009064483830006840F0805061493831BC
:1015100008600846006800F08050009000BF00BFDF
:1015200001275F48006800F48070B0B95C4800682B
:1015300040F480705A490860FFF7CEF8054606E08F
:10154000FFF7CAF8401B022801D903209EE6544841
:10155000006800F480700028F2D000BFA068012865
:1015600008D14C486830006840F0010049496831B2
:1015700008601DE0A06805280DD146486830006865
:1015800040F004004349683108600846006840F0B4
:10159000010008600CE03F486830006820F001005E
:1015A0003C49683108600846006820F00400086083
:1015B00000BFA068A8B1FFF78FF8054609E0FFF764
:1015C0008BF8401B41F28831884202D903205DE646
:1015D00026E0304868300068C0F340000028EED0B4
:1015E00013E0FFF779F8054608E0FFF775F8401BB0
:1015F00041F28831884201D9032047E62548683006
:101600000068C0F340000028EFD1012F07D1214826
:101610003830006820F080501E493831086000BF23
:10162000A069002851D01B48006800F00C00082871
:1016300061D0A069022849D1002017490866FFF748
:101640004BF8054606E0FFF747F8401B022801D992
:1016500003201BE60F4808380068C0F340600028EC
:10166000F1D1D4E907010843616A40EA81110122FE
:10167000A06AC2EB500041EA00412C20005D41EA23
:1016800000613020005D41EA00700249091F0860D6
:10169000012007E00838024000004742800E474220
:1016A000007000402F490866FFF716F8054606E06F
:1016B000FFF712F8401B022801D90320E6E52A486B
:1016C0000068C0F340600028F2D048E000202549BF
:1016D0000866FFF701F8054606E0FEF7FDFF401B30
:1016E000022801D90320D1E51F480068C0F34060FB
:1016F0000028F2D133E0A069012800D1C6E51A48DC
:10170000001D0668A069012827D006F48001E06961
:10171000814222D106F03F01206A81421DD147F665
:10172000C0703040616AB0EB811F16D106F44031C1
:101730000122A06AC2EB5000B1EB004F0DD106F0C0
:1017400070612C20005DB1EB006F06D106F0E04126
:101750003020005DB1EB007F01D0012096E5002034
:1017600094E500000000474200380240014691F82D
:101770005100704710B504460CB9012010BD606AD5
:1017800038B96068B0F5827F00D105E00021E161E1
:1017900002E00021216161610021A16294F8510001
:1017A00028B9002084F85000204600F047F80220B5
:1017B00084F851002068006820F04000216808602B
:1017C000A08800F48270218901F404410843A189B2
:1017D00001F400610843217C01F002010843217DEE
:1017E00001F001010843218B01F400710843217FBE
:1017F00001F0380108432021095D01F08001084310
:10180000218D01F400510843216808600421A0697A
:1018100001EA104094F8241001F0100108432168F7
:1018200048602068C06920F400602168C861002019
:101830006065012084F8510000209FE710B586B054
:101840000446142101A8FEF7A4FD29492068884216
:101850004CD100BF002000902648006840F4805022
:10186000244908600846006800F48050009000BFDA
:1018700000BF00BF002000901E481438006840F0F0
:1018800001001C49143908600846006800F0010096
:10189000009000BF00BF00BF002000900846006815
:1018A00040F0020008600846006800F00200009066
:1018B00000BF00BF20200190022002900020039072
:1018C000032004900520059001A90B48FEF70CFEAB
:1018D0003020019002200290002003900320049009
:1018E0000520059001A90548FEF7FEFD06B010BDD4
:1018F0000030014044380240000002400004024031
:101900002DE9F8430446884616461D464FF0000967
:101910006068B0F5827F0DD1A06858B9042084F8C2
:1019200051003346424641462046009500F077F983
:10193000BDE8F88300BF94F85000012801D10220CF
:10194000F6E7012084F8500000BFFEF7C5FE074609
:1019500094F85100012802D04FF002097EE0B8F15E
:10196000000F00D016B94FF0010977E0042084F889
:10197000510000206065C4F83880A687E6872063A0
:10198000A086E08620646064A068B0F5004F0BD1AB
:101990002068006820F04000216808602068006826
:1019A00020F48040216808602068006800F0400052
:1019B000402805D02068006840F040002168086099
:1019C000E068F8B91AE02068806800F0010050B1C2
:1019D0002068007BA16B0870A06B401CA063E08FA7
:1019E000401EE0870AE0FEF777FEC01BA84201D345
:1019F000681C00B915B94FF003092FE0E08F0028EB
:101A0000E1D11EE01AE02068806800F0010050B1CA
:101A10002068C068A16B0880A06B801CA063E08F69
:101A2000401EE0870AE0FEF757FEC01BA84201D324
:101A3000681C00B915B94FF003090FE0E08F0028CA
:101A4000E1D13A462946204600F030FF08B1202077
:101A50006065606D08B14FF0010900BF012084F896
:101A6000510000BF002084F8500000BF48465FE7E7
:101A70002DE9F84F0446884616461D464FF0000AE9
:101A800000BF94F85000012802D10220BDE8F88F71
:101A9000012084F8500000BFFEF71EFE0746B14645
:101AA00094F85100012802D04FF0020AADE0B8F1DD
:101AB000000F00D016B94FF0010AA6E0032084F809
:101AC000510000206065C4F83080A686E686A063D9
:101AD000A087E08760642064A068B0F5004F0BD158
:101AE0002068006820F040002168086020680068D5
:101AF00040F48040216808602068006800F04000E1
:101B0000402805D02068006840F040002168086047
:101B1000E068B0F5006F2FD1606810B1B9F1010F26
:101B200009D1206B00882168C860206B801C20636D
:101B3000E08E401EE0861BE02068806800F0020016
:101B400002280AD1206B00882168C860206B801CA5
:101B50002063E08E401EE0860AE0FEF7BDFDC01B5C
:101B6000A84201D3681C00B915B94FF0030A4CE034
:101B7000E08E0028E0D12EE0606810B1B9F1010FCD
:101B800009D1206B007821680873206B401C20630A
:101B9000E08E401EE0861BE02068806800F00200B6
:101BA00002280AD1206B007821680873206B401C42
:101BB0002063E08E401EE0860AE0FEF78DFDC01B2C
:101BC000A84201D3681C00B915B94FF0030A1CE004
:101BD000E08E0028E0D13A462946204600F0B0FECB
:101BE00008B120206065A06850B900BF00200090B7
:101BF0002068C068009020688068009000BF00BF27
:101C0000606D08B14FF0010A00BF012084F8510057
:101C100000BF002084F8500000BF504636E72DE991
:101C2000FF5F0446884691461D460E9E01200290A5
:101C30000020019000BF94F85000012803D1022039
:101C400004B0BDE8F09F012084F8500000BFFEF70B
:101C500043FD074694F851B060680390AA46BBF173
:101C6000010F0BD00398B0F5827F04D1A06810B9A2
:101C7000BBF1040F02D002200190DBE0B8F1000FAD
:101C800003D0B9F1000F00D015B901200190D1E0C7
:101C900094F85100042802D0052084F85100002057
:101CA0006065C4F83890E587A587C4F83080E5867C
:101CB000A586206460642068006800F04000402829
:101CC00005D02068006840F0400021680860E068A6
:101CD000B0F5006F4AD1606810B1BAF1010F09D1B7
:101CE000206B00882168C860206B801C2063E08E18
:101CF000401EE08633E02068806800F00200022881
:101D000010D1E08E70B1029801280BD1206B0088B1
:101D10002168C860206B801C2063E08E401EE08636
:101D2000002002902068806800F0010068B1E08F18
:101D300058B12068C068A16B0880A06B801CA063AC
:101D4000E08F401EE08701200290FEF7C5FCC01B1B
:101D5000B04204D3701C10B1032001906AE0E08E01
:101D60000028C8D1E08F0028C5D14AE0606810B1D2
:101D7000BAF1010F09D1206B007821680873206B3C
:101D8000401C2063E08E401EE08634E020688068BE
:101D900000F00200022810D1E08E70B102980128F4
:101DA0000BD1206B007821680873206B401C2063E6
:101DB000E08E401EE086002002902068806800F0DF
:101DC000010068B1E08F58B12068C068A16B08704D
:101DD000A06B401CA063E08F401EE08701200290B2
:101DE000FEF77AFCC01BB04201D3701C00B916B9D3
:101DF000032001901EE0E08E0028C7D1E08F00286C
:101E0000C4D13A463146204600F09AFD20B1012067
:101E10000190202060650DE0A06850B900BF00204F
:101E200000902068C068009020688068009000BF23
:101E300000BF00BF012084F8510000BF002084F8DB
:101E4000500000BF0198FBE670B504462546681EA9
:101E5000B0F1807F01D301200FE0681E4FF0E02138
:101E600048610F214FF0FF3000F0ECFE00204FF0F2
:101E7000E021886107200861002070BD00BFFEE7F7
:101E8000014608684069C0F38020B0B16FF48060FB
:101E90000A68506100200863202081F83D0000207E
:101EA00081F83E00086C40F00400086400BF002088
:101EB00081F83C0000BF012070470020FCE70000D3
:101EC0002DE9F84304460D4690461E46E76A206811
:101ED000006840F4806021680860082F04D0012F5A
:101EE00002D017F5803F06D12068006840F480706A
:101EF0002168086008E0206B112805D1206800687F
:101F000040F4807021680860434600224FF00111C0
:101F10002046009600F0FEF860B12068006800F4EA
:101F20008070B0F5807F02D14FF4007020640320F0
:101F3000BDE8F8832069B0F5804F05D1E8B240F0E4
:101F400001002168086149E005F44070F02141EA90
:101F5000E01021680861334642462649204600F0D9
:101F60001CF908B10120E3E7E8B2216808613346B3
:101F700042462049891F204600F00FF908B1012090
:101F8000D6E700BF002000902068406900902068DC
:101F90008069009000BF00BF2068006840F4807036
:101FA00021680860434600224FF001112046009648
:101FB00000F0B0F858B12068006800F48070B0F507
:101FC000807F02D14FF4007020640320B0E705F455
:101FD0004070F12141EAE010216808613346424631
:101FE0000449891F204600F0D8F808B101209FE776
:101FF00000209DE7080001002DE9F84304460D4646
:1020000017469846E66A082E04D0012E02D016F52F
:10201000803F06D12068006840F480702168086025
:1020200008E0206B122805D12068006840F4807019
:10203000216808603B4600224FF001112046CDF890
:10204000008000F067F860B12068006800F48070DC
:10205000B0F5807F02D14FF4007020640320BDE80A
:10206000F8832069B0F5804F04D105F0FE002168A7
:10207000086112E005F44070F02141EAE0102168A7
:10208000086143463A460B49204600F086F808B1FD
:102090000120E4E7E8B22168086143463A46054971
:1020A000891F204600F079F808B10120D7E7002009
:1020B000D5E700000800010070B504460D4616463D
:1020C00020E02046FFF7DCFE08B1012070BD681C4F
:1020D000C0B1FEF701FB801BA84200D895B90020D3
:1020E0002063202084F83D00002084F83E00206C0E
:1020F00040F02000206400BF002084F83C0000BFB6
:102100000120E3E720684069C0F380000028D8D0B0
:102110000020DBE72DE9F04104460D4617461E4638
:10212000DDF818801CE0701CD0B1FEF7D5FAA0EBEA
:102130000800B04200D89EB900202063202084F817
:102140003D00002084F83E00206C40F02000206418
:1021500000BF002084F83C0000BF0120BDE8F081F2
:10216000C5F3074001280AD120684069A9B2084098
:10217000A9B2884201D101200BE0002009E02068CB
:102180008069A9B20840A9B2884201D1012000E0CB
:102190000020B842C7D00020E0E72DE9F041044616
:1021A0000D4616461F463DE020684069C0F380207A
:1021B000E8B12068006840F40070216808606FF49E
:1021C00080602168486100202063202084F83D0061
:1021D000002084F83E00206C40F00400206400BF22
:1021E000002084F83C0000BF0120BDE8F081701C95
:1021F000C0B1FEF771FAC01BB04200D896B90020FA
:102200002063202084F83D00002084F83E00206CEC
:1022100040F02000206400BF002084F83C0000BF94
:102220000120E2E7C5F3074001280AD12068406990
:10223000A9B20840A9B2884201D101200BE00020D8
:1022400009E020688069A9B20840A9B2884201D19A
:10225000012000E000200028A6D00020C5E770B5CE
:1022600004460D46164632E020684069C0F300106F
:10227000A0B16FF010002168486100202063202089
:1022800084F83D00002084F83E00206C206400BFEC
:10229000002084F83C0000BF012070BDFEF71CFA4E
:1022A000801BA84200D895B900202063202084F824
:1022B0003D00002084F83E00206C40F020002064A7
:1022C00000BF002084F83C0000BF0120E5E7206843
:1022D0004069C0F380100028C6D00020DDE770B54B
:1022E00004460D46164620E02046FFF7C9FD08B11A
:1022F000012070BD681CC0B1FEF7EEF9801BA8423A
:1023000000D895B900202063202084F83D000020EB
:1023100084F83E00206C40F02000206400BF0020C4
:1023200084F83C0000BF0120E3E720684069C0F367
:10233000C0100028D8D00020DBE7000000B587B02F
:10234000142102A8FEF725F800BF002001902E48B6
:10235000006840F004002C4908600846006800F05E
:102360000400019000BF00BF00BF0020019008469C
:10237000006840F0800008600846006800F08000B7
:10238000019000BF00BF00BF002001900846006818
:1023900040F0010008600846006800F0010001906C
:1023A00000BF00BF00BF002001900846006840F059
:1023B000020008600846006800F00200019000BFBB
:1023C00000BF012210211148FEF780F901221021DF
:1023D0000F48FEF77BF910200290012003900020A7
:1023E0000490059002A90948FEF77EF8102002909B
:1023F0000120039000200490059002A90448FEF7F4
:1024000073F807B000BD0000303802400000024001
:102410000008024010B50B480B4908600B484860A3
:10242000002109488160C1604FF4804101610021B1
:1024300041618161C1610162FEF754F908B1FEF7A3
:102440003BF810BD0054004010000020A0860100A1
:1024500010B50F480F4908604FF4827048600021A2
:102460000C488160C1600221016101214161490282
:1024700081612021C16100210162416281620A21E2
:10248000C162FFF777F908B1FEF716F810BD00003A
:10249000003001406400002000BFFEE700BFFEE7FF
:1024A000704700001CB509208DF804001D208DF830
:1024B00005004FF0FF30022301AA342100900248AA
:1024C000FEF774FB1CBD0000100000207FB506461F
:1024D0000C46154600200390401E012303AA342118
:1024E00000901248FEF762FB4FF0FF30062301AA6E
:1024F000342100900D48FEF7DDF99DF804009DF8A9
:10250000051040EA012000B230809DF806009DF8D9
:10251000071040EA012000B220809DF808009DF8D5
:10252000091040EA012000B228807FBD1000002081
:1025300010B586B0044603A9412000F04BF904AA67
:102540000621122000F0C4F89DF810009DF811102B
:1025500000EB012000B2ADF804009DF812009DF8D8
:10256000131000EB012000B2ADF806009DF8140036
:102570009DF8151000EB012000B2ADF80800BDF980
:10258000040000EE100AB8EEC00ADFED100A20EEDB
:10259000200A84ED000ABDF9060000EE100AB8EE2C
:1025A000C00ADFED0A0A20EE200A84ED010ABDF917
:1025B000080000EE100AB8EEC00ADFED040A20EEB3
:1025C000200A84ED020A06B010BD0000E7416B3A14
:1025D00010B52DED028B86B0044603A90F2000F044
:1025E00035F99DF80C00052813D2DFE800F003064A
:1025F000090C0F009FED308A0EE09FED308A0BE052
:102600009FED2F8A08E09FED2F8A05E09FED2E8A2F
:1026100002E09FED298A00BF00BF04AA0621022024
:1026200000F09EF89DF810009DF8111000EB0120BD
:1026300000B2ADF804009DF812009DF8131000EBF5
:10264000012000B2ADF806009DF814009DF81510A9
:1026500000EB012000B2ADF80800BDF9040000EE67
:10266000100AB8EEC00AC0EE080A9FED180A20EE64
:10267000800A84ED000ABDF9060000EE100AB8EEEB
:10268000C00AC0EE080A9FED110A20EE800A84ED10
:10269000010ABDF9080000EE100AF8EEC00A80EE4B
:1026A000880ADFED0A0A20EE200A84ED020A06B04D
:1026B000BDEC028B10BD00006F1283416F1203420C
:1026C0006F1283426F1203436F12834335FA8E3CBD
:1026D0002DE9FC4105460E461746002210211E48F2
:1026E000FDF7F4FF45F0800001904FF47A7301226A
:1026F00001A91A48FFF7BCF900BF1848FFF736F8E0
:102700000328FAD04FF47A73012269461348FFF781
:10271000F7F800BF1148FFF729F80428FAD0002481
:1027200010E04FF47A73012269460C48FFF7E8F88D
:1027300000BF0A48FFF71AF80428FAD09DF80000F5
:102740003855641CB442ECDB012210210248FDF72D
:10275000BDFFBDE8FC8100000000024064000020D5
:102760002DE9FC4105460E46174600221021174868
:10277000FDF7ACFF45F0800001904FF47A73012221
:1027800001A91348FFF774F900BF1148FEF7EEFFE7
:102790000328FAD0002410E04FF47A73012269462E
:1027A0000B48FFF7ADF800BF0948FEF7DFFF04282C
:1027B000FAD09DF800003855641CB442ECDB0122CD
:1027C00010210248FDF782FFBDE8FC8100080240AD
:1027D0006400002038B504460D4600221021194837
:1027E000FDF774FF44F0800000904FF47A730122EB
:1027F00069461548FFF73CF900BF1348FEF7B6FFDE
:102800000328FAD04FF47A73012229460E48FFF7C5
:1028100077F800BF0C48FEF7A9FF0428FAD04FF460
:102820007A73012229460848FFF76AF800BF064874
:10283000FEF79CFF0428FAD0012210210148FDF781
:1028400045FF38BD000002406400002038B5044652
:102850000D46002210211348FDF738FF44F0800098
:1028600000904FF47A73012269460F48FFF700F990
:1028700000BF0D48FEF77AFF0328FAD04FF47A73B1
:10288000012229460848FFF73BF800BF0648FEF73B
:102890006DFF0428FAD0012210210248FDF716FF2F
:1028A00038BD00000008024064000020F8B504466E
:1028B0000E4615466068B0F5827F0DD1A068B0F570
:1028C000004F03D0A068B0F5806F05D12068006884
:1028D00020F04000216808606068B0F5827F1FD159
:1028E000A068B0F5806F0DD03346002280212046CD
:1028F000009500F05BF808B3606D40F02000606563
:102900000320F8BD3346002201212046009500F047
:102910004DF898B1606D40F0200060650320F0E74D
:102920003346002201212046009500F03FF828B1EF
:10293000606D40F0200060650320E2E70020E0E7E2
:102940007CB504460D461646164800681821B0FBB3
:10295000F1F01549B0FBF1F04FF47A714843019062
:102960006068B0F5827F0DD12B4600228021204681
:10297000009600F01BF898B1606D40F02000606593
:1029800003207CBD00BF019800B908E00198401EFB
:10299000019020688068C0F3C0100028F3D100BF08
:1029A0000020EEE70C00002040420F002DE9F84F18
:1029B00004460D4690461E46DDF82890FDF78CFE35
:1029C000A0EB0900371AFDF787FE82462C48006805
:1029D000C0F3CB307843009045E0701C002842D013
:1029E000FDF77AFEA0EB0A00B84200D2A7BB206830
:1029F000406820F0E000216848606068B0F5827FA0
:102A00000DD1A068B0F5004F03D0A068B0F5806F7D
:102A100005D12068006820F0400021680860A06AA5
:102A2000B0F5005F0DD100BF2068006820F40050B1
:102A3000216808602068006840F400502168086040
:102A400000BF012084F8510000BF002084F850002E
:102A500000BF0320BDE8F88FFFE7009800B900270A
:102A60000098401E0090206880682840A84201D14C
:102A7000012000E000204045AFD10020EAE700003F
:102A80000C000020704710B5FEF78CF910BD000057
:102A900000B593B0342106A8FDF77BFC142101A8F2
:102AA000FDF777FC00BF002000902648006840F04A
:102AB0008050244908600846006800F0805000906B
:102AC00000BF00BF00BF002000901F48006840F416
:102AD00040401D4908600846006800F440400090EE
:102AE00000BF00BF012006900004079002200C9058
:102AF00041050D9104210E91B4210F9102211091F5
:102B00001191129106A8FEF7BDFB08B1FDF7D4FCA8
:102B1000FEF70EFA08B1FDF7CFFC0F20019002205E
:102B20000290002003904FF4A05004904FF4805086
:102B30000590052101A8FEF741FA08B1FDF7BCFC9C
:102B400013B000BD403802400070004003480068E8
:102B500040F47000014908607047000088ED00E013
:102B600000BFFEE738B504460D4600221021154887
:102B7000FDF7ACFD04F07F0000904FF47A73012262
:102B800069461148FEF774FF00BF0F48FEF7EEFDDF
:102B90000328FAD000954FF47A73012269460A4857
:102BA000FEF766FF00BF0848FEF7E0FD0328FAD0F5
:102BB0000120FDF785FC012210210248FDF786FD6A
:102BC00038BD0000000002406400002038B5044613
:102BD0000D46002210211548FDF778FD04F07F0016
:102BE00000904FF47A73012269461148FEF740FFC6
:102BF00000BF0F48FEF7BAFD0328FAD000954FF446
:102C00007A73012269460A48FEF732FF00BF08487E
:102C1000FEF7ACFD0328FAD0012210210348FDF78E
:102C200055FD0120FDF74CFC38BD000000080240B6
:102C30006400002002480068C0F3022070470000D2
:102C40000CED00E010B5002804DB0A07130E054A5E
:102C5000135406E00A07140E034A00F00F031B1F6B
:102C6000D45410BD00E400E018ED00E08AB0FEF797
:102C7000A5F8FFF70DFFFFF761FBFFF7E9FBFFF793
:102C8000C9FBFDF7EAFBFFF70DFC0AE007A8FFF719
:102C90004FFC04A8FFF79CFC01AA02A903A8FFF7B8
:102CA00015FCF3E74FF04070E1EE100A70470000AA
:102CB00000000000000001020304060708090000EC
:102CC0000000010203040000E82C000800000020BE
:102CD0001000000000020008F82C0008100000207E
:102CE000100700001C020008000000001000000097
:082CF000010000000024F400C3
:04000005080001C529
:00000001FF
