:020000040800F2
:100000007007002029020008791E0008E51C00087E
:10001000751E00083B0400089D1E0008000000003B
:100020000000000000000000000000007F1E00082B
:100030003F040008000000007D1E0008811E00082B
:10004000430200084302000843020008430200087C
:10005000430200084302000843020008430200086C
:10006000430200084302000843020008430200085C
:10007000430200084302000843020008430200084C
:10008000430200084302000843020008430200083C
:10009000430200084302000843020008430200082C
:1000A000430200084302000843020008430200081C
:1000B000430200084302000843020008430200080C
:1000C00043020008430200084302000843020008FC
:1000D00043020008430200084302000843020008EC
:1000E00043020008430200084302000843020008DC
:1000F00043020008430200084302000843020008CC
:1001000043020008430200084302000843020008BB
:1001100043020008430200084302000843020008AB
:10012000430200084302000843020008430200089B
:10013000430200084302000843020008430200088B
:10014000430200084302000843020008430200087B
:10015000430200084302000843020008430200086B
:10016000430200084302000843020008430200085B
:100170004302000843020008430200080000000098
:10018000430200084302000800F002F800F03CF8C7
:100190000AA090E8000C82448344AAF10107DA45E2
:1001A00001D100F031F8AFF2090EBAE80F0013F0F8
:1001B000010F18BFFB1A43F001031847DC3D000094
:1001C000FC3D0000103A24BF78C878C1FAD8520725
:1001D00024BF30C830C144BF04680C6070470000C1
:1001E0000023002400250026103A28BF78C1FBD840
:1001F000520728BF30C148BF0B6070471FB503F0DE
:10020000B4FE1FBD10B510BD00F0E2F81146FFF7B7
:10021000F5FF03F0C7FC00F000F903B4FFF7F2FFAD
:1002200003BC00F003F90000094880470948004773
:10023000FEE7FEE7FEE7FEE7FEE7FEE7FEE7FEE796
:10024000FEE7FEE704480549054A064B70470000F3
:10025000891E000889010008700100207007002035
:10026000700300207003002053EA020C00F0698044
:100270002DE9F04B4FF00006002B1FBFB3FA83F5BA
:1002800003FA05F424FA05F65E4012BF1643B2FAEB
:1002900082F502FA05F4C5F120051EBF22FA05FC1D
:1002A00044EA0C04203556EA044C4FEA144418BFC3
:1002B000641C4FF000084FF00009904271EB030CF2
:1002C00039D3002919BFB1FA81F701FA07F6B0FA5C
:1002D00080F700FA07F6C7F120071EBF20FA07FCD7
:1002E00046EA0C062037B6FBF4FCA7EB0507103FE7
:1002F00007F01F0BCBF120060CFA0BFB2CFA06F6CD
:1003000044BFB3460026202FA4BF5E464FF0000B2B
:100310005BEA060C08BF4FF0010B19EB0B09ABFBB6
:10032000027C48EB0608C01B06FB02CC0BFB03CC8F
:1003300071EB0C01C1E70B46024641464846BDE859
:10034000F08B13B54FF000004FF00001AFF30080C9
:10035000BDE81C4070474FF0000200B513469446BC
:100360009646203922BFA0E80C50A0E80C50B1F10D
:100370002001BFF4F7AF090728BFA0E80C5048BF21
:100380000CC05DF804EB890028BF40F8042B08BFBF
:10039000704748BF20F8022B11F0804F18BF00F8BB
:1003A000012B704770477047704710B500F008F890
:1003B000006810BD10B5044600F002F8046010BDDE
:1003C00000487047100100200048704710010020CD
:1003D0007546FFF7F9FFAE4605006946534620F023
:1003E0000700854618B020B5FFF72CFFBDE8204078
:1003F0004FF000064FF000074FF000084FF0000BE1
:1004000021F00701AC46ACE8C009ACE8C009ACE893
:10041000C009ACE8C0098D46704710B50446AFF37B
:1004200000802046BDE81040FFF7F7BE01491820C4
:10043000ABBEFEE726000200704700BFFEE7704734
:1004400072B600BFFEE7000070B5044600F00EF97A
:1004500006462546681C10B104480078054400BFD4
:1004600000F004F9801BA842FAD370BD2C000020D4
:10047000F8B502460B460025002400200021D5E0F7
:10048000012606FA01F51E6806EA0504AC4273D19E
:100490001E7906F00306012E04D01E7906F003062D
:1004A000022E13D190684F000326BE40B0434F0088
:1004B000DE68BE4030439060506801268E40B043F5
:1004C0001E79C6F300168E40304350601E7906F048
:1004D0000306032E09D0D0684F000326BE40B04368
:1004E0004F009E68BE403043D0601E7906F0030680
:1004F000022E13D1CF0802F1200656F827004E072E
:10050000F70E0F26BE40B0434F07FF0E1E69BE40D8
:100510003043CF0802F1200646F8270010684F004C
:100520000326BE40B0431E7906F003064F00BE40CE
:10053000304310605E6806F44036002E75D000BF70
:10054000002600963B4E366846F48046394F3E60A2
:100550003E46366806F48046009600BF364E8F0849
:1005600056F827008E07370F0F26BE40B043334E94
:10057000B24202D1002624E057E0314EB24201D10E
:1005800001261EE02F4EB24201D1022619E02E4E66
:10059000B24201D1032614E02C4EB24201D104260E
:1005A0000FE02B4EB24201D105260AE0294EB2429D
:1005B00001D1062605E0284EB24201D1072600E00F
:1005C00008268F073F0FBE4030431B4E8F0846F86A
:1005D0002700224E3068A0435E6806F4801606B1FC
:1005E00020431E4E3060361D3068A0435E6806F41E
:1005F000001606B12043194E361D3060174E361FC7
:100600003068A0435E6806F4003606B12043134EFE
:10061000361F3060361F3068A0435E6806F48036AF
:1006200006B120430D4E083E3060491C1029FFF4EE
:1006300027AFF8BD443802400838014000000240AE
:100640000004024000080240000C0240001002407A
:100650000014024000180240001C0240083C014007
:100660000AB1816101E00B048361704701480068B1
:10067000704700002400002070B504460CB901202A
:1006800070BD94F83D0028B9002084F83C00204655
:1006900000F002FB242084F83D002068006820F070
:1006A0000100216808602068006840F4004021686B
:1006B00008602068006820F400402168086000F0AD
:1006C000D7FC05465C496068884206D85B4885428D
:1006D00001D2012007E0002005E05948854201D2FF
:1006E000012000E00020012800D1C9E75548B5FBF2
:1006F000F0F62068406820F03F00304321684860F1
:100700004D496068884201D8701C07E04FF496702C
:1007100070434FF47A71B0FBF1F0401C2168096A14
:1007200021F03F010843216808624349606888421C
:1007300014D8681E61684900B0FBF1F0401CC0F39A
:100740000B00042801D204203DE0681E61684900C6
:10075000B0FBF1F0401CC0F30B0034E0A06838B9E6
:10076000681E616801EB4101B0FBF1F0401C0AE03A
:10077000681E616801EBC10202EB0111B0FBF1F0F0
:10078000401C40F48040C0F30B0008B901201AE07F
:10079000A06848B9681E616801EB4101B0FBF1F047
:1007A000401CC0F30B000CE0681E616801EBC10245
:1007B00002EB0111B0FBF1F0401CC0F30B0040F460
:1007C000804040F400402168C9694CF6FF729143B3
:1007D00008432168C861D4E9070108432168096812
:1007E00021F0C001084321680860D4E903100843E0
:1007F0002168896848F2FF32914308432168886084
:10080000D4E9050108432168C96821F0FF010843C4
:100810002168C8602068006840F001002168086015
:1008200000202064202084F83D000020206384F80C
:100830003E0000BF24E70000A086010080841E0067
:1008400000093D0040420F002DE9FC5F04460F46C1
:1008500090469946DDE90CAB0E9EFFF707FF054673
:1008600094F83D0020286ED119230122AE4920467C
:10087000009502F0A9FD10B10220BDE8FC9F00BF69
:1008800094F83C00012801D10220F6E7012084F809
:100890003C0000BF2068006800F0010028B9206813
:1008A000006840F00100216808602068006820F4BA
:1008B000006021680860222084F83D00402084F810
:1008C0003E0000202064C4F824A0A4F82AB0608D63
:1008D00020859648E0624B46424639462046CDE99F
:1008E000006502F043FB08B10120C6E7208D80B906
:1008F00000BF002001902068406901902068806955
:10090000019000BF2068006840F400702168086012
:100910003DE0208D012817D12068006820F4806018
:100920002168086000BF00200190206840690190A4
:1009300020688069019000BF2068006840F4007062
:100940002168086023E0EDE0208D022815D12068A1
:10095000006820F48060216808602068006840F426
:1009600000602168086000BF002001902068406995
:10097000019020688069019009E000BF002001908B
:1009800020684069019020688069019000BFBAE04A
:10099000208D03287ED8208D012815D12A46314686
:1009A000204602F039FE08B1012066E720680069A0
:1009B000616A0870606A401C6062208D401E20855C
:1009C000608D401E60859EE0208D02282AD133462E
:1009D000002257492046009502F0F6FC08B101209C
:1009E0004BE72068006840F40070216808602068C8
:1009F0000069616A0870606A401C6062208D401E58
:100A00002085608D401E608520680069616A0870DD
:100A1000606A401C6062208D401E2085608D401EF3
:100A2000608570E03346002241492046009502F07F
:100A3000CBFC08B1012020E72068006820F480602A
:100A40002168086020680069616A0870606A401C5B
:100A50006062208D401E2085608D401E608533467B
:100A6000002233492046009502F0AEFC08B1012077
:100A700003E72068006840F400702168086020687F
:100A80000069616A0870606A401C6062208D401EC7
:100A9000208500E010E0608D401E608520680069C0
:100AA000616A0870606A401C6062208D401E20856B
:100AB000608D401E608526E02A463146204602F0C1
:100AC000ABFD08B10120D8E620680069616A0870B2
:100AD000606A401C6062208D401E2085608D401E33
:100AE000608520684069C0F3800060B120680069BB
:100AF000616A0870606A401C6062208D401E20851B
:100B0000608D401E6085208D00287FF441AF20203D
:100B100084F83D00002084F83E0000BF84F83C00CB
:100B200000BFAAE60220A8E6020010000000FFFFB6
:100B3000040001002DE9FC5F04460F4690469946EB
:100B4000DDE90CAB0E9EFFF791FD054694F83D00E4
:100B500020287DD1192301224D492046009502F01D
:100B600033FC10B10220BDE8FC9F00BF94F83C00AC
:100B7000012801D10220F6E7012084F83C0000BFE3
:100B80002068006800F0010028B92068006840F083
:100B90000100216808602068006820F40060216876
:100BA0000860212084F83D00402084F83E000020A9
:100BB0002064C4F824A0A4F82AB0608D20853548AC
:100BC000E0624B46424639462046CDE9006502F0D8
:100BD000F3FA08B10120C6E731E02A463146204643
:100BE00002F080FC50B1206C042805D12068006818
:100BF00040F40070216808600120B4E7606A007862
:100C000021680861606A401C6062208D401E20855A
:100C1000608D401E608520684069C0F3800070B11F
:100C2000208D60B1606A007821680861606A401CAC
:100C30006062208D401E2085608D401E6085208D65
:100C40000028CAD12A463146204602F01DFC00E0A9
:100C50001CE050B1206C042805D12068006840F4E5
:100C600000702168086001207DE72068006840F47A
:100C7000007021680860202084F83D00002084F87E
:100C80003E0000BF84F83C0000BF6CE702206AE72A
:100C9000020010000000FFFF10B586B004461421CA
:100CA00001A8FFF758FB2849206888424AD100BFB5
:100CB000002000902548006840F0040023490860A7
:100CC0000846006800F00400009000BF00BF00204C
:100CD00000900846006840F001000860084600687F
:100CE00000F00100009000BF481501901220029012
:100CF00000200390032004900420059001A91448CB
:100D0000FFF7B6FB4FF48070019012200290002094
:100D10000390032004900420059001A90D48FFF7DB
:100D2000A7FB00BF0020009008481030006840F486
:100D300000000649103108600846006800F4000011
:100D4000009000BF06B010BD005C0040303802408B
:100D50000008024000000240034800680349097887
:100D60000844014908607047240000202C0000203E
:100D700010B50D48006840F400700B490860084643
:100D8000006840F4806008600846006840F48070A5
:100D90000860032000F090F80F2000F007F800F042
:100DA0002BF8002010BD0000003C024070B5044646
:100DB0000E4800784FF47A71B1FBF0F00C490968E5
:100DC000B1FBF0F5284600F073FF08B1012070BDBB
:100DD000102C07D200222146501E00F02FF80548A3
:100DE000046001E00120F2E70020F0E72C00002081
:100DF000300000202800002008B500BF002000902F
:100E00000D48006840F480400B49086008460068BF
:100E100000F48040009000BF00BF00200090081F39
:100E2000006840F08050091F08600846006800F024
:100E30008050009000BF08BD443802402DE9F05FAB
:100E400080460D461646002702F016FB0746394637
:100E50002A46334601F00700C0F1070ABAF1040F31
:100E600002D94FF0040A01E0C0F1070AD14600F1AF
:100E7000040ABAF1070F02D24FF0000A01E0A0F114
:100E8000030AD4464FF0010A0AFA09FAAAF1010A44
:100E90000AEA020A0AFA0CFA4FF0010B0BFA0CFBF1
:100EA000ABF1010B0BEA030B4AEA0B042146404667
:100EB00001F014FEBDE8F09F00BF00F00702064BF2
:100EC00019684FF6FF031940044B0B4343EA022114
:100ED000014B196000BF70470CED00E00000FA05FF
:100EE00070B504460D460CB9012070BD5848006825
:100EF00000F00700A84209D255490D700846006865
:100F000000F00700A84201D00120EEE7207800F0B1
:100F1000020002281DD1207800F00400042805D129
:100F20004C48006840F4E0504A490860207800F0DE
:100F30000800082805D14748006840F4604045494A
:100F400008604448006820F0F000A1680843414967
:100F50000860207800F00100A8B36068012807D17C
:100F60003C4808380068C0F34040B8B90120BCE7ED
:100F70006068022802D06068032807D13548083825
:100F80000068C0F3406048B90120AEE73148083836
:100F90000068C0F3400008B90120A6E72D480068AA
:100FA00020F00300616808432A490860FFF75EFBF0
:100FB000064609E0FFF75AFB801B41F28831884260
:100FC00002D9032091E707E02248006800F00C00F6
:100FD0006168B0EB810FEDD11D48006800F007009B
:100FE000A84209D91A490D700846006800F00700A8
:100FF000A84201D0012078E7207800F004000428FE
:1010000007D11448006820F4E050E1680843114912
:101010000860207800F00800082808D10D48006812
:1010200020F46040216940EAC1000A49086000F0EC
:101030002FF808490968C1F30311074A515CC840F9
:101040000649086006480068FFF7B0FE00204CE73C
:10105000003C0240083802407E3F0008300000207B
:101060002800002001480068704700003000002080
:1010700000B5FFF7F7FF04490968C1F38221034A6D
:10108000515CC84000BD0000083802408E3F000897
:101090002DE9F047002400250026A14625480068D8
:1010A00000F00C0020B1042805D008283AD105E052
:1010B000DFF8849039E0DFF8849036E01D48001FA7
:1010C000006800F03F041B48001F006800F4800027
:1010D00078B11A481749091F0968C1F38811A0FBA4
:1010E00001700146224600233846FFF7BDF8054649
:1010F0000EE011480F49091F0968C1F38811A0FBD0
:1011000001700146224600233846FFF7ADF8054638
:101110000848001F0068C0F30140401C4600B5FBB2
:10112000F6F902E0DFF8109000BF00BF4846BDE8C6
:10113000F0870000083802400024F40000127A0012
:10114000F8B504460CB90120F8BD207800F0010084
:10115000002874D0F948006800F00C0004280DD075
:10116000F648006800F00C00082813D1F348001F6F
:10117000006800F48000B0F5800F0BD1EF4808380C
:101180000068C0F34040002859D06068002856D15C
:101190000120D9E700BF6068B0F5803F08D1E7487B
:1011A0000838006840F48030E449083908601EE0DF
:1011B0006068B0F5A02F0DD1E0480838006840F411
:1011C0008020DE49083908600846006840F4803015
:1011D00008600CE0D9480838006820F48030D7490E
:1011E000083908600846006820F48020086000BFC5
:1011F000606890B1FFF73AFA054606E0FFF736FA65
:10120000401B642801D903209EE7CC4808380068B9
:10121000C0F340400028F1D011E0FFF727FA05465F
:1012200006E0FFF723FA401B642801D903208BE76F
:10123000C24808380068C0F340400028F1D1207847
:1012400000F0020002285FD1BC48006800F00C00EA
:1012500058B1BA48006800F00C0008281CD1B74803
:10126000001F006800F48000B0B9B4480838006876
:10127000C0F3400020B1E068012801D0012063E7FD
:10128000AE480838006820F0F800216940EAC10043
:10129000AA490839086037E0E06800B30120A8498E
:1012A0000860FFF7E3F9054606E0FFF7DFF9401BAA
:1012B000022801D9032047E7A04808380068C0F396
:1012C00040000028F1D09D480838006820F0F80060
:1012D000216940EAC10099490839086014E00020FA
:1012E00097490860FFF7C2F9054606E0FFF7BEF927
:1012F000401B022801D9032026E7904808380068DF
:10130000C0F340000028F1D1207800F00800082840
:101310002CD16069A8B101208A490860FFF7A6F9BD
:10132000054606E0FFF7A2F9401B022801D9032079
:101330000AE782486C300068C0F340000028F1D012
:1013400014E000207F490860FFF790F9054606E0A9
:10135000FFF78CF9401B022801D90320F4E67748F7
:101360006C300068C0F340000028F1D1207800F014
:10137000040004286FD1002770483830006800F05E
:10138000805088B900BF002000906C483830006859
:1013900040F080506949383108600846006800F024
:1013A0008050009000BF01276748006800F48070FB
:1013B000B0B96548006840F4807063490860FFF781
:1013C00055F9054606E0FFF751F9401B022801D9FF
:1013D0000320B9E65C48006800F480700028F2D071
:1013E00000BFA068012808D154486830006840F068
:1013F00001005249683108601DE0A06805280DD140
:101400004E486830006840F004004C49683108607C
:101410000846006840F0010008600CE0474868306A
:10142000006820F0010045496831086008460068FE
:1014300020F00400086000BFA068A8B1FFF716F90B
:10144000054609E0FFF712F9401B41F28831884256
:1014500002D9032078E626E0384868300068C0F3F7
:1014600040000028EED013E0FFF700F9054608E041
:10147000FFF7FCF8401B41F28831884201D9032074
:1014800062E62E4868300068C0F340000028EFD1C3
:10149000012F07D129483830006820F080502749B3
:1014A0003831086000BFA069002845D02348006893
:1014B00000F00C0008285ED0A069022846D1002068
:1014C0001F490866FFF7D2F8054606E0FFF7CEF899
:1014D000401B022801D9032036E618480838006866
:1014E000C0F340600028F1D1D4E907010843616AE4
:1014F00040EA81110122A06AC2EB500041EA00419A
:101500002C20005D41EA00600C49091F08600120A1
:101510000B490866FFF7AAF8054606E0FFF7A6F8AC
:10152000401B022801D903200EE604480838006851
:10153000C0F340600028F1D04AE0000008380240C3
:1015400000004742800E47420070004000202149C1
:101550000866FFF78BF8054606E0FFF787F8401BA3
:10156000022801D90320EFE51B480068C0F3406062
:101570000028F2D12CE0A069012800D1E4E516484A
:10158000001D0668A069012820D006F48001E069EA
:1015900081421BD106F03F01206A814216D147F6F5
:1015A000C0703040616AB0EB811F0FD106F440314A
:1015B0000122A06AC2EB5000B1EB004F06D106F049
:1015C00070612C20005DB1EB006F01D00120BBE504
:1015D0000020B9E50000474200380240014691F87A
:1015E0005100704710B504460CB9012010BD606A67
:1015F00038B96068B0F5827F00D105E00021E16173
:1016000002E00021216161610021A16294F8510092
:1016100028B9002084F85000204600F047F8022046
:1016200084F851002068006820F0400021680860BC
:10163000A08800F48270218901F404410843A18943
:1016400001F400610843217C01F002010843217D7F
:1016500001F001010843218B01F400710843217F4F
:1016600001F0380108432021095D01F080010843A1
:10167000218D01F400510843216808600421A0690C
:1016800001EA104094F8241001F010010843216889
:1016900048602068C06920F400602168C8610020AB
:1016A0006065012084F8510000209FE710B586B0E6
:1016B0000446142101A8FEF74EFE284920688842FE
:1016C00049D100BF002000902548006840F48050B8
:1016D000234908600846006800F48050009000BF6D
:1016E00000BF002000901E481438006840F002003F
:1016F0001B49143908600846006800F00200009099
:1017000000BF00BF002000900846006840F00100C4
:1017100008600846006800F00100009000BF182033
:1017200001900220029000200390032004900520E5
:10173000059001A90B48FEF79BFE80200190022036
:10174000029000200390032004900520059001A939
:101750000548FEF78DFE06B010BD000000300140C8
:101760004438024000040240000002402DE9F843E2
:101770000446884616461D464FF000096068B0F5DD
:10178000827F0DD1A06858B9042084F851003346F7
:10179000424641462046009500F076F9BDE8F883C0
:1017A00000BF94F85000012801D10220F6E7012083
:1017B00084F8500000BFFEF759FF074694F8510027
:1017C000012802D04FF002097EE0B8F1000F00D0EE
:1017D00016B94FF0010977E0042084F85100002089
:1017E0006065C4F83880A687E6872063A086E08617
:1017F00020646064A068B0F5004F0BD120680068D9
:1018000020F04000216808602068006820F48040D3
:10181000216808602068006800F04000402805D07A
:101820002068006840F0400021680860E068F8B96E
:101830001AE02068806800F0010050B12068007B49
:10184000A16B0870A06B401CA063E08F401EE08776
:101850000AE0FEF70BFFC01BA84201D3681C00B9C9
:1018600015B94FF003092FE0E08F0028E1D11EE009
:101870001AE02068806800F0010050B12068C0685C
:10188000A16B0880A06B801CA063E08F401EE087E6
:101890000AE0FEF7EBFEC01BA84201D3681C00B9AA
:1018A00015B94FF003090FE0E08F0028E1D13A4667
:1018B0002946204601F010FB08B120206065606DCC
:1018C00008B14FF0010900BF012084F8510000BFAA
:1018D000002084F8500000BF48465FE72DE9F84F2C
:1018E0000446884616461D464FF0000A00BF94F88D
:1018F0005000012802D10220BDE8F88F012084F8B1
:10190000500000BFFEF7B2FE0746B14694F8510002
:10191000012802D04FF0020AACE0B8F1000F00D06D
:1019200016B94FF0010AA5E0032084F85100002009
:101930006065C4F83080A686E686A063A087E0874D
:1019400060642064A068B0F5004F0BD12068006887
:1019500020F04000216808602068006840F4804062
:10196000216808602068006800F04000402805D029
:101970002068006840F0400021680860E068B0F529
:10198000006F2FD1606810B1B9F1010F09D1206B40
:1019900000882168C860206B801C2063E08E401E98
:1019A000E0861BE02068806800F0020002280AD16F
:1019B000206B00882168C860206B801C2063E08E4B
:1019C000401EE0860AE0FEF751FEC01BA84201D38C
:1019D000681C00B915B94FF0030A4BE0E08E0028EF
:1019E000E0D12EE0606810B1B9F1010F09D1206B90
:1019F000007821680873206B401C2063E08E401E35
:101A0000E0861BE02068806800F0020002280AD10E
:101A1000206B007821680873206B401C2063E08EE7
:101A2000401EE0860AE0FEF721FEC01BA84201D35B
:101A3000681C00B915B94FF0030A1BE0E08E0028BE
:101A4000E0D13A462946204601F056FC08B1202054
:101A50006065A06848B900BF002000902068C06899
:101A6000009020688068009000BF606D08B14FF062
:101A7000010A00BF012084F8510000BF002084F853
:101A8000500000BF504637E72DE9FF5F0446884607
:101A900091461D460E9E012002900020019000BF3D
:101AA00094F85000012803D1022004B0BDE8F09F53
:101AB000012084F8500000BFFEF7D8FD074694F8D7
:101AC00051B060680390AA46BBF1010F0BD0039898
:101AD000B0F5827F04D1A06810B9BBF1040F02D029
:101AE00002200190DAE0B8F1000F03D0B9F1000F45
:101AF00000D015B901200190D0E094F851000428DD
:101B000002D0052084F8510000206065C4F83890A8
:101B1000E587A587C4F83080E586A58620646064E3
:101B20002068006800F04000402805D02068006868
:101B300040F0400021680860E068B0F5006F4AD1CD
:101B4000606810B1BAF1010F09D1206B00882168DB
:101B5000C860206B801C2063E08E401EE08633E06E
:101B60002068806800F00200022810D1E08E70B179
:101B7000029801280BD1206B00882168C860206B77
:101B8000801C2063E08E401EE086002002902068CA
:101B9000806800F0010068B1E08F58B12068C0682B
:101BA000A16B0880A06B801CA063E08F401EE087C3
:101BB00001200290FEF75AFDC01BB04204D3701CF6
:101BC00010B10320019069E0E08E0028C8D1E08FB9
:101BD0000028C5D14AE0606810B1BAF1010F09D1FF
:101BE000206B007821680873206B401C2063E08E16
:101BF000401EE08634E02068806800F00200022881
:101C000010D1E08E70B1029801280BD1206B0078C2
:101C100021680873206B401C2063E08E401EE08624
:101C2000002002902068806800F0010068B1E08F19
:101C300058B12068C068A16B0870A06B401CA063FD
:101C4000E08F401EE08701200290FEF70FFDC01BD1
:101C5000B04201D3701C00B916B9032001901DE0F9
:101C6000E08E0028C7D1E08F0028C4D13A46314623
:101C7000204601F041FB20B1012001902020606549
:101C80000CE0A06848B900BF002000902068C06840
:101C9000009020688068009000BF00BF012084F899
:101CA000510000BF002084F8500000BF0198FCE6FE
:101CB00070B504462546681EB0F1807F01D301202F
:101CC0000FE0681E4FF0E02148610F214FF0FF3018
:101CD00000F004FF00204FF0E02188610720086138
:101CE000002070BD00BFFEE700B587B0142102A838
:101CF000FEF731FB00BF002001903A48006840F039
:101D00000200384908600846006800F002000190AF
:101D100000BF00BF002001900846006840F00100AD
:101D200008600846006800F00100019000BF00BF95
:101D3000002001900846006840F004000860084652
:101D4000006800F00400019000BF00BF0020019077
:101D50000846006840F0800008600846006800F00F
:101D60008000019000BF00BF00200190084600687D
:101D700040F0400008600846006800F04000019014
:101D800000BF012240211848FEF76AFC0122102101
:101D90001648FEF765FC012211461548FEF760FC67
:101DA00040200290012003900490059002A90E4863
:101DB000FEF75EFB102002900120039004900020AB
:101DC000059002A90948FEF753FB012002900390F9
:101DD00000200490059002A90548FEF749FB07B0D2
:101DE00000BD0000303802400018024000000240F0
:101DF0000004024010B50B480B4908600B484860CE
:101E0000002109488160C1604FF4804101610021D7
:101E100041618161C1610162FEF72EFC08B1FEF7EC
:101E20000FFB10BD005C004064000020801A06001B
:101E300010B50E480E4908604FF4827048600021CA
:101E40000B488160C160016141614FF400718161A3
:101E50001821C16100210162416281620A21C162CF
:101E6000FFF7C0FB08B1FEF7EBFA10BD00300140F0
:101E7000B800002000BFFEE700BFFEE770477047D4
:101E800010B5FEF769FF10BD0348006840F470000C
:101E9000014908607047000088ED00E000BFFEE7E0
:101EA00010B586B0044603A9412001F049F904AAFF
:101EB0000621122000F0C8FF9DF810009DF81110B7
:101EC00000EB012000B2ADF804009DF812009DF86F
:101ED000131000EB012000B2ADF806009DF81400CD
:101EE0009DF8151000EB012000B2ADF80800BDF917
:101EF000040000EE100AB8EEC00ADFED100A20EE72
:101F0000200A84ED000ABDF9060000EE100AB8EEC2
:101F1000C00ADFED0A0A20EE200A84ED010ABDF9AD
:101F2000080000EE100AB8EEC00ADFED040A20EE49
:101F3000200A84ED020A06B010BD0000E7416B3AAA
:101F400010B5002240210D48FEF78AFB0520FEF760
:101F50007BFA012240210948FEF782FB0520FEF7AB
:101F600073FA00210B2001F073FA1221412001F0D5
:101F70006FFA0B210A2001F06BFA10BD0018024025
:101F800010B52DED028B86B0044603A90F2001F099
:101F900083F99DF80C00052813D2DFE800F0030652
:101FA000090C0F009FED308A0EE09FED308A0BE0A8
:101FB0009FED2F8A08E09FED2F8A05E09FED2E8A86
:101FC00002E09FED298A00BF00BF04AA062102207B
:101FD00001F07CF89DF810009DF8111000EB012035
:101FE00000B2ADF804009DF812009DF8131000EB4C
:101FF000012000B2ADF806009DF814009DF8151000
:1020000000EB012000B2ADF80800BDF9040000EEBD
:10201000100AB8EEC00AC0EE080A9FED180A20EEBA
:10202000800A84ED000ABDF9060000EE100AB8EE41
:10203000C00AC0EE080A9FED110A20EE800A84ED66
:10204000010ABDF9080000EE100AF8EEC00A80EEA1
:10205000880ADFED0A0A20EE200A84ED020A06B0A3
:10206000BDEC028B10BD00006F1283416F12034262
:102070006F1283426F1203436F12834335FA8E3C13
:1020800070B506460C4615463046FFF709FF204658
:10209000FFF776FF284600F05BF8D5ED024AB0EE78
:1020A000644AD5ED014AF0EE643AD5ED004AB0EE4F
:1020B000643AD6ED024AF0EE642AD6ED014AB0EE5B
:1020C000642AD6ED004AF0EE641AD4ED024AB0EE6E
:1020D000641AD4ED014AF0EE640AD4ED004AB0EE81
:1020E000640A00F09DF970BD38B504460D46002223
:1020F00010211548FEF7B4FA04F07F0000904FF469
:102100007A73012269461148FFF7E8FB00BF0F48C8
:10211000FFF764FA0328FAD000954FF47A7301228E
:1021200069460A48FFF7DAFB00BF0848FFF756FA8E
:102130000328FAD00120FEF787F901221021024876
:10214000FEF78EFA38BD000000000240B800002003
:1021500010B52DED028B82B00446002008EE100A67
:1021600006226946032001F01DF99DF800009DF844
:10217000011040EA012000B208EE100AB8EEC80AC9
:10218000DFED150A20EE200A84ED000A9DF802001A
:102190009DF8031040EA012000B208EE100AB8EEE4
:1021A000C80ADFED0D0A20EE200A84ED010A9DF831
:1021B00004009DF8051040EA012000B208EE100A64
:1021C000B8EEC80ADFED040A20EE200A84ED020A08
:1021D00002B0BDEC028B10BD9A99993E38B5044609
:1021E0000D46002201211548FEF73AFA04F07F005F
:1021F00000904FF47A73012269461148FFF76EFB95
:1022000000BF0F48FFF7EAF90328FAD000954FF412
:102210007A73012269460A48FFF760FB00BF08484D
:10222000FFF7DCF90328FAD0012211460348FEF734
:1022300017FA0120FEF708F938BD0000000402403B
:10224000B800002010B5B6217E20FFF74DFF3220E8
:10225000FEF7FAF804217D20FFF746FF00217C20DD
:10226000FFF742FFB6211420FFF7B8FF3220FEF738
:10227000EBF800211120FFF7B1FF00214120FFF70B
:1022800033FF8C214020FFF72FFF02210F20FFF7A3
:10229000A5FF00211020FFF7A1FF10BD2DE9F0419F
:1022A0002DED048B04460D461646574890ED001A56
:1022B000D0ED001A21EE211A5448D0ED001A90ED0D
:1022C000002A01EE821AF7EE001AB0EE002A52EE52
:1022D000011AF0EE610A4C4890ED001A4C48D0ED1E
:1022E000001A21EE211A4948D0ED001A494890ED14
:1022F000002A01EE821AF0EE001A21EE211AB0EE49
:10230000410A01F0F3FA10EE107A384601F0BCFDF4
:1023100041EC190B9FED400B53EC102B01F0B6FC78
:1023200041EC180B01F080FC30603848D0ED000A19
:10233000374890ED001A60EE810A334890ED001A9C
:102340003448D0ED001A41EE610AB8EE001A60EE92
:10235000810AB0EE600A01F033FA10EE107A3846C6
:1023600001F092FD41EC190B9FED2B0B53EC102B60
:1023700001F08CFC41EC180B01F056FC286022485F
:1023800090ED001AD0ED001A21EE211A2048D0ED70
:10239000001A90ED002A01EE821AF7EE001AB0EE54
:1023A000002A52EE011AF0EE610A174890ED001A69
:1023B0001648D0ED001A21EE211A1648D0ED001A69
:1023C000134890ED002A01EE821AF0EE001A21EE79
:1023D000211AB0EE410A01F089FA10EE107A38465F
:1023E00001F052FD41EC180B9FED0B0B53EC102B41
:1023F00001F04CFC41EC190B01F016FC2060BDEC27
:10240000048BBDE8F0810000080000200C000020D3
:102410001400002010000020F8C1631ADCA54C4015
:1024200000B52DED108B95B0B0EE40AAF0EE60AA8D
:10243000B0EE41BAF0EE61CAF0EE42BAB0EE62CA56
:10244000F0EE439AB0EE638AF0EE448AF5EEC09A5D
:10245000F1EE10FA1BD1B5EEC08AF1EE10FA16D1EA
:10246000F5EEC08AF1EE10FA11D1F0EE4C2AB0EE82
:102470006B2AF0EE6C1AB0EE4B1AF0EE6A0AB0EE70
:102480004A0A00F03FFB15B0BDEC108B00BDF5EE25
:10249000C0CAF1EE10FA09D1F5EEC0BAF1EE10FAA9
:1024A00004D1B5EEC0CAF1EE10FA7CD06CEEAC0AE5
:1024B0004BEEAB0A4CEE0C0AB0EE600A01F04EF99E
:1024C000B0EE409A2CEE890AF0EE40CA2BEE890A53
:1024D000F0EE40BA2CEE090AB0EE40CA69EEA90A45
:1024E00048EE080A48EEA80AB0EE600A01F036F994
:1024F000B0EE409A29EE890AF0EE409A28EE090AD9
:10250000B0EE408A28EE890AF0EE408AFE4890ED4F
:10251000000AD0ED000A20EE200A8DED140A90ED9D
:10252000000AFA48D0ED000A60EE20EAF64890ED85
:10253000000AF748D0ED000A20EE20DAF24890EDCC
:10254000000AF448D0ED000A20EE200A8DED130AAF
:10255000EE4890ED000AD0ED000A20EE200A8DED45
:10256000120A90ED000AEA48D0ED000A20EE200A97
:102570008DED110AE54890ED000AE648D0ED000A1D
:1025800060EE20DAE24890ED000AD0ED000A20EE7D
:1025900020FA90ED000ADF48D0ED000A60EE20FA44
:1025A00090ED000A00E06DE1D0ED000A20EE200A77
:1025B0008DED100AB6EE000A70EE4F0A9DED100A7E
:1025C00030EEC00A20EE291A9DED110ADDED130A46
:1025D00070EE600AB0EE410A08EE200A7DEE8D0A28
:1025E00008EEA00AF0EE000A20EE200A8DED0F0A98
:1025F0009DED110ADDED130A30EE200A60EE290A86
:102600009DED120AB6EE001A31EE401A9DED100A49
:1026100031EE401AB0EE600A08EE010A7FEEEE0AD3
:1026200008EEA00AF0EE000A20EE200A8DED0E0A58
:102630009DED0F0A60EE000A9DED0E0A40EE000AC5
:10264000CDED000A9DED000A01F078FAB0EE40EA07
:1026500000BF3DEECD0A20EE290A7FEEAE0A08EE5D
:10266000200ADDED120AB6EE001A71EE600A70EE75
:10267000CF0A08EEA00AF0EE000A20EE200A8DED47
:102680000D0A3DEECD0A8DED0C0A3EEEAF0A8DED42
:102690000B0A9DED140AF6EE000A70EE600A9DED3D
:1026A000100A30EE800A8DED0A0AB6EE000A70EECE
:1026B0004F0A9DED100A30EEC00A20EE0E0A3DEEE4
:1026C000CD1ADDED0D0A00EE810A8DED090A9DEDB2
:1026D000110ADDED130A30EE600A20EE0E0A3EEE1E
:1026E000AF1ADDED0D0A00EE810A8DED080A3DEE10
:1026F0002D0A20EE0E1A9DED120AF6EE000A30EEBB
:10270000C00A70EE4F1ADDED0D0AB0EE410A00EE80
:10271000A10A8DED070A9DED0A0A6BEE800A9DED78
:102720000B0A4CEE400A9DED070A28EE001A9DEDBB
:10273000080A08EEC01A30EE810A8DED060A9DEDFA
:102740000C0A6CEE000A9DED0A0A4CEEC00A9DEDE3
:10275000090A28EE801A9DED070A09EEC01A30EE2C
:10276000810A8DED050A9DED0B0A6CEE800A9DED48
:102770000C0A4BEEC00A9DED080A29EE801A9DED69
:10278000090A08EE401A30EE810A8DED040A62480B
:1027900090ED000AB5EEC00AF1EE10FA44DDD0ED7E
:1027A000000A9DED060A60EE800A5C4890ED000A82
:1027B0009FED5B1A00EE810A80ED000A5648D0EDCD
:1027C000000A9DED050A60EE800A564890ED000A69
:1027D0009FED531A00EE810A80ED000A4E48D0EDBD
:1027E000000A9DED040A60EE800A4F4890ED000A51
:1027F0009FED4B1A00EE810A80ED000A474890EDEC
:10280000000A3AEE000AB0EE40AA464890ED000AEF
:102810003AEE800AF0EE40AA434890ED000A3BEE03
:10282000000AB0EE40BA0EE09FED400A3B4880ED52
:10283000000A9FED3E0A3B4880ED000A9FED3B0AEF
:10284000394880ED000A3A4890ED001A9DED060ADD
:10285000F0EE4A0A41EE000AB0EE60AA90ED001ACE
:102860009DED050AF0EE6A0A41EE000AF0EE60AA5C
:1028700090ED001A9DED040AF0EE4B0A41EE000ABD
:10288000B0EE60BA9FED2B0A2AEE000AB0EE40AA25
:102890009FED280A2AEE800AF0EE40AA9FED250A55
:1028A0002BEE000AB0EE40BA174890ED000A8DED0D
:1028B000030A164890ED000A8DED020A144890EDC7
:1028C000000A8DED010A9DED020AB1EE400A60EEAC
:1028D0000A0A9DED010A40EE6A0A0E4890ED000AD0
:1028E00040EE4B0A084890ED000A30EE800A80ED79
:1028F000000A9DED030A60EE0A0A9DED010A40EE12
:102900000B0A044818E00000080000200C0000201A
:1029100010000020140000200400002018000020F7
:102920006F12833A1C0000202000002000000000ED
:10293000000000206F12033A90ED000A40EE6A0A90
:10294000364890ED000A30EE800A80ED000A9DEDD9
:10295000030A60EE2A0A9DED020A40EE4B0A304857
:1029600090ED000A40EE0A0A2E4890ED000A30EE83
:10297000800A80ED000A9DED030A20EE0B0ADDEDD2
:10298000020A00EEAA0ADDED010A00EECA0A244896
:10299000D0ED000A30EE200A80ED000A2248D0ED8A
:1029A000000A90ED001A60EE810A1C4890ED001AB2
:1029B000D0ED001A41EE210A1A4890ED001AD0ED30
:1029C000001A41EE210A164890ED001AD0ED001AC7
:1029D00041EE210AB0EE600A00F0C0FEB0EE409A6F
:1029E000114890ED000A20EE090A80ED000A0B481C
:1029F00090ED000A20EE090A80ED000A094890EDEA
:102A0000000A20EE090A80ED000A054890ED000A50
:102A100020EE090A80ED000A00BF34E50C0000201A
:102A200014000020100000200800002000B593B022
:102A3000302107A8FDF78FFC142102A8FDF78BFCBD
:102A400000BF002001902348006840F080502149D9
:102A500008600846006800F08050019000BF00BF89
:102A6000002001901C48006840F480401A4908602A
:102A70000846006800F48040019000BF01200790E4
:102A80000004089002200D9041050E9104210F9141
:102A9000A8211091022111910421129107A8FEF79B
:102AA0004FFB08B1FDF7CCFC0F20029002200390F1
:102AB000002004904FF4A05005904FF480500690F1
:102AC000052102A8FEF70CFA08B1FDF7B9FC13B016
:102AD00000BD0000403802400070004010B50028E2
:102AE00004DB0A07130E054A135406E00A07140E06
:102AF000034A00F00F031B1FD45410BD00E400E094
:102B000018ED00E000B52DED068BB0EE403AF0EE8A
:102B1000603AB0EE414AF0EE615AF0EE424AB0EE51
:102B2000625AF5EEC05AF1EE10FA09D1F5EEC04A3C
:102B3000F1EE10FA04D1B5EEC05AF1EE10FA7DD0E4
:102B400065EEA50A44EEA40A45EE050AB0EE600A59
:102B500000F004FEF0EE402A25EEA20AF0EE405A04
:102B600024EEA20AF0EE404A25EE220AB0EE405AC8
:102B7000A94890ED000AA948D0ED000A20EE200AED
:102B8000A748D0ED000AA74890ED001AF0EE407A71
:102B900040EEC17AA24890ED000A9F48D0ED000AAD
:102BA00020EE200A9F48D0ED000A9C4890ED001AC4
:102BB000B0EE408A00EE818A9948D0ED000A90ED8F
:102BC000001AB6EE000A10EE810A9448D0ED000A11
:102BD00090ED001AF0EE408A40EE818A24EEA80AB9
:102BE000B0EE409A05EE489A25EE270AF0EE409A9C
:102BF00045EEE89A25EE880AB0EE40AA04EEE7AA70
:102C0000894890ED000AB5EEC00AF1EE10FA40DDF9
:102C100090ED000A60EE090A844890ED000A9FEDED
:102C2000841A00EE810A80ED000A7F4890ED000AC8
:102C300060EE290A7F4890ED000A00E051E09FED28
:102C40007C1A00EE810A80ED000A774890ED000AB8
:102C500060EE0A0A784890ED000A9FED751A00EEC2
:102C6000810A80ED000A714890ED000A33EE000AF7
:102C7000B0EE403A6F4890ED000A33EE800AF0EE75
:102C8000403A6D4890ED000A34EE000AB0EE404A3A
:102C90000EE09FED6A0A654880ED000A9FED670A25
:102CA000644880ED000A9FED650A634880ED000AE4
:102CB0006348D0ED000AB0EE430A00EE890AB0EE98
:102CC000403AD0ED000AB0EE630A00EEA90AF0EE39
:102CD000403AD0ED000AB0EE440A00EE8A0AB0EEA7
:102CE000404A9FED580A23EE000AB0EE403A9FEDAD
:102CF000550A23EE800AF0EE403A9FED520A24EE88
:102D0000000AB0EE404A464890ED006A4248D0EDD5
:102D1000006A444890ED007AB1EE660A20EE030A9C
:102D200007EE630A3D48D0ED000A00EEC40A3C48B5
:102D3000D0ED000A30EE200A80ED000A26EE030AEC
:102D400007EE040A3548D0ED000A00EEE30A3248E7
:102D5000D0ED000A30EE200A80ED000A26EE230AAC
:102D600006EEC40A2D48D0ED000A00EE830A2D4875
:102D7000D0ED000A30EE200A80ED000A26EE040AAB
:102D800006EEA30A07EE430A2448D0ED000A30EE0F
:102D9000200A80ED000A2248D0ED000A90ED001ACA
:102DA00060EE810A1C4890ED001AD0ED001A41EE49
:102DB000210A1C4890ED001AD0ED001A41EE210ABC
:102DC000164890ED001AD0ED001A41EE210AB0EE3F
:102DD000600A00F0C3FCF0EE402A114890ED000AB2
:102DE00020EE220A80ED000A0B4890ED000A20EE4A
:102DF000220A80ED000A0B4890ED000A20EE220A1C
:102E000080ED000A054890ED000A20EE220A80EDD0
:102E1000000ABDEC068B00BD0C0000201400002051
:102E200008000020100000200400002018000020EE
:102E30006F12833A1C0000202000002000000000D8
:102E4000000000206F12033A2DE9FC4105460E46B2
:102E50001746002210211E48FDF702FC45F08000B5
:102E600001904FF47A73012201A91A48FEF736FD4A
:102E700000BF1848FEF7B2FB0328FAD04FF47A736C
:102E8000012269461348FEF771FC00BF1148FEF7A6
:102E9000A5FB0428FAD0002410E04FF47A73012235
:102EA00069460C48FEF762FC00BF0A48FEF796FB35
:102EB0000428FAD09DF800003855641CB442ECDBBD
:102EC000012210210248FDF7CBFBBDE8FC81000088
:102ED00000000240B8000020F8B504460E46154632
:102EE0006068B0F5827F0DD1A068B0F5004F03D0C7
:102EF000A068B0F5806F05D12068006820F0400020
:102F0000216808606068B0F5827F1FD1A068B0F5C5
:102F1000806F0DD03346002280212046009500F0BE
:102F20000FFB08B3606D40F0200060650320F8BD22
:102F30003346002201212046009500F001FB98B1A4
:102F4000606D40F0200060650320F0E7334600220A
:102F500001212046009500F0F3FA28B1606D40F0A1
:102F6000200060650320E2E70020E0E72DE9F84358
:102F700004460F4615469946DDE908862068006834
:102F800040F48060216808602068006840F4807028
:102F900021680860434600224FF001112046009648
:102FA00000F012FA60B12068006800F48070B0F59B
:102FB000807F02D14FF4007020640320BDE8F883C5
:102FC00007F0FE0021680861334642463E4920462C
:102FD00000F062FB08B10120F0E700BF0020009084
:102FE00020684069009020688069009000BF3246E8
:102FF0004146204600F076FA50B1206C042805D1F5
:103000002068006840F40070216808600120D5E75E
:10301000B9F1010F03D1E8B22168086117E0C5F3E7
:1030200007202168086132464146204600F05AFADE
:1030300050B1206C042805D12068006840F400706D
:10304000216808600120B9E7E8B2216808613246CA
:103050004146204600F046FA50B1206C042805D1C4
:103060002068006840F40070216808600120A5E72E
:103070002068006840F480702168086043460022A0
:103080004FF001112046009600F09EF958B12068DB
:10309000006800F48070B0F5807F02D14FF40070BA
:1030A000206403208AE7F8B240F00100216808613B
:1030B000334642460449204600F0EEFA08B10120AA
:1030C0007CE700207AE70000020001002DE9FC41C6
:1030D00005460E461746002201211748FDF7C0FAA3
:1030E00045F0800001904FF47A73012201A9134842
:1030F000FEF7F4FB00BF1148FEF770FA0328FAD080
:10310000002410E04FF47A73012269460B48FEF761
:103110002DFB00BF0948FEF761FA0428FAD09DF89C
:1031200000003855641CB442ECDB01221146024811
:10313000FDF796FABDE8FC8100040240B8000020CB
:1031400038B504460D46002210211948FDF788FACB
:1031500044F0800000904FF47A73012269461548CC
:10316000FEF7BCFB00BF1348FEF738FA0328FAD07D
:103170004FF47A73012229460E48FEF7F7FA00BF92
:103180000C48FEF72BFA0428FAD04FF47A73012288
:1031900029460848FEF7EAFA00BF0648FEF71EFA7D
:1031A0000428FAD0012210210148FDF759FA38BD50
:1031B00000000240B80000202DE9F843044688468C
:1031C00015469946DDE908672068006840F480707C
:1031D00021680860334600224FF001112046009715
:1031E00000F0F2F860B12068006800F48070B0F57B
:1031F000807F02D14FF4007020640320BDE8F88383
:1032000008F0FE00216808613B463246214920460D
:1032100000F042FA08B10120F0E700BF0020009062
:1032200020684069009020688069009000BF3A469D
:103230003146204600F056F950B1206C042805D1E3
:103240002068006840F40070216808600120D5E71C
:10325000B9F1010F03D1E8B22168086117E0C5F3A5
:103260000720216808613A463146204600F03AF9C5
:1032700050B1206C042805D12068006840F400702B
:10328000216808600120B9E7E8B2216808610020E0
:10329000B4E700000200010038B504460D460022E4
:1032A00001211348FDF7DCF944F0800000904FF451
:1032B0007A73012269460F48FEF710FB00BF0D48E4
:1032C000FEF78CF90328FAD04FF47A7301222946CD
:1032D0000848FEF74BFA00BF0648FEF77FF90428BE
:1032E000FAD0012211460248FDF7BAF938BD0000B4
:1032F00000040240B80000207CB504460D46164686
:10330000164800681821B0FBF1F01549B0FBF1F048
:103310004FF47A71484301906068B0F5827F0DD117
:103320002B46002280212046009600F009F998B132
:10333000606D40F02000606503207CBD00BF0198F7
:1033400000B908E00198401E019020688068C0F331
:10335000C0100028F3D100BF0020EEE730000020AD
:1033600040420F00014608684069C0F38020B0B1B8
:103370006FF480600A68506100200863202081F8A3
:103380003D00002081F83E00086C40F00400086415
:1033900000BF002081F83C0000BF012070470020E2
:1033A000FCE70000FEB504460D4616460A20012340
:1033B00022461C21CDE9005602900248FDF744FA4E
:1033C000FEBD0000640000202DE9F04104460D46DA
:1033D00017461E46DDF818801CE0701CD0B1FDF7C2
:1033E00045F9A0EB0800B04200D89EB90020206348
:1033F000202084F83D00002084F83E00206C40F03E
:103400002000206400BF002084F83C0000BF0120A1
:10341000BDE8F081C5F3074001280AD12068406962
:10342000A9B20840A9B2884201D101200BE00020D6
:1034300009E020688069A9B20840A9B2884201D198
:10344000012000E00020B842C7D00020E0E70000E3
:1034500013B584B004460A20012105AA0B46CDE924
:103460000021029022461C210248FDF763FB06B0B2
:1034700010BD00006400002002480068C0F3022074
:10348000704700000CED00E070B504460D4616468E
:1034900020E02046FFF766FF08B1012070BD681CE0
:1034A000C0B1FDF7E3F8801BA84200D895B9002011
:1034B0002063202084F83D00002084F83E00206C2A
:1034C00040F02000206400BF002084F83C0000BFD2
:1034D0000120E3E720684069C0F380000028D8D0CD
:1034E0000020DBE770B504460D46164620E0204676
:1034F000FFF738FF08B1012070BD681CC0B1FDF7AF
:10350000B5F8801BA84200D895B900202063202080
:1035100084F83D00002084F83E00206C40F020003C
:10352000206400BF002084F83C0000BF0120E3E7D6
:1035300020684069C0F3C0100028D8D00020DBE725
:103540002DE9F84F04460D4690461E46DDF82890BA
:10355000FDF78CF8A0EB0900371AFDF787F88246D3
:103560002C480068C0F3CB307843009045E0701CD5
:10357000002842D0FDF77AF8A0EB0A00B84200D24A
:10358000A7BB2068406820F0E000216848606068C0
:10359000B0F5827F0DD1A068B0F5004F03D0A068D0
:1035A000B0F5806F05D12068006820F040002168E8
:1035B0000860A06AB0F5005F0DD100BF2068006808
:1035C00020F40050216808602068006840F4005032
:1035D0002168086000BF012084F8510000BF00206E
:1035E00084F8500000BF0320BDE8F88FFFE7009883
:1035F00000B900270098401E00902068806828408D
:10360000A84201D1012000E000204045AFD10020B8
:10361000EAE700003000002070B504460D4616466B
:1036200032E020684069C0F30010A0B16FF01000D4
:103630002168486100202063202084F83D0000209C
:1036400084F83E00206C206400BF002084F83C0019
:1036500000BF012070BDFDF709F8801BA84200D80B
:1036600095B900202063202084F83D00002084F8D4
:103670003E00206C40F02000206400BF002084F851
:103680003C0000BF0120E5E720684069C0F38010DE
:103690000028C6D00020DDE72DE9F04104460D46A4
:1036A00016461F463DE020684069C0F38020E8B11F
:1036B0002068006840F40070216808606FF4806042
:1036C0002168486100202063202084F83D0000200C
:1036D00084F83E00206C40F00400206400BF00200D
:1036E00084F83C0000BF0120BDE8F081701CC0B12F
:1036F000FCF7BCFFC01BB04200D896B90020206385
:10370000202084F83D00002084F83E00206C40F02A
:103710002000206400BF002084F83C0000BF01208E
:10372000E2E7C5F3074001280AD120684069A9B241
:103730000840A9B2884201D101200BE0002009E035
:1037400020688069A9B20840A9B2884201D101204D
:1037500000E000200028A6D00020C5E7F0EE400AD7
:10376000F6EE001A60EEA11AB0EE611AB0EE600A31
:1037700010EE100A0749A1EB600000EE100A21EEDE
:10378000002AF7EE081A42EE401A61EE801AB0EEF7
:10379000610A7047DF59375F4100080218BF0420F3
:1037A0000A0E18BF40F001004FF07F4232EA0101DB
:1037B00008BF40F00200012808BF05207047000044
:1037C00010B54FF00E402DED028BB0EE408A18EE92
:1037D000104A00EB4400B0F1506F4AD84FF0FC4063
:1037E000B0EB440F22D2B0EEC80AF7EE000A30EE7A
:1037F000C00AF6EE000A60EE208A18EE900A00F089
:10380000F3F901EE100A14F0004F1DBFDFED2D0A91
:103810009FED2D0AB1EE411ADFED2C0A08BF9FED96
:103820002C0AF8EE001A21EE218A05E0DFED290AC4
:1038300068EE088AB0EE600A9FED271ADFED271ABE
:1038400030EE080A48EE811A9FED251A08EEA11AFB
:10385000DFED241A48EE811A9FED231A08EEA11A13
:1038600068EE281ABDEC028B01EE810A30EE200AC8
:1038700010BD4FF0E440B0EB440F0CD918EE100A25
:10388000FFF78AFF042808BF00F084F9B0EE480A69
:10389000BDEC028B10BD4FF07F40B0EB440F07D260
:1038A000B0EE480ABDEC028BBDE8104000F063B9F1
:1038B0000120FCF77FFDBDEC028BBDE8104000F05D
:1038C00061B900000000C9BF22AAFDB90000C93FCC
:1038D00022AAFD390000000024FE1C3DC78AD83C06
:1038E0001E67383D1B93993DAFAA2A3E10EE100A81
:1038F00010B510EE901A4FF0684202EB40032DED28
:10390000028BB3F1654F3CBF02EB4102B2F1654F50
:103910007CD200BFC0F3C753C1F3C7529A1A1B2A07
:1039200009DD10F0004F14BF9FED6E0A9FED6E0A87
:10393000BDEC028B10BD12F11A0F1BDA11F0004F13
:1039400009D010F0004F0CBF9FED680A9FED680A88
:10395000BDEC028B10BD80EE208A18EE100AFFF736
:103960001BFF042808BF00F015F9B0EE480ABDECB3
:10397000028B10BD4200B2EB410F37D910F0004F5F
:1039800019BFDFED5C1A9FED5C1ADFED5C1A9FED4D
:103990005C1AB0EE602A0A46F1EE400A80F000415F
:1039A000B0EE420A10460A1A5200B2F1807F34D2B9
:1039B000484010F0004FDFED532A9FED533A1DBFF2
:1039C000BEEE002A71EEE21A31EE431AB6EE002A7C
:1039D00004BF71EEA21A31EE031AF0EE402A42EE55
:1039E000602A40EE020A82EEA02A18E011F0004F91
:1039F00004BF9FED461AF0EE411AD4D010F0004FEC
:103A00001CBFDFED431A9FED431A00E026E004BF20
:103A1000DFED411A9FED411AC5E780EE202A22EE24
:103A2000020ADFED3F0ADFED3F2ABDEC028B40EEDC
:103A3000202ADFED3D0A40EE220ADFED3C2A40EE6F
:103A4000202ADFED3B0A40EE220A22EE000A00EEB9
:103A5000201A31EE020A30EE210A10BD4FF07F42EB
:103A6000B2EB400F28BFB2EB410F05D2BDEC028B89
:103A7000BDE8104000F082B840EA01035B0008BFD7
:103A800041F0FF410BD0B2EB400F08BFB2EB410F4A
:103A900008D120F0804000EE100A21F0804100EEB5
:103AA000901A37E7B2EB400F12BF5FEA410240F0D5
:103AB000FF4001F000413FF42DAF4A0092EA40037D
:103AC0003FF528AF002AACBF9FED1A1A9FED1A1AD6
:103AD00020EE010A60EE810A10EE100A10EE901A34
:103AE00018E70000DB0FC9BFDB0FC93FDB0F494000
:103AF000DB0F49C00000C9BF22AAFDB90000C93FC1
:103B000022AAFD390060ED3EC30ACE370000000056
:103B1000000049C022AA7DBA0000494022AA7D3A8D
:103B20002DAD65BD8FB8D53D0FB511BE61C84C3EFA
:103B3000A8AAAABE0000804F0000802F10B52DED6E
:103B4000028BB1EEC08A18EE100A20F00040C0F1DE
:103B5000FF40C00F0AD010EE100A20F00040C0F164
:103B6000FF40C00F04BF0120FCF724FCB0EE480A60
:103B7000BDEC028B10BD30EE000A704730EE200A1B
:103B800070470000DFED020A80EEA00A70470000D7
:103B9000000000009FED020A20EE000A70470000BE
:103BA00000000010FDF7E4F8FEF740FFFEF79CF878
:103BB000FEF73EF9FEF71EF9FEF744FBFEF7C0F9EB
:103BC00009E0054A05490648FEF75AFA054A111F59
:103BD000081FFEF763FBF4E74C00002040000020C4
:103BE000340000206000002010B500EE100A2DED1A
:103BF000028BB1EEC08A18EE100A20F00040C0F12E
:103C0000FF40C00F0AD010EE100A20F00040C0F1B3
:103C1000FF40C00F04BF0120FCF7CCFB18EE100AD8
:103C2000BDEC028B10BD000021F00042A2F16052F9
:103C3000B2F5801F01F0004328BFD2F17F6C0BD991
:103C40005FEA001C43EAC20242EB507018BF7047A3
:103C500028BF20F001007047B2F5801FBCBF184696
:103C600070474FEA410C1CF5001F02D2084600F0D5
:103C700081B970B500F0B4F800000089FFF7F6BF15
:103C80004FF00040A0F5800070470000DFF848C109
:103C900070B51CEA111E1EBF1CEA13159EEA0C0F1C
:103CA00095EA0C0F00F06F8081EA030423EA4C13BD
:103CB0004EEAD47E21EA4C1141F4801143F4801382
:103CC000AE44A1FB024CA0FB0365AEF17F7E36192A
:103CD00055EB0C05A1FB034C4CF10003A0FB021CAF
:103CE00016EB0C06654153F10003094218BF46F07C
:103CF000010613F4007F0BD14FEA03314FEA053080
:103D0000340341EA155140EA16506FF003020AE00D
:103D10004FEAC3214FEAC520F40241EA555140EA77
:103D200056506FF0020202EB2E4201EB025585EA7B
:103D3000CE710AD05FEA440C18BF24F0004450F161
:103D4000000041F1000120EAD47040F2FE7C62459F
:103D500000D270BDA84214BF4FF080444FF04044E1
:103D6000002E08BF0024BEF1806FA8BFA1F1C041A2
:103D7000BDE8704080F282804FF0000001F1C04148
:103D800001F0004170479EEA0C0F0CEA131518BFB2
:103D900095EA0C0F06D04FF0000081EA030E0EF0FA
:103DA000004170BD00F01CF88900013E00F007B82A
:103DB00000F009B84FEA430C5FEA5C5C08D081EA86
:103DC000030100F05BB84FEA410C5FEA5C5CF6D19E
:103DD0004FF00000014970470000FF070000F87F26
:103DE0000EF1020E2EF0030E5EF8046B364205D47F
:103DF000012A43EB030515F5001F12D8012841EBFA
:103E0000010C1CF5001F0CD80ED14FEAD17C15F522
:103E1000001F0CEB4C0C0CF1020C08BF4CEBD37CDC
:103E200004E04FF0080C01E04FEAD37C0CEB4C05AA
:103E300026FA05F606F00706B6F1040C06D20EEBDC
:103E4000860CBDE870404CF0010C6047DFE80CF0D8
:103E5000090B02024FF000414FF00000A1F50021D4
:103E600070BD19461046012851EB010418BFD4F566
:103E7000001484BF002001F0004170BD0808A0F5C7
:103E800000114FEA3101704743004FEAD30C4FEA6B
:103E90003C0C43401FBF40070CF1605113F0FE4F34
:103EA00070471CF0006F03D100200CF000417047F8
:103EB0000CF0004343EA507010B540EACC0000F02B
:103EC0000EF800BF000000924FEA0001FFF7D6BFD6
:103ED0004FF000414FF00000A1F5002170470EF1B6
:103EE000020E2EF0030E5EF8044B244204D44FEA77
:103EF0004102B2F17F4F11D84FEA4003B3F17F4F37
:103F00000CD80ED14FEAD07CB2F17F4F0CEB4C0CA9
:103F10000CF1020C08BF4CEBD17C04E04FF0080C14
:103F200001E04FEAD17C0CEB4C0324FA03F404F0DB
:103F30000704B4F1040C06D20EEB840CBDE810406B
:103F40004CF0010C6047DFE80CF0070802024FF06C
:103F50000040A0F5800010BD0846420018BFD2F115
:103F6000807288BF00F0004010BD4FF04070E1EE5D
:103F7000100A7047FF2141EAD050C0057047000089
:103F80000000000000000102030406070809000009
:103F90000000010203040000B83F000800000020F8
:103FA00034000000C4010008EC3F00083400002089
:103FB0003C070000E0010008000020410000004034
:103FC0000000803F00000000000000000000000032
:103FD00000000000000000000000000000000000E1
:0C3FE00010000000010000000024F400AC
:040000050800018965
:00000001FF
