:020000040800F2
:100000004007002091020008512800080D27000831
:100010000D28000889040008B12C00080000000029
:10002000000000000000000000000000C5280008DB
:100030006D05000800000000C12800081D29000807
:10004000AB020008AB020008AB020008AB020008DC
:10005000AB020008AB020008AB020008AB020008CC
:10006000AB020008AB020008AB020008AB020008BC
:10007000AB020008AB020008AB020008AB020008AC
:10008000AB020008AB020008AB020008AB0200089C
:100090008D040008AB020008AB020008AB020008A8
:1000A000AB020008AB020008AB020008AB0200087C
:1000B000AB020008AB020008AB020008AB0200086C
:1000C000AB020008AB020008AB020008AB0200085C
:1000D000AB020008AB020008AB020008AB0200084C
:1000E000AB020008AB020008AB020008AB0200083C
:1000F000AB020008AB020008AB020008AB0200082C
:10010000AB020008AB020008AB020008AB0200081B
:10011000AB020008AB020008AB020008AB0200080B
:10012000AB020008AB020008AB020008AB020008FB
:10013000AB0200080000000000000000AB02000855
:10014000AB020008AB020008AB020008AB020008DB
:10015000AB020008AB020008AB020008AB020008CB
:10016000AB020008AB020008AB020008AB020008BB
:10017000AB020008AB020008AB0200080000000060
:1001800000000000AB0200080000000000000000BA
:10019000AB0200080000000000000000AB020008F5
:1001A000000000000000000000000000AB0200089A
:1001B000AB020008AB020008AB020008AB0200086B
:1001C000AB02000800F002F800F052F814A696E81E
:1001D000000CB244B344DA4501D100F049F8BAE862
:1001E0000F000FA696E83000A5EB040504EB060708
:1001F000AAEB0704A7F101074FEA15154FEA3414DB
:10020000A4F10104AC4201D300F032F813F0010F65
:1002100018BFFB1A43F0010300F001F8DBE71847B1
:10022000F82B0000182C0000103A24BF78C878C1C1
:10023000FAD8520724BF30C830C144BF04680C60EC
:1002400070470000704700000023002400250026AE
:10025000103A28BF78C1FBD8520728BF30C148BF29
:100260000B6070471FB502F0BBFD1FBD10B510BD80
:1002700000F0D0F81146FFF7F5FF02F07BFD00F02B
:10028000EEF803B4FFF7F2FF03BC00F0F5F800004E
:100290000948804709480047FEE7FEE7FEE7FEE71A
:1002A000FEE7FEE7FEE7FEE7FEE7FEE70448054956
:1002B000054A064B70470000F1290008C5010008F7
:1002C00040010020400700204003002040030020A0
:1002D00053EA020C00F069802DE9F04B4FF0000664
:1002E000002B1FBFB3FA83F503FA05F424FA05F6D1
:1002F0005E4012BF1643B2FA82F502FA05F4C5F168
:1003000020051EBF22FA05FC44EA0C04203556EAFB
:10031000044C4FEA144418BF641C4FF000084FF01F
:100320000009904271EB030C39D3002919BFB1FACF
:1003300081F701FA07F6B0FA80F700FA07F6C7F17D
:1003400020071EBF20FA07FC46EA0C062037B6FB42
:10035000F4FCA7EB0507103F07F01F0BCBF12006BD
:100360002CFA06F60CFA0BFB44BFB3460026202FEE
:10037000A4BF5E464FF0000B5BEA060C08BF4FF0CF
:10038000010B19EB0B0948EB0608ABFB027C06FBE3
:1003900002CC0BFB03CCC01B71EB0C01C1E70B467D
:1003A000024641464846BDE8F08B13B5084318BFE6
:1003B0004FF0FF300146AFF30080BDE81C407047AE
:1003C0004FF0000200B5134694469646203922BFEE
:1003D000A0E80C50A0E80C50B1F12001BFF4F7AF39
:1003E000090728BFA0E80C5048BF0CC05DF804EB1B
:1003F000890028BF40F8042B08BF704748BF20F889
:10040000022B11F0804F18BF00F8012B7047704786
:1004100070477047754600F02BF8AE4605006946F8
:10042000534620F00700854618B020B5FFF73EFF81
:10043000BDE820404FF000064FF000074FF00008E5
:100440004FF0000BAC46ACE8C009ACE8C009ACE822
:10045000C009ACE8C00921F007018D46704710B50E
:100460000446AFF300802046BDE81040FFF709BF07
:10047000004870471000002001491820ABBEFEE77D
:100480002600020070470000FFE7FEE780B540F25B
:10049000CC00C2F2000000F025FB80BD80B586B024
:1004A00084460898CDF814C0ADF81210ADF81020AD
:1004B000ADF80E30ADF80C000598006846F200412A
:1004C000C4F2000188420ED1FFE740F27001C2F28F
:1004D00000014FF400700860002048608860C86028
:1004E0000820086117E00598006846F60001C4F28C
:1004F000000188420ED1FFE740F27001C2F2000114
:1005000040F2FF100860002048608860C860082042
:100510000861FFE7FFE79DF813008DF804009DF8E0
:1005200012008DF805009DF811008DF806009DF869
:1005300010008DF807009DF80F008DF808009DF859
:100540000E008DF809009DF80D008DF80A009DF849
:100550000C008DF80B00059840F27001C2F200010A
:1005600001AA6B4600F032F806B080BD704700006B
:1005700072B6FFE7FEE7000084B002900191029896
:1005800090F820008DF803009DF80300012805D0A5
:10059000FFE79DF8030002280AD1FFE7019A0298BD
:1005A000016848691043486100208DF80F0008E099
:1005B0000299486A40F48020486201208DF80F00BB
:1005C000FFE79DF80F0004B07047000088B0069068
:1005D000059104920393069890F820008DF8070087
:1005E00006980068806800900598806808B9FFE761
:1005F00000E0FFE79DF80700012806D0FFE79DF81F
:100600000700022840F08080FFE79DF803004007C4
:1006100000280CD4FFE79DF803000007002806D44B
:10062000FFE79DF80300C006002864D5FFE70098A7
:10063000C0F301600290029901208840039908608C
:100640000598806868B9FFE705980168C06840EAC6
:10065000415006990968029A01EB0211C1F8800124
:100660000EE005994A688868C96840EAC2000843F4
:1006700006990968029A01EB0211C1F88001FFE7AF
:100680000598006906990968029A01EB0211C1F800
:1006900084010598007D01280CD1FFE706980068C9
:1006A000029900EB0111D1F8840140F48070C1F887
:1006B0008401FFE70498406806990968029A01EBF3
:1006C0000211C1F88C010498006806990968029A21
:1006D00001EB0211C1F8880106980068029900EB4D
:1006E0000111D1F8800140F00100C1F88001002023
:1006F0008DF81F0011E00699486A40F40010486226
:1007000001208DF81F0008E00699486A40F4802017
:10071000486201208DF81F00FFE79DF81F0008B018
:100720007047000086B0049003910498006801901F
:10073000049890F820008DF803009DF8030001282C
:1007400006D0FFE79DF80300022840F0B080FFE7E5
:1007500046F20040C4F2000001900199D1F8000275
:1007600040F00100C1F800020199D1F8000220F424
:100770007C50C1F800020398426A0199D1F8000246
:1007800040EA0220C1F800020398406900F01F010E
:10079000012088400290029A0199D1F81C029043EE
:1007A000C1F81C020398C069F0B9FFE7029A0199E9
:1007B000D1F80C029043C1F80C02039A9088D168DA
:1007C000526940EA0140019901EBC201C1F84002BF
:1007D000039A10889168526940EA0140019901EB3F
:1007E000C201C1F84402FFE70398C06901281ED185
:1007F000FFE7029A0199D1F80C021043C1F80C02EC
:10080000039A90881168526940EA0140019901EB0E
:10081000C201C1F84002039A90899168526940EA86
:100820000140019901EBC201C1F84402FFE70398BE
:10083000806940B9FFE7029A0199D1F80402904318
:10084000C1F8040207E0029A0199D1F804021043AA
:10085000C1F80402FFE70398006940B9FFE7029A74
:100860000199D1F814029043C1F8140207E0029AEA
:100870000199D1F814021043C1F81402FFE703985C
:10088000006A012808D1FFE7029A0199D1F81C02F9
:100890001043C1F81C02FFE70199D1F8000220F0D3
:1008A0000100C1F8000200208DF8170008E004994B
:1008B000486A40F48020486201208DF81700FFE765
:1008C0009DF8170006B0704781B0009001B07047E6
:1008D00086B00490039102920193049890F820004E
:1008E0008DF803009DF80300012806D0FFE79DF86E
:1008F0000300022840F0E880FFE7039880B9FFE793
:1009000004980068C068800748B9FFE70499486AFE
:1009100040F40010486201208DF81700DDE00FE080
:10092000049800680069800748B9FFE70499486A9D
:1009300040F40010486201208DF81700CDE0FFE779
:1009400004980068039900EB0110D0F8B00100F0A2
:100950000400029988600298806858B9FFE70498FB
:100960000068039900EB0110D0F8B001400D029926
:1009700008600AE004980068039900EB0110D0F8C1
:10098000B001C00802994860FFE704980068039925
:1009900000EB0110D0F8B00100F002000299C8602D
:1009A00004980068039900EB0110D0F8B40100F03E
:1009B0000F00082804D3FFE70299082008610BE024
:1009C00004980068039900EB0110D0F8B40100F01E
:1009D0000F0002990861FFE704980068039900EB93
:1009E0000110D0F8B40180B2000A0299886104981D
:1009F0000068039900EB0110D0F8B401000C0299D3
:100A0000486104980068039900EB0110D0F8B80120
:100A10000199087004980068039900EB0110D0F860
:100A2000B801000A0199487004980068039900EB26
:100A30000110D0F8B801000C019988700498006882
:100A4000039900EB0110D0F8B801000E0199C870AD
:100A500004980068039900EB0110D0F8BC010199DB
:100A6000087104980068039900EB0110D0F8BC01EC
:100A7000000A0199487104980068039900EB01107D
:100A8000D0F8BC01000C01998871049800680399A2
:100A900000EB0110D0F8BC01000E0199C871039859
:100AA00038B9FFE704980168C86840F02000C860C2
:100AB00006E004980168086940F020000861FFE73B
:100AC00000208DF8170008E00499486A40F480205F
:100AD000486201208DF81700FFE79DF8170006B067
:100AE0007047000080B58AB00990002008900998EE
:100AF0000068406907900998006840680690099866
:100B000000688068059009980068C068049009989A
:100B100000680069039009980068806902909DF858
:100B20001C00C007002800F09480FFE79DF8140027
:100B3000C00758B3FFE709980168012088609DF855
:100B400014008007002804D5FFE7099800F0DCFBBB
:100B50001BE09DF814004007002805D5FFE7089822
:100B600040F4006008900FE09DF814000007002892
:100B700005D5FFE7089840F48050089003E00998F5
:100B800000F0BEFBFFE7FFE7FFE7FFE79DF815007A
:100B9000C00760B3FFE7099801684FF48070886070
:100BA0009DF815008007002804D5FFE7099800F09C
:100BB000B3FB1BE09DF815004007002805D5FFE7B3
:100BC000089840F4005008900FE09DF815000007C9
:100BD000002805D5FFE7089840F48040089003E01E
:100BE000099800F095FBFFE7FFE7FFE7FFE79DF8B7
:100BF0001600C00760B3FFE7099801684FF4803022
:100C000088609DF816008007002804D5FFE7099842
:100C100000F08AFB1BE09DF816004007002805D570
:100C2000FFE7089840F4004008900FE09DF8160098
:100C30000007002805D5FFE7089840F480300890A9
:100C400003E0099800F06CFBFFE7FFE7FFE7FFE731
:100C5000FFE79DF81C000007002810D5FFE79DF86E
:100C60001000C006002809D5FFE7089840F400707E
:100C70000890099801681020C860FFE7FFE79DF819
:100C80001C00400700280FD5FFE79DF81000000763
:100C9000002808D5FFE7099801680820C86009986E
:100CA00000F05EFAFFE7FFE79DF81C0080070028D0
:100CB0000BD5FFE709980068C068800720B1FFE7FF
:100CC000099800F051FAFFE7FFE79DF81C00400685
:100CD000002810D5FFE79DF80C00C006002809D5B4
:100CE000FFE7089840F48060089009980168102098
:100CF0000861FFE7FFE79DF81C00800600280FD57C
:100D0000FFE79DF80C000007002808D5FFE70998C9
:100D1000016808200861099800F0A0FAFFE7FFE7E2
:100D20009DF81C00C00600280BD5FFE70998006855
:100D30000069800720B1FFE7099800F093FAFFE708
:100D4000FFE79DF81E00800700280FD5FFE79DF8FC
:100D50001800C006002808D5FFE709980168102090
:100D60004860099800F082FAFFE7FFE79DF81E004F
:100D7000C00778B1FFE79DF818000007002808D5E4
:100D8000FFE70998016808204860099800F0D0FA48
:100D9000FFE7FFE79DF81D000006002840F18D8069
:100DA000FFE79DF818004007002840F18180FFE729
:100DB0009DF81D00C00750B1FFE79DF80800C0076F
:100DC00028B1FFE7089840F001000890FFE79DF880
:100DD0001D00800700280BD5FFE79DF8080080075D
:100DE000002805D5FFE7089840F002000890FFE7CB
:100DF0009DF81D00400700280BD5FFE79DF808006F
:100E00004007002805D5FFE7089840F00400089047
:100E1000FFE79DF81D000007002848D5FFE79DF873
:100E2000080010F0700F42D0FFE7029800F0700049
:100E300001460191102814D0FFE70198202815D011
:100E4000FFE70198302816D0FFE70198402817D017
:100E5000FFE70198502818D0FFE70198602819D0C3
:100E60001DE0089840F00800089019E0089840F04C
:100E70001000089014E0089840F0200008900FE05F
:100E8000089840F0400008900AE0089840F0800080
:100E9000089005E0089840F48070089000E0FFE7B3
:100EA00009980168886920F070008861FFE7FFE712
:100EB0000998016804204860FFE7089848B1FFE7F7
:100EC000089A0999486A104348620998FFF7FCFCA0
:100ED000FFE70AB080BD000080B584B002900298A0
:100EE00020B9FFE701208DF80F00E0E0029890F8AC
:100EF000200020B9FFE7029800F0DEF8FFE7029833
:100F00000168086840F00100086000F005FC0190ED
:100F1000FFE7029800684068C007A8B9FFE700F043
:100F2000FBFB0199401A0B280DD3FFE70299486A91
:100F300040F4003048620299052081F82000012029
:100F40008DF80F00B3E0E4E702980168086820F02C
:100F50000200086000F0E0FB0190FFE702980068E3
:100F600040688007002815D5FFE700F0D5FB019900
:100F7000401A0B280DD3FFE70299486A40F400306D
:100F800048620299052081F8200001208DF80F00A9
:100F90008DE0E3E70298007E012807D1FFE7029881
:100FA0000168086840F08000086006E00298016867
:100FB000086820F080000860FFE70298407E012862
:100FC00007D1FFE702980168086840F04000086018
:100FD00006E002980168086820F040000860FFE71A
:100FE0000298807E012807D1FFE70298016808680F
:100FF00040F02000086006E002980168086820F0D0
:1010000020000860FFE70298C07E012807D1FFE7B3
:1010100002980168086820F01000086006E0029855
:101020000168086840F010000860FFE70298007F40
:10103000012807D1FFE702980168086840F008001E
:10104000086006E002980168086820F0080008605F
:10105000FFE70298407F012807D1FFE70298016867
:10106000086840F00400086006E00298016808681B
:1010700020F004000860FFE7029B19685A6898682E
:10108000D3F80CC040EA0C00D3F810C040EA0C00C2
:101090005B691843013A1043C86102990020486215
:1010A000029A012182F820108DF80F00FFE79DF8C9
:1010B0000F0004B080BD000080B58AB00990002008
:1010C000089007900690059004900998006846F2F1
:1010D0000041C4F2000188423FD1FFE7FFE7002052
:1010E000039043F64000C4F20200016841F0007131
:1010F0000160006800F0007003900398FFE7FFE7CD
:101100000020029043F63000C4F20200016841F072
:1011100002010160006800F0020002900298FFE7FF
:101120004FF440700490022005900020009006903B
:10113000032007900920089040F20040C4F202000A
:1011400004A900F01BF9009A14200190114600F048
:101150007BFB019800F06EFBFFE70AB080BD00004A
:1011600081B0009001B0704780B582B001900198C5
:10117000006846F20041C4F2000188426CD1FFE7EA
:1011800040F2CC00C2F2000040F28802C2F200023B
:10119000009240F2A403C2F200030021FFF798FB83
:1011A0000098006840F2012188420DD1FFE740F22B
:1011B000A401C2F2000108684A6840F2AC01C2F220
:1011C00000014A60086046E040F28800C2F2000078
:1011D000006840F2022188420DD1FFE740F2A401ED
:1011E000C2F2000108684A6840F2B401C2F200018C
:1011F0004A6008602EE040F28800C2F200000068F9
:1012000040F2032188420DD1FFE740F2A401C2F26F
:10121000000108684A6840F2BC01C2F200014A605D
:10122000086016E040F28800C2F200000068B0F5E5
:10123000017F0DD1FFE740F2A401C2F2000108686E
:101240004A6840F2C401C2F200014A600860FFE748
:10125000FFE7FFE7FFE7FFE702B080BD81B0009046
:1012600001B0704781B0009001B0704781B000902C
:1012700001B0704780B584B00290029890F82000C9
:1012800001282FD1FFE70299022081F8200002985F
:101290000168086820F00100086000F03DFA019044
:1012A000FFE7029800684068C007A8B1FFE700F0B8
:1012B00033FA0199401A0B280DD3FFE70299486AC7
:1012C00040F4003048620299052081F82000012096
:1012D0008DF80F000FE0E4E70299002048628DF8D6
:1012E0000F0008E00299486A40F40020486201209B
:1012F0008DF80F00FFE79DF80F0004B080BD0000DF
:1013000081B0009001B0704781B0009001B070478B
:1013100081B0009001B0704781B0009001B070477B
:1013200081B0009001B0704781B0009001B070476B
:1013300081B0009001B0704780B584B0039000F098
:10134000EBF90290039801900198013048B1FFE752
:1013500040F20800C2F200000178019808440190B0
:10136000FFE7FFE700F0D8F90299401A0199884297
:1013700001D2FFE7F6E704B080BD00008DB00C900D
:101380000B9100200990089007900A90FFE70A98B7
:101390000F2800F2BE81FFE70A99012088400990DA
:1013A0000B980068099908400890089809998842A4
:1013B00040F0AA81FFE70B98406800F00300012885
:1013C00007D0FFE70B98406800F0030002282FD1F8
:1013D000FFE70C98806807900A984100032000FA04
:1013E00001F10798884307900B98C0680A99490053
:1013F00000FA01F107980843079007980C99886054
:101400000C98406807900A99012000FA01F10798AA
:10141000884307900B984068C0F300100A9900FABF
:1014200001F107980843079007980C994860FFE777
:101430000B98406800F00300032818D0FFE70C98D1
:10144000C06807900A984100032000FA01F107984C
:10145000884307900B9880680A99490000FA01F1C7
:1014600007980843079007980C99C860FFE70B9806
:10147000406800F00300022826D1FFE70C980A9983
:101480006FF0030202EA51010844006A07900A98CB
:1014900000F0070081000F2000FA01F1079888434F
:1014A00007900B9800690A9901F00701890000FA7A
:1014B00001F107980843079007980C990A9B02EAE4
:1014C000530211440862FFE70C98006807900A98DD
:1014D0004100032000FA01F10798884307900B9818
:1014E000406800F003000A99490000FA01F10798EA
:1014F0000843079007980C9908600B98807980073B
:10150000002800F00081FFE7FFE70020069043F687
:101510004400C4F20200016841F4804101600068A7
:1015200000F4804006900698FFE70A9820F0030038
:1015300043F60801C4F20101405807900A9800F0F0
:10154000030081000F2000FA01F1079888430790FB
:101550000C980021C4F20201884203D1FFE7002069
:10156000059050E00C9840F20041C4F2020188421C
:1015700003D1FFE70120049042E00C9840F60001FF
:10158000C4F20201884203D1FFE70220039034E055
:101590000C9840F60041C4F20201884203D1FFE7F3
:1015A0000320029026E00C9841F20001C4F20201EF
:1015B000884203D1FFE70420019018E00C9841F223
:1015C0000041C4F20201884203D1FFE705200090E8
:1015D0000AE00C9941F60002C4F20202072091428F
:1015E00008BF06200090FFE700980190FFE70198F0
:1015F0000290FFE702980390FFE703980490FFE74B
:1016000004980590FFE70598C0B20A9901F003011C
:10161000890000FA01F107980843079007980A9992
:1016200021F0030143F60802C4F20102885043F698
:101630000840C4F2010000680790089907988843A1
:1016400007900B988079C006002805D5FFE7089918
:10165000079808430790FFE7079843F60841C4F24C
:101660000101086043F60C40C4F2010000680790D5
:1016700008990798884307900B988079800600287E
:1016800005D5FFE70899079808430790FFE70798F3
:1016900043F60C41C4F20101086043F60440C4F271
:1016A00001000068079008990798884307900B98F5
:1016B00080798007002805D5FFE708990798084337
:1016C0000790FFE7079843F60441C4F20101086060
:1016D00043F60040C4F2010000680790089907989B
:1016E000884307900B988079C00728B1FFE70899D5
:1016F000079808430790FFE7079843F60041C4F2B4
:1017000001010860FFE7FFE7FFE70A9801300A9050
:101710003DE60DB07047000040F23C10C2F2000000
:101720000068704740F20800C2F20000027840F200
:101730003C11C2F2000108681044086070470000C4
:1017400080B543F60041C4F20201086840F400701D
:101750000860086840F480600860086840F48070A1
:101760000860032000F08AF80F2000F005F800F070
:101770003BF8002080BD000080B582B0009040F2B0
:101780000400C2F20000006840F20801C2F2000149
:101790000A784FF47A71B1FBF2F1B0FBF1F000F08E
:1017A0007DFE20B1FFE701208DF8070018E00098CA
:1017B0000F280DD8FFE700994FF0FF30002200F00E
:1017C00043F8009840F20C01C2F20001086003E007
:1017D00001208DF8070003E000208DF80700FFE7E7
:1017E0009DF8070002B080BD82B0FFE700200190A5
:1017F00043F64400C4F20200016841F480410160F4
:10180000006800F4804001900198FFE7FFE70020A6
:10181000009043F64000C4F20200016841F080519C
:101820000160006800F0805000900098FFE702B06F
:101830007047000080B582B08DF807009DF9070061
:1018400001F038FA02B080BD80B586B08DF817007F
:10185000049103920020029001F044FA02909DF955
:101860001700019002980499039A00F0F3FF0146D3
:10187000019801F03FFA06B080BD000080B582B04B
:101880000190019801F058FA02B080BD80B584B093
:1018900000200290FFE70020019043F64000C4F2D0
:1018A0000200016841F080510160006800F0805042
:1018B00001900198FFE74021C4F20E210120086049
:1018C000FFF72AFF0290FFE747F20400C4F200008E
:1018D000006800F48030B0F5803F0DD0FFE7FFF7DF
:1018E0001BFF0299401AB0F57A7F04D9FFE7032065
:1018F0008DF80F0025E0E7E74421C4F20E21012016
:101900000860FFF709FF0290FFE747F20400C4F206
:101910000000006800F40030B0F5003F0DD0FFE794
:10192000FFF7FAFE0299401AB0F57A7F04D9FFE773
:1019300003208DF80F0004E0E7E700208DF80F008A
:10194000FFE79DF80F0004B080BD000080B584B0B3
:1019500002900191029820B9FFE701208DF80F0055
:1019600021E1019843F60041C4F20201096801F047
:101970000F01884212D9FFE7019943F60040C4F2F3
:1019800002000170006800F00F000199884204D045
:10199000FFE701208DF80F0005E1FFE702980078CE
:1019A000800700282AD5FFE7029800784007002822
:1019B00009D5FFE743F60801C4F20201086840F4C4
:1019C000E0500860FFE7029800780007002809D57A
:1019D000FFE743F60801C4F20201086840F46040E2
:1019E0000860FFE743F60801C4F20201086820F02E
:1019F000F000029A926810430860FFE702980078AE
:101A0000C00700286ED0FFE702984068012811D176
:101A1000FFE743F60000C4F20200006800F4003162
:101A20000020B0EB514F04D1FFE701208DF80F00EB
:101A3000B9E02CE002984068022805D0FFE7029840
:101A40004068032811D1FFE743F60000C4F202000A
:101A5000006800F000710020B0EB516F04D1FFE787
:101A600001208DF80F009EE010E043F60000C4F264
:101A70000200006800F002010020B0EB510F04D119
:101A8000FFE701208DF80F008DE0FFE7FFE743F649
:101A90000801C4F20201086820F00300029A5268AB
:101AA00010430860FFF738FE0090FFE743F6080098
:101AB000C4F20200006800F00C0002994968B0EB23
:101AC000810F0ED0FFE7FFF727FE0099401A41F281
:101AD0008931884204D3FFE703208DF80F0062E0CC
:101AE000E4E7FFE7019843F60041C4F20201096808
:101AF00001F00F01884212D2FFE7019943F600403E
:101B0000C4F202000170006800F00F0001998842E1
:101B100004D0FFE701208DF80F0044E0FFE70298B2
:101B20000078400700280CD5FFE743F60801C4F20F
:101B30000201086820F4E050029AD268104308605D
:101B4000FFE702980078000700280DD5FFE743F66D
:101B50000801C4F20201086820F46040029A126988
:101B600040EAC2000860FFE700F04CF843F60801C5
:101B7000C4F202010968C9B20A0942F6FA51C0F674
:101B80000001895CC84040F20401C2F20001086013
:101B900040F20C00C2F200000068FFF7EDFD0020EB
:101BA0008DF80F00FFE79DF80F0004B080BD000026
:101BB00040F20400C2F200000068704780B5FFF7F1
:101BC000F7FF43F60801C4F202010968C1F382225B
:101BD00042F60A61C0F60001895CC84080BD000081
:101BE00080B5FFF7E5FF43F60801C4F2020109687A
:101BF00089B24A0B42F60A61C0F60001895CC8400E
:101C000080BD000080B586B0002005900490039050
:101C10000290019043F60800C4F20200006800F050
:101C20000C00014600910C2800F29B800099DFE82F
:101C300001F0079898980D989898139898985700DD
:101C400042F20040C0F2F400019090E041F6003012
:101C5000C0F2B70001908AE043F60400C4F202002B
:101C6000016801F03F01059100684002002813D58A
:101C7000FFE743F60400C4F202000068C0F38810D6
:101C800041F60031C0F2B701A0FB0101059A002323
:101C9000FEF71EFB049012E043F60400C4F20200BB
:101CA0000068C0F3881042F20041C0F2F401A0FBCA
:101CB0000101059A0023FEF70BFB0490FFE743F6B2
:101CC0000400C4F20200006800F44031022000EB7E
:101CD000D130039004980399B0FBF1F0019046E0F5
:101CE00043F60400C4F20200016801F03F010591CF
:101CF00000684002002813D5FFE743F60400C4F251
:101D000002000068C0F3881041F60031C0F2B7014C
:101D1000A0FB0101059A0023FEF7DAFA049012E015
:101D200043F60400C4F202000068C0F3881042F2D7
:101D30000041C0F2F401A0FB0101059A0023FEF767
:101D4000C7FA0490FFE743F60400C4F202000068FB
:101D5000C0F30270029004980299B0FBF1F0019078
:101D600005E042F20040C0F2F4000190FFE7019864
:101D700006B080BD80B586B00490049820B9FFE716
:101D800001208DF8170084E304980078C00700282C
:101D900000F0BA80FFE743F60800C4F202000068D2
:101DA00000F00C00042828D0FFE743F60800C4F236
:101DB0000200006800F00C0008280BD1FFE743F692
:101DC0000400C4F20200006800F48000B0F5800F47
:101DD00013D0FFE743F60800C4F20200006800F0E9
:101DE0000C000C281ED1FFE743F60400C4F20200E9
:101DF00000684002002815D5FFE743F60000C4F252
:101E00000200006800F400310020B0EB514F08D010
:101E1000FFE70498406820B9FFE701208DF817001C
:101E200037E370E0FFE704984068B0F5803F09D1E0
:101E3000FFE743F60001C4F20201086840F4803075
:101E4000086020E004984068B0F5A02F0DD1FFE7AE
:101E500043F60001C4F20201086840F480200860E3
:101E6000086840F4803008600CE043F60001C4F2DA
:101E70000201086820F480300860086820F480209F
:101E80000860FFE7FFE7FFE704984068E8B1FFE775
:101E9000FFF742FC0390FFE743F60000C4F20200A4
:101EA000006800F400310020B0EB514F0CD1FFE787
:101EB000FFF732FC0399401A652804D3FFE703209B
:101EC0008DF81700E5E2E7E71CE0FFF725FC03903B
:101ED000FFE743F60000C4F20200006800F400319E
:101EE0000020B0EB514F0CD0FFE7FFF715FC039932
:101EF000401A652804D3FFE703208DF81700C8E2D5
:101F0000E7E7FFE7FFE7FFE704980078800700288E
:101F100040F1A980FFE743F60800C4F20200006820
:101F200010F00C0F26D0FFE743F60800C4F20200C1
:101F3000006800F00C00082809D1FFE743F6040010
:101F4000C4F2020000684002002813D5FFE743F600
:101F50000800C4F20200006800F00C000C282CD12C
:101F6000FFE743F60400C4F20200006840020028C4
:101F700023D4FFE743F60000C4F20200006800F03B
:101F800002010020B0EB510F09D0FFE70498C068B0
:101F9000012804D0FFE701208DF8170079E243F60D
:101FA0000001C4F20201086820F0F800049A1269E6
:101FB00040EAC2000860FFE754E00498C06870B3CC
:101FC000FFE70021C4F2472101200860FFF7A4FBCE
:101FD0000390FFE743F60000C4F20200006800F03F
:101FE00002010020B0EB510F0CD1FFE7FFF794FB8B
:101FF0000399401A032804D3FFE703208DF8170044
:1020000047E2E7E743F60001C4F20201086820F066
:10201000F800049A126940EAC200086021E0002139
:10202000C4F2472100200860FFF776FB0390FFE72A
:1020300043F60000C4F20200006800F00201002034
:10204000B0EB510F0CD0FFE7FFF766FB0399401A86
:10205000032804D3FFE703208DF8170019E2E7E710
:10206000FFE7FFE7FFE704980078000700284BD55B
:10207000FFE70498406918B3FFE740F68061C4F2B7
:10208000472101200860FFF747FB0390FFE743F675
:102090007400C4F20200006800F002010020B0EBFE
:1020A000510F0CD1FFE7FFF737FB0399401A0328C4
:1020B00004D3FFE703208DF81700EAE1E7E722E009
:1020C00040F68061C4F2472100200860FFF724FB3E
:1020D0000390FFE743F67400C4F20200006800F0CA
:1020E00002010020B0EB510F0CD0FFE7FFF714FB0B
:1020F0000399401A032804D3FFE703208DF8170043
:10210000C7E1E7E7FFE7FFE704980078400700280A
:1021100040F1CE80FFE700208DF8070043F6400035
:10212000C4F202000068C000002815D4FFE7FFE7F2
:102130000020009043F64000C4F20200016841F024
:1021400080510160006800F0805000900098FFE727
:1021500001208DF80700FFE747F20000C4F20000FD
:102160000068C005002822D4FFE747F20001C4F24E
:102170000001086840F480700860FFF7CDFA039012
:10218000FFE747F20000C4F200000068C005002825
:102190000CD4FFE7FFF7C0FA0399401A032804D3D1
:1021A000FFE703208DF8170073E1EAE7FFE7FFE799
:1021B00004988068012809D1FFE743F67001C4F252
:1021C0000201086840F0010008601FE00498806880
:1021D00005280DD1FFE743F67001C4F2020108683B
:1021E00040F004000860086840F0010008600CE05E
:1021F00043F67001C4F20201086820F00100086093
:10220000086820F004000860FFE7FFE7FFE7049894
:102210008068F8B1FFE7FFF77FFA0390FFE743F626
:102220007000C4F20200006800F002010020B0EB70
:10223000510F0ED1FFE7FFF76FFA0399401A41F2F1
:102240008931884204D3FFE703208DF8170020E18D
:10225000E5E71EE0FFF760FA0390FFE743F6700042
:10226000C4F20200006800F002010020B0EB510F40
:102270000ED0FFE7FFF750FA0399401A41F2893177
:10228000884204D3FFE703208DF8170001E1E5E75A
:10229000FFE79DF80700012809D1FFE743F6400159
:1022A000C4F20201086820F080500860FFE7FFE7F1
:1022B00004988069002800F0E880FFE743F60800F2
:1022C000C4F20200006800F00C00082800F08880CA
:1022D000FFE70498806902285FD1FFE76021C4F21C
:1022E000472100200860FFF717FA0390FFE743F645
:1022F0000000C4F20200006800F000710020B0EBA2
:10230000516F0CD0FFE7FFF707FA0399401A032833
:1023100004D3FFE703208DF81700BAE0E7E704993C
:10232000C869D1F820C04B6A8A6A40EA0C0040EACA
:102330008310D2034FF6FF739A43A2F58032104305
:10234000CA6A40EA0260096B40EA017043F6040180
:10235000C4F2020108606021C4F247210120086034
:10236000FFF7DAF90390FFE743F60000C4F202003A
:10237000006800F000710020B0EB516F0CD1FFE756
:10238000FFF7CAF90399401A032804D3FFE7032093
:102390008DF817007DE0E7E721E06021C4F24721D6
:1023A00000200860FFF7B8F90390FFE743F600004C
:1023B000C4F20200006800F000710020B0EB516F21
:1023C0000CD0FFE7FFF7A8F90399401A032804D3BC
:1023D000FFE703208DF817005BE0E7E7FFE753E036
:1023E00004988069012804D1FFE701208DF81700C7
:1023F0004FE043F60400C4F2020000680290049823
:10240000806901283AD0FFE7029800F4800004991F
:10241000C969884232D1FFE7029800F03F00049971
:10242000096A88422AD1FFE7029847F6C07108403E
:102430000499496AB0EB811F20D1FFE7029800F4AC
:1024400040300499896AC9034FF6FF729143A1F5A0
:102450008031884212D1FFE7029800F07060049941
:10246000C96AB0EB016F09D1FFE7029800F0E040C4
:102470000499096BB0EB017F04D0FFE701208DF8D0
:10248000170006E0FFE7FFE7FFE700208DF81700E1
:10249000FFE79DF8170006B080BD000080B582B050
:1024A0000190019800F010FA02B080BD80B582B0B2
:1024B0000090009820B9FFE701208DF8070040E068
:1024C0000098806908B1FFE700E0FFE7009890F806
:1024D000410040B9FFE70099002081F840000098D2
:1024E00000F034F8FFE70099242081F841000098BB
:1024F0000168C86820F40050C860009800F0CCFA69
:1025000000980168086920F490400861009801680B
:10251000486920F02A00486100980168C86840F4C2
:102520000050C860009900204864009A202182F879
:102530004110009A82F84210009948638DF8070014
:10254000FFE79DF8070002B080BD000080B588B0AD
:102550000790002006900590049003900290079841
:10256000006844F20041C4F20001884233D1FFE721
:10257000FFE70020019043F64000C4F2020001682A
:1025800041F400310160006800F4003001900198CE
:10259000FFE7FFE70020009043F63000C4F202009E
:1025A000016841F001010160006800F00100009045
:1025B0000098FFE70C200290022003900020049076
:1025C00003200590072006900020C4F2020002A913
:1025D000FEF7D4FEFFE708B080BD000080B58AB0EA
:1025E00008900791ADF81A200593002002900898F2
:1025F00090F84100202840F08180FFE7079820B143
:10260000FFE7BDF81A0020B9FFE701208DF8270089
:1026100078E00899002048640899212081F8410059
:10262000FFF77AF80290BDF81A0008998884BDF87F
:102630001A000899C88408988068B0F5805F09D1AD
:10264000FFE70898006928B9FFE700200490079881
:10265000039004E00798049000200390FFE7FFE751
:102660000898C08C78B3FFE70898029B05996A46E2
:1026700011608021002200F0ADFA40B1FFE7089917
:10268000202081F8410003208DF827003AE00498CB
:1026900058B9FFE7039800886FF35F20089909682D
:1026A000486003980230039008E004980078089985
:1026B00009684860049801300490FFE70899C88CC5
:1026C0000138C884CCE70898029B05996A461160D6
:1026D0004021002200F07EFA40B1FFE70899202057
:1026E00081F8410003208DF827000BE00899202095
:1026F00081F8410000208DF8270003E002208DF8CA
:102700002700FFE79DF827000AB080BDFFE7FEE73E
:1027100080B582B040F2CC00C2F20000009046F2D8
:102720000041C4F2000101600921416000210191D2
:102730008160C1604FF4803202614FF480124261C7
:10274000017641768176C17601774177FEF7C4FB49
:1027500018B1FFE7FDF70CFFFFE702B080BD0000F6
:1027600083B0FFE70020029043F63000C4F202007D
:10277000016841F080010160006800F08000029073
:102780000298FFE7FFE70020019043F63000C4F213
:102790000200016841F001010160006800F00100E1
:1027A00001900198FFE7FFE70020009043F630001A
:1027B000C4F20200016841F002010160006800F00B
:1027C000020000900098FFE703B0704780B582B028
:1027D00040F2F400C2F20000019044F20041C4F261
:1027E000000101604FF4E131416000218160C1606E
:1027F00001610C2242618161C161FFF757FE18B18E
:10280000FFE7FDF7B5FEFFE702B080BDFFE7FEE79B
:1028100080B58CB00B9000210791012008900191A8
:102820000291039104910591069109900B9801A9D9
:10283000FDF778FF0CB080BD80B582B001900198A3
:10284000FEF718FD01980221FDF796FE02B080BD4B
:10285000FFE7FEE788B0079006910592079800F021
:10286000070004900498C0F10700052803D3FFE790
:102870000420019004E00498C0F107000190FFE7F4
:102880000198039004980430062803D8FFE700203D
:10289000009003E0049803380090FFE7009802904E
:1028A00006980399012202FA01F101390840029BBE
:1028B000984005999A40013A1140084308B0704782
:1028C000704700007047000080B582B0009000980B
:1028D0000138B0F1807F03D3FFE70120019019E0B8
:1028E000009801384EF21401CEF2000108604FF05A
:1028F000FF300F2100F0FEF94EF21801CEF2000178
:10290000002008604EF21002CEF200020721116092
:102910000190FFE7019802B080BD000080B5FEF78E
:1029200001FF80BD80B594B007A83421FDF748FDB4
:10293000002006900590049003900290FFE700208D
:10294000019043F64000C4F20200016841F080515A
:102950000160006800F0805001900198FFE7FFE7F8
:102960000020009047F20000C4F20000016841F42A
:1029700040410160006800F4404000900098FFE78B
:10298000012007904FF48030089002200D904FF402
:1029900080010E9106210F91B42110911190129097
:1029A000139007A8FFF7E6F918B1FFE7FDF7E0FD80
:1029B000FFE7FEF76BFF18B1FFE7FDF7D9FDFFE773
:1029C0000F20029002200390002004904FF4A050AA
:1029D00005904FF48050069002A80521FEF7B6FF3F
:1029E00018B1FFE7FDF7C4FDFFE714B080BD00009C
:1029F0004EF68851CEF20001086840F4700008607D
:102A00007047000084B00390FFE7FFE70398006879
:102A100050E8030F20F490700290FFE702990398AA
:102A2000026842E803100028F0D1FFE7FFE7FFE764
:102A3000FFE70398006850E8050F20F001000190BF
:102A4000FFE701990398026842E805100028F0D1D9
:102A5000FFE7FFE70398006B012814D1FFE7FFE7CA
:102A6000FFE70398006850E8030F20F01000009083
:102A7000FFE700990398026842E803100028F0D1AC
:102A8000FFE7FFE7FFE70399202081F84200039961
:102A90000020086304B0704780B586B005900598A3
:102AA0000068006920F44050059A1168D26810430C
:102AB0000861059988680B694A69C9691843104318
:102AC0000843049005980068C06849F20C61884387
:102AD0000499084305990968C86005980068406929
:102AE00020F44070059A1168926910434861059876
:102AF000006841F20001C4F20101884209D0FFE7F9
:102B00000598006841F20041C4F20101884204D1F5
:102B1000FFE7FFF765F8039003E0FFF74FF8039036
:102B2000FFE70598C069B0F5004F29D1FFE703988A
:102B30001921A0FB0101059A1368029353685A00FA
:102B4000DB0FFDF7C5FB0299864648F21F53C5F21D
:102B5000EB13AEFB0320420910014FF0640C02FBA3
:102B60001CEC322202EBCC02A2FB0332F82303EA74
:102B7000521300EB4300C2F342121044886026E077
:102B800003981921A0FB0101059A1368019353686A
:102B90009A009B0FFDF79CFB0199844648F21F5257
:102BA000C5F2EB12ACFB02304309642003FB10CCEE
:102BB000322000EB0C10A0FB0202F02000EA5210C1
:102BC00000EB0310C2F3431210448860FFE706B025
:102BD00080BD000080B586B0DDF820C00490039170
:102BE0008DF80B200193FFE70498006800680399B3
:102BF0000840401AB0FA80F040099DF80B10884256
:102C00004DD1FFE708980130002847D0FFE7FEF7D5
:102C100083FD0199401A0899884203D8FFE7089874
:102C200020B9FFE703208DF817003CE00498006806
:102C3000C0684007002830D5FFE7039880282CD0D3
:102C4000FFE70398402828D0FFE704980068006851
:102C500000F008010120B0EBD10F1DD1FFE7FFE725
:102C600000200090049800680068009004980068B4
:102C7000406800900098FFE70498FFF7C3FE0499AE
:102C800008204864FFE70499002081F84000FFE72E
:102C900001208DF8170006E0FFE7FFE7A4E700201A
:102CA0008DF81700FFE79DF8170006B080BD000003
:102CB000FFE7FEE781B08DF803009DF903000028CF
:102CC0000ED4FFE79DF9031001F01F020120904090
:102CD0004A094EF20011CEF2000141F82200FFE74E
:102CE00001B070474EF60C50CEF200000068C0F301
:102CF0000220704782B08DF8070000919DF907000F
:102D000000280AD4FFE7009800019DF907104EF251
:102D10000042CEF2000288540BE0009800019DF8BA
:102D2000071001F00F014EF61452CEF20002885443
:102D3000FFE702B07047000083B00290029800F0F5
:102D4000070000904EF60C51CEF200010868019089
:102D500001984FF6FF02104001900198009A40EA56
:102D600002200022C0F2FA5210430190019808603C
:102D700003B0704780B584B000200390FEF7E0FCFC
:102D8000FFF7D0FDFFF7ECFCFFF7C2FCFFF71EFDDD
:102D900040F2CC00C2F200000290FFF739FD029829
:102DA000FFF74AFD4FF4FA70FEF7C6FAFFE76846F0
:102DB0000023036040F2CC00C2F2000001211A4659
:102DC000FDF76CFB40F20000C2F20000016840F227
:102DD000F400C2F2000004220A23FFF7FFFBE6E73B
:102DE000F1EE100A4FF6FF71C0F2C03120EA010087
:102DF00040F04070E1EE100A704700000000000053
:102E00000000010203040607080900000000010297
:102E10000304646A77000000382E000800000020D8
:102E20001000000028020008482E000810000020B2
:102E30003007000048020008122E00080024F400A9
:082E4000010000001000000079
:04000005080001C529
:00000001FF
