:020000040800F2
:100000004007002071020008152C0008BD2A0008D6
:10001000B92B00085D060008ED3000080000000064
:100020000000000000000000000000009D2C0008FF
:100030005D07000800000000992C0008FD2C000856
:100040008B0200088B0200088B0200088B0200085C
:100050008B0200088B0200088B0200088B0200084C
:100060008B0200088B0200088B0200088B0200083C
:100070008B0200088B0200088B0200088B0200082C
:100080008B0200088B0200088B0200088B0200081C
:10009000610600088B0200088B0200088B02000832
:1000A0008B0200088B0200088B0200088B020008FC
:1000B0008B0200088B0200088B0200088B020008EC
:1000C0008B0200088B0200088B0200088B020008DC
:1000D0008B0200088B0200088B0200088B020008CC
:1000E0008B0200088B0200088B0200088B020008BC
:1000F0008B0200088B0200088B0200088B020008AC
:100100008B0200088B0200088B0200088B0200089B
:100110008B0200088B0200088B0200088B0200088B
:100120008B0200088B0200088B0200088B0200087B
:100130008B02000800000000000000008B02000895
:100140008B0200088B0200088B0200088B0200085B
:100150008B0200088B0200088B0200088B0200084B
:100160008B0200088B0200088B0200088B0200083B
:100170008B0200088B0200088B02000800000000C0
:10018000000000008B0200080000000000000000DA
:100190008B02000800000000000000008B02000835
:1001A0000000000000000000000000008B020008BA
:1001B0008B0200088B0200088B0200088B020008EB
:1001C0008B02000800F002F800F040F80AA090E866
:1001D000000C82448344AAF10107DA4501D100F002
:1001E00035F8AFF2090EBAE80F0013F0010F18BF8F
:1001F000FB1A43F001031847683000008830000004
:10020000103A24BF78C878C1FAD8520724BF30C842
:1002100030C144BF04680C60704700000023002414
:1002200000250026103A28BF78C1FBD8520728BF06
:1002300030C148BF0B6070471FB502F0FEFF0FBC16
:1002400000F014F80FB41FBD10B510BD00F0D1F8C8
:100250001146FFF7F1FF02F0B5FF00F0EFF803B42D
:10026000FFF7F2FF03BC00F0FDF8000000F032B928
:100270000948804709480047FEE7FEE7FEE7FEE73A
:10028000FEE7FEE7FEE7FEE7FEE7FEE70448054976
:10029000054A064B70470000D92D0008C50100082B
:1002A00040010020400700204003002040030020C0
:1002B00053EA020C00F069802DE9F04B4FF0000684
:1002C000002B1FBFB3FA83F503FA05F424FA05F6F1
:1002D0005E4012BF1643B2FA82F502FA05F4C5F188
:1002E00020051EBF22FA05FC44EA0C04203556EA1C
:1002F000044C4FEA144418BF641C4FF000084FF040
:100300000009904271EB030C39D3002919BFB1FAEF
:1003100081F701FA07F6B0FA80F700FA07F6C7F19D
:1003200020071EBF20FA07FC46EA0C062037B6FB62
:10033000F4FCA7EB0507103F07F01F0BCBF12006DD
:100340002CFA06F60CFA0BFB44BFB3460026202F0E
:10035000A4BF5E464FF0000B5BEA060C08BF4FF0EF
:10036000010B19EB0B0948EB0608ABFB027C06FB03
:1003700002CC0BFB03CCC01B71EB0C01C1E70B469D
:10038000024641464846BDE8F08B13B54FF00000E9
:100390004FF00001AFF30080BDE81C4070474FF004
:1003A000000200B5134694469646203922BFA0E8C5
:1003B0000C50A0E80C50B1F12001BFF4F7AF0907D1
:1003C00028BFA0E80C5048BF0CC05DF804EB8900C2
:1003D00028BF40F8042B08BF704748BF20F8022B05
:1003E00011F0804F18BF00F8012B7047704770471D
:1003F0007047754600F02CF8AE4605006946534636
:1004000020F00700854618B020B5FFF73FFFBDE894
:1004100020404FF000064FF000074FF000084FF06B
:10042000000BAC46ACE8C009ACE8C009ACE8C009B8
:10043000ACE8C00921F007018D46704710B50446AD
:10044000AFF300802046BDE81040FFF708BF000072
:100450000048704710000020002801D000F002B8CA
:100460007047000001491820ABBEFEE726000200DD
:1004700070B505460C460A2000E06D1C00F011F82E
:1004800035B128780028F8D102E0641C00F009F8A2
:1004900014B120780028F8D1BDE870400A20AFF3ED
:1004A000008008B569468DF800000320ABBE08BD8A
:1004B00070470246C91C21F00301D2E900031B1A50
:1004C0008B4201D2002070470144C91D21F0070171
:1004D000116070472DE9F34F83B000274FF480740B
:1004E000BA4603A821468DF80070FFF7E2FF5FEAE5
:1004F000000801D100F0AAF82146404600F070F84B
:10050000060009D04FF0010B4546C14616F8014BD5
:100510008FB15C2C16D01CE008F108004146C8F8E9
:1005200000000020C8F80400D8F800402070012026
:1005300005B0BDE8F08F222C01D0272C0FD1274623
:10054000BA462CE03078222807D05C2805D027282E
:1005500003D0BC4203D1002721E0761C04464CB1F5
:100560002FB9202C06D0A4F10900042802D905F8DF
:10057000014BCBE74D4502D1BAF1000F0FD05246E7
:100580004946002005F8010B6846AFF300809DF84E
:10059000000070B14D464FF0000A0BF1010B002C2A
:1005A000B4D14FEA8B0103A8FFF783FF040002D008
:1005B00004E0A946EFE7002000F048F8002042469A
:1005C000C4F8008005E012F8011B11B9401C44F882
:1005D0002020AA42F7D3002144F820102146A7E7A3
:1005E0001CB50446CDE9000169461520ABBE08B133
:1005F00000201CBD20461CBD7047704710B5012867
:1006000005D0002103A0FFF733FF012010BD09A191
:10061000F8E7000053494752544D454D3A204F7575
:1006200074206F662068656170206D656D6F7279EA
:10063000000000003A2048656170206D656D6F72A2
:100640007920636F727275707465640010B5FFF77E
:10065000D5FFBDE81040FFF7FFBE0000FFE7FEE753
:1006600080B540F2CC00C2F2000000F063FB80BD18
:1006700070B58CB0DDF840C09E4614460D46064667
:100680000B90ADF82A10ADF82820ADF82630ADF863
:1006900024C00B98006846F20041C4F20001884271
:1006A000CDF814E00494039502960ED1FFE740F2D2
:1006B0007000C2F200004FF400710160002141603F
:1006C0008160C1600821016117E00B98006846F65F
:1006D0000001C4F2000188420ED1FFE740F2700031
:1006E000C2F2000040F2FF11016000214160816010
:1006F000C16008210161FFE7FFE7BDF82A00000A99
:100700008DF81C009DF82A008DF81D00BDF828000A
:10071000000A8DF81E009DF828008DF81F00BDF816
:100720002600000A8DF820009DF826008DF8210093
:10073000BDF82400000A8DF822009DF824008DF8F1
:1007400023000B9840F27001C2F2000107AA06AB29
:1007500000F038F801900CB070BD00007047000048
:1007600072B6FFE7FEE7000086B00A460346049033
:100770000391049890F820008DF80B009DF80B0071
:1007800001280192009305D0FFE79DF80B00022895
:100790000AD1FFE70398049909684A691043486140
:1007A00000208DF8170008E00498416A41F4802188
:1007B000416201208DF81700FFE79DF8170006B091
:1007C00070470000B0B58CB09C4696460C46054676
:1007D0000A900991089207930A9890F820008DF8E2
:1007E00017000A98006880680490099880680028BB
:1007F000CDF80CC0CDF808E00194009501D1FFE7D9
:1008000000E0FFE79DF81700012806D0FFE79DF8FC
:100810001700022840F08280FFE79DF81300400790
:1008200000280CD4FFE79DF813000007002806D429
:10083000FFE79DF81300C006002866D5FFE704987F
:10084000C0F3016006900698012101FA00F00799B3
:1008500008600998806800280DD1FFE709980168B1
:10086000C06840EA41500A990968069A01EB0211F2
:10087000C1F880010EE0099841688268C06842EAC8
:10088000C10108430A990968069A01EB0211C1F8EF
:100890008001FFE7099800690A990968069A01EB47
:1008A0000211C1F884010998007D01280CD1FFE7ED
:1008B0000A980068069900EB0110D0F8841141F401
:1008C0008071C0F88411FFE7089840680A990968A8
:1008D000069A01EB0211C1F88C01089800680A9988
:1008E0000968069A01EB0211C1F888010A980068AC
:1008F000069900EB0110D0F8801141F00101C0F819
:10090000801100208DF82F0011E00A98416A41F40F
:100910000011416201208DF82F0008E00A98416A19
:1009200041F48021416201208DF82F00FFE79DF8FE
:100930002F000CB0B0BD000088B00A4603460690F8
:100940000591069800680390069890F820008DF8AD
:100950000B009DF80B0001280192009306D0FFE7E1
:100960009DF80B00022840F0B880FFE746F20040F7
:10097000C4F2000003900398D0F8001241F0010186
:10098000C0F800120398D0F8001221F47C51C0F88E
:1009900000120598406A0399D1F8002242EA00202B
:1009A000C1F800020598406900F01F00012101FA1A
:1009B00000F0049004980399D1F81C2222EA000068
:1009C000C1F81C020598C06900281FD1FFE70498F0
:1009D0000399D1F80C2222EA0000C1F80C02059814
:1009E0008188C268406941EA0241039A02EBC00073
:1009F000C0F84012059801888268406941EA0241C6
:100A0000039A02EBC000C0F84412FFE70598C069E2
:100A100001281ED1FFE704980399D1F80C22104356
:100A2000C1F80C02059881880268406941EA0241D8
:100A3000039A02EBC000C0F84012059881898268D1
:100A4000406941EA0241039A02EBC000C0F8441237
:100A5000FFE705988069002809D1FFE7049803990A
:100A6000D1F8042222EA0000C1F8040207E0049849
:100A70000399D1F804221043C1F80402FFE7059856
:100A80000069002809D1FFE704980399D1F81422DE
:100A900022EA0000C1F8140207E004980399D1F893
:100AA00014221043C1F81402FFE70598006A0128D8
:100AB00008D1FFE704980399D1F81C221043C1F82C
:100AC0001C02FFE70398D0F8001221F00101C0F8E2
:100AD000001200208DF81F0008E00698416A41F4DA
:100AE0008021416201208DF81F00FFE79DF81F0063
:100AF00008B0704782B001460190009102B0704783
:100B0000B0B58AB09C4696460C46054608900791BB
:100B100006920593089890F820008DF813009DF830
:100B200013000128CDF80CC0CDF808E00194009521
:100B300006D0FFE79DF81300022840F0ED80FFE7A4
:100B40000798002811D1FFE708980068C06810F0E6
:100B5000030F09D1FFE70898416A41F4001141628F
:100B600001208DF82700E0E010E008980068006997
:100B700010F0030F09D1FFE70898416A41F4001112
:100B8000416201208DF82700CFE0FFE70898006858
:100B9000079900EB0110D0F8B00100F004000699AD
:100BA00088600698806800280BD1FFE708980068E5
:100BB000079900EB0110D0F8B001400D06990860CC
:100BC0000AE008980068079900EB0110D0F8B0011E
:100BD000C00806994860FFE708980068079900EB8D
:100BE0000110D0F8B00100F002000699C860089822
:100BF0000068079900EB0110D0F8B40100F00F0075
:100C0000082804D3FFE70698082101610BE0089843
:100C10000068079900EB0110D0F8B40100F00F0054
:100C200006990861FFE708980068079900EB011032
:100C3000D0F8B401C0F307200699886108980068CD
:100C4000079900EB0110D0F8B401000C0699486137
:100C500008980068079900EB0110D0F8B8010599D1
:100C6000087008980068079900EB0110D0F8B801E7
:100C7000000A0599487008980068079900EB011070
:100C8000D0F8B801000C0599887008980068079999
:100C900000EB0110D0F8B801000E0599C870089853
:100CA0000068079900EB0110D0F8BC0105990871A4
:100CB00008980068079900EB0110D0F8BC01000A01
:100CC0000599487108980068079900EB0110D0F861
:100CD000BC01000C0599887108980068079900EB21
:100CE0000110D0F8BC01000E0599C87107980028C2
:100CF00007D1FFE708980068C16841F02001C16092
:100D000006E008980068016941F020010161FFE7F1
:100D100000208DF8270008E00898416A41F48021FE
:100D2000416201208DF82700FFE79DF827000AB0F7
:100D3000B0BD000080B58AB001460990002008903F
:100D40000998006840690790099800684068069013
:100D5000099800688068059009980068C068049048
:100D600009980068006903900998006880690290FA
:100D70009DF81C00C0070028019100F09780FFE754
:100D80009DF81400C00700282BD0FFE709980068E1
:100D9000012181609DF814008007002804D5FFE739
:100DA000099800F005FC1BE09DF81400400700289E
:100DB00005D5FFE7089840F4006008900FE09DF823
:100DC00014000007002805D5FFE7089840F480507C
:100DD000089003E0099800F0E5FBFFE7FFE7FFE775
:100DE000FFE79DF81500C00700282CD0FFE7099801
:100DF00000684FF4807181609DF81500800700281D
:100E000004D5FFE7099800F0DFFB1BE09DF8150013
:100E10004007002805D5FFE7089840F400500890E7
:100E20000FE09DF815000007002805D5FFE708989A
:100E300040F48040089003E0099800F0BFFBFFE712
:100E4000FFE7FFE7FFE79DF81600C00700282CD05A
:100E5000FFE7099800684FF4803181609DF8160023
:100E60008007002804D5FFE7099800F0B9FB1BE0D4
:100E70009DF816004007002805D5FFE7089840F4C4
:100E8000004008900FE09DF816000007002805D5E7
:100E9000FFE7089840F48030089003E0099800F0DC
:100EA00099FBFFE7FFE7FFE7FFE7FFE79DF81C007F
:100EB0000007002810D5FFE79DF81000C0060028A5
:100EC00009D5FFE7089840F4007008900998006879
:100ED0001021C160FFE7FFE79DF81C0040070028D4
:100EE0000FD5FFE79DF810000007002808D5FFE7A1
:100EF000099800680821C160099800F071FAFFE7BD
:100F0000FFE79DF81C00800700280CD5FFE7099833
:100F10000068C06810F0030F04D0FFE7099800F0E4
:100F200065FAFFE7FFE79DF81C004006002810D592
:100F3000FFE79DF80C00C006002809D5FFE70898D8
:100F400040F4806008900998006810210161FFE773
:100F5000FFE79DF81C00800600280FD5FFE79DF8ED
:100F60000C000007002808D5FFE709980068082151
:100F70000161099800F0BAFAFFE7FFE79DF81C004D
:100F8000C00600280CD5FFE709980068006910F03A
:100F9000030F04D0FFE7099800F0AEFAFFE7FFE780
:100FA0009DF81E00800700280FD5FFE79DF8180068
:100FB000C006002808D5FFE70998006810214160A5
:100FC000099800F09FFAFFE7FFE79DF81E00C007B1
:100FD00000280FD0FFE79DF818000007002808D56B
:100FE000FFE70998006808214160099800F0FEFABF
:100FF000FFE7FFE79DF81D000006002840F18F8005
:10100000FFE79DF818004007002840F18380FFE7C4
:101010009DF81D00C00700280BD0FFE79DF80800D1
:10102000C007002805D0FFE7089840F001000890AD
:10103000FFE79DF81D00800700280BD5FFE79DF80E
:1010400008008007002805D5FFE7089840F0020057
:101050000890FFE79DF81D00400700280BD5FFE72B
:101060009DF808004007002805D5FFE7089840F0E4
:1010700004000890FFE79DF81D000007002848D5F0
:10108000FFE79DF8080010F0700F42D0FFE70298CC
:1010900000F0700001461028009114D0FFE700987E
:1010A000202815D0FFE70098302816D0FFE70098D9
:1010B000402817D0FFE70098502818D0FFE7009885
:1010C000602819D01DE0089840F00800089019E049
:1010D000089840F01000089014E0089840F02000B4
:1010E00008900FE0089840F0400008900AE0089847
:1010F00040F08000089005E0089840F48070089067
:1011000000E0FFE709980068816921F070018161C2
:10111000FFE7FFE70998006804214160FFE70898AE
:10112000002809D0FFE7089809994A6A10434862E5
:101130000998FFF7DFFCFFE70AB080BD80B584B0F7
:101140000146029002980028009104D1FFE7012097
:101150008DF80F00E6E0029890F82000002804D1F6
:10116000FFE7029800F0E2F8FFE7029800680168E4
:1011700041F00101016000F041FC0190FFE702989D
:101180000068406810F0010F17D1FFE700F036FC4F
:10119000DDF804E0A0EB0E000B280DD3FFE702986A
:1011A000416A41F4003141620298052180F8201023
:1011B00001208DF80F00B5E0E1E7029800680168B2
:1011C00021F00201016000F019FC0190FFE7029894
:1011D0000068406810F0020F17D0FFE700F00EFC27
:1011E000DDF804E0A0EB0E000B280DD3FFE702981A
:1011F000416A41F4003141620298052180F82010D3
:1012000001208DF80F008DE0E1E70298007E0128B3
:1012100007D1FFE702980068016841F08001016092
:1012200006E002980068016821F080010160FFE794
:101230000298407E012807D1FFE702980068016804
:1012400041F04001016006E002980068016821F069
:1012500040010160FFE70298807E012807D1FFE787
:1012600002980068016841F02001016006E00298E0
:101270000068016821F020010160FFE70298C07E4C
:10128000012807D1FFE702980068016821F01001EA
:10129000016006E002980068016841F010010160F9
:1012A000FFE70298007F012807D1FFE70298006856
:1012B000016841F00801016006E0029800680168D9
:1012C00021F008010160FFE70298407F012807D163
:1012D000FFE702980068016841F00401016006E040
:1012E00002980068016821F004010160FFE702989C
:1012F000016842688368D0F80CC043EA0C03D0F858
:1013000010C043EA0C0340691843013A1043C86116
:101310000298002141620298012280F820208DF875
:101320000F10FFE79DF80F0004B080BD80B58EB0B0
:1013300001460D9000200C900B900A9009900890A7
:101340000D98006846F20042C4F2000290420591F6
:1013500043D1FFE7FFE70020079043F64000C4F2C7
:101360000200016841F000710160006800F0007047
:10137000079007980490FFE7FFE70020069043F6E8
:101380003000C4F20200016841F00201016000680F
:1013900000F00200069006980390FFE74FF44070BB
:1013A00008900220099000200A9003210B91092146
:1013B0000C9140F20041C4F2020108AA02900846D2
:1013C000114600F041F9142001900299029A00F0B0
:1013D000B7FB019800F0A8FBFFE70EB080BD00004E
:1013E00082B001460190009102B0704780B584B090
:1013F000014603900398006846F20042C4F20002DE
:10140000904202916FD1FFE740F2CC00C2F200009F
:1014100040F28801C2F2000140F2A403C2F20003CC
:10142000002201911146019AFFF76AFB01990A68AF
:1014300040F201239A4200900DD1FFE740F2A40050
:10144000C2F200000168406840F2AC02C2F2000241
:101450005060116046E040F28800C2F2000000686F
:1014600040F2022188420DD1FFE740F2A400C2F20F
:1014700000000168406840F2B402C2F2000250600D
:1014800011602EE040F28800C2F20000006840F2D5
:10149000032188420DD1FFE740F2A400C2F2000010
:1014A0000168406840F2BC02C2F200025060116064
:1014B00016E040F28800C2F200000068B0F5017F3B
:1014C0000DD1FFE740F2A400C2F2000001684068BD
:1014D00040F2C402C2F2000250601160FFE7FFE771
:1014E000FFE7FFE7FFE704B080BD000082B00146E0
:1014F0000190009102B0704782B0014601900091C6
:1015000002B0704782B001460190009102B070476E
:1015100080B584B001460290029890F8200001281E
:10152000009132D1FFE70298022180F82010029842
:101530000068016821F00101016000F05FFA01908C
:10154000FFE702980068406810F0010F17D0FFE72E
:1015500000F054FADDF804E0A0EB0E000B280DD3E8
:10156000FFE70298416A41F4003141620298052187
:1015700080F8201001208DF80F000FE0E1E70298BD
:10158000002141628DF80F1008E00298416A41F491
:101590000021416201208DF80F00FFE79DF80F0048
:1015A00004B080BD82B001460190009102B0704746
:1015B00082B001460190009102B0704782B00146AE
:1015C0000190009102B0704782B0014601900091F5
:1015D00002B0704782B001460190009102B070479E
:1015E00082B001460190009102B0704782B001467E
:1015F0000190009102B0704780B584B0014603901D
:10160000009100F0FBF902900398019001980130DD
:10161000002809D0FFE740F20800C2F2000000787D
:10162000019908440190FFE7FFE700F0E7F9DDF8D2
:1016300008E0A0EB0E00DDF804E0704501D2FFE702
:10164000F3E704B080BD000090B00A4603460F9057
:101650000E9100200C900B900A900D900892079329
:10166000FFE70D980F2800F2C781FFE70D980121D1
:1016700001FA00F00C900E9800680C9908400B904D
:101680000B980C99884240F0B281FFE70E984068B1
:1016900000F00300012807D0FFE70E98406800F033
:1016A000030002282FD1FFE70F9880680A900D9859
:1016B0004000032101FA00F00A9921EA00000A9093
:1016C0000E98C0680D99490088400A9908430A900D
:1016D0000A980F9988600F9840680A900D98012128
:1016E00001FA00F00A9921EA00000A900E98406879
:1016F000C0F300100D9988400A9908430A900A988F
:101700000F994860FFE70E98406800F00300032837
:1017100018D0FFE70F98C0680A900D984000032189
:1017200001FA00F00A9921EA00000A900E988068F8
:101730000D99490088400A9908430A900A980F9920
:10174000C860FFE70E98406800F00300022828D127
:10175000FFE70F980D994FF6FC72C7F6FF7202EA89
:1017600051010844006A0A900D9800F007008000BB
:101770000F2101FA00F00A9921EA00000A900E9860
:1017800000690D9901F00701890088400A99084312
:101790000A900A980F990D9B02EA530211440862BD
:1017A000FFE70F9800680A900D984000032101FAA6
:1017B00000F00A9921EA00000A900E98406800F0B3
:1017C00003000D99490088400A9908430A900A9835
:1017D0000F9908600E9880798007002800F0068134
:1017E000FFE7FFE70020099043F64400C4F202003F
:1017F000016841F480410160006800F48040099074
:1018000009980690FFE70D9820F0030043F60801C1
:10181000C4F2010140580A900D9800F003008000C6
:101820000F2101FA00F00A9921EA00000A900F98AE
:101830000021C4F20201884203D1FFE70020059095
:1018400050E00F9840F20041C4F20201884203D1F7
:10185000FFE70120049042E00F9840F60001C4F237
:101860000201884203D1FFE70220039034E00F9881
:1018700040F60041C4F20201884203D1FFE7032091
:10188000029026E00F9841F20001C4F20201884262
:1018900003D1FFE70420019018E00F9841F20041C6
:1018A000C4F20201884203D1FFE7052000900AE05C
:1018B0000F9841F60001C4F202010722884208BFD6
:1018C00006220092FFE700980190FFE7019802903E
:1018D000FFE702980390FFE703980490FFE704985E
:1018E0000590FFE70598C0B20D9901F0030189004A
:1018F00088400A9908430A900A980D9921F003013B
:1019000043F60802C4F20102885043F60840C4F2CC
:10191000010000680A900B980A9921EA00000A90D9
:101920000E988079C006002805D5FFE70B980A9924
:1019300008430A90FFE70A9843F60841C4F2010100
:10194000086043F60C40C4F2010000680A900B984E
:101950000A9921EA00000A900E98807980060028F2
:1019600005D5FFE70B980A9908430A90FFE70A9804
:1019700043F60C41C4F20101086043F60440C4F28E
:10198000010000680A900B980A9921EA00000A9069
:101990000E9880798007002805D5FFE70B980A99F3
:1019A00008430A90FFE70A9843F60441C4F2010194
:1019B000086043F60040C4F2010000680A900B98EA
:1019C0000A9921EA00000A900E988079C007002841
:1019D00005D0FFE70B980A9908430A90FFE70A9899
:1019E00043F60041C4F201010860FFE7FFE7FFE7AB
:1019F0000D9801300D9034E610B0704740F23C1065
:101A0000C2F200000068704740F20800C2F2000015
:101A1000007840F23C11C2F200010A6810440860EC
:101A20007047000080B582B043F60040C4F2020067
:101A3000016841F400710160016841F48061016056
:101A4000016841F480710160032000F09DF80F20CF
:101A500000F006F8019000F03FF8002002B080BDD1
:101A600080B584B00146029040F20400C2F200004A
:101A7000006840F20802C2F2000212784FF47A7352
:101A8000B3FBF2F2B0FBF2F0019100F0C1FE0028CE
:101A900004D0FFE701208DF80F0018E002980F280E
:101AA0000DD8FFE702994FF0FF30002200F048F810
:101AB000029840F20C01C2F20001086003E001202C
:101AC0008DF80F0003E000208DF80F00FFE79DF870
:101AD0000F0004B080BD000084B0FFE70020039039
:101AE00043F64400C4F20200016841F48041016001
:101AF000006800F48040039003980190FFE7FFE73F
:101B00000020029043F64000C4F20200016841F058
:101B100080510160006800F08050029002980090AF
:101B2000FFE704B07047000080B582B001468DF831
:101B300007009DF90700009101F0DAFA02B080BDBC
:101B400080B58AB013468C4686468DF827000891EA
:101B50000792002006900593CDF810C0CDF80CE058
:101B600001F0E2FA069006980899079A9DF9273045
:101B7000029301F051F8029901900846019901F091
:101B8000DBFA0AB080BD000080B582B0014601904A
:101B90000198009101F0F6FA02B080BD80B584B0E2
:101BA00000200290FFE70020019043F64000C4F2BD
:101BB0000200016841F080510160006800F080502F
:101BC000019001980090FFE74020C4F20E2001210F
:101BD0000160FFF713FF0290FFE747F20400C4F231
:101BE0000000006800F48030B0F5803F0FD0FFE7C0
:101BF000FFF704FFDDF808E0A0EB0E00B0F57A7FF8
:101C000004D9FFE703208DF80F0027E0E5E7442023
:101C1000C4F20E2001210160FFF7F0FE0290FFE701
:101C200047F20400C4F20000006800F40030B0F590
:101C3000003F0FD0FFE7FFF7E1FEDDF808E0A0EB83
:101C40000E00B0F57A7F04D9FFE703208DF80F006E
:101C500004E0E5E700208DF80F00FFE79DF80F0096
:101C600004B080BD80B588B00A4603460690059151
:101C7000069800280392029304D1FFE701208DF813
:101C80001F0026E1059843F60041C4F202010968ED
:101C900001F00F01884212D9FFE7059843F6004191
:101CA000C4F202010870086800F00F00059988422C
:101CB00004D0FFE701208DF81F000AE1FFE7069836
:101CC0000068800700282AD5FFE7069800684007CB
:101CD000002809D5FFE743F60800C4F202000168B6
:101CE00041F4E0510160FFE7069800680007002812
:101CF00009D5FFE743F60800C4F20200016841F489
:101D000060410160FFE743F60800C4F20200016889
:101D100021F0F001069A926811430160FFE70698EE
:101D20000068C007002870D0FFE7069840680128C7
:101D300011D1FFE743F60000C4F20200006800F48E
:101D400000300021B1EB504F04D1FFE701208DF8A6
:101D50001F00BEE02CE006984068022805D0FFE78F
:101D600006984068032811D1FFE743F60000C4F24B
:101D70000200006800F000700021B1EB506F04D148
:101D8000FFE701208DF81F00A3E010E043F60000FC
:101D9000C4F20200006800F002000021B1EB500F15
:101DA00004D1FFE701208DF81F0092E0FFE7FFE775
:101DB00043F60800C4F20200016821F00301069A0C
:101DC000526811430160FFF719FE0490FFE743F6E4
:101DD0000800C4F20200006800F00C00069949688F
:101DE000B0EB810F10D0FFE7FFF708FEDDF810E041
:101DF000A0EB0E0041F2893E704504D3FFE70320BB
:101E00008DF81F0065E0E2E7FFE7059843F6004123
:101E1000C4F20201096801F00F01884212D2FFE703
:101E2000059843F60041C4F202010870086800F00A
:101E30000F000599884204D0FFE701208DF81F00AC
:101E400047E0FFE706980068400700280CD5FFE749
:101E500043F60800C4F20200016821F4E051069A3A
:101E6000D26811430160FFE7069800680007002868
:101E70000DD5FFE743F60800C4F20200016821F423
:101E80006041069A126941EAC2010160FFE700F071
:101E900053F843F6080EC4F2020EDEF800E0CEF36B
:101EA000031E43F24421C0F6000111F80E10C84091
:101EB00040F20401C2F20001086040F20C00C2F2DC
:101EC00000000068FFF7CCFD00218DF81F10019085
:101ED000FFE79DF81F0008B080BD000040F204003D
:101EE000C2F200000068704780B5FFF7F7FF43F6C5
:101EF000080EC4F2020EDEF800E0CEF3822E43F2AA
:101F00005421C0F6000111F80E10C84080BD000039
:101F100080B5FFF7E3FF43F6080EC4F2020EDEF8C9
:101F200000E0CEF3423E43F25421C0F6000111F826
:101F30000E10C84080BD000080B586B0002005901E
:101F4000049003900290019043F60800C4F202004E
:101F5000006800F00C0001460C28009100F29B8004
:101F60000099DFE801F0079898980D9898981398D1
:101F70009898570042F20040C0F2F400019090E0BF
:101F800041F60030C0F2B70001908AE043F6040049
:101F9000C4F20200016801F03F010591006810F4ED
:101FA000800F13D0FFE743F60400C4F2020000687C
:101FB000C0F3881041F60031C0F2B701A0FB010167
:101FC000059A0023FEF774F9049012E043F604002A
:101FD000C4F202000068C0F3881042F20041C0F26F
:101FE000F401A0FB0101059A0023FEF761F90490BA
:101FF000FFE743F60400C4F20200006800F440303A
:10200000022101EBD030039004980399B0FBF1F06A
:10201000019046E043F60400C4F20200016801F0BA
:102020003F010591006810F4800F13D0FFE743F6DD
:102030000400C4F202000068C0F3881041F60031C9
:10204000C0F2B701A0FB0101059A0023FEF730F9A9
:10205000049012E043F60400C4F202000068C0F3EA
:10206000881042F20041C0F2F401A0FB0101059A80
:102070000023FEF71DF90490FFE743F60400C4F2C5
:1020800002000068C0F30270029004980299B0FB4D
:10209000F1F0019005E042F20040C0F2F40001903E
:1020A000FFE7019806B080BD80B588B00146069074
:1020B00006980028019104D1FFE701208DF81F0048
:1020C000A2E306980068C007002800F0C080FFE780
:1020D00043F60800C4F20200006800F00C00042877
:1020E00028D0FFE743F60800C4F20200006800F0C1
:1020F0000C0008280BD1FFE743F60400C4F20200ED
:10210000006800F48000B0F5800F13D0FFE743F6BD
:102110000800C4F20200006800F00C000C281FD177
:10212000FFE743F60400C4F20200006810F4800FD9
:1021300016D0FFE743F60000C4F20200006800F486
:1021400000300021B1EB504F09D0FFE706984068FE
:10215000002804D1FFE701208DF81F0054E375E04B
:10216000FFE706984068B0F5803F09D1FFE743F6E6
:102170000000C4F20200016841F48031016020E0F7
:1021800006984068B0F5A02F0DD1FFE743F6000098
:10219000C4F20200016841F480210160016841F449
:1021A000803101600CE043F60000C4F202000168D7
:1021B00021F480310160016821F480210160FFE792
:1021C000FFE7FFE70698406800281FD0FFE7FFF70A
:1021D00015FC0590FFE743F60000C4F2020000681A
:1021E00000F400300021B1EB504F0ED1FFE7FFF7B4
:1021F00005FCDDF814E0A0EB0E00652804D3FFE732
:1022000003208DF81F00FFE2E5E71EE0FFF7F6FB75
:102210000590FFE743F60000C4F20200006800F4F6
:1022200000300021B1EB504F0ED0FFE7FFF7E6FB87
:10223000DDF814E0A0EB0E00652804D3FFE70320CF
:102240008DF81F00E0E2E5E7FFE7FFE7FFE706980C
:1022500000688007002840F1AE80FFE743F60800E1
:10226000C4F20200006810F00C0F26D0FFE743F61E
:102270000800C4F20200006800F00C00082809D130
:10228000FFE743F60400C4F20200006810F4800F78
:1022900013D0FFE743F60800C4F20200006800F024
:1022A0000C000C282CD1FFE743F60400C4F2020016
:1022B000006810F4800F23D1FFE743F60000C4F25A
:1022C0000200006800F002000021B1EB500F09D0BD
:1022D000FFE70698C068012804D0FFE701208DF8C9
:1022E0001F0091E243F60000C4F20200016821F0F1
:1022F000F801069A126941EAC2010160FFE759E05C
:102300000698C068002830D0FFE70020C4F24720BC
:1023100001210160FFF772FB0590FFE743F6000023
:10232000C4F20200006800F002000021B1EB500F7F
:102330000ED1FFE7FFF762FBDDF814E0A0EB0E0023
:10234000032804D3FFE703208DF81F005CE2E5E7D4
:1023500043F60000C4F20200016821F0F801069A79
:10236000126941EAC201016023E00020C4F2472063
:1023700000210160FFF742FB0590FFE743F60000F4
:10238000C4F20200006800F002000021B1EB500F1F
:102390000ED0FFE7FFF732FBDDF814E0A0EB0E00F4
:1023A000032804D3FFE703208DF81F002CE2E5E7A4
:1023B000FFE7FFE7FFE7069800680007002850D511
:1023C000FFE706984069002825D0FFE740F68060C7
:1023D000C4F2472001210160FFF710FB0590FFE7E1
:1023E00043F67400C4F20200006800F0020000210D
:1023F000B1EB500F0ED1FFE7FFF700FBDDF814E063
:10240000A0EB0E00032804D3FFE703208DF81F0084
:10241000FAE1E5E724E040F68060C4F247200021BD
:102420000160FFF7EBFA0590FFE743F67400C4F292
:102430000200006800F002000021B1EB500F0ED046
:10244000FFE7FFF7DBFADDF814E0A0EB0E0003284E
:1024500004D3FFE703208DF81F00D5E1E5E7FFE790
:10246000FFE7069800684007002840F1D680FFE7A4
:1024700000208DF80F0043F64000C4F2020000680F
:1024800010F0805F16D1FFE7FFE70020029043F6CF
:102490004000C4F20200016841F080510160006810
:1024A00000F08050029002980090FFE701208DF824
:1024B0000F00FFE747F20000C4F20000006810F4CC
:1024C000807F24D1FFE747F20000C4F200000168DA
:1024D00041F480710160FFF791FA0590FFE747F240
:1024E0000000C4F20000006810F4807F0ED1FFE706
:1024F000FFF784FADDF814E0A0EB0E00032804D304
:10250000FFE703208DF81F007EE1E8E7FFE7FFE724
:1025100006988068012809D1FFE743F67000C4F2ED
:102520000200016841F0010101601FE00698806827
:1025300005280DD1FFE743F67000C4F202000168E0
:1025400041F004010160016841F0010101600CE00B
:1025500043F67000C4F20200016821F0010101603D
:10256000016821F004010160FFE7FFE7FFE706983B
:102570008068002821D0FFE7FFF740FA0590FFE7C9
:1025800043F67000C4F20200006800F0020000216F
:10259000B1EB500F10D1FFE7FFF730FADDF814E090
:1025A000A0EB0E0041F2893E704504D3FFE7032003
:1025B0008DF81F0028E1E3E720E0FFF71FFA059000
:1025C000FFE743F67000C4F20200006800F002006A
:1025D0000021B1EB500F10D0FFE7FFF70FFADDF845
:1025E00014E0A0EB0E0041F2893E704504D3FFE7F2
:1025F00003208DF81F0007E1E3E7FFE79DF80F00D8
:10260000012809D1FFE743F64000C4F20200016847
:1026100021F080510160FFE7FFE7069880690028FC
:1026200000F0EE80FFE743F60800C4F20200006805
:1026300000F00C00082800F08E80FFE70698806903
:10264000022863D1FFE76020C4F247200021016027
:10265000FFF7D4F90590FFE743F60000C4F202004B
:10266000006800F000700021B1EB506F0ED0FFE762
:10267000FFF7C4F9DDF814E0A0EB0E00032804D343
:10268000FFE703208DF81F00BEE0E5E70698C1696B
:10269000026A436AD0F828C0114341EA83114FEA25
:1026A000CC324FF6FF739A43A2F580321143C26ACF
:1026B00041EA0261006B41EA007043F60401C4F292
:1026C000020108606020C4F2472001210160FFF789
:1026D00095F90590FFE743F60000C4F20200006898
:1026E00000F000700021B1EB506F0ED1FFE7FFF753
:1026F00085F9DDF814E0A0EB0E00032804D3FFE712
:1027000003208DF81F007FE0E5E723E06020C4F29E
:10271000472000210160FFF771F90590FFE743F6BC
:102720000000C4F20200006800F000700021B1EB6C
:10273000506F0ED0FFE7FFF761F9DDF814E0A0EB72
:102740000E00032804D3FFE703208DF81F005BE091
:10275000E5E7FFE753E006988069012804D1FFE729
:1027600001208DF81F004FE043F60400C4F2020080
:10277000006804900698806901283AD0FFE7049821
:1027800000F480000699C969884232D1FFE70498B5
:1027900000F03F000699096A88422AD1FFE70498B1
:1027A00047F6C07108400699496AB0EB811F20D1F5
:1027B000FFE7049800F440300699896AC9034FF690
:1027C000FF729143A1F58031884212D1FFE704984E
:1027D00000F070600699C96AB0EB016F09D1FFE79C
:1027E000049800F0E0400699096BB0EB017F04D03B
:1027F000FFE701208DF81F0006E0FFE7FFE7FFE796
:1028000000208DF81F00FFE79DF81F0008B080BD75
:1028100080B582B0014601900198009100F040FA25
:1028200002B080BD80B584B00146029002980028B5
:10283000019104D1FFE701208DF80F0043E00298D9
:102840008069002801D0FFE700E0FFE7029890F8D8
:102850004100002808D1FFE70298002180F84010CD
:10286000029800F035F8FFE70298242180F8411023
:1028700002980068C16821F40051C160029800F01C
:1028800001FB02980068016921F4904101610298FE
:102890000068416921F02A01416102980068C1681D
:1028A00041F40051C16002980021416402984FF048
:1028B000200E80F841E0029880F842E002984163DF
:1028C0008DF80F10FFE79DF80F0004B080BD0000E9
:1028D00080B58CB001460B9000200A9009900890BA
:1028E000079006900B98006844F20042C4F2000280
:1028F0009042039135D1FFE7FFE70020059043F6B2
:102900004000C4F20200016841F400310160006837
:1029100000F40030059005980290FFE7FFE70020E3
:10292000049043F63000C4F20200016841F0010156
:102930000160006800F00100049004980190FFE736
:102940000C20069002200790002008900320099098
:1029500007200A900020C4F2020006A9FEF774FEC8
:10296000FFE70CB080BD0000B0B58EB09C46964627
:102970000C4605460C900B91ADF82A2009930020D7
:1029800006900C9890F841002028CDF814C0CDF89E
:1029900010E00394029540F08880FFE70B98002830
:1029A00005D0FFE7BDF82A00002804D1FFE7012089
:1029B0008DF837007DE00C98002141640C982121AE
:1029C00080F84110FFF71AF80690BDF82A000C991C
:1029D0008884BDF82A000C99C8840C988068B0F5EA
:1029E000805F0AD1FFE70C980069002805D1FFE756
:1029F000002008900B98079004E00B9808900020A6
:102A00000790FFE7FFE70C98C08C002831D0FFE764
:102A10000C98069B09996A4611608021002200F0FB
:102A2000E5FA002808D0FFE70C98202180F8411033
:102A300003208DF837003CE0089800280BD1FFE711
:102A4000079800886FF35F200C9909684860079821
:102A50000230079008E0089800780C9909684860EF
:102A6000089801300890FFE70C98C18C0139C184A7
:102A7000C9E70C98069B09996A461160402100221B
:102A800000F0B4FA002808D0FFE70C98202180F865
:102A9000411003208DF837000BE00C98202180F8BE
:102AA000411000208DF8370003E002208DF8370038
:102AB000FFE79DF837000EB0B0BD0000FFE7FEE76E
:102AC00080B540F2CC00C2F2000046F20041C4F2F0
:102AD000000101600921416000218160C1604FF463
:102AE000803202614FF48012426101764176817634
:102AF000C17601774177FEF721FB002803D0FFE77D
:102B0000FDF72EFEFFE780BD86B0FFE700200590B1
:102B100043F63000C4F20200016841F08001016018
:102B2000006800F08000059005980290FFE7FFE73D
:102B30000020049043F63000C4F20200016841F026
:102B400001010160006800F0010004900498019008
:102B5000FFE7FFE70020039043F63000C4F20200D5
:102B6000016841F002010160006800F0020003907A
:102B700003980090FFE706B07047000080B540F270
:102B8000F400C2F2000044F20041C4F2000101600E
:102B90004FF4E131416000218160C16001610C228C
:102BA00042618161C161FFF73DFE002803D0FFE76C
:102BB000FDF7D6FDFFE780BDFFE7FEE780B58EB0ED
:102BC00001460D900020099001220A920390049082
:102BD00005900690079008900B920D9803AA029119
:102BE0001146FDF7A9FE01900EB080BD80B584B0FE
:102BF0000146039003980291FEF78AFC03994FF077
:102C0000020E019008467146FDF7AEFD009004B03B
:102C100080BD0000FFE7FEE780B58BB013468C4611
:102C200086460A90099108920A9800F007000790DA
:102C30000798C0F1070005280493CDF80CC0CDF823
:102C400008E003D3FFE70420019004E00798C0F1F7
:102C500007000190FFE701980690079804300628C6
:102C600003D8FFE70020009003E0079803380090A6
:102C7000FFE70098059009980699012202FA01F1F0
:102C80000139084005998840089B02FA01F1013991
:102C9000194008430BB080BD70470000704700002A
:102CA00080B584B00146029002980138B0F1807F6F
:102CB000019103D3FFE7012003901BE00298013844
:102CC0004EF21401CEF2000108604FF0FF300F21E8
:102CD00000F032FA4EF21800CEF20000002101603E
:102CE0004EF21000CEF200004FF0070EC0F800E0E8
:102CF0000391FFE7039804B080BD000080B5FEF7A4
:102D000083FE80BD80B596B009A83421FDF747FB4E
:102D1000002008900790069005900490FFE700209F
:102D2000039043F64000C4F20200016841F0805174
:102D30000160006800F08050039003980190FFE765
:102D4000FFE70020029047F20000C4F20000016893
:102D500041F440410160006800F440400290029854
:102D60000090FFE7012009904FF480300A90022084
:102D70000F904FF48001109106211191B42112910E
:102D800013901490159009A8FFF78EF9002803D02E
:102D9000FFE7FDF7E5FCFFE7FEF700FF002803D0A3
:102DA000FFE7FDF7DDFCFFE70F2004900220059010
:102DB000002006904FF4A05007904FF480500890E8
:102DC00004A80521FEF74EFF002803D0FFE7FDF71A
:102DD000C7FCFFE716B080BD4EF68850CEF200006B
:102DE000016841F4700101607047000085B0014640
:102DF00004900091FFE7FFE70498006850E8030F94
:102E000020F490700390FFE703980499096841E863
:102E10000302002AF0D1FFE7FFE7FFE7FFE704988E
:102E2000006850E8050F20F001000290FFE70298CB
:102E30000499096841E80502002AF0D1FFE7FFE79D
:102E40000498006B012814D1FFE7FFE7FFE704981F
:102E5000006850E8030F20F010000190FFE7019890
:102E60000499096841E80302002AF0D1FFE7FFE76F
:102E7000FFE70498202180F84210049800210163A4
:102E800005B0704780B58CB001460B900B98006878
:102E9000006920F440500B9A1368D26810431861FF
:102EA0000B9882680369D0F814C0C0691A4342EADB
:102EB0000C0210430A900B980068C06849F20C623B
:102EC00090430A9A10430B9A1268D0600B980068DE
:102ED000406920F440700B9A13689269104358615E
:102EE0000B98006841F20002C4F20102904208917E
:102EF00009D0FFE70B98006841F20041C4F20101DC
:102F0000884204D1FFE7FFF703F8099003E0FEF7DA
:102F1000EBFF0990FFE70B98C069B0F5004F31D186
:102F2000FFE709981921A0FB01010B9A1368526869
:102F30004FEA420CD20F07926246DDF81CC006939E
:102F40006346FDF7B5F948F21F51C5F2EB11A0FB3E
:102F500001235B094FF0640C03FB1C004FF0320CA3
:102F60000CEBC000A0FB01014FF4F87C0CEA111C33
:102F70000CEB0313C1F342111943069B99600590B2
:102F8000049230E009981921A0FB01010B9A136803
:102F900052684FEA820C920F03926246DDF80CC031
:102FA00002936346FDF784F948F21F51C5F2EB1115
:102FB000A0FB01235B094FF0640C03FB1C004FF0E6
:102FC000320C0CEB0010A0FB01014FF0F00C0CEAEE
:102FD000511C0CEB0313C1F343111943029B99607D
:102FE00001900092FFE70CB080BD000070B58CB07E
:102FF000DDF840C09E4614460D4606460A900991EB
:103000008DF823200793CDF814E0049403950296DD
:10301000CDF804C0FFE70A980068006809990840E5
:10302000401AB0FA80F040099DF82310884254D12C
:10303000FFE71098013000284ED0FFE7FEF7DEFCD6
:10304000DDF81CE0A0EB0E00DDF840E0704504D890
:10305000FFE71098002804D1FFE703208DF82F0028
:103060003FE00A980068C06810F0040F33D0FFE713
:10307000099880282FD0FFE7099840282BD0FFE738
:103080000A980068006800F008000121B1EBD00F39
:1030900020D1FFE7FFE7002006900A98006800684B
:1030A00006900A9800684068069006980090FFE72E
:1030B0000A98FFF79BFE0A984FF0080EC0F844E00C
:1030C000FFE70A98002180F84010FFE701208DF803
:1030D0002F0006E0FFE7FFE79DE700208DF82F00B7
:1030E000FFE79DF82F000CB070BD0000FFE7FEE782
:1030F00082B001468DF807009DF907000028009175
:103100000FDBFFE79DF9070000F01F01012202FA23
:1031100001F140094EF20012CEF2000242F82010F6
:10312000FFE702B0704700004EF60C50CEF20000F0
:103130000068C0F30220704784B00A4603468DF849
:103140000F0002919DF90F000028019200930ADB05
:10315000FFE7029800019DF90F104EF20042CEF2F7
:10316000000288540BE0029800019DF80F1001F056
:103170000F014EF61452CEF200028854FFE704B05D
:103180007047000084B001460390039800F00700E8
:1031900001904EF60C50CEF2000002680292029AA4
:1031A0004FF6FF031A400292029A019B42EA032261
:1031B0000023C0F2FA531A430292029A026000916D
:1031C00004B0704780B586B000200590FEF72AFC59
:1031D0000490FFF797FDFFF797FCFFF771FCFFF7EF
:1031E000CDFC40F2CC00C2F200000390FFF7E6FCF9
:1031F0000398FFF7FBFC4FF4FA70FEF7FDF9FFE7C9
:1032000068460021016040F2CC00C2F200000122B9
:1032100002911146029A029BFDF72AFA40F2000041
:10322000C2F20000016840F2F400C2F20000042281
:103230000A23FFF799FB0190E2E74FF04070E1EEBF
:10324000100A7047000000000000000001020304A3
:10325000060708090000000001020304646A770001
:10326000803200080000002010000000000200086A
:103270009032000810000020300700001C020008F7
:103280005C3200080024F40001000000100000007F
:04000005080001C529
:00000001FF
