:020000040800F2
:10000000280B0020910200086145000811400008FB
:10001000BD43000889040008E94F00080000000003
:100020000000000000000000000000002D47000854
:10003000350900080000000029470008854700082E
:10004000AB020008AB020008AB020008AB020008DC
:10005000AB020008AB020008AB020008AB020008CC
:10006000AB020008AB020008AB020008AB020008BC
:100070007D070008AB020008AB020008AB020008D5
:100080008D070008AB020008AB020008AB020008B5
:100090008D040008AB020008AB020008AB020008A8
:1000A000AB020008AB020008AB020008AB0200087C
:1000B0006D480008AB020008AB020008AB02000864
:1000C000AB020008AB020008AB020008AB0200085C
:1000D000AB020008AB020008AB020008AB0200084C
:1000E000AB020008AB020008AB020008AB0200083C
:1000F000AB020008AB020008AB020008AB0200082C
:10010000AB020008AB020008AB020008AB0200081B
:10011000AB020008AB020008AB020008AB0200080B
:10012000AB020008AB020008AB020008AB020008FB
:10013000AB0200080000000000000000AB02000855
:10014000AB0200089D040008AB020008AB020008E7
:10015000AB020008AB020008AB020008AB020008CB
:10016000AB020008AB020008AB020008AB020008BB
:10017000AB020008AB020008AB0200080000000060
:1001800000000000AB0200080000000000000000BA
:10019000AB0200080000000000000000AB020008F5
:1001A000000000000000000000000000AB0200089A
:1001B000AB020008AB020008AB020008AB0200086B
:1001C000AB02000800F002F800F052F814A696E81E
:1001D000000CB244B344DA4501D100F049F8BAE862
:1001E0000F000FA696E83000A5EB040504EB060708
:1001F000AAEB0704A7F101074FEA15154FEA3414DB
:10020000A4F10104AC4201D300F032F813F0010F65
:1002100018BFFB1A43F0010300F001F8DBE71847B1
:10022000E458000004590000103A24BF78C878C18F
:10023000FAD8520724BF30C830C144BF04680C60EC
:1002400070470000704700000023002400250026AE
:10025000103A28BF78C1FBD8520728BF30C148BF29
:100260000B6070471FB505F02AFC1FBD10B510BD0F
:1002700000F0D0F81146FFF7F5FF04F057FF00F04B
:10028000EEF803B4FFF7F2FF03BC00F0F5F800004E
:100290000948804709480047FEE7FEE7FEE7FEE71A
:1002A000FEE7FEE7FEE7FEE7FEE7FEE70448054956
:1002B000054A064B7047000059480008C501000870
:1002C00028050020280B00202807002028070020F0
:1002D00053EA020C00F069802DE9F04B4FF0000664
:1002E000002B1FBFB3FA83F503FA05F424FA05F6D1
:1002F0005E4012BF1643B2FA82F502FA05F4C5F168
:1003000020051EBF22FA05FC44EA0C04203556EAFB
:10031000044C4FEA144418BF641C4FF000084FF01F
:100320000009904271EB030C39D3002919BFB1FACF
:1003300081F701FA07F6B0FA80F700FA07F6C7F17D
:1003400020071EBF20FA07FC46EA0C062037B6FB42
:10035000F4FCA7EB0507103F07F01F0BCBF12006BD
:100360002CFA06F60CFA0BFB44BFB3460026202FEE
:10037000A4BF5E464FF0000B5BEA060C08BF4FF0CF
:10038000010B19EB0B0948EB0608ABFB027C06FBE3
:1003900002CC0BFB03CCC01B71EB0C01C1E70B467D
:1003A000024641464846BDE8F08B13B5084318BFE6
:1003B0004FF0FF300146AFF30080BDE81C407047AE
:1003C0004FF0000200B5134694469646203922BFEE
:1003D000A0E80C50A0E80C50B1F12001BFF4F7AF39
:1003E000090728BFA0E80C5048BF0CC05DF804EB1B
:1003F000890028BF40F8042B08BF704748BF20F889
:10040000022B11F0804F18BF00F8012B7047704786
:1004100070477047754600F02BF8AE4605006946F8
:10042000534620F00700854618B020B5FFF73EFF81
:10043000BDE820404FF000064FF000074FF00008E5
:100440004FF0000BAC46ACE8C009ACE8C009ACE822
:10045000C009ACE8C00921F007018D46704710B50E
:100460000446AFF300802046BDE81040FFF709BF07
:1004700000487047D800002001491820ABBEFEE7B5
:100480002600020070470000FFE7FEE780B540F25B
:10049000C810C2F2000000F009FD80BD80B540F236
:1004A000F010C2F2000000F001FD80BD80B584B004
:1004B000ADF80E00ADF80C10ADF80A20ADF808301C
:1004C00040F2A411C2F200014FF400700860002055
:1004D0008860C860082008619DF80F0040F29C12F7
:1004E000C2F2000210709DF80E0050709DF80D00D1
:1004F00090709DF80C00D0709DF80B0010719DF865
:100500000A0050719DF8090090719DF80800D071A3
:1005100040F2C810C2F2000001AB00F03BFA04B098
:1005200080BD000080B584B0ADF80E00ADF80C10B1
:10053000ADF80A20ADF8083040F2E841C2F20001FF
:1005400040F2FF10086000208860C8600820086141
:100550009DF80F0040F2E042C2F2000210709DF8D8
:100560000E0050709DF80D0090709DF80C00D0703A
:100570009DF80B0010719DF80A0050719DF809005C
:1005800090719DF80800D07140F2C810C2F20000CE
:1005900001AB00F0FFF904B080BD000080B584B06D
:1005A000ADF80E00ADF80C10ADF80A20ADF808302B
:1005B00040F20851C2F200014FF4007008600020C0
:1005C0008860C860082008619DF80F0040F2005262
:1005D000C2F2000210709DF80E0050709DF80D00E0
:1005E00090709DF80C00D0709DF80B0010719DF874
:1005F0000A0050719DF8090090719DF80800D071B3
:1006000040F2F010C2F2000001AB00F0C3F904B0F8
:1006100080BD000080B584B0039002910020ADF849
:100620000600FFE7BDF80600032823DCFFE7BDF85E
:10063000063003EB430140F20C00C2F2000000EB75
:10064000C100029901EBC301B1F90410039A32F918
:10065000132004F0CDFDBDF8062040F25E41C2F249
:10066000000121F81200FFE7BDF806000130ADF8E7
:100670000600D7E740F25E43C2F20003B3F9000080
:10068000B3F90210B3F90420B3F90630FFF70EFFF7
:1006900004B080BD0000000080B584B0ADF80E004D
:1006A00002910298B0F904000190BDF90E0004F027
:1006B00092FF41EC100B9FED121B53EC112B51ECF0
:1006C000100B04F09FFF41EC100B51EC100B04F0E9
:1006D00053FF0199024640F26C00C2F2000004F0A0
:1006E00087FD014640F2BC10C2F200000180B0F963
:1006F0000000002319461A46FFF714FF04B080BD1E
:10070000000000000000424080B584B003900291D8
:100710000020ADF80000FFE7BDF80000012821DC53
:10072000FFE7BDF8003003EB430140F28400C2F262
:10073000000000EBC100029901EBC301B1F9041004
:10074000039A32F9132004F053FDBDF800200DF197
:10075000020121F81200FFE7BDF800000130ADF8FA
:100760000000D9E7BDF90200BDF90410BDF906206B
:100770000023FFF713FF04B080BD000080B540F2F6
:100780007820C2F2000001F06BF880BD80B540F225
:100790001820C2F2000001F063F880BD82B0019021
:1007A0000198007810384AF6AB21CAF6AA21A0FBBE
:1007B000011000090090009945F6FA20C0F60000EB
:1007C000405C0199C8650098042807D3FFE70199A8
:1007D0000868042262F30900886506E00199086848
:1007E00040F2FF3290438865FFE70198806D02B0C8
:1007F0007047000086B0059000208DF81300059822
:10080000806A03900598806910BBFFE70398029007
:1008100003281BD80299DFE801F0020D02180598A1
:1008200090F82F00C00720B1FFE701208DF81300DA
:10083000FFE70CE00598C06AB0F1C07F04D1FFE784
:1008400001208DF81300FFE701E000E0FFE745E03D
:1008500005988069B0F5005F25D1FFE70398019006
:1008600003281ED80199DFE801F0020602110120D9
:100870008DF8130016E0059890F82F00C00720B1FE
:10088000FFE701208DF81300FFE70BE00598C06A31
:10089000B0F1C07F04D1FFE701208DF81300FFE71E
:1008A00000E0FFE719E003980090032804D3FFE776
:1008B0000098032804D00EE001208DF813000BE00F
:1008C000059890F82F00C00720B1FFE701208DF8B0
:1008D0001300FFE700E0FFE7FFE7FFE79DF81300E5
:1008E00006B0704784B00390029101920093039880
:1008F0000168086820F4802008600098039909685E
:10090000486003988068402809D1FFE7019803995F
:1009100009688860029803990968C86008E002982D
:10092000039909688860019803990968C860FFE71E
:1009300004B070477047000072B6FFE7FEE70000A2
:1009400084B002900191029890F820008DF8030085
:100950009DF80300012805D0FFE79DF80300022859
:100960000AD1FFE7019A029801684869104348617B
:1009700000208DF80F0008E00299486A40F48020BA
:10098000486201208DF80F00FFE79DF80F0004B0CA
:100990007047000088B00690059104920393069872
:1009A00090F820008DF80700069800688068009095
:1009B0000598806808B9FFE700E0FFE79DF80700A9
:1009C000012806D0FFE79DF80700022840F080804C
:1009D000FFE79DF80300400700280CD4FFE79DF8CF
:1009E00003000007002806D4FFE79DF80300C006B7
:1009F000002864D5FFE70098C0F3016002900299D7
:100A000001208840039908600598806868B9FFE76D
:100A100005980168C06840EA415006990968029A41
:100A200001EB0211C1F880010EE005994A6888685F
:100A3000C96840EAC200084306990968029A01EBB6
:100A40000211C1F88001FFE705980069069909685D
:100A5000029A01EB0211C1F884010598007D01287A
:100A60000CD1FFE706980068029900EB0111D1F85C
:100A7000840140F48070C1F88401FFE70498406865
:100A800006990968029A01EB0211C1F88C010498D9
:100A9000006806990968029A01EB0211C1F8880101
:100AA00006980068029900EB0111D1F8800140F02E
:100AB0000100C1F8800100208DF81F0011E00699A7
:100AC000486A40F40010486201208DF81F0008E0D9
:100AD0000699486A40F48020486201208DF81F0082
:100AE000FFE79DF81F0008B07047000086B0049033
:100AF0000391049800680190049890F820008DF804
:100B000003009DF80300012806D0FFE79DF80300CD
:100B1000022840F0B080FFE746F20040C4F2000037
:100B200001900199D1F8000240F00100C1F80002E3
:100B30000199D1F8000220F47C50C1F8000203981A
:100B4000426A0199D1F8000240EA0220C1F800028D
:100B50000398406900F01F01012088400290029A2A
:100B60000199D1F81C029043C1F81C020398C06996
:100B7000F0B9FFE7029A0199D1F80C029043C1F84D
:100B80000C02039A9088D168526940EA01400199A9
:100B900001EBC201C1F84002039A108891685269C2
:100BA00040EA0140019901EBC201C1F84402FFE7AC
:100BB0000398C06901281ED1FFE7029A0199D1F874
:100BC0000C021043C1F80C02039A90881168526914
:100BD00040EA0140019901EBC201C1F84002039AC9
:100BE00090899168526940EA0140019901EBC20184
:100BF000C1F84402FFE70398806940B9FFE7029A11
:100C00000199D1F804029043C1F8040207E0029A66
:100C10000199D1F804021043C1F80402FFE70398D8
:100C2000006940B9FFE7029A0199D1F81402904394
:100C3000C1F8140207E0029A0199D1F81402104396
:100C4000C1F81402FFE70398006A012808D1FFE702
:100C5000029A0199D1F81C021043C1F81C02FFE767
:100C60000199D1F8000220F00100C1F80002002033
:100C70008DF8170008E00499486A40F48020486223
:100C800001208DF81700FFE79DF8170006B07047A8
:100C900081B0009001B0704786B004900391029239
:100CA0000193049890F820008DF803009DF803004C
:100CB000012806D0FFE79DF80300022840F0E880F5
:100CC000FFE7039880B9FFE704980068C0688007D1
:100CD00048B9FFE70499486A40F4001048620120CF
:100CE0008DF81700DDE00FE00498006800698007C8
:100CF00048B9FFE70499486A40F4001048620120AF
:100D00008DF81700CDE0FFE704980068039900EB29
:100D10000110D0F8B00100F0040002998860029838
:100D2000806858B9FFE704980068039900EB011048
:100D3000D0F8B001400D029908600AE004980068FC
:100D4000039900EB0110D0F8B001C0080299486087
:100D5000FFE704980068039900EB0110D0F8B00198
:100D600000F002000299C86004980068039900EB43
:100D70000110D0F8B40100F00F00082804D3FFE7F9
:100D80000299082008610BE004980068039900EBC1
:100D90000110D0F8B40100F00F0002990861FFE7DC
:100DA00004980068039900EB0110D0F8B40180B2F8
:100DB000000A0299886104980068039900EB011009
:100DC000D0F8B401000C02994861049800680399B6
:100DD00000EB0110D0F8B801019908700498006880
:100DE000039900EB0110D0F8B801000A019948708E
:100DF00004980068039900EB0110D0F8B801000CCA
:100E00000199887004980068039900EB0110D0F8EC
:100E1000B801000E0199C87004980068039900EBAE
:100E20000110D0F8BC010199087104980068039979
:100E300000EB0110D0F8BC01000A01994871049838
:100E40000068039900EB0110D0F8BC01000C019977
:100E5000887104980068039900EB0110D0F8BC0178
:100E6000000E0199C871039838B9FFE7049801682A
:100E7000C86840F02000C86006E00498016808696E
:100E800040F020000861FFE700208DF8170008E01F
:100E90000499486A40F48020486201208DF81700C8
:100EA000FFE79DF8170006B07047000080B58AB0D4
:100EB00009900020089009980068406907900998F7
:100EC0000068406806900998006880680590099855
:100ED0000068C06804900998006800690390099848
:100EE0000068806902909DF81C00C007002800F08F
:100EF0009480FFE79DF81400C00758B3FFE70998F6
:100F00000168012088609DF814008007002804D53E
:100F1000FFE7099800F08CFC1BE09DF814004007E7
:100F2000002805D5FFE7089840F4006008900FE01E
:100F30009DF814000007002805D5FFE7089840F445
:100F40008050089003E0099800F06EFCFFE7FFE78F
:100F5000FFE7FFE79DF81500C00760B3FFE70998BA
:100F600001684FF4807088609DF8150080070028A4
:100F700004D5FFE7099800F063FC1BE09DF815001D
:100F80004007002805D5FFE7089840F40050089076
:100F90000FE09DF815000007002805D5FFE7089829
:100FA00040F48040089003E0099800F045FCFFE71A
:100FB000FFE7FFE7FFE79DF81600C00760B3FFE714
:100FC000099801684FF4803088609DF8160080070A
:100FD000002804D5FFE7099800F03AFC1BE09DF8D3
:100FE00016004007002805D5FFE7089840F40040A8
:100FF00008900FE09DF816000007002805D5FFE7D0
:10100000089840F48030089003E0099800F01CFC38
:10101000FFE7FFE7FFE7FFE7FFE79DF81C0000079A
:10102000002810D5FFE79DF81000C006002809D55C
:10103000FFE7089840F400700890099801681020B4
:10104000C860FFE7FFE79DF81C00400700280FD5A8
:10105000FFE79DF810000007002808D5FFE7099872
:1010600001680820C860099800F0D0FAFFE7FFE7A0
:101070009DF81C00800700280BD5FFE70998006841
:10108000C068800720B1FFE7099800F0C3FAFFE7C6
:10109000FFE79DF81C004006002810D5FFE79DF8EB
:1010A0000C00C006002809D5FFE7089840F48060CE
:1010B00008900998016810200861FFE7FFE79DF894
:1010C0001C00800600280FD5FFE79DF80C000007E4
:1010D000002808D5FFE709980168082008610998E9
:1010E00000F016FBFFE7FFE79DF81C00C006002894
:1010F0000BD5FFE7099800680069800720B1FFE77A
:10110000099800F009FBFFE7FFE79DF81E00800744
:1011100000280FD5FFE79DF81800C006002808D565
:10112000FFE70998016810204860099800F032FB39
:10113000FFE7FFE79DF81E00C00778B1FFE79DF8C5
:1011400018000007002808D5FFE709980168082063
:101150004860099800F080FBFFE7FFE79DF81D005D
:101160000006002840F18D80FFE79DF81800400739
:10117000002840F18180FFE79DF81D00C00750B1B5
:10118000FFE79DF80800C00728B1FFE7089840F086
:1011900001000890FFE79DF81D00800700280BD58F
:1011A000FFE79DF808008007002805D5FFE70898AD
:1011B00040F002000890FFE79DF81D00400700285E
:1011C0000BD5FFE79DF808004007002805D5FFE78D
:1011D000089840F004000890FFE79DF81D00000704
:1011E000002848D5FFE79DF8080010F0700F42D0A6
:1011F000FFE7029800F0700001460191102814D01A
:10120000FFE70198202815D0FFE70198302816D075
:10121000FFE70198402817D0FFE70198502818D021
:10122000FFE70198602819D01DE0089840F00800F9
:10123000089019E0089840F01000089014E0089811
:1012400040F0200008900FE0089840F0400008901F
:101250000AE0089840F08000089005E0089840F403
:101260008070089000E0FFE709980168886920F025
:1012700070008861FFE7FFE7099801680420486073
:10128000FFE7089848B1FFE7089A0999486A1043B0
:1012900048620998FFF7FCFCFFE70AB080BD000038
:1012A00080B584B00290029820B9FFE701208DF844
:1012B0000F00E0E0029890F8200020B9FFE70298C4
:1012C00000F0DEF8FFE702980168086840F00100CE
:1012D000086000F077FF0190FFE70298006840681F
:1012E000C007A8B9FFE700F06DFF0199401A0B286D
:1012F0000DD3FFE70299486A40F400304862029932
:10130000052081F8200001208DF80F00B3E0E4E70C
:1013100002980168086820F00200086000F052FF9F
:101320000190FFE70298006840688007002815D503
:10133000FFE700F047FF0199401A0B280DD3FFE7A4
:101340000299486A40F4003048620299052081F809
:10135000200001208DF80F008DE0E3E70298007E69
:10136000012807D1FFE702980168086840F0800073
:10137000086006E002980168086820F080000860B4
:10138000FFE70298407E012807D1FFE70298016835
:10139000086840F04000086006E0029801680868AC
:1013A00020F040000860FFE70298807E012807D106
:1013B000FFE702980168086840F02000086006E036
:1013C00002980168086820F020000860FFE7029892
:1013D000C07E012807D1FFE702980168086820F065
:1013E0001000086006E002980168086840F01000EC
:1013F0000860FFE70298007F012807D1FFE7029805
:101400000168086840F00800086006E0029801687A
:10141000086820F008000860FFE70298407F012874
:1014200007D1FFE702980168086840F004000860EF
:1014300006E002980168086820F004000860FFE7F1
:10144000029B19685A689868D3F80CC040EA0C00EF
:10145000D3F810C040EA0C005B691843013A10430E
:10146000C861029900204862029A012182F8201086
:101470008DF80F00FFE79DF80F0004B080BD00005D
:1014800080B590B00F9000200E900D900C900B90B6
:101490000A900F98006846F20041C4F200018842A9
:1014A0004BD1FFE740F26010C2F200000168013149
:1014B00001600068012812D1FFE7FFE700200990D2
:1014C00043F64000C4F20200016841F0007101607F
:1014D000006800F0007009900998FFE7FFE7FFE758
:1014E0000020089043F63000C4F20200016841F089
:1014F00002010160006800F0020008900898FFE710
:101500004FF440700A9002200B90002003900C9042
:1015100003200D9009200E9040F20040C4F202001A
:101520000AA900F069FC039A14200490114601F006
:101530007BF8049801F06EF865E00F98006846F6B5
:101540000001C4F2000188425CD1FFE7FFE7002000
:10155000079043F64000C4F20200016841F0806148
:101560000160006800F0806007900798FFE740F294
:101570006010C2F2000001680131016000680128BA
:1015800012D1FFE7FFE70020069043F64000C4F2C7
:101590000200016841F000710160006800F0007015
:1015A00006900698FFE7FFE7FFE70020059043F667
:1015B0003000C4F20200016841F0020101600068DD
:1015C00000F0020005900598FFE74FF440500A90A4
:1015D00002200B90002001900C9003200D90092018
:1015E0000E9040F20040C4F202000AA900F004FC90
:1015F000019A41200290114601F016F8029801F07C
:1016000009F8FFE7FFE710B080BD000081B000904F
:1016100001B0704780B58CB00B9040F2C810C2F298
:101620000000002104AA02ABFFF736FB0498B0F5D6
:10163000017F25D8FFE70498A0F20120ADF806004D
:101640000498BDF9062040F26641C2F2000121F87B
:1016500032009DF808209DF8090040EA0220BDF9FB
:10166000062001EBC20250809DF80A209DF80B0075
:1016700040EA0220BDF9062001EBC201888045E066
:10168000049840F20621884225D1FFE70498A0F291
:101690000520ADF804000498BDF9042040F2A641ED
:1016A000C2F2000121F832009DF808209DF80900DF
:1016B00040EA0220BDF9042001EBC20250809DF8EF
:1016C0000A209DF80B0040EA0220BDF9042001EB3E
:1016D000C201888019E0049840F20521884213D1A4
:1016E000FFE79DF808109DF8090040EA012040F24C
:1016F0008641C2F2000148809DF80A209DF80B0047
:1017000040EA02208880FFE7FFE7FFE70CB080BDDA
:1017100081B0009001B0704780B58CB00B9040F262
:10172000F010C2F20000012104AA02ABFFF7B4FAE4
:101730000498A0F20120ADF80600BDF906000028CB
:1017400025D4FFE7BDF90600032820DCFFE7049855
:10175000BDF9062040F28E41C2F2000121F83200AC
:101760009DF808209DF8090040EA0220BDF90620F6
:1017700001EBC20250809DF80A209DF80B0040EA60
:101780000220BDF9062001EBC2018880FFE70CB002
:1017900080BD000081B0009001B0704780B584B07A
:1017A0000290029890F8200001282FD1FFE70299BB
:1017B000022081F8200002980168086820F00100EA
:1017C000086000F0FFFC0190FFE7029800684068A5
:1017D000C007A8B1FFE700F0F5FC0199401A0B28FB
:1017E0000DD3FFE70299486A40F40030486202993D
:1017F000052081F8200001208DF80F000FE0E4E7BC
:101800000299002048628DF80F0008E00299486AAA
:1018100040F40020486201208DF80F00FFE79DF89A
:101820000F0004B080BD000081B0009001B070478F
:1018300081B0009001B0704781B0009001B0704756
:1018400081B0009001B0704781B0009001B0704746
:1018500081B0009001B0704781B0009001B0704736
:1018600080B586B005900020039040F20000C2F2DF
:101870000000006848F2B511C1F64E31A0FB01101E
:10188000800A02900598806D01900198006804908C
:1018900004980599C96DC840000700281AD5FFE7CC
:1018A0000598006800684007002812D5FFE70598F2
:1018B0000168086820F0040008600598C16D0820E0
:1018C0008840019988600599486D40F0010048659D
:1018D000FFE7FFE704980599C96DC840C007A0B1AC
:1018E000FFE7059800684069000600280CD5FFE76F
:1018F0000598C16D01208840019988600599486D5F
:1019000040F002004865FFE7FFE704980599C96DBC
:10191000C8404007002814D5FFE705980068006814
:10192000800700280CD5FFE70598C16D042088408A
:10193000019988600599486D40F004004865FFE70B
:10194000FFE704980599C96DC840C006002847D52F
:10195000FFE7059800680068000700283FD5FFE70B
:101960000598C16D1020884001998860059800682D
:101970000068400300281AD5FFE705980068006852
:101980000003002809D4FFE70598006C20B1FFE7A9
:101990000598016C8847FFE708E00598806C20B146
:1019A000FFE70598816C8847FFE7FFE716E0059899
:1019B00000680068C005002807D4FFE705980168A3
:1019C000086820F008000860FFE70598006C20B167
:1019D000FFE70598016C8847FFE7FFE7FFE7FFE7B0
:1019E00004980599C96DC8408006002840F18D8093
:1019F000FFE7059800680068C006002840F1848071
:101A0000FFE70598C16D20208840019988600598FE
:101A100090F83500052834D1FFE70598016808687B
:101A200020F01600086005980168486920F08000E1
:101A300048610598006C20B9FFE70598806C38B1C3
:101A4000FFE705980168086820F008000860FFE7D4
:101A50000598C16D3F208840019988600599012053
:101A600081F83500FFE70599002081F83400FFE791
:101A70000598006D20B1FFE70598016D8847FFE7E5
:101A80007BE0059800680068400300281AD5FFE74E
:101A90000598006800680003002809D4FFE705984E
:101AA000406C20B1FFE70598416C8847FFE708E0EC
:101AB0000598C06B20B1FFE70598C16B8847FFE729
:101AC000FFE720E0059800680068C005002811D4F1
:101AD000FFE705980168086820F010000860059984
:101AE000012081F83500FFE70599002081F83400D6
:101AF000FFE7FFE70598C06B20B1FFE70598C16BD2
:101B00008847FFE7FFE7FFE7FFE70598406DA0B3D1
:101B1000FFE70598406DC00730B3FFE70599052042
:101B200081F8350005980168086820F00100086018
:101B3000FFE70398013003900299884201D9FFE73B
:101B400007E0FFE7059800680068C0070028F0D1AB
:101B5000FFE70599012081F83500FFE7059900208E
:101B600081F83400FFE7FFE70598C06C20B1FFE77C
:101B70000598C16C8847FFE7FFE706B080BD00000D
:101B800080B586B004900020039000F01BFB02900B
:101B9000049820B9FFE701208DF81700A3E004980E
:101BA000406A08B1FFE7FFE70499022081F8350099
:101BB000FFE70499002081F83400FFE704980168EA
:101BC000086820F001000860FFE7049800680068DA
:101BD000C00790B1FFE700F0F5FA0299401A062815
:101BE0000AD3FFE70499202048650499032081F86F
:101BF00035008DF8170076E0E7E704980068006884
:101C00000390039848F23F01CFF21001084003907F
:101C1000049900914868D1F808C0CB680A6940EA85
:101C20000C00184310434A6910438A691043CA697B
:101C30001043096A01430398084303900498406ADB
:101C4000042808D1FFE70499C86A096B0143039887
:101C500008430390FFE70398049909680860049813
:101C6000006840690390039820F0070003900498EF
:101C7000416A0398084303900498406A04281AD1E3
:101C8000FFE70498816A0398084303900498C06AA8
:101C900080B1FFE70498FEF7ADFD50B1FFE704996E
:101CA000402048650499012081F835008DF817001F
:101CB00019E0FFE7FFE70398049909684861049871
:101CC000FEF76CFD01900498C16D3F20884001999A
:101CD0008860049900204865049A012182F8351033
:101CE0008DF81700FFE79DF8170006B080BD0000D3
:101CF00080B588B0069005910492039300208DF87A
:101D00000B000698806D0190FFE7069890F834006C
:101D1000012804D1FFE702208DF81F0045E0069955
:101D2000012081F83400FFE7FFE7069890F83500BE
:101D300001282BD1FFE70699022081F8350006998A
:101D40000020486506980599049A039BFEF7CAFD92
:101D50000698C16D3F208840019988600698016807
:101D6000086840F0160008600698006C38B1FFE77C
:101D700006980168086840F008000860FFE70698C8
:101D80000168086840F00100086009E0FFE7069973
:101D9000002081F83400FFE702208DF80B00FFE7F8
:101DA0009DF80B008DF81F00FFE79DF81F0008B09D
:101DB00080BD000080B584B0039000F003FA02906B
:101DC000039801900198013048B1FFE740F2CC0040
:101DD000C2F200000178019808440190FFE7FFE794
:101DE00000F0F0F90299401A0199884201D2FFE708
:101DF000F6E704B080BD00008DB00C900B91002080
:101E00000990089007900A90FFE70A980F2800F2BF
:101E1000BE81FFE70A990120884009900B9800686D
:101E200009990840089008980999884240F0AA81C9
:101E3000FFE70B98406800F00300012807D0FFE798
:101E40000B98406800F0030002282FD1FFE70C98A0
:101E5000806807900A984100032000FA01F1079872
:101E6000884307900B98C0680A99490000FA01F16D
:101E700007980843079007980C9988600C98406869
:101E800007900A99012000FA01F10798884307900A
:101E90000B984068C0F300100A9900FA01F1079806
:101EA0000843079007980C994860FFE70B98406833
:101EB00000F00300032818D0FFE70C98C0680790D3
:101EC0000A984100032000FA01F10798884307901F
:101ED0000B9880680A99490000FA01F107980843B5
:101EE000079007980C99C860FFE70B98406800F0CE
:101EF0000300022826D1FFE70C980A996FF003022D
:101F000002EA51010844006A07900A9800F00700AD
:101F100081000F2000FA01F10798884307900B9881
:101F200000690A9901F00701890000FA01F1079898
:101F30000843079007980C990A9B02EA5302114440
:101F40000862FFE70C98006807900A984100032098
:101F500000FA01F10798884307900B98406800F059
:101F600003000A99490000FA01F107980843079015
:101F700007980C9908600B9880798007002800F07A
:101F80000081FFE7FFE70020069043F64400C4F21B
:101F90000200016841F480410160006800F4804063
:101FA00006900698FFE70A9820F0030043F6080120
:101FB000C4F20101405807900A9800F00300810024
:101FC0000F2000FA01F10798884307900C98002130
:101FD000C4F20201884203D1FFE70020059050E0DF
:101FE0000C9840F20041C4F20201884203D1FFE79D
:101FF0000120049042E00C9840F60001C4F2020176
:10200000884203D1FFE70220039034E00C9840F6A9
:102010000041C4F20201884203D1FFE7032002908D
:1020200026E00C9841F20001C4F20201884203D17B
:10203000FFE70420019018E00C9841F20041C4F23F
:102040000201884203D1FFE7052000900AE00C99C5
:1020500041F60002C4F202020720914208BF0620A6
:102060000090FFE700980190FFE701980290FFE7DA
:1020700002980390FFE703980490FFE70498059007
:10208000FFE70598C0B20A9901F00301890000FA40
:1020900001F107980843079007980A9921F0030176
:1020A00043F60802C4F20102885043F60840C4F225
:1020B00001000068079008990798884307900B98DB
:1020C0008079C006002805D5FFE7089907980843DE
:1020D0000790FFE7079843F60841C4F20101086042
:1020E00043F60C40C4F20100006807900899079875
:1020F000884307900B9880798006002805D5FFE774
:102100000899079808430790FFE7079843F60C41A2
:10211000C4F20101086043F60440C4F20100006803
:10212000079008990798884307900B988079800753
:10213000002805D5FFE70899079808430790FFE7AF
:10214000079843F60441C4F20101086043F60040D9
:10215000C4F2010000680790089907988843079027
:102160000B988079C00728B1FFE7089907980843C2
:102170000790FFE7079843F60041C4F201010860A9
:10218000FFE7FFE7FFE70A9801300A903DE60DB050
:102190007047000082B00190ADF802108DF8012068
:1021A0009DF8010028B1FFE7BDF8020001998861A0
:1021B00005E0BDF80200000401998861FFE702B064
:1021C0007047000040F2DC40C2F200000068704737
:1021D00080B58EB00C900C9820B9FFE701208DF8E7
:1021E000370043E10C9890F83D0040B9FFE70C99A7
:1021F000002081F83C000C9800F03CF9FFE70C99B6
:10220000242081F83D000C980168086820F0010046
:1022100008600C980168086840F4004008600C9859
:102220000168086820F40040086000F0B7FB0A90DD
:102230000C98406848F2A061C0F2010188420BD8B6
:10224000FFE70A9948F28042C0F21E020020914244
:1022500038BF012009900AE00A9940F60012C0F246
:102260003D020020914238BF01200990FFE7099804
:10227000012804D1FFE701208DF83700F6E00A9825
:102280004DF68361C4F21B31A0FB0110800C0B9052
:102290000C980068406820F03F000B9908430C99A7
:1022A000096848600C980068006A20F03F000890B8
:1022B0000C98406848F2A061C0F20101884204D83D
:1022C000FFE70B98013007900EE00B984FF49671E2
:1022D000484344F6D351C1F26201A0FB0101012041
:1022E00000EB91100790FFE70898079908430C99B5
:1022F000096808620C980068C0694CF6FF71884351
:1023000006900C98406848F2A061C0F20101884232
:102310001FD8FFE70A9801380C9949684900B0FBBB
:10232000F1F001306FF31F30032803D8FFE70420DA
:1023300005900BE00A9801380C9949684900B0FBF8
:10234000F1F001306FF31F300590FFE7059804901E
:102350004CE00C98806868B9FFE70A9801380C993E
:10236000496801EB4101B0FBF1F001306FF31F3020
:1023700003900DE00A9801380C99496819225143DD
:10238000B0FBF1F00130042161F31F300390FFE74F
:102390000398000518B9FFE70120029023E00C988C
:1023A000806868B9FFE70A9801380C99496801EB21
:1023B0004101B0FBF1F001306FF31F3001900DE0EF
:1023C0000A9801380C99496819225143B0FBF1F081
:1023D0000130042161F31F300190FFE7019840F4C0
:1023E00000400290FFE702980490FFE706980499E6
:1023F00008430C990968C8610C980068006820F0CF
:10240000C0000C9B1968DA691B6A1A431043086004
:102410000C980068806848F2FF3188430C9A116874
:10242000D36812691A43104388600C980068C0682A
:1024300020F0FF000C9B19685A699B691A431043EE
:10244000C8600C980168086840F0010008600C99A9
:10245000002008640C9A202182F83D100C99086332
:102460000C9981F83E008DF83700FFE79DF83700A2
:102470000EB080BD80B588B0079000200690059012
:102480000490039002900798006845F20041C4F25E
:102490000001884234D1FFE7FFE70020019043F6B6
:1024A0003000C4F20200016841F0020101600068DE
:1024B00000F0020001900198FFE7C0200290122076
:1024C000039000200490032005900420069040F221
:1024D0000040C4F2020002A9FFF78EFCFFE70020D3
:1024E000009043F64000C4F20200016841F400117C
:1024F0000160006800F4001000900098FFE7FFE71B
:1025000008B080BD40F2CC00C2F20000027840F278
:10251000DC41C2F200010868104408607047000006
:1025200080B543F60041C4F20201086840F400702F
:102530000860086840F480600860086840F48070B3
:102540000860032000F08AF80F2000F005F800F082
:102550003BF8002080BD000080B582B0009040F2C2
:102560000000C2F20000006840F2CC01C2F200019B
:102570000A784FF47A71B1FBF2F1B0FBF1F000F0A0
:1025800047FF20B1FFE701208DF8070018E0009811
:102590000F280DD8FFE700994FF0FF30002200F020
:1025A00043F8009840F2D001C2F20001086003E055
:1025B00001208DF8070003E000208DF80700FFE7F9
:1025C0009DF8070002B080BD82B0FFE700200190B7
:1025D00043F64400C4F20200016841F48041016006
:1025E000006800F4804001900198FFE7FFE70020B9
:1025F000009043F64000C4F20200016841F08051AF
:102600000160006800F0805000900098FFE702B081
:102610007047000080B582B08DF807009DF9070073
:1026200002F0E4FC02B080BD80B586B08DF81700E2
:10263000049103920020029002F0F0FC02909DF9B8
:102640001700019002980499039A01F08BFF01464C
:10265000019802F0EBFC06B080BD000080B582B0AE
:102660000190019802F004FD02B080BD80B584B0F5
:1026700000200290FFE70020019043F64000C4F2E2
:102680000200016841F080510160006800F0805054
:1026900001900198FFE74021C4F20E21012008605B
:1026A000FFF790FD0290FFE747F20400C4F200003C
:1026B000006800F48030B0F5803F0DD0FFE7FFF7F1
:1026C00081FD0299401AB0F57A7F04D9FFE7032013
:1026D0008DF80F0025E0E7E74421C4F20E21012028
:1026E0000860FFF76FFD0290FFE747F20400C4F2B5
:1026F0000000006800F40030B0F5003F0DD0FFE7A7
:10270000FFF760FD0299401AB0F57A7F04D9FFE720
:1027100003208DF80F0004E0E7E700208DF80F009C
:10272000FFE79DF80F0004B080BD000080B584B0C5
:1027300002900191029820B9FFE701208DF80F0067
:1027400021E1019843F60041C4F20201096801F059
:102750000F01884212D9FFE7019943F60040C4F205
:1027600002000170006800F00F000199884204D057
:10277000FFE701208DF80F0005E1FFE702980078E0
:10278000800700282AD5FFE7029800784007002834
:1027900009D5FFE743F60801C4F20201086840F4D6
:1027A000E0500860FFE7029800780007002809D58C
:1027B000FFE743F60801C4F20201086840F46040F4
:1027C0000860FFE743F60801C4F20201086820F040
:1027D000F000029A926810430860FFE702980078C0
:1027E000C00700286ED0FFE702984068012811D189
:1027F000FFE743F60000C4F20200006800F4003175
:102800000020B0EB514F04D1FFE701208DF80F00FD
:10281000B9E02CE002984068022805D0FFE7029852
:102820004068032811D1FFE743F60000C4F202001C
:10283000006800F000710020B0EB516F04D1FFE799
:1028400001208DF80F009EE010E043F60000C4F276
:102850000200006800F002010020B0EB510F04D12B
:10286000FFE701208DF80F008DE0FFE7FFE743F65B
:102870000801C4F20201086820F00300029A5268BD
:1028800010430860FFF79EFC0090FFE743F6080046
:10289000C4F20200006800F00C0002994968B0EB35
:1028A000810F0ED0FFE7FFF78DFC0099401A41F22F
:1028B0008931884204D3FFE703208DF80F0062E0DE
:1028C000E4E7FFE7019843F60041C4F2020109681A
:1028D00001F00F01884212D2FFE7019943F6004050
:1028E000C4F202000170006800F00F0001998842F4
:1028F00004D0FFE701208DF80F0044E0FFE70298C5
:102900000078400700280CD5FFE743F60801C4F221
:102910000201086820F4E050029AD268104308606F
:10292000FFE702980078000700280DD5FFE743F67F
:102930000801C4F20201086820F46040029A12699A
:1029400040EAC2000860FFE700F04CF843F60801D7
:10295000C4F202010968C9B20A0945F6E221C0F6CB
:102960000001895CC84040F20001C2F20001086029
:1029700040F2D000C2F200000068FFF7EDFD002039
:102980008DF80F00FFE79DF80F0004B080BD000038
:1029900040F20000C2F200000068704780B5FFF707
:1029A000F7FF43F60801C4F202010968C1F382226D
:1029B00045F6F221C0F60001895CC84080BD0000E8
:1029C00080B5FFF7E5FF43F60801C4F2020109688C
:1029D00089B24A0B45F6F221C0F60001895CC84075
:1029E00080BD000080B586B0002005900490039063
:1029F0000290019043F60800C4F20200006800F063
:102A00000C00014600910C2800F29B800099DFE841
:102A100001F0079898980D989898139898985700EF
:102A200042F20040C0F2F400019090E041F6003024
:102A3000C0F2B70001908AE043F60400C4F202003D
:102A4000016801F03F01059100684002002813D59C
:102A5000FFE743F60400C4F202000068C0F38810E8
:102A600041F60031C0F2B701A0FB0101059A002335
:102A7000FDF72EFC049012E043F60400C4F20200BD
:102A80000068C0F3881042F20041C0F2F401A0FBDC
:102A90000101059A0023FDF71BFC0490FFE743F6B4
:102AA0000400C4F20200006800F44031022000EB90
:102AB000D130039004980399B0FBF1F0019046E007
:102AC00043F60400C4F20200016801F03F010591E1
:102AD00000684002002813D5FFE743F60400C4F263
:102AE00002000068C0F3881041F60031C0F2B7015F
:102AF000A0FB0101059A0023FDF7EAFB049012E018
:102B000043F60400C4F202000068C0F3881042F2E9
:102B10000041C0F2F401A0FB0101059A0023FDF77A
:102B2000D7FB0490FFE743F60400C4F202000068FC
:102B3000C0F30270029004980299B0FBF1F001908A
:102B400005E042F20040C0F2F4000190FFE7019876
:102B500006B080BD80B586B00490049820B9FFE728
:102B600001208DF8170084E304980078C00700283E
:102B700000F0BA80FFE743F60800C4F202000068E4
:102B800000F00C00042828D0FFE743F60800C4F248
:102B90000200006800F00C0008280BD1FFE743F6A4
:102BA0000400C4F20200006800F48000B0F5800F59
:102BB00013D0FFE743F60800C4F20200006800F0FB
:102BC0000C000C281ED1FFE743F60400C4F20200FB
:102BD00000684002002815D5FFE743F60000C4F264
:102BE0000200006800F400310020B0EB514F08D023
:102BF000FFE70498406820B9FFE701208DF817002F
:102C000037E370E0FFE704984068B0F5803F09D1F2
:102C1000FFE743F60001C4F20201086840F4803087
:102C2000086020E004984068B0F5A02F0DD1FFE7C0
:102C300043F60001C4F20201086840F480200860F5
:102C4000086840F4803008600CE043F60001C4F2EC
:102C50000201086820F480300860086820F48020B1
:102C60000860FFE7FFE7FFE704984068E8B1FFE787
:102C7000FFF7A8FA0390FFE743F60000C4F2020052
:102C8000006800F400310020B0EB514F0CD1FFE799
:102C9000FFF798FA0399401A652804D3FFE7032049
:102CA0008DF81700E5E2E7E71CE0FFF78BFA0390E9
:102CB000FFE743F60000C4F20200006800F40031B0
:102CC0000020B0EB514F0CD0FFE7FFF77BFA0399E0
:102CD000401A652804D3FFE703208DF81700C8E2E7
:102CE000E7E7FFE7FFE7FFE70498007880070028A1
:102CF00040F1A980FFE743F60800C4F20200006833
:102D000010F00C0F26D0FFE743F60800C4F20200D3
:102D1000006800F00C00082809D1FFE743F6040022
:102D2000C4F2020000684002002813D5FFE743F612
:102D30000800C4F20200006800F00C000C282CD13E
:102D4000FFE743F60400C4F20200006840020028D6
:102D500023D4FFE743F60000C4F20200006800F04D
:102D600002010020B0EB510F09D0FFE70498C068C2
:102D7000012804D0FFE701208DF8170079E243F61F
:102D80000001C4F20201086820F0F800049A1269F8
:102D900040EAC2000860FFE754E00498C06870B3DE
:102DA000FFE70021C4F2472101200860FFF70AFA7B
:102DB0000390FFE743F60000C4F20200006800F051
:102DC00002010020B0EB510F0CD1FFE7FFF7FAF939
:102DD0000399401A032804D3FFE703208DF8170056
:102DE00047E2E7E743F60001C4F20201086820F079
:102DF000F800049A126940EAC200086021E000214C
:102E0000C4F2472100200860FFF7DCF90390FFE7D8
:102E100043F60000C4F20200006800F00201002046
:102E2000B0EB510F0CD0FFE7FFF7CCF90399401A34
:102E3000032804D3FFE703208DF8170019E2E7E722
:102E4000FFE7FFE7FFE704980078000700284BD56D
:102E5000FFE70498406918B3FFE740F68061C4F2C9
:102E6000472101200860FFF7ADF90390FFE743F623
:102E70007400C4F20200006800F002010020B0EB10
:102E8000510F0CD1FFE7FFF79DF90399401A032872
:102E900004D3FFE703208DF81700EAE1E7E722E01B
:102EA00040F68061C4F2472100200860FFF78AF9EC
:102EB0000390FFE743F67400C4F20200006800F0DC
:102EC00002010020B0EB510F0CD0FFE7FFF77AF9B9
:102ED0000399401A032804D3FFE703208DF8170055
:102EE000C7E1E7E7FFE7FFE704980078400700281D
:102EF00040F1CE80FFE700208DF8070043F6400048
:102F0000C4F202000068C000002815D4FFE7FFE704
:102F10000020009043F64000C4F20200016841F036
:102F200080510160006800F0805000900098FFE739
:102F300001208DF80700FFE747F20000C4F200000F
:102F40000068C005002822D4FFE747F20001C4F260
:102F50000001086840F480700860FFF733F90390BF
:102F6000FFE747F20000C4F200000068C005002837
:102F70000CD4FFE7FFF726F90399401A032804D37E
:102F8000FFE703208DF8170073E1EAE7FFE7FFE7AB
:102F900004988068012809D1FFE743F67001C4F264
:102FA0000201086840F0010008601FE00498806892
:102FB00005280DD1FFE743F67001C4F2020108684D
:102FC00040F004000860086840F0010008600CE070
:102FD00043F67001C4F20201086820F001000860A5
:102FE000086820F004000860FFE7FFE7FFE70498A7
:102FF0008068F8B1FFE7FFF7E5F80390FFE743F6D5
:103000007000C4F20200006800F002010020B0EB82
:10301000510F0ED1FFE7FFF7D5F80399401A41F29F
:103020008931884204D3FFE703208DF8170020E19F
:10303000E5E71EE0FFF7C6F80390FFE743F67000F0
:10304000C4F20200006800F002010020B0EB510F52
:103050000ED0FFE7FFF7B6F80399401A41F2893125
:10306000884204D3FFE703208DF8170001E1E5E76C
:10307000FFE79DF80700012809D1FFE743F640016B
:10308000C4F20201086820F080500860FFE7FFE703
:1030900004988069002800F0E880FFE743F6080004
:1030A000C4F20200006800F00C00082800F08880DC
:1030B000FFE70498806902285FD1FFE76021C4F22E
:1030C000472100200860FFF77DF80390FFE743F6F3
:1030D0000000C4F20200006800F000710020B0EBB4
:1030E000516F0CD0FFE7FFF76DF80399401A0328E2
:1030F00004D3FFE703208DF81700BAE0E7E704994F
:10310000C869D1F820C04B6A8A6A40EA0C0040EADC
:103110008310D2034FF6FF739A43A2F58032104317
:10312000CA6A40EA0260096B40EA017043F6040192
:10313000C4F2020108606021C4F247210120086046
:10314000FFF740F80390FFE743F60000C4F20200E7
:10315000006800F000710020B0EB516F0CD1FFE768
:10316000FFF730F80399401A032804D3FFE7032040
:103170008DF817007DE0E7E721E06021C4F24721E8
:1031800000200860FFF71EF80390FFE743F60000F9
:10319000C4F20200006800F000710020B0EB516F33
:1031A0000CD0FFE7FFF70EF80399401A032804D369
:1031B000FFE703208DF817005BE0E7E7FFE753E048
:1031C00004988069012804D1FFE701208DF81700D9
:1031D0004FE043F60400C4F2020000680290049835
:1031E000806901283AD0FFE7029800F48000049932
:1031F000C969884232D1FFE7029800F03F00049984
:10320000096A88422AD1FFE7029847F6C071084050
:103210000499496AB0EB811F20D1FFE7029800F4BE
:1032200040300499896AC9034FF6FF729143A1F5B2
:103230008031884212D1FFE7029800F07060049953
:10324000C96AB0EB016F09D1FFE7029800F0E040D6
:103250000499096BB0EB017F04D0FFE701208DF8E2
:10326000170006E0FFE7FFE7FFE700208DF81700F3
:10327000FFE79DF8170006B080BD000080B584B060
:103280000290029820B9FFE701208DF80F0072E04C
:103290000298406A60B9FFE702984068B0F5827F03
:1032A00001D1FFE703E002990020C861FFE705E0D4
:1032B00002990020086102994861FFE70299002005
:1032C0008862029890F8510040B9FFE70299002007
:1032D00081F85000029800F053F8FFE702990220AD
:1032E00081F8510002980168086820F040000860E9
:1032F000029A019211685068D2F808C0D36800F4AD
:1033000082700CF4044C604403F4006318441369A5
:1033100003F002031844536903F00103184493694E
:1033200003F400731844D36903F038031844136A94
:1033300003F080031843926A02F4005210430860BD
:10334000029801688369426A042000EA134002F08F
:1033500010021044486002980168C86920F40060B7
:10336000C861029900204865029A012182F8511033
:103370008DF80F00FFE79DF80F0004B080BD00003E
:1033800080B588B0079000200690059004900390C7
:1033900002900798006843F20001C4F201018842DC
:1033A00033D1FFE7FFE70020019043F64400C4F269
:1033B0000200016841F480510160006800F480500F
:1033C00001900198FFE7FFE70020009043F63000EE
:1033D000C4F20200016841F001010160006800F0E0
:1033E000010000900098FFE7E02002900220039087
:1033F0000020049003200590052006900020C4F2D0
:10340000020002A9FEF7F8FCFFE708B080BD00004B
:1034100080B582B00190019801F08AF902B080BDB8
:1034200081B0009001B0704781B0009001B070474A
:1034300085B003900291FFE7039890F83C000128C3
:1034400004D1FFE702208DF813007EE003990120EC
:1034500081F83C00FFE7FFE70399022081F83D0077
:1034600003980068406801900398006880680090A5
:10347000019820F0700001900298016801980843BB
:103480000190019803990968486003980068002139
:10349000C4F2010188423CD0FFE703980068B0F114
:1034A000804F36D0FFE70398006840F20041C4F235
:1034B000000188422DD0FFE70398006840F6000124
:1034C000C4F20001884224D0FFE70398006840F668
:1034D0000041C4F2000188421BD0FFE70398006856
:1034E00040F20041C4F20101884212D0FFE7039884
:1034F000006844F20001C4F20101884209D0FFE7EC
:103500000398006841F60001C4F2000188420ED120
:10351000FFE7009820F08000009002984168009832
:10352000084300900098039909688860FFE70399B1
:10353000012081F83D00FFE70399002081F83C005D
:10354000FFE700208DF81300FFE79DF8130005B09A
:103550007047000080B582B00090009820B9FFE766
:1035600001208DF807003FE0009890F83D0040B939
:10357000FFE70099002081F83C00009800F038F83F
:10358000FFE70099022081F83D00009951F8040BF3
:1035900001F074F90099012081F84600FFE70099D5
:1035A000012081F83E00009981F83F00009981F8E0
:1035B0004000009981F84100FFE7FFE700990120F2
:1035C00081F84200009981F84300009981F8440095
:1035D000009981F84500FFE70099012081F83D003E
:1035E00000208DF80700FFE79DF8070002B080BDBE
:1035F00080B584B0039003980068B0F1804F1BD170
:10360000FFE7FFE70020029043F64000C4F202000B
:10361000016841F001010160006800F001000290C2
:103620000298FFE71C20019000221146FEF7FCFFE4
:103630000198FEF7EFFFFFE704B080BD83B0019073
:10364000019890F83D00012804D0FFE701208DF893
:103650000B006AE00199022081F83D0001980168A1
:10366000C86840F00100C860019800680021C4F2F9
:10367000010188423CD0FFE701980068B0F1804F1B
:1036800036D0FFE70198006840F20041C4F2000123
:1036900088422DD0FFE70198006840F60001C4F28F
:1036A0000001884224D0FFE70198006840F60041FD
:1036B000C4F2000188421BD0FFE70198006840F285
:1036C0000041C4F20101884212D0FFE7019800686E
:1036D00044F20001C4F20101884209D0FFE70198D9
:1036E000006841F60001C4F20001884212D1FFE7F0
:1036F00001980068806800F0070000900098062894
:1037000007D0FFE701980168086840F001000860F1
:10371000FFE706E001980168086840F001000860D2
:10372000FFE700208DF80B00FFE79DF80B0003B0CA
:103730007047000080B586B00490039100208DF89A
:103740000B00FFE7049890F83C00012804D1FFE744
:1037500002208DF81700ABE00499012081F83C00AD
:10376000FFE7FFE70499022081F83D000498006814
:1037700080680190019820F077000190019820F472
:103780007F40019001980499096888600398006857
:103790000090002872D0FFE7009810286ED0FFE755
:1037A000009820286AD0FFE70098302866D0FFE70D
:1037B0000098402855D0FFE70098502837D0FFE701
:1037C0000098602840D0FFE7009870280BD0FFE7F2
:1037D0000098B0F5805F05D0FFE70098B0F5005F76
:1037E00016D052E055E004980068039B5A68996827
:1037F000DB6801F01BF9049800688068019001986B
:1038000040F077000190019804990968886040E0D1
:1038100004980068039B5A689968DB6801F006F910
:1038200004980168886840F48040886031E004981A
:103830000068039A5168D26801F028F9049800687A
:10384000502101F00DF924E004980068039A5168B2
:10385000D26801F043F904980068602101F000F992
:1038600017E004980068039A5168D26801F00EF9D5
:1038700004980068402101F0F3F80AE00498006819
:103880000399096801F0ECF803E001208DF80B00C2
:10389000FFE70499012081F83D00FFE7049900202B
:1038A00081F83C00FFE79DF80B008DF81700FFE75B
:1038B0009DF8170006B080BD81B0009001B0704740
:1038C00080B584B0039003980068C06802900398A4
:1038D0000068006901909DF804008007002824D545
:1038E000FFE79DF80800800700281DD5FFE7039833
:1038F00001686FF0020008610399012008770398BE
:1039000000688069800720B1FFE70398FFF7D4FFC4
:1039100006E0039800F0E2F8039800F0E3F8FFE710
:10392000039900200877FFE7FFE79DF804004007B0
:10393000002825D5FFE79DF80800400700281ED580
:10394000FFE7039801686FF0040008610399022003
:10395000087703980068806910F4407F04D0FFE77F
:103960000398FFF7A9FF06E0039800F0B7F8039863
:1039700000F0B8F8FFE7039900200877FFE7FFE7BA
:103980009DF804000007002824D5FFE79DF80800F3
:10399000000700281DD5FFE7039801686FF00800B5
:1039A000086103990420087703980068C0698007BC
:1039B00020B1FFE70398FFF77FFF06E0039800F0D0
:1039C0008DF8039800F08EF8FFE703990020087740
:1039D000FFE7FFE79DF80400C006002825D5FFE7B4
:1039E0009DF80800C00600281ED5FFE7039801686F
:1039F0006FF01000086103990820087703980068A9
:103A0000C06910F4407F04D0FFE70398FFF754FF2C
:103A100006E0039800F062F8039800F063F8FFE70F
:103A2000039900200877FFE7FFE79DF80400C0072F
:103A300078B1FFE79DF80800C00748B1FFE7039899
:103A400001686FF001000861039800F04FF8FFE78C
:103A5000FFE79DF804000006002810D5FFE79DF859
:103A600008000006002809D5FFE7039801686FF0F9
:103A7000800008610398FFF7D3FCFFE7FFE79DF89C
:103A800004004006002810D5FFE79DF80800400616
:103A9000002809D5FFE7039801686FF0400008612E
:103AA000039800F04BF8FFE7FFE79DF8040080065D
:103AB000002810D5FFE79DF808008006002809D5EA
:103AC000FFE7039801686FF0200008610398FFF793
:103AD000ABFCFFE7FFE704B080BD000081B00090C1
:103AE00001B0704781B0009001B0704781B0009084
:103AF000009840F28431C2F2000188421BD1FFE7F6
:103B000040F2D400C2F2000001780139017090F94E
:103B1000000000280EDCFFE740F27A11C2F200013B
:103B20004FF48060088048808880C8800320087235
:103B30004872FFE7FFE701B07047000081B00090D6
:103B400001B0704780B586B004900391ADF80A20AB
:103B5000049890F8420020284DD1FFE7039820B147
:103B6000FFE7BDF80A0020B9FFE701208DF8170034
:103B700045E00499012008630499002048630498F3
:103B80000399BDF80A2001F0A9F98DF809009DF804
:103B9000090058BBFFE70498006B012821D1FFE71B
:103BA000FFE70020019004980068006801900498E5
:103BB0000068406801900198FFE7FFE7FFE704987D
:103BC000006850E8030F40F010000090FFE70099F4
:103BD0000498026842E803100028F0D1FFE7FFE7ED
:103BE00003E001208DF80900FFE7FFE79DF80900D9
:103BF0008DF8170003E002208DF81700FFE79DF80D
:103C0000170006B080BD000080B588B00790ADF801
:103C10001A10079840F21441C2F20001884240F0A5
:103C20009680FFE740F2D401C2F200010A2008703A
:103C300040F27A10C2F200000490417A817240F2A0
:103C4000C842C2F2000205921178537841EA03217A
:103C50006FF3DF21018051789378C90841EA43115D
:103C60006FF3DF214180917892F803C013798909BD
:103C700041EA8C0141EA83216FF3DF2181801179D0
:103C80005379490841EAC3116FF3DF21C1805179AB
:103C9000890901725179C1F3011141729179D37986
:103CA00041EA03218181117A537A41EA0321C181DA
:103CB000917AD37A41EA03210182117B8174517B8D
:103CC000C174917BD27B41EA02218182007A022871
:103CD0000FD1FFE740F22050C2F200004FF4FA711A
:103CE0004180818040F28E41C2F20001FCF70CFD60
:103CF000FFE740F27A10C2F20000807A032812D166
:103D0000FFE740F27A10C2F20000407A02280AD19E
:103D1000FFE740F20800C2F200000168088800F5E1
:103D200040400880FFE740F21440C2F200000390D8
:103D300040F2C841C2F200011222FFF703FF0398CC
:103D4000C06B0168086820F00800086024E007984C
:103D500040F2CC31C2F2000188421CD1FFE740F2B0
:103D6000CC30C2F20000029040F24C11C2F20001CD
:103D700001911122FFF7E6FE019840F23811C2F2DC
:103D8000000100F025FC0298C06B0168086820F073
:103D900008000860FFE7FFE708B080BD81B0009031
:103DA00001B0704780B582B00090009820B9FFE75D
:103DB00001208DF8070040E00098806908B1FFE716
:103DC00000E0FFE7009890F8410040B9FFE7009954
:103DD000002081F84000009800F034F8FFE70099D7
:103DE000242081F8410000980168C86820F4005040
:103DF000C860009800F0D4FF00980168086920F4BA
:103E00009040086100980168486920F02A004861E4
:103E100000980168C86840F40050C860009900200C
:103E20004864009A202182F84110009A82F84210DA
:103E3000009948638DF80700FFE79DF8070002B07E
:103E400080BD000080B58EB00D9000200C900B90CE
:103E50000A90099008900D98006844F20041C4F25D
:103E6000000188425FD1FFE7FFE70020079043F69B
:103E70004000C4F20200016841F4003101600068B2
:103E800000F4003007900798FFE7FFE70020069056
:103E900043F63000C4F20200016841F00101016004
:103EA000006800F0010006900698FFE70C200890DB
:103EB00002200990002002900A9003200B90072016
:103EC0000C900020C4F2020008A9FDF795FF0299AA
:103ED00040F21820C2F20000039046F28802C4F2B9
:103EE000020202604FF0006242608160C1604FF4E4
:103EF0008062026141618161C1614FF440320262BE
:103F00004162FDF73DFE18B1FFE7FCF715FDFFE745
:103F1000FFE70D9840F21821C2F20001C1630D982D
:103F20008863FFE76AE00D98006844F60001C4F278
:103F30000001884261D1FFE7FFE70020059043F6CA
:103F40004000C4F20200016841F480210160006871
:103F500000F4802005900598FFE7FFE7002004901B
:103F600043F63000C4F20200016841F00401016030
:103F7000006800F0040004900498FFE74FF48460A8
:103F8000089002200990002000900A9003200B90D6
:103F900007200C9040F60000C4F2020008A9FDF7CB
:103FA0002BFF009940F27820C2F20000019046F207
:103FB0002802C4F2020202604FF000624260816097
:103FC000C1604FF48062026141618161C1614FF45F
:103FD000403202624162FDF7D3FD18B1FFE7FCF702
:103FE000ABFCFFE7FFE70D9840F27821C2F2000139
:103FF000C1630D988863FFE7FFE7FFE70EB080BD60
:1040000081B0009001B0704781B0009001B070475E
:10401000FFE7FEE780B582B040F2C810C2F20000B0
:10402000009046F20041C4F20001016009214160A4
:10403000002101918160C1604FF4803202614FF430
:1040400080124261017641768176C17601774177AF
:10405000FDF726F918B1FFE7FCF76EFCFFE702B0A9
:1040600080BD000080B582B040F2F010C2F20000C6
:10407000009046F60001C4F2000101600921416090
:10408000002101918160C1604FF4803202614FF4E0
:1040900080124261017641768176C176017741775F
:1040A000FDF7FEF818B1FFE7FCF746FCFFE702B0AA
:1040B00080BD000080B584B0FFE70020039043F688
:1040C0003000C4F20200016841F400110160006890
:1040D00000F4001003900398FFE70C2000900022EA
:1040E00001921146FEF7A0FA0098FEF793FA019AA2
:1040F000102002901146FEF797FA0298FEF78AFA0E
:1041000004B080BD80B590B000200F900E900D904F
:104110000C900B90FFE700200A9043F63000C4F2A9
:104120000200016841F004010160006800F0040031
:104130000A900A98FFE7FFE70020099043F6300055
:10414000C4F20200016841F080010160006800F0E3
:10415000800009900998FFE7FFE70020089043F6E8
:104160003000C4F20200016841F001010160006802
:1041700000F0010008900898FFE7FFE70020079093
:1041800043F63000C4F20200016841F00201016010
:10419000006800F0020007900798FFE70020C4F2D3
:1041A000020001901021029100220492FDF7F2FF1B
:1041B0000299049A40F60000C4F202000590FDF74F
:1041C000E9FF049905984FF400520B920C910D9160
:1041D0000BA90691FDF710FE0198029B049A06991F
:1041E0000B93012303930C930D920E92FDF704FEA3
:1041F000DDF808C0039B049A05980699CDF82CC0F9
:104200000C930D920E92FDF7F7FD10B080BD0000EB
:1042100080B582B040F2D820C2F20000019045F291
:104220000041C4F20001016048F2A061C0F2010146
:10423000416000218160C1604FF4804202614161B0
:104240008161C1610162FDF7C3FF18B1FFE7FCF7AF
:1042500073FBFFE702B080BD80B582B040F22C3026
:10426000C2F20000019043F20001C4F201010160BA
:104270004FF48271416000218160C16002220261BD
:10428000012242614FF4007282611822C261016210
:10429000416281620A21C162FEF7F0FF18B1FFE7B7
:1042A000FCF74AFBFFE702B080BD000080B588B094
:1042B00000210191079106910591049103910291CA
:1042C00040F28430C2F200004FF08042026040F2BF
:1042D00007724260816040F2E732C2600161802172
:1042E0008161FFF737F918B1FFE7FCF725FBFFE71E
:1042F0004FF48050049040F28430C2F2000004A9D0
:10430000FFF718FA18B1FFE7FCF716FBFFE70020EC
:104310000290039040F28430C2F2000002A9FFF73D
:1043200087F818B1FFE7FCF707FBFFE708B080BD8F
:1043300080B582B040F2CC30C2F20000019044F26D
:104340000041C4F2000101604FF4E13141600021FD
:104350008160C16001610C2242618161C161FFF72E
:1043600021FD18B1FFE7FCF7E7FAFFE702B080BDD7
:1043700080B582B040F21440C2F20000019044F6D1
:104380000001C4F20001016048F2A061C0F2010125
:1043900041604FF4805181600021C1604FF4806220
:1043A00002610C2242618161C161FFF7FBFC18B11F
:1043B000FFE7FCF7C1FAFFE702B080BDFFE7FEE7C9
:1043C00080B590B08DED0F0ACDED0E0A0F9801F07B
:1043D00005FB41EC100B8DED000B0E9801F0FEFA81
:1043E00041EC100B51EC100B9FED590B53EC102BC3
:1043F0000793069201F006F941EC100B51EC100BFB
:104400009FED550B53EC102B0993089201F0FAF82D
:104410009DED000B41EC110B51EC110B53EC102BEB
:1044200001F002F841EC100B51EC100B00F0CAFF48
:1044300040F2B841C2F200010D9108600F9801F0FE
:10444000CDFA41EC100B8DED020B0E9801F0C6FA7F
:10445000069A079B41EC100B51EC100B01F0D2F8BF
:10446000089A099B41EC100B51EC100B01F0CAF8B3
:104470009DED020B41EC110B53EC112B51EC100B89
:1044800001F0BEF941EC100B51EC100B00F09AFF5B
:104490000D9948600F9801F0A1FA41EC100B8DEDD9
:1044A000040B0E9801F09AFA069A079B41EC100B48
:1044B00051EC100B01F0A6F8089A099B41EC100B87
:1044C00051EC100B01F09EF89DED040B41EC110B2B
:1044D00051EC110B53EC102B00F0A6FF41EC100B2C
:1044E00051EC100B00F06EFF0D9988600F9801F0F1
:1044F00075FA41EC100B8DED0A0B0E9801F06EFA77
:10450000069A079B41EC100B51EC100B01F07AF866
:10451000089A099B41EC100B51EC100B01F072F85A
:104520009DED0A0B41EC110B53EC112B51EC100BD0
:1045300001F066F941EC100B51EC100B00F042FF5A
:104540000D99C86000F0E8FE10B080BD00BF00BF4C
:1045500039B4C876BE9FF63F0000000000206D40D1
:10456000FFE7FEE788B0079006910592079800F0F4
:10457000070004900498C0F10700052803D3FFE763
:104580000420019004E00498C0F107000190FFE7C7
:104590000198039004980430062803D8FFE7002010
:1045A000009003E0049803380090FFE70098029021
:1045B00006980399012202FA01F101390840029B91
:1045C000984005999A40013A1140084308B0704755
:1045D00082B00190009101980078A52819D1FFE7D9
:1045E000019800780099087000990198D0F80100AE
:1045F000486000990198D0F80500886000990198FA
:10460000D0F80900086100990198D0F80D00C86041
:1046100006E040F2C611C2F2000101200870FFE777
:1046200002B0704780B582B040F25C40C2F2000038
:104630000078012814D1FFE740F2CC30C2F200002C
:10464000019040F26411C2F200011522FFF77AFADC
:104650000198C06B0168086820F00800086019E044
:1046600040F29011C2F200015A20087040F2CC30A2
:10467000C2F20000009040F24C11C2F2000111227F
:10468000FFF760FA0098C06B0168086820F0080026
:104690000860FFE702B080BD80B540F2C610C2F2EC
:1046A00000000078012809D1FFE7DFED1D0AB0EE18
:1046B000600AFFF785FE00F02FFE30E040F2C610E2
:1046C000C2F20000007848BBFFE740F23810C2F2A7
:1046D000000090ED040AB7EE001AB4EE410AF1EEC4
:1046E00010FA09D1FFE79FED0E0ADFED0E0AFFF782
:1046F00067FE00F011FE10E040F23810C2F2000038
:1047000090ED012A90ED020AB1EE421A71EE420AD2
:10471000FFF756FE00F000FEFFE7FFE7FFE780BD72
:1047200000000000CDCCCCBD7047000070470000F9
:1047300080B582B0009000980138B0F1807F03D33B
:10474000FFE70120019019E0009801384EF21401B2
:10475000CEF2000108604FF0FF300F2100F066FC40
:104760004EF21801CEF20001002008604EF2100255
:10477000CEF20002072111600190FFE7019802B01C
:1047800080BD000080B5FDF7BDFE80BD80B594B052
:1047900007A83421FBF714FE002006900590049032
:1047A00003900290FFE70020019043F64000C4F21E
:1047B0000200016841F080510160006800F0805003
:1047C00001900198FFE7FFE70020009047F200000A
:1047D000C4F20000016841F440410160006800F447
:1047E000404000900098FFE7012007904FF4803090
:1047F000089002200D904FF480010E9106210F9138
:10480000B421109111901290139007A8FEF7A2F90D
:1048100018B1FFE7FCF790F8FFE7FDF727FF18B1A5
:10482000FFE7FCF789F8FFE70F20029002200390D2
:10483000002004904FF4A05005904FF48050069053
:1048400002A80521FDF772FF18B1FFE7FCF774F825
:10485000FFE714B080BD00004EF68851CEF2000193
:10486000086840F4700008607047000080B540F2AE
:104870008430C2F20000FFF723F880BD83B00290BD
:10488000019102980068009002980021C4F2010191
:10489000884225D0FFE70298B0F1804F20D0FFE793
:1048A000029840F20041C4F20001884218D0FFE7AC
:1048B000029840F60001C4F20001884210D0FFE7E0
:1048C000029840F60041C4F20001884208D0FFE798
:1048D000029840F20041C4F2010188420AD1FFE788
:1048E000009820F0700000900198416800980843FB
:1048F0000090FFE702980021C4F20101884255D0E0
:10490000FFE70298B0F1804F50D0FFE7029840F2E5
:104910000041C4F20001884248D0FFE7029840F607
:104920000001C4F20001884240D0FFE7029840F63F
:104930000041C4F20001884238D0FFE7029840F2FB
:104940000041C4F20101884230D0FFE7029844F2EE
:104950000001C4F20101884228D0FFE7029844F226
:104960000041C4F20101884220D0FFE7029844F6DA
:104970000001C4F20101884218D0FFE7029841F615
:104980000001C4F20001884210D0FFE7029841F60E
:104990000041C4F20001884208D0FFE7029842F2C9
:1049A0000001C4F2000188420AD1FFE7009820F418
:1049B000407000900198C168009808430090FFE79C
:1049C000009820F080000199496908430090009800
:1049D00002990860019880680299C862019800688D
:1049E0000299886202980021C4F20101884208D02D
:1049F000FFE7029840F20041C4F20101884205D16C
:104A0000FFE70198006902990863FFE70299012016
:104A1000486102980069C00730B1FFE70299086950
:104A200020F001000861FFE703B0704785B00490F3
:104A3000039102920193049880680090009820F4FA
:104A40007F40009003980299019A41EA02210143B4
:104A500000980843009000980499886005B070475A
:104A600083B002900191029880680090009820F035
:104A70007000009001980099084340F007000090F2
:104A800000980299886003B07047000085B00490D8
:104A9000039102920498006A00900499086A20F039
:104AA00001000862049880690190019820F0F000EC
:104AB00001900299019840EA01100190009820F0BD
:104AC0000A00009003990098084300900198049907
:104AD000886100980499086205B0704785B0049019
:104AE000039102920498006A00900499086A20F0E9
:104AF00010000862049880690190019820F47040C9
:104B000001900299019840EA01300190009820F04C
:104B1000A00000900399009840EA011000900198CD
:104B20000499886100980499086205B070470000F4
:104B300080B584B00390002002900398806B0190B0
:104B4000019800684069C0B2C0090290019890F8CD
:104B5000410021280AD1FFE7029838B1FFE7019907
:104B60000020C884019800F0FFF8FFE70198006872
:104B70004069C0F380100290019890F8420022280A
:104B80000AD1FFE7029838B1FFE701990020C885F4
:104B9000019800F09FF8FFE70199486C40F0100081
:104BA00048640198FFF7FAF804B080BD80B586B07C
:104BB00005900598806B0490059800680068C00512
:104BC00000285AD4FFE704990020C885FFE7FFE7D3
:104BD0000498006850E8030F20F480700390FFE70A
:104BE00003990498026842E803100028F0D1FFE717
:104BF000FFE7FFE7FFE70498006850E8050F20F0A3
:104C000001000290FFE702990498026842E805104B
:104C10000028F0D1FFE7FFE7FFE7FFE7049800680F
:104C200050E8050F20F040000190FFE7019904983B
:104C3000026842E805100028F0D1FFE7FFE7049979
:104C4000202081F842000498006B012814D1FFE76E
:104C5000FFE7FFE70498006850E8030F20F010001A
:104C60000090FFE700990498026842E803100028CA
:104C7000F0D1FFE7FFE7FFE7FFE704990020486373
:104C80000498006B012805D1FFE70498818DFEF799
:104C9000BBFF03E00498FFF7B3F9FFE706B080BD60
:104CA00080B582B001900198806B0090009901203E
:104CB00048630098006B012806D1FFE70098818DBA
:104CC0004908FEF7A1FF03E00098FFF79DF9FFE711
:104CD00002B080BD84B00390FFE7FFE7039800684F
:104CE00050E8030F20F490700290FFE702990398B8
:104CF000026842E803100028F0D1FFE7FFE7FFE772
:104D0000FFE70398006850E8050F20F001000190CC
:104D1000FFE701990398026842E805100028F0D1E6
:104D2000FFE7FFE70398006B012814D1FFE7FFE7D7
:104D3000FFE70398006850E8030F20F01000009090
:104D4000FFE700990398026842E803100028F0D1B9
:104D5000FFE7FFE7FFE70399202081F8420003996E
:104D60000020086304B0704782B00190FFE7FFE7BE
:104D70000198006850E8030F20F0C0000090FFE7A2
:104D800000990198026842E803100028F0D1FFE77B
:104D9000FFE70199202081F8410002B07047000030
:104DA00080B586B0059005980068006920F44050F1
:104DB000059A1168D26810430861059988680B69E3
:104DC0004A69C9691843104308430490059800686C
:104DD000C06849F20C618843049908430599096841
:104DE000C86005980068406920F44070059A116811
:104DF0009269104348610598006841F20001C4F2CD
:104E00000101884209D0FFE70598006841F200419E
:104E1000C4F20101884204D1FFE7FDF7D1FD039000
:104E200003E0FDF7BBFD0390FFE70598C069B0F50F
:104E3000004F29D1FFE703981921A0FB0101059A32
:104E40001368029353685A00DB0FFBF741FA02998B
:104E5000864648F21F53C5F2EB13AEFB032042090E
:104E600010014FF0640C02FB1CEC322202EBCC026E
:104E7000A2FB0332F82303EA521300EB4300C2F310
:104E800042121044886026E003981921A0FB01011A
:104E9000059A1368019353689A009B0FFBF718FA61
:104EA0000199844648F21F52C5F2EB12ACFB023066
:104EB0004309642003FB10CC322000EB0C10A0FB54
:104EC0000202F02000EA521000EB0310C2F343127A
:104ED00010448860FFE706B080BD000080B588B050
:104EE00007900691ADF81620069807998862BDF8DC
:104EF000160007998885079900204864079A22219F
:104F000082F842100799CA6B44F6AD31C0F6000131
:104F1000D1630799CA6B44F6A141C0F60001116440
:104F20000799CA6B44F63131C0F60001D164079984
:104F3000C96B086506A8049007980168C06B043126
:104F4000049A1268BDF81630FCF7D2FEFFE7002085
:104F5000039007980068006803900798006840680D
:104F600003900398FFE707980069A0B1FFE7FFE708
:104F7000FFE70798006850E8030F40F48070029044
:104F8000FFE702990798026842E803100028F0D171
:104F9000FFE7FFE7FFE7FFE7FFE70798006850E854
:104FA000050F40F001000190FFE7019907980268A2
:104FB00042E805100028F0D1FFE7FFE7FFE7FFE731
:104FC0000798006850E8050F40F040000090FFE7A8
:104FD00000990798026842E805100028F0D1FFE721
:104FE000FFE7002008B080BDFFE7FEE781B08DF845
:104FF00003009DF9030000280ED4FFE79DF903107C
:1050000001F01F02012090404A094EF20011CEF239
:10501000000141F82200FFE701B070474EF60C5046
:10502000CEF200000068C0F30220704782B08DF815
:10503000070000919DF9070000280AD4FFE70098B7
:1050400000019DF907104EF20042CEF20002885492
:105050000BE0009800019DF8071001F00F014EF6DB
:105060001452CEF200028854FFE702B070470000ED
:1050700083B00290029800F0070000904EF60C51A9
:10508000CEF200010868019001984FF6FF0210402F
:1050900001900198009A40EA02200022C0F2FA52E0
:1050A000104301900198086003B0704780B58CB040
:1050B00001200A9000210891099002910391049126
:1050C0000591079006900B9040F2F010C2F200009C
:1050D000019002A9FBF70AFD0198FCF75FFB01981C
:1050E0001021FBF72DFC0CB080BD000080B58CB00A
:1050F00001210A91002008900991029003900490E8
:105100000590079006900B9040F2C810C2F2000084
:10511000019002A9FBF7EAFC0198FCF73FFB01981C
:105120000221FBF70DFC0CB080BD000080B582B001
:1051300000200190FDF7F4F9FFF728FBFEF7E2FFEE
:10514000FEF7B8FFFEF766FFFFF7F2F8FEF78AFFFB
:10515000FFF70EF9FFF7AAF8FFF75AF8FFF77CF808
:1051600040F28430C2F20000FEF768FA40F2C81044
:10517000C2F20000FCF712FB40F2F010C2F2000095
:10518000FCF70CFBFFF7B2FFFFF790FF40F2144073
:10519000C2F20000009040F2C841C2F200011222A7
:1051A000FEF7D0FC0098C06B0168086820F008008A
:1051B0000860FFF737FA4FF4FA70FCF7FBFDFFE7E2
:1051C000FFF76AFA40F2BE10C2F2000040F26641F8
:1051D000C2F20001FBF71EFA40F28641C2F2000162
:1051E0000A20FBF759FA0520FCF7E4FDE8E7000088
:1051F00085B00490ADF80E10ADF80C200499088A23
:105200004882BDF80C00BDF80E10401A04990882BF
:105210000498008AADF80A000498408AADF80800A6
:10522000049890ED000AB0F9100001EE100AB8EEF3
:10523000C11A20EE010ABDEEC00A10EE100AADF848
:105240000600049991ED010AB1F9100001EE100A6F
:10525000B8EEC12AB1F9140001EE100AB8EEC11A75
:1052600020EE020A30EE010ABDEEC00A10EE100A6E
:1052700088820498808AADF804000498B0F90C1074
:10528000B0F91400884204DDFFE704998889888218
:105290000EE00498B0F90C10B0F9140049428842AD
:1052A00005DAFFE70499888940428882FFE7FFE733
:1052B000049991ED020AB1F91000B1F91210401AE7
:1052C00001EE100AB8EEC11A20EE010ABDEEC00AC6
:1052D00010EE100AADF80200BDF80600BDF802108D
:1052E000401A0499898A0844ADF80000BDF900000D
:1052F0000499B1F90E10884209DDFFE70498C089CE
:10530000ADF80000BDF800000499C882FFE7BDF9C0
:10531000000005B07047000040F2B840C2F2000043
:1053200090ED000AB3EE034A20EE040A9FED223A04
:1053300020EE030A9FED212A80EE020A9FED201A3B
:1053400080EE010ABDEEC00A10EE101A4A4240F289
:10535000BE11C2F200010A8090ED010A20EE040A9B
:1053600020EE030A80EE020A80EE010ABDEEC00ABA
:1053700010EE102A4A8090ED020A20EE040A20EE78
:10538000030A80EE020A80EE010ABDEEC00A10EEAA
:10539000102A52428A8090ED030A20EE040A20EE81
:1053A000030A80EE020A80EE010ABDEEC00A10EE8A
:1053B000100AC880704700BF000070420000C2425F
:1053C000DA0F494021F0004201F00043A2F160529F
:1053D000B2F5801F28BFD2F17F6C0BD95FEA001CA9
:1053E00043EAC20242EB507018BF704728BF20F05A
:1053F00001007047B2F5801FBCBF184670474FEAE6
:10540000410C1CF5001F02D2084600F065BB70B5C8
:1054100000F0A2F900000089FFF7F6BF4FF000404E
:10542000A0F580007047000010B591EA030F48BF57
:1054300083F0004300F1EC81841A71EB030C05D278
:10544000121943EB0C03001B61EB0C014FEA1154E2
:10545000A4EB135CDFF81CE11EEA430F18BF9EEAC1
:10546000445F00F0748021EA045123EA0E0343F400
:105470008013DCF1200E32D322FA0CFE10EB0E006A
:1054800023FA0CFE41EB0E01CCF1200E03FA0EFEC6
:1054900010EB0E00CCF1200E51F10001B1F5801F90
:1054A00032D201EB045112FA0EF2BDE8104058BF9F
:1054B0007047401C38BF5FEA420218BF704700289F
:1054C00014BF20F0010041F100014FEA410313F540
:1054D000001F38BF7047A1F1C04100F08BB9012A0D
:1054E00043EB0302ACF1200CDCF11F0E32BF4FF096
:1054F000000E23FA0CF310EB030041EB0451B4EB64
:10550000115FD0D0A1EB045101F58011490801EBE6
:1055100004515FEA30000ED350F1000038BF12FA98
:105520000EFE08D1BDE81040C9E7401C38BF5FEA55
:105530004202CAD1C3E7BDE810404FEA410313F568
:10554000001F38BF7047A1F1C04100F053B99EEA77
:10555000445F08D011EA5E0FBDE8104004BF01F0BF
:10556000004100207047BDE8104070B500F0F4F82D
:1055700064FBBE3E0000E0FF4FEA41034FEA535395
:10558000A3F58063D3F11E03C8BFD3F1210C0CDD5A
:105590004FF0004242EAC12242EA505232FA03FC82
:1055A0008CEAE17CACEBE1707047102BC4BF0020AB
:1055B000704703F5787CBCF1FF3F04D06FF00042E8
:1055C00082EA2100704770B500F0C6F84992248045
:1055D00000207047F2E710F0004248BF4042B0FAA6
:1055E00080F310FA03F10AD0C3F11D0303F58063C1
:1055F00002EB03524FEA415002EBD12170474FF0CA
:105600000000704770B5DFF848C11CEA111E1EBFCC
:105610001CEA13159EEA0C0F95EA0C0F00F06F8040
:1056200081EA03044EEAD47EAE4421EA4C1123EA17
:105630004C1341F4801143F48013AEF17F7EA1FB43
:10564000024CA0FB0365361955EB0C05A1FB034C7E
:105650004CF10003A0FB021C16EB0C06654153F154
:105660000003094218BF46F0010613F4007F0BD176
:105670004FEA03314FEA053041EA155140EA16502E
:1056800034036FF003020AE04FEAC3214FEAC5205A
:1056900041EA555140EA5650F4026FF0020202EB23
:1056A0002E4201EB025585EACE710AD05FEA440C26
:1056B00018BF24F0004450F1000041F1000120EA3D
:1056C000D47040F2FE7C624500D270BDA84214BF87
:1056D0004FF080444FF04044002E08BF0024BEF13C
:1056E000806FA8BFA1F1C041BDE8704080F2828008
:1056F00001F1C04101F000414FF0000070470CEA99
:1057000013159EEA0C0F18BF95EA0C0F06D081EA1C
:10571000030E4FF000000EF0004170BD00F01CF8C9
:105720008900013E00F007B800F009B84FEA430CC9
:105730005FEA5C5C08D081EA030100F05BB84FEAE5
:10574000410C5FEA5C5CF6D102494FF00000704703
:105750000000FF070000F87F0EF1020E2EF0030E8E
:105760005EF8046B364205D4012A43EB030515F5B8
:10577000001F12D8012841EB010C1CF5001F0CD8AA
:105780000ED14FEAD17C0CEB4C0C0CF1020C15F550
:10579000001F08BF4CEBD37C04E04FF0080C01E085
:1057A0004FEAD37C0CEB4C0526FA05F606F007060B
:1057B000B6F1040C06D20EEB860CBDE870404CF03E
:1057C000010C6047DFE80CF0090B02024FF00041CA
:1057D000A1F500214FF0000070BD194610460128C8
:1057E00051EB010418BFD4F5001484BF002001F070
:1057F000004170BD0808A0F500114FEA3101704763
:1058000010B591EA030F48BF83F000433FF514AE93
:10581000841A71EB030C07D28CF0004C121943EB85
:105820000C03001B61EB0C014FEA1154A4EB135C59
:10583000DFF8A4E11EEA430F18BF9EEA445F00F0C0
:10584000B48021EA045123EA6E035242C3EB6E0393
:1058500038BF5B1EDCF1200E25D322FA0CFE10EBC4
:105860000E0043FA0CFE41EB0E01CCF1200E03FAC0
:105870000EFE10EB0E00CCF1200E51F1000129D4E8
:1058800001EB045112FA0EF2BDE8104058BF704708
:10589000401C1CBFB2F1004F704700280CBF491CD0
:1058A00020F00100704712EB020E43EB030218BF19
:1058B0004FF0010E4EEA4202ACF1200CDCF11E0E5C
:1058C00056D943FA0CFE10EB0E00CCF11E0E51F12E
:1058D000FF31D5D50EF1010E12FA0EFE404141EB1B
:1058E000010101EB445C5FEA5C5C10D901EB0451FF
:1058F00010EBDE7038BFBEF1004FBDE8104018BF9E
:10590000704700280CBF491C20F00100704734D2BA
:105910004FEAD42C24F4006411F500111BD0B1FA25
:1059200081F20B3AA41AA41ED2F12003914030FA5E
:1059300003F31943904001EBCC7101EB0451002CAF
:10594000BDE81040A8BF704701F1C04101F000411F
:105950004FF000007047B0FA80F310FA03F102D163
:10596000BDE810407047E41A173C4805C90AE2E751
:1059700001EB0451BDE81040704749104FEA300078
:1059800001EB0451BDE8104002E04FF00001704708
:105990004A0008BF0042F8D0B2F5001F28BF704788
:1059A00001F000414FF0000070479EEA445F07D0CD
:1059B00011EA5E0FBDE8104004BF002100207047CF
:1059C000BDE8104070B5FFF7C7FE00BF40DFF63EF0
:1059D000104683F0004170470000E0FF43004FEAAB
:1059E000D30C4FEA3C0C43401FBF40070CF1605101
:1059F00013F0FE4F70471CF0006F03D10CF0004114
:105A0000002070470CF0004343EA507040EACC009D
:105A100010B500F00EF800BF000000924FEA000140
:105A2000FFF7E8BE4FF00041A1F500214FF0000064
:105A300070470EF1020E2EF0030E5EF8044B244266
:105A400004D44FEA4102B2F17F4F11D84FEA40032C
:105A5000B3F17F4F0CD80ED14FEAD07C0CEB4C0C3D
:105A60000CF1020CB2F17F4F08BF4CEBD17C04E08B
:105A70004FF0080C01E04FEAD17C0CEB4C0324FA08
:105A800003F404F00704B4F1040C06D20EEB840C0A
:105A9000BDE810404CF0010C6047DFE80CF007084F
:105AA00002024FF00040A0F5800010BD0846420001
:105AB00018BFD2F1807288BF00F0004010BDF1EE37
:105AC000100A4FF6FF71C0F2C03120EA010040F029
:105AD0004070E1EE100A7047FF2141EAD050C00546
