:020000040800F2
:10000000000E0020D102000829560008054F000804
:10001000855400086D06000899670008000000007C
:100020000000000000000000000000003D5A000831
:10003000550C000800000000395A0008955A0008C5
:10004000EB020008EB020008EB020008EB020008DC
:10005000EB020008EB020008EB020008EB020008CC
:10006000EB020008EB020008EB020008EB020008BC
:100070009D0A0008EB020008EB020008EB020008F2
:10008000AD0A0008EB020008EB020008EB020008D2
:1000900071060008EB020008EB020008EB02000802
:1000A000EB020008EB020008EB020008EB0200087C
:1000B0007D5B0008EB020008EB020008EB02000881
:1000C000EB020008EB020008EB020008EB0200085C
:1000D000EB020008EB020008B5660008EB0200081E
:1000E000EB020008EB020008EB020008EB0200083C
:1000F000EB020008EB020008EB020008EB0200082C
:10010000EB020008EB020008EB020008EB0200081B
:10011000EB020008EB020008EB020008EB0200080B
:10012000EB020008EB020008EB020008EB020008FB
:10013000EB0200080000000000000000EB020008D5
:10014000EB02000881060008EB020008EB02000841
:10015000EB020008EB020008EB020008EB020008CB
:10016000EB020008EB020008EB020008EB020008BB
:10017000EB020008EB020008EB02000800000000A0
:1001800000000000EB02000800000000000000007A
:10019000EB0200080000000000000000EB02000875
:1001A000000000000000000000000000EB0200085A
:1001B000EB020008EB020008EB020008EB0200086B
:1001C000EB02000800F002F800F072F814A696E8BE
:1001D000000CB244B344DA4501D100F069F8BAE842
:1001E0000F000FA696E83000A5EB040504EB060708
:1001F000AAEB0704A7F101074FEA15154FEA3414DB
:10020000A4F10104AC4201D300F052F813F0010F45
:1002100018BFFB1A43F0010300F001F8DBE71847B1
:10022000C07F0000E07F00000A444FF0000C10F88F
:10023000013B13F0070408BF10F8014B1D1108BF64
:1002400010F8015B641E05D010F8016B641E01F804
:10025000016BF9D113F0080F1EBF10F8014BAD1C54
:100260000C1B09D16D1E58BF01F801CBFAD505E072
:1002700014F8016B01F8016B6D1EF9D59142D6D3CC
:10028000704700007047000000230024002500266E
:10029000103A28BF78C1FBD8520728BF30C148BFE9
:1002A0000B6070471FB507F0E4FE1FBD10B510BD11
:1002B00000F006F91146FFF7F5FF06F0D1FB00F05C
:1002C00024F903B4FFF7F2FF03BC00F027F90000A4
:1002D0000948804709480047FEE7FEE7FEE7FEE7DA
:1002E000FEE7FEE7FEE7FEE7FEE7FEE70448054916
:1002F000054A064B70470000695B0008C50100080D
:1003000000080020000E0020000A0020000A002043
:1003100053EA020C00F069802DE9F04B4FF0000623
:10032000002B1FBFB3FA83F503FA05F424FA05F690
:100330005E4012BF1643B2FA82F502FA05F4C5F127
:1003400020051EBF22FA05FC44EA0C04203556EABB
:10035000044C4FEA144418BF641C4FF000084FF0DF
:100360000009904271EB030C39D3002919BFB1FA8F
:1003700081F701FA07F6B0FA80F700FA07F6C7F13D
:1003800020071EBF20FA07FC46EA0C062037B6FB02
:10039000F4FCA7EB0507103F07F01F0BCBF120067D
:1003A0002CFA06F60CFA0BFB44BFB3460026202FAE
:1003B000A4BF5E464FF0000B5BEA060C08BF4FF08F
:1003C000010B19EB0B0948EB0608ABFB027C06FBA3
:1003D00002CC0BFB03CCC01B71EB0C01C1E70B463D
:1003E000024641464846BDE8F08B13B5084318BFA6
:1003F0004FF0FF300146AFF30080BDE81C4070476E
:100400004FF000020429C0F0128010F0030C00F03D
:100410001B80CCF1040CBCF1020F18BF00F8012BBB
:10042000A8BF20F8022BA1EB0C0100F00DB85FEA89
:10043000C17C24BF00F8012B00F8012B48BF00F855
:10044000012B70474FF0000200B5134694469646C4
:10045000203922BFA0E80C50A0E80C50B1F12001D7
:10046000BFF4F7AF090728BFA0E80C5048BF0CC085
:100470005DF804EB890028BF40F8042B08BF7047E3
:1004800048BF20F8022B11F0804F18BF00F8012B55
:10049000704770477047704710B500F009F8006862
:1004A00010BD10B5044600F003F8046010BD000054
:1004B00000487047100300200048704710030020D8
:1004C0007546FFF7F9FFAE4605006946534620F032
:1004D0000700854618B020B5FFF708FFBDE82040AB
:1004E0004FF000064FF000074FF000084FF0000BF0
:1004F000AC46ACE8C009ACE8C009ACE8C009ACE85F
:10050000C00921F007018D46704710B50446AFF3CE
:1005100000802046BDE81040FFF7D3BE01491820F7
:10052000ABBEFEE7260002007047000040F2F93043
:10053000C2F20000007801281FD1FFE740F210202E
:10054000C2F200000078012807D1FFE740F2F9313C
:10055000C2F20001022008700EE040F21020C2F248
:100560000000007838B9FFE740F2F931C2F200012B
:1005700003200870FFE7FFE777E040F2F930C2F2AE
:1005800000000078032820D1FFE740F2A830C2F233
:1005900000000188013101800088B0F5486F13D157
:1005A000FFE740F2AA31C2F200010120087040F2D8
:1005B000A831C2F200010020088040F2F931C2F2F5
:1005C000000102200870FFE74EE040F2F930C2F26D
:1005D00000000078022846D1FFE740F2AA30C2F2BC
:1005E00000000078012816D1FFE740F21020C2F287
:1005F0000000007803280DD1FFE740F2AA31C2F2D3
:1006000000010020087040F2F931C2F2000101201F
:100610000870FFE726E040F2AA30C2F2000000783E
:10062000F8B9FFE740F21020C2F20000007838B9B4
:10063000FFE740F2F931C2F20001032008700FE039
:1006400040F21020C2F200000078032807D1FFE733
:1006500040F2F931C2F2000101200870FFE7FFE724
:10066000FFE7FFE7FFE7FFE7FFE77047FFE7FEE78A
:1006700080B540F22C40C2F2000000F0C3FE80BD05
:1006800080B540F25440C2F2000000F0BBFE80BDD5
:1006900080B584B0039002910020ADF80200FFE71E
:1006A000BDF8020001284CDCFFE70298BDF80210FB
:1006B00000EBC1004088ADF800000398BDF80210BF
:1006C00030F91100BDF90010401AB0F5805F07DD68
:1006D000FFE7BDF8000000F50050ADF8000013E0A2
:1006E0000398BDF8021030F91100BDF90010401A4E
:1006F00010F5805F07DAFFE7BDF80000A0F50050B5
:10070000ADF80000FFE7FFE7BDF8023003EB43015F
:1007100040F2D420C2F2000000EBC100BDF900108D
:10072000039A32F9132006F019FABDF8022001A944
:1007300021F81200FFE7BDF802000130ADF8020019
:10074000AEE7BDF90400BDF9061000231A4600F01B
:100750003FF804B080BD000080B584B0ADF80E0055
:10076000ADF80C10ADF80A20ADF8083040F20441A5
:10077000C2F200014FF40070086000208860C86079
:10078000082008619DF80F0040F2FA32C2F2000220
:1007900010709DF80E0050709DF80D0090709DF83F
:1007A0000C00D0709DF80B0010719DF80A0050717C
:1007B0009DF8090090719DF80800D07140F22C401E
:1007C000C2F2000001AB00F091FB04B080BD00005C
:1007D00080B584B0ADF80E00ADF80C10ADF80A206D
:1007E000ADF8083040F2DC71C2F200014FF4FF7046
:1007F000086000208860C860082008619DF80F002C
:1008000040F2D472C2F2000210709DF80E005070D7
:100810009DF80D0090709DF80C00D0709DF80B00B5
:1008200010719DF80A0050719DF8090090719DF8B3
:100830000800D07140F22C40C2F2000001AB00F081
:1008400055FB04B080BD000080B584B0ADF80E004B
:10085000ADF80C10ADF80A20ADF8083040F29C71EC
:10086000C2F2000140F2FF10086000208860C860FA
:10087000082008619DF80F0040F29472C2F2000255
:1008800010709DF80E0050709DF80D0090709DF84E
:100890000C00D0709DF80B0010719DF80A0050718B
:1008A0009DF8090090719DF80800D07140F22C402D
:1008B000C2F2000001AB00F019FB04B080BD0000E3
:1008C00080B584B0ADF80E00ADF80C10ADF80A207C
:1008D000ADF8083040F2BC71C2F200014FF4007074
:1008E000086000208860C860082008619DF80F003B
:1008F00040F2B472C2F2000210709DF80E00507007
:100900009DF80D0090709DF80C00D0709DF80B00C4
:1009100010719DF80A0050719DF8090090719DF8C2
:100920000800D07140F25440C2F2000001AB00F068
:10093000DDFA04B080BD000080B584B00390029160
:100940000020ADF80600FFE7BDF80600032823DC11
:10095000FFE7BDF8063003EB430140F21420C2F27A
:10096000000000EBC100029901EBC301B1F90410D2
:10097000039A32F9132006F0F1F8BDF8062040F290
:100980001271C2F2000121F81200FFE7BDF8060063
:100990000130ADF80600D7E740F21273C2F200034F
:1009A000B3F90000B3F90210B3F90420B3F906302B
:1009B000FFF7D2FE04B080BD80B584B0ADF80E0064
:1009C00002910298B0F904000190BDF90E0007F001
:1009D000BCF841EC100B9FED121B53EC112B51ECAA
:1009E000100B07F0DDF841EC100B51EC100B07F089
:1009F0007DF80199024640F27420C2F2000006F030
:100A0000ADF8014640F21E40C2F200000180B0F98C
:100A10000000002319461A46FFF716FF04B080BDF8
:100A2000000000000000424080B584B003900291B5
:100A30000020ADF80000FFE7BDF80000012821DC30
:100A4000FFE7BDF8003003EB430140F28C20C2F217
:100A5000000000EBC100029901EBC301B1F90410E1
:100A6000039A32F9132006F079F8BDF800200DF151
:100A7000020121F81200FFE7BDF800000130ADF8D7
:100A80000000D9E7BDF90200BDF90410BDF9062048
:100A90000023FFF715FF04B080BD000080B540F2D1
:100AA000DC40C2F2000001F01FFA80BD80B540F2C8
:100AB0007C40C2F2000001F017FA80BD82B00190C4
:100AC0000198007810384AF6AB21CAF6AA21A0FB9B
:100AD000011000090090009948F2D810C0F60000FB
:100AE000405C0199C8650098042807D3FFE7019985
:100AF0000868042262F30900886506E00199086825
:100B000040F2FF3290438865FFE70198806D02B0A4
:100B10007047000086B0059000208DF813000598FE
:100B2000806A03900598806910BBFFE703980290E4
:100B300003281BD80299DFE801F0020D021805987E
:100B400090F82F00C00720B1FFE701208DF81300B7
:100B5000FFE70CE00598C06AB0F1C07F04D1FFE761
:100B600001208DF81300FFE701E000E0FFE745E01A
:100B700005988069B0F5005F25D1FFE703980190E3
:100B800003281ED80199DFE801F0020602110120B6
:100B90008DF8130016E0059890F82F00C00720B1DB
:100BA000FFE701208DF81300FFE70BE00598C06A0E
:100BB000B0F1C07F04D1FFE701208DF81300FFE7FB
:100BC00000E0FFE719E003980090032804D3FFE753
:100BD0000098032804D00EE001208DF813000BE0EC
:100BE000059890F82F00C00720B1FFE701208DF88D
:100BF0001300FFE700E0FFE7FFE7FFE79DF81300C2
:100C000006B0704784B0039002910192009303985C
:100C10000168086820F4802008600098039909683A
:100C2000486003988068402809D1FFE7019803993C
:100C300009688860029803990968C86008E002980A
:100C4000039909688860019803990968C860FFE7FB
:100C500004B070477047000072B6FFE7FEE700007F
:100C600080B592B00FA9039181ED020AC1ED010A8E
:100C700081ED001A0E90119807F08AF941EC100BE3
:100C80009FED591B53EC112B51EC100B06F0D2FDCC
:100C900041EC100B51EC100B06F0F2FC01460398EE
:100CA000119190ED010A90ED001A30EE410AB0EE7C
:100CB000001A80EE010ABDEEC00A10EE100AADF86F
:100CC0003600BDF9360006F040FF41EC100B8DED0B
:100CD000060B40F20870C2F200000C90B0F9000060
:100CE00006F033FF41EC100B9FED411B53EC112B31
:100CF00051EC100B06F054FF41EC100B51EC100BB3
:100D00009FED3D0B53EC102B0B930A9206F092FDD6
:100D100041EC100B8DED000B119807F039F99DEDAA
:100D2000001B41EC100B51EC110B53EC102B06F097
:100D300081FD41EC100B06F013F803988DED040BC8
:100D400090ED010A90ED001A30EE010A10EE100A43
:100D500007F01EF941EC100B51EC100B9FED280B26
:100D600053EC102B06F066FD9DED041B9DED060B6C
:100D700041EC120B8DED082B53EC112B51EC100BA9
:100D800006F00EFF9DED080B41EC110B51EC110B21
:100D900053EC102B06F0A6FC41EC100B51EC100BA1
:100DA00006F0A4FE0C990E9A108008880130088085
:100DB000119807F0EDF80A9A0B9B41EC100B51ECDF
:100DC000100B06F0EDFE41EC100B51EC100B06F091
:100DD0008DFE0C990246B1F9003093FBF2F000FB56
:100DE0001230088012B080BD3333333333332340A5
:100DF000F1D4C853FB2119400000000000408F408F
:100E0000000000000000004084B002900191ADF8A5
:100E10000220029828B9FFE74FF6FF70ADF80E00E8
:100E200021E0FFE70198411E0191B8B1FFE7029868
:100E3000411C029100788DF80100BDF802109DF868
:100E400001004840C2B240F20800C2F2000030F88F
:100E5000120080EA1120ADF80200E3E7BDF80200BD
:100E6000ADF80E00FFE7BDF80E0004B070470000BB
:100E700081B040F2F930C2F200000078012804D0BD
:100E8000FFE74FF07E50009002E000200090FFE767
:100E90009DED000A01B0704784B002900191029864
:100EA00090F820008DF803009DF80300012805D07C
:100EB000FFE79DF8030002280AD1FFE7019A029894
:100EC000016848691043486100208DF80F0008E070
:100ED0000299486A40F48020486201208DF80F0092
:100EE000FFE79DF80F0004B07047000088B006903F
:100EF000059104920393069890F820008DF807005E
:100F000006980068806800900598806808B9FFE737
:100F100000E0FFE79DF80700012806D0FFE79DF8F5
:100F20000700022840F08080FFE79DF8030040079B
:100F300000280CD4FFE79DF803000007002806D422
:100F4000FFE79DF80300C006002864D5FFE700987E
:100F5000C0F3016002900299012088400399086063
:100F60000598806868B9FFE705980168C06840EA9D
:100F7000415006990968029A01EB0211C1F88001FB
:100F80000EE005994A688868C96840EAC2000843CB
:100F900006990968029A01EB0211C1F88001FFE786
:100FA0000598006906990968029A01EB0211C1F8D7
:100FB00084010598007D01280CD1FFE706980068A0
:100FC000029900EB0111D1F8840140F48070C1F85E
:100FD0008401FFE70498406806990968029A01EBCA
:100FE0000211C1F88C010498006806990968029AF8
:100FF00001EB0211C1F8880106980068029900EB24
:101000000111D1F8800140F00100C1F880010020F9
:101010008DF81F0011E00699486A40F400104862FC
:1010200001208DF81F0008E00699486A40F48020EE
:10103000486201208DF81F00FFE79DF81F0008B0EF
:101040007047000086B004900391049800680190F6
:10105000049890F820008DF803009DF80300012803
:1010600006D0FFE79DF80300022840F0B080FFE7BC
:1010700046F20040C4F2000001900199D1F800024C
:1010800040F00100C1F800020199D1F8000220F4FB
:101090007C50C1F800020398426A0199D1F800021D
:1010A00040EA0220C1F800020398406900F01F01E5
:1010B000012088400290029A0199D1F81C029043C5
:1010C000C1F81C020398C069F0B9FFE7029A0199C0
:1010D000D1F80C029043C1F80C02039A9088D168B1
:1010E000526940EA0140019901EBC201C1F8400296
:1010F000039A10889168526940EA0140019901EB16
:10110000C201C1F84402FFE70398C06901281ED15B
:10111000FFE7029A0199D1F80C021043C1F80C02C2
:10112000039A90881168526940EA0140019901EBE5
:10113000C201C1F84002039A90899168526940EA5D
:101140000140019901EBC201C1F84402FFE7039895
:10115000806940B9FFE7029A0199D1F804029043EF
:10116000C1F8040207E0029A0199D1F80402104381
:10117000C1F80402FFE70398006940B9FFE7029A4B
:101180000199D1F814029043C1F8140207E0029AC1
:101190000199D1F814021043C1F81402FFE7039833
:1011A000006A012808D1FFE7029A0199D1F81C02D0
:1011B0001043C1F81C02FFE70199D1F8000220F0AA
:1011C0000100C1F8000200208DF8170008E0049922
:1011D000486A40F48020486201208DF81700FFE73C
:1011E0009DF8170006B0704781B0009001B07047BD
:1011F00086B00490039102920193049890F8200025
:101200008DF803009DF80300012806D0FFE79DF844
:101210000300022840F0E880FFE7039880B9FFE769
:1012200004980068C068800748B9FFE70499486AD5
:1012300040F40010486201208DF81700DDE00FE057
:10124000049800680069800748B9FFE70499486A74
:1012500040F40010486201208DF81700CDE0FFE750
:1012600004980068039900EB0110D0F8B00100F079
:101270000400029988600298806858B9FFE70498D2
:101280000068039900EB0110D0F8B001400D0299FD
:1012900008600AE004980068039900EB0110D0F898
:1012A000B001C00802994860FFE7049800680399FC
:1012B00000EB0110D0F8B00100F002000299C86004
:1012C00004980068039900EB0110D0F8B40100F015
:1012D0000F00082804D3FFE70299082008610BE0FB
:1012E00004980068039900EB0110D0F8B40100F0F5
:1012F0000F0002990861FFE704980068039900EB6A
:101300000110D0F8B40180B2000A029988610498F3
:101310000068039900EB0110D0F8B401000C0299A9
:10132000486104980068039900EB0110D0F8B801F7
:101330000199087004980068039900EB0110D0F837
:10134000B801000A0199487004980068039900EBFD
:101350000110D0F8B801000C019988700498006859
:10136000039900EB0110D0F8B801000E0199C87084
:1013700004980068039900EB0110D0F8BC010199B2
:10138000087104980068039900EB0110D0F8BC01C3
:10139000000A0199487104980068039900EB011054
:1013A000D0F8BC01000C0199887104980068039979
:1013B00000EB0110D0F8BC01000E0199C871039830
:1013C00038B9FFE704980168C86840F02000C86099
:1013D00006E004980168086940F020000861FFE712
:1013E00000208DF8170008E00499486A40F4802036
:1013F000486201208DF81700FFE79DF8170006B03E
:101400007047000080B58AB00990002008900998C4
:10141000006840690790099800684068069009983C
:1014200000688068059009980068C0680490099871
:1014300000680069039009980068806902909DF82F
:101440001C00C007002800F09480FFE79DF81400FE
:10145000C00758B3FFE709980168012088609DF82C
:1014600014008007002804D5FFE7099800F08CFCE1
:101470001BE09DF814004007002805D5FFE70898F9
:1014800040F4006008900FE09DF814000007002869
:1014900005D5FFE7089840F48050089003E00998CC
:1014A00000F06EFCFFE7FFE7FFE7FFE79DF81500A0
:1014B000C00760B3FFE7099801684FF48070886047
:1014C0009DF815008007002804D5FFE7099800F073
:1014D00063FC1BE09DF815004007002805D5FFE7D9
:1014E000089840F4005008900FE09DF815000007A0
:1014F000002805D5FFE7089840F48040089003E0F5
:10150000099800F045FCFFE7FFE7FFE7FFE79DF8DC
:101510001600C00760B3FFE7099801684FF48030F8
:1015200088609DF816008007002804D5FFE7099819
:1015300000F03AFC1BE09DF816004007002805D596
:10154000FFE7089840F4004008900FE09DF816006F
:101550000007002805D5FFE7089840F48030089080
:1015600003E0099800F01CFCFFE7FFE7FFE7FFE757
:10157000FFE79DF81C000007002810D5FFE79DF845
:101580001000C006002809D5FFE7089840F4007055
:101590000890099801681020C860FFE7FFE79DF8F0
:1015A0001C00400700280FD5FFE79DF8100000073A
:1015B000002808D5FFE7099801680820C860099845
:1015C00000F0D0FAFFE7FFE79DF81C008007002835
:1015D0000BD5FFE709980068C068800720B1FFE7D6
:1015E000099800F0C3FAFFE7FFE79DF81C004006EA
:1015F000002810D5FFE79DF80C00C006002809D58B
:10160000FFE7089840F4806008900998016810206E
:101610000861FFE7FFE79DF81C00800600280FD552
:10162000FFE79DF80C000007002808D5FFE70998A0
:10163000016808200861099800F016FBFFE7FFE742
:101640009DF81C00C00600280BD5FFE7099800682C
:101650000069800720B1FFE7099800F009FBFFE768
:10166000FFE79DF81E00800700280FD5FFE79DF8D3
:101670001800C006002808D5FFE709980168102067
:101680004860099800F032FBFFE7FFE79DF81E0075
:10169000C00778B1FFE79DF818000007002808D5BB
:1016A000FFE70998016808204860099800F080FB6E
:1016B000FFE7FFE79DF81D000006002840F18D8040
:1016C000FFE79DF818004007002840F18180FFE700
:1016D0009DF81D00C00750B1FFE79DF80800C00746
:1016E00028B1FFE7089840F001000890FFE79DF857
:1016F0001D00800700280BD5FFE79DF80800800734
:10170000002805D5FFE7089840F002000890FFE7A1
:101710009DF81D00400700280BD5FFE79DF8080045
:101720004007002805D5FFE7089840F0040008901E
:10173000FFE79DF81D000007002848D5FFE79DF84A
:10174000080010F0700F42D0FFE7029800F0700020
:1017500001460191102814D0FFE70198202815D0E8
:10176000FFE70198302816D0FFE70198402817D0EE
:10177000FFE70198502818D0FFE70198602819D09A
:101780001DE0089840F00800089019E0089840F023
:101790001000089014E0089840F0200008900FE036
:1017A000089840F0400008900AE0089840F0800057
:1017B000089005E0089840F48070089000E0FFE78A
:1017C00009980168886920F070008861FFE7FFE7E9
:1017D0000998016804204860FFE7089848B1FFE7CE
:1017E000089A0999486A104348620998FFF7FCFC77
:1017F000FFE70AB080BD000080B584B00290029877
:1018000020B9FFE701208DF80F00E0E0029890F882
:10181000200020B9FFE7029800F0DEF8FFE7029809
:101820000168086840F00100086001F027F80190A5
:10183000FFE7029800684068C007A8B9FFE701F019
:101840001DF80199401A0B280DD3FFE70299486A49
:1018500040F4003048620299052081F82000012000
:101860008DF80F00B3E0E4E702980168086820F003
:101870000200086001F002F80190FFE7029800689A
:1018800040688007002815D5FFE700F0F7FF0199B1
:10189000401A0B280DD3FFE70299486A40F4003044
:1018A00048620299052081F8200001208DF80F0080
:1018B0008DE0E3E70298007E012807D1FFE7029858
:1018C0000168086840F08000086006E0029801683E
:1018D000086820F080000860FFE70298407E012839
:1018E00007D1FFE702980168086840F040000860EF
:1018F00006E002980168086820F040000860FFE7F1
:101900000298807E012807D1FFE7029801680868E5
:1019100040F02000086006E002980168086820F0A6
:1019200020000860FFE70298C07E012807D1FFE78A
:1019300002980168086820F01000086006E002982C
:101940000168086840F010000860FFE70298007F17
:10195000012807D1FFE702980168086840F00800F5
:10196000086006E002980168086820F00800086036
:10197000FFE70298407F012807D1FFE7029801683E
:10198000086840F00400086006E0029801680868F2
:1019900020F004000860FFE7029B19685A68986805
:1019A000D3F80CC040EA0C00D3F810C040EA0C0099
:1019B0005B691843013A1043C861029900204862EC
:1019C000029A012182F820108DF80F00FFE79DF8A0
:1019D0000F0004B080BD000080B590B00F900020D3
:1019E0000E900D900C900B900A900F98006846F2A4
:1019F0000041C4F2000188424BD1FFE740F2AC3015
:101A0000C2F200000168013101600068012812D1B2
:101A1000FFE7FFE70020099043F64000C4F2020010
:101A2000016841F000710160006800F000700990E9
:101A30000998FFE7FFE7FFE70020089043F6300032
:101A4000C4F20200016841F002010160006800F088
:101A5000020008900898FFE74FF440700A900220B7
:101A60000B90002003900C9003200D9009200E9005
:101A700040F20040C4F202000AA900F001FD039AFE
:101A800014200490114601F02BF9049801F01EF97E
:101A900065E00F98006846F60001C4F20001884234
:101AA0005CD1FFE7FFE70020079043F64000C4F257
:101AB0000200016841F080610160006800F0806010
:101AC00007900798FFE740F2AC30C2F200000168CF
:101AD000013101600068012812D1FFE7FFE7002013
:101AE000069043F64000C4F20200016841F0007124
:101AF0000160006800F0007006900698FFE7FFE7BD
:101B0000FFE70020059043F63000C4F202000168B0
:101B100041F002010160006800F0020005900598A4
:101B2000FFE74FF440500A9002200B9000200190F4
:101B30000C9003200D9009200E9040F20040C4F25A
:101B400002000AA900F09CFC019A41200290114673
:101B500001F0C6F8029801F0B9F8FFE7FFE710B00E
:101B600080BD000081B0009001B0704780B58CB09E
:101B70000B9040F22C40C2F20000002104AA02ABFC
:101B8000FFF736FB0498B0F5017F25D8FFE70498EE
:101B9000A0F20120ADF806000498BDF9062040F23D
:101BA0001A71C2F2000121F832009DF808209DF858
:101BB000090040EA0220BDF9062001EBC202508074
:101BC0009DF80A209DF80B0040EA0220BDF906208E
:101BD00001EBC201888045E0049840F2062188426A
:101BE00025D1FFE70498A0F20520ADF80400049881
:101BF000BDF9042040F25A71C2F2000121F832000E
:101C00009DF808209DF8090040EA0220BDF9042053
:101C100001EBC20250809DF80A209DF80B0040EABB
:101C20000220BDF9042001EBC201888019E004986C
:101C300040F20521884213D1FFE79DF808109DF876
:101C4000090040EA012040F23A71C2F200014880E6
:101C50009DF80A209DF80B0040EA02208880FFE7EB
:101C6000FFE7FFE70CB080BD81B0009001B0704786
:101C700080B58CB00B9040F25440C2F200000121BC
:101C800004AA02ABFFF7B4FA0498A0F20120ADF861
:101C90000600BDF90600002825D4FFE7BDF90600BF
:101CA000032820DCFFE70498BDF9062040F24271CA
:101CB000C2F2000121F832009DF808209DF80900C9
:101CC00040EA0220BDF9062001EBC20250809DF8D7
:101CD0000A209DF80B0040EA0220BDF9062001EB26
:101CE000C2018880FFE70CB080BD000081B0009089
:101CF00001B0704780B584B00290029890F820003F
:101D000001282FD1FFE70299022081F820000298D4
:101D10000168086820F00100086000F0AFFD019044
:101D2000FFE7029800684068C007A8B1FFE700F02D
:101D3000A5FD0199401A0B280DD3FFE70299486AC7
:101D400040F4003048620299052081F8200001200B
:101D50008DF80F000FE0E4E70299002048628DF84B
:101D60000F0008E00299486A40F400204862012010
:101D70008DF80F00FFE79DF80F0004B080BD000054
:101D800081B0009001B0704781B0009001B0704701
:101D900081B0009001B0704781B0009001B07047F1
:101DA00081B0009001B0704781B0009001B07047E1
:101DB00081B0009001B0704780B584B00290029865
:101DC000806D019000F05AFD0090029890F8350067
:101DD00002280DD0FFE7029980204865FFE70299AD
:101DE000002081F83400FFE701208DF80F0055E056
:101DF00002980168086820F01600086002980168DF
:101E0000486920F0800048610298006C20B9FFE723
:101E10000298806C38B1FFE702980168086820F0EA
:101E200008000860FFE702980168086820F00100D8
:101E30000860FFE7029800680068C007C8B1FFE7C4
:101E400000F01CFD0099401A062811D3FFE7029903
:101E5000202048650299032081F83500FFE70299A8
:101E6000002081F83400FFE703208DF80F0015E013
:101E7000E0E70298C16D3F2088400199886002998F
:101E8000012081F83500FFE70299002081F8340035
:101E9000FFE7FFE700208DF80F00FFE79DF80F0038
:101EA00004B080BD82B00090009890F83500022800
:101EB00007D0FFE700998020486501208DF80700D2
:101EC0000EE00099052081F8350000980168086847
:101ED00020F001000860FFE700208DF80700FFE711
:101EE0009DF8070002B0704780B586B005900020CD
:101EF000039040F20400C2F20000006848F2B511FD
:101F0000C1F64E31A0FB0110800A02900598806D49
:101F1000019001980068049004980599C96DC84023
:101F2000000700281AD5FFE70598006800684007F9
:101F3000002812D5FFE705980168086820F0040022
:101F400008600598C16D082088400199886005994E
:101F5000486D40F001004865FFE7FFE704980599E8
:101F6000C96DC840C007A0B1FFE705980068406987
:101F7000000600280CD5FFE70598C16D01208840B8
:101F8000019988600599486D40F002004865FFE7B7
:101F9000FFE704980599C96DC8404007002814D58B
:101FA000FFE7059800680068800700280CD5FFE768
:101FB0000598C16D04208840019988600599486D95
:101FC00040F004004865FFE7FFE704980599C96DF4
:101FD000C840C006002847D5FFE70598006800689C
:101FE000000700283FD5FFE70598C16D1020884005
:101FF00001998860059800680068400300281AD598
:10200000FFE70598006800680003002809D4FFE78F
:102010000598006C20B1FFE70598016C8847FFE741
:1020200008E00598806C20B1FFE70598816C88472F
:10203000FFE7FFE716E0059800680068C005002884
:1020400007D4FFE705980168086820F008000860D9
:10205000FFE70598006C20B1FFE70598016C884701
:10206000FFE7FFE7FFE7FFE704980599C96DC84060
:102070008006002840F18D80FFE705980068006821
:10208000C006002840F18480FFE70598C16D20203C
:10209000884001998860059890F83500052834D16A
:1020A000FFE705980168086820F0160008600598A9
:1020B0000168486920F0800048610598006C20B9EB
:1020C000FFE70598806C38B1FFE70598016808685C
:1020D00020F008000860FFE70598C16D3F208840A8
:1020E000019988600599012081F83500FFE705997D
:1020F000002081F83400FFE70598006D20B1FFE76C
:102100000598016D8847FFE77BE005980068006847
:10211000400300281AD5FFE705980068006800030F
:10212000002809D4FFE70598406C20B1FFE7059827
:10213000416C8847FFE708E00598C06B20B1FFE7D6
:102140000598C16B8847FFE7FFE720E00598006826
:102150000068C005002811D4FFE7059801680868E9
:1021600020F0100008600599012081F83500FFE794
:102170000599002081F83400FFE7FFE70598C06B60
:1021800020B1FFE70598C16B8847FFE7FFE7FFE74E
:10219000FFE70598406DA0B3FFE70598406DC007C5
:1021A00030B3FFE70599052081F8350005980168EF
:1021B000086820F001000860FFE7039801300390F1
:1021C0000299884201D9FFE707E0FFE70598006818
:1021D0000068C0070028F0D1FFE70599012081F8C9
:1021E0003500FFE70599002081F83400FFE7FFE79D
:1021F0000598C06C20B1FFE70598C16C8847FFE7E0
:10220000FFE706B080BD000080B586B004900020D6
:10221000039000F033FB0290049820B9FFE70120FF
:102220008DF81700A3E00498406A08B1FFE7FFE7C4
:102230000499022081F83500FFE70499002081F815
:102240003400FFE704980168086820F00100086086
:10225000FFE7049800680068C00790B1FFE700F04E
:102260000DFB0299401A06280AD3FFE704992020A3
:1022700048650499032081F835008DF8170076E051
:10228000E7E70498006800680390039848F23F016C
:10229000CFF2100108400390049900914868D1F8EA
:1022A00008C0CB680A6940EA0C00184310434A6929
:1022B00010438A691043CA691043096A01430398AD
:1022C000084303900498406A042808D1FFE7049962
:1022D000C86A096B0143039808430390FFE703981A
:1022E000049909680860049800684069039003989D
:1022F00020F0070003900498416A03980843039074
:102300000498406A04281AD1FFE70498816A039868
:10231000084303900498C06A80B1FFE70498FEF771
:10232000F9FB50B1FFE7049940204865049901206A
:1023300081F835008DF8170019E0FFE7FFE70398F3
:102340000499096848610498FEF7B8FB0190049865
:10235000C16D3F208840019988600499002048653C
:10236000049A012182F835108DF81700FFE79DF8D7
:10237000170006B080BD000080B588B006900591BA
:102380000492039300208DF80B000698806D019055
:10239000FFE7069890F83400012804D1FFE70220F7
:1023A0008DF81F0045E00699012081F83400FFE711
:1023B000FFE7069890F8350001282BD1FFE7069932
:1023C000022081F835000699002048650698059995
:1023D000049A039BFEF716FC0698C16D3F208840C7
:1023E0000199886006980168086840F01600086046
:1023F0000698006C38B1FFE706980168086840F05D
:1024000008000860FFE706980168086840F00100CE
:10241000086009E0FFE70699002081F83400FFE733
:1024200002208DF80B00FFE79DF80B008DF81F00D0
:10243000FFE79DF81F0008B080BD000080B584B0A4
:10244000039000F01BFA029003980190019801306C
:1024500048B1FFE740F20430C2F200000178019871
:1024600008440190FFE7FFE700F008FA0299401ADC
:102470000199884201D2FFE7F6E704B080BD000071
:102480008DB00C900B9100200990089007900A9055
:10249000FFE70A980F2800F2BE81FFE70A990120A2
:1024A000884009900B98006809990840089008989E
:1024B0000999884240F0AA81FFE70B98406800F034
:1024C0000300012807D0FFE70B98406800F00300E5
:1024D00002282FD1FFE70C98806807900A984100E6
:1024E000032000FA01F10798884307900B98C06811
:1024F0000A99490000FA01F10798084307900798E4
:102500000C9988600C98406807900A99012000FA9D
:1025100001F10798884307900B984068C0F30010BA
:102520000A9900FA01F107980843079007980C9957
:102530004860FFE70B98406800F00300032818D0BC
:10254000FFE70C98C06807900A984100032000FA42
:1025500001F10798884307900B9880680A99490011
:1025600000FA01F107980843079007980C99C86092
:10257000FFE70B98406800F00300022826D1FFE730
:102580000C980A996FF0030202EA51010844006AAC
:1025900007900A9800F0070081000F2000FA01F16F
:1025A0000798884307900B9800690A9901F0070182
:1025B000890000FA01F107980843079007980C99E1
:1025C0000A9B02EA530211440862FFE70C98006874
:1025D00007900A984100032000FA01F10798884308
:1025E00007900B98406800F003000A99490000FA30
:1025F00001F107980843079007980C9908600B9819
:1026000080798007002800F00081FFE7FFE70020C5
:10261000069043F64400C4F20200016841F4804190
:102620000160006800F4804006900698FFE70A9871
:1026300020F0030043F60801C4F20101405807905E
:102640000A9800F0030081000F2000FA01F10798BA
:10265000884307900C980021C4F20201884203D1FC
:10266000FFE70020059050E00C9840F20041C4F2D2
:102670000201884203D1FFE70120049042E00C9858
:1026800040F60001C4F20201884203D1FFE70220B4
:10269000039034E00C9840F60041C4F202018842F5
:1026A00003D1FFE70320029026E00C9841F20001DD
:1026B000C4F20201884203D1FFE70420019018E030
:1026C0000C9841F20041C4F20201884203D1FFE7B5
:1026D000052000900AE00C9941F60002C4F20202C3
:1026E0000720914208BF06200090FFE70098019064
:1026F000FFE701980290FFE702980390FFE7039835
:102700000490FFE704980590FFE70598C0B20A9986
:1027100001F00301890000FA01F1079808430790CE
:1027200007980A9921F0030143F60802C4F2010256
:10273000885043F60840C4F20100006807900899E9
:102740000798884307900B988079C006002805D524
:10275000FFE70899079808430790FFE7079843F6B3
:102760000841C4F20101086043F60C40C4F20100C4
:102770000068079008990798884307900B9880791C
:102780008006002805D5FFE70899079808430790B9
:10279000FFE7079843F60C41C4F20101086043F6D5
:1027A0000440C4F201000068079008990798884324
:1027B00007900B9880798007002805D5FFE70899D6
:1027C000079808430790FFE7079843F60441C4F2CF
:1027D0000101086043F60040C4F201000068079060
:1027E00008990798884307900B988079C00728B10B
:1027F000FFE70899079808430790FFE7079843F613
:102800000041C4F201010860FFE7FFE7FFE70A9813
:1028100001300A903DE60DB07047000082B0019093
:10282000ADF8021001980069BDF80210084204D00A
:10283000FFE701208DF8010003E000208DF8010082
:10284000FFE79DF8010002B07047000082B00190E0
:10285000ADF802108DF801209DF8010028B1FFE7C6
:10286000BDF802000199886105E0BDF8020000048E
:1028700001998861FFE702B07047000040F2907054
:10288000C2F200000068704780B58EB00C900C98C2
:1028900020B9FFE701208DF8370043E10C9890F84C
:1028A0003D0040B9FFE70C99002081F83C000C98EE
:1028B00000F03CF9FFE70C99242081F83D000C98CA
:1028C0000168086820F0010008600C980168086839
:1028D00040F4004008600C980168086820F400404B
:1028E000086000F0B7FB0A900C98406848F2A061BD
:1028F000C0F2010188420BD8FFE70A9948F28042F2
:10290000C0F21E020020914238BF012009900AE067
:102910000A9940F60012C0F23D020020914238BFF1
:1029200001200990FFE70998012804D1FFE7012061
:102930008DF83700F6E00A984DF68361C4F21B313A
:10294000A0FB0110800C0B900C980068406820F0F0
:102950003F000B9908430C99096848600C9800687F
:10296000006A20F03F0008900C98406848F2A0618F
:10297000C0F20101884204D8FFE70B9801300790AC
:102980000EE00B984FF49671484344F6D351C1F2D0
:102990006201A0FB0101012000EB91100790FFE70D
:1029A0000898079908430C99096808620C98006810
:1029B000C0694CF6FF71884306900C98406848F255
:1029C000A061C0F2010188421FD8FFE70A980138D0
:1029D0000C9949684900B0FBF1F001306FF31F30EA
:1029E000032803D8FFE7042005900BE00A9801387C
:1029F0000C9949684900B0FBF1F001306FF31F30CA
:102A00000590FFE7059804904CE00C98806868B941
:102A1000FFE70A9801380C99496801EB4101B0FBC6
:102A2000F1F001306FF31F3003900DE00A98013888
:102A30000C99496819225143B0FBF1F0013004218F
:102A400061F31F300390FFE70398000518B9FFE713
:102A50000120029023E00C98806868B9FFE70A988B
:102A600001380C99496801EB4101B0FBF1F00130EC
:102A70006FF31F3001900DE00A9801380C994968F6
:102A800019225143B0FBF1F00130042161F31F30F2
:102A90000190FFE7019840F400400290FFE70298A0
:102AA0000490FFE70698049908430C990968C861E7
:102AB0000C980068006820F0C0000C9B1968DA6967
:102AC0001B6A1A43104308600C980068806848F23B
:102AD000FF3188430C9A1168D36812691A43104376
:102AE00088600C980068C06820F0FF000C9B196893
:102AF0005A699B691A431043C8600C9801680868BA
:102B000040F0010008600C99002008640C9A202114
:102B100082F83D100C9908630C9981F83E008DF8FD
:102B20003700FFE79DF837000EB080BD80B588B054
:102B3000079000200690059004900390029007985B
:102B4000006845F20041C4F20001884234D1FFE739
:102B5000FFE70020019043F63000C4F20200016854
:102B600041F002010160006800F00200019001984C
:102B7000FFE7C02002901220039000200490032061
:102B800005900420069040F20040C4F2020002A921
:102B9000FFF776FCFFE70020009043F64000C4F208
:102BA0000200016841F400110160006800F40010A7
:102BB00000900098FFE7FFE708B080BD40F20430C6
:102BC000C2F20000027840F29071C2F2000108687F
:102BD000104408607047000080B543F60041C4F21D
:102BE0000201086840F400700860086840F48060E2
:102BF0000860086840F480700860032000F08AF8DC
:102C00000F2000F005F800F03BF8002080BD000028
:102C100080B582B0009040F20400C2F2000000686B
:102C200040F20431C2F200010A784FF47A71B1FB2C
:102C3000F2F1B0FBF1F000F047FF20B1FFE7012017
:102C40008DF8070018E000980F280DD8FFE70099CD
:102C50004FF0FF30002200F043F8009840F20831B6
:102C6000C2F20001086003E001208DF8070003E0D4
:102C700000208DF80700FFE79DF8070002B080BD37
:102C800082B0FFE70020019043F64400C4F2020046
:102C9000016841F480410160006800F480400190C7
:102CA0000198FFE7FFE70020009043F64000C4F2E0
:102CB0000200016841F080510160006800F080501E
:102CC00000900098FFE702B07047000080B582B026
:102CD0008DF807009DF9070003F09EFD02B080BD4E
:102CE00080B586B08DF81700049103920020029001
:102CF00003F0AAFD02909DF9170001900298049933
:102D0000039A02F093FC0146019803F0A5FD06B07A
:102D100080BD000080B582B00190019803F0BEFD37
:102D200002B080BD80B584B000200290FFE7002093
:102D3000019043F64000C4F20200016841F0805166
:102D40000160006800F0805001900198FFE7402189
:102D5000C4F20E2101200860FFF790FD0290FFE70A
:102D600047F20400C4F20000006800F48030B0F5BF
:102D7000803F0DD0FFE7FFF781FD0299401AB0F5C3
:102D80007A7F04D9FFE703208DF80F0025E0E7E7FD
:102D90004421C4F20E2101200860FFF76FFD02906C
:102DA000FFE747F20400C4F20000006800F40030BE
:102DB000B0F5003F0DD0FFE7FFF760FD0299401A24
:102DC000B0F57A7F04D9FFE703208DF80F0004E007
:102DD000E7E700208DF80F00FFE79DF80F0004B033
:102DE00080BD000080B584B002900191029820B9A6
:102DF000FFE701208DF80F0021E1019843F6004123
:102E0000C4F20201096801F00F01884212D9FFE7FC
:102E1000019943F60040C4F202000170006800F01E
:102E20000F000199884204D0FFE701208DF80F00C0
:102E300005E1FFE702980078800700282AD5FFE720
:102E4000029800784007002809D5FFE743F60801FB
:102E5000C4F20201086840F4E0500860FFE70298FD
:102E600000780007002809D5FFE743F60801C4F2FF
:102E70000201086840F460400860FFE743F608017B
:102E8000C4F20201086820F0F000029A9268104330
:102E90000860FFE702980078C00700286ED0FFE7BF
:102EA00002984068012811D1FFE743F60000C4F200
:102EB0000200006800F400310020B0EB514F04D153
:102EC000FFE701208DF80F00B9E02CE00298406880
:102ED000022805D0FFE702984068032811D1FFE7D8
:102EE00043F60000C4F20200006800F00071002008
:102EF000B0EB516F04D1FFE701208DF80F009EE089
:102F000010E043F60000C4F20200006800F0020185
:102F10000020B0EB510F04D1FFE701208DF80F0026
:102F20008DE0FFE7FFE743F60801C4F202010868FD
:102F300020F00300029A526810430860FFF79EFCDD
:102F40000090FFE743F60800C4F20200006800F0BA
:102F50000C0002994968B0EB810F0ED0FFE7FFF734
:102F60008DFC0099401A41F28931884204D3FFE771
:102F700003208DF80F0062E0E4E7FFE7019843F6D5
:102F80000041C4F20201096801F00F01884212D227
:102F9000FFE7019943F60040C4F2020001700068A7
:102FA00000F00F000199884204D0FFE701208DF85E
:102FB0000F0044E0FFE702980078400700280CD596
:102FC000FFE743F60801C4F20201086820F4E0506C
:102FD000029AD26810430860FFE702980078000761
:102FE00000280DD5FFE743F60801C4F20201086886
:102FF00020F46040029A126940EAC2000860FFE7CC
:1030000000F04CF843F60801C4F202010968C9B2A5
:103010000A0948F2C011C0F60001895CC84040F2BC
:103020000401C2F20001086040F20830C2F2000060
:103030000068FFF7EDFD00208DF80F00FFE79DF819
:103040000F0004B080BD000040F20400C2F2000096
:103050000068704780B5FFF7F7FF43F60801C4F238
:1030600002010968C1F3822248F2D011C0F60001C2
:10307000895CC84080BD000080B5FFF7E5FF43F6DE
:103080000801C4F20201096889B24A0B48F2D01162
:10309000C0F60001895CC84080BD000080B586B0E4
:1030A00000200590049003900290019043F60800E0
:1030B000C4F20200006800F00C00014600910C28E8
:1030C00000F29B800099DFE801F0079898980D982E
:1030D000989813989898570042F20040C0F2F40074
:1030E000019090E041F60030C0F2B70001908AE014
:1030F00043F60400C4F20200016801F03F010591AB
:1031000000684002002813D5FFE743F60400C4F22C
:1031100002000068C0F3881041F60031C0F2B70128
:10312000A0FB0101059A0023FDF7F2F8049012E0DC
:1031300043F60400C4F202000068C0F3881042F2B3
:103140000041C0F2F401A0FB0101059A0023FDF744
:10315000DFF80490FFE743F60400C4F202000068C1
:1031600000F44031022000EBD13003900498039921
:10317000B0FBF1F0019046E043F60400C4F2020017
:10318000016801F03F01059100684002002813D555
:10319000FFE743F60400C4F202000068C0F38810A1
:1031A00041F60031C0F2B701A0FB0101059A0023EE
:1031B000FDF7AEF8049012E043F60400C4F20200FA
:1031C0000068C0F3881042F20041C0F2F401A0FB95
:1031D0000101059A0023FDF79BF80490FFE743F6F1
:1031E0000400C4F202000068C0F302700290049868
:1031F0000299B0FBF1F0019005E042F20040C0F20C
:10320000F4000190FFE7019806B080BD80B586B05C
:103210000490049820B9FFE701208DF8170084E39B
:1032200004980078C007002800F0BA80FFE743F652
:103230000800C4F20200006800F00C00042828D046
:10324000FFE743F60800C4F20200006800F00C003B
:1032500008280BD1FFE743F60400C4F2020000681F
:1032600000F48000B0F5800F13D0FFE743F60800AC
:10327000C4F20200006800F00C000C281ED1FFE729
:1032800043F60400C4F2020000684002002815D58D
:10329000FFE743F60000C4F20200006800F40031CA
:1032A0000020B0EB514F08D0FFE70498406820B9E8
:1032B000FFE701208DF8170037E370E0FFE704987F
:1032C0004068B0F5803F09D1FFE743F60001C4F242
:1032D0000201086840F48030086020E004984068EB
:1032E000B0F5A02F0DD1FFE743F60001C4F20201B3
:1032F000086840F480200860086840F48030086066
:103300000CE043F60001C4F20201086820F48030AA
:103310000860086820F480200860FFE7FFE7FFE707
:1033200004984068E8B1FFE7FFF7A8FA0390FFE7C9
:1033300043F60000C4F20200006800F400310020EF
:10334000B0EB514F0CD1FFE7FFF798FA0399401A01
:10335000652804D3FFE703208DF81700E5E2E7E7CF
:103360001CE0FFF78BFA0390FFE743F60000C4F27E
:103370000200006800F400310020B0EB514F0CD087
:10338000FFE7FFF77BFA0399401A652804D3FFE7AC
:1033900003208DF81700C8E2E7E7FFE7FFE7FFE744
:1033A000049800788007002840F1A980FFE743F6E1
:1033B0000800C4F20200006810F00C0F26D0FFE7EE
:1033C00043F60800C4F20200006800F00C00082870
:1033D00009D1FFE743F60400C4F20200006840028E
:1033E000002813D5FFE743F60800C4F20200006886
:1033F00000F00C000C282CD1FFE743F60400C4F2C7
:10340000020000684002002823D4FFE743F60000D2
:10341000C4F20200006800F002010020B0EB510F7E
:1034200009D0FFE70498C068012804D0FFE7012015
:103430008DF8170079E243F60001C4F20201086832
:1034400020F0F800049A126940EAC2000860FFE721
:1034500054E00498C06870B3FFE70021C4F247212C
:1034600001200860FFF70AFA0390FFE743F6000027
:10347000C4F20200006800F002010020B0EB510F1E
:103480000CD1FFE7FFF7FAF90399401A032804D398
:10349000FFE703208DF8170047E2E7E743F6000156
:1034A000C4F20201086820F0F800049A126940EAA8
:1034B000C200086021E00021C4F24721002008601A
:1034C000FFF7DCF90390FFE743F60000C4F20200C7
:1034D000006800F002010020B0EB510F0CD0FFE7B4
:1034E000FFF7CCF90399401A032804D3FFE7032020
:1034F0008DF8170019E2E7E7FFE7FFE7FFE7049819
:103500000078000700284BD5FFE70498406918B3FE
:10351000FFE740F68061C4F2472101200860FFF711
:10352000ADF90390FFE743F67400C4F202000068AF
:1035300000F002010020B0EB510F0CD1FFE7FFF7C4
:103540009DF90399401A032804D3FFE703208DF85F
:103550001700EAE1E7E722E040F68061C4F2472184
:1035600000200860FFF78AF90390FFE743F6740034
:10357000C4F20200006800F002010020B0EB510F1D
:103580000CD0FFE7FFF77AF90399401A032804D318
:10359000FFE703208DF81700C7E1E7E7FFE7FFE744
:1035A000049800784007002840F1CE80FFE7002013
:1035B0008DF8070043F64000C4F202000068C00026
:1035C000002815D4FFE7FFE70020009043F64000F5
:1035D000C4F20200016841F080510160006800F00F
:1035E000805000900098FFE701208DF80700FFE76A
:1035F00047F20000C4F200000068C005002822D491
:10360000FFE747F20001C4F20001086840F480704F
:103610000860FFF733F90390FFE747F20000C4F2B8
:1036200000000068C00500280CD4FFE7FFF726F96A
:103630000399401A032804D3FFE703208DF81700ED
:1036400073E1EAE7FFE7FFE704988068012809D102
:10365000FFE743F67001C4F20201086840F0010080
:1036600008601FE00498806805280DD1FFE743F645
:103670007001C4F20201086840F0040008600868A4
:1036800040F0010008600CE043F67001C4F2020152
:10369000086820F001000860086820F00400086055
:1036A000FFE7FFE7FFE704988068F8B1FFE7FFF75F
:1036B000E5F80390FFE743F67000C4F202000068EB
:1036C00000F002010020B0EB510F0ED1FFE7FFF731
:1036D000D5F80399401A41F28931884204D3FFE7B3
:1036E00003208DF8170020E1E5E71EE0FFF7C6F89C
:1036F0000390FFE743F67000C4F20200006800F098
:1037000002010020B0EB510F0ED0FFE7FFF7B6F833
:103710000399401A41F28931884204D3FFE703201C
:103720008DF8170001E1E5E7FFE79DF807000128A4
:1037300009D1FFE743F64001C4F20201086820F016
:1037400080500860FFE7FFE704988069002800F0D8
:10375000E880FFE743F60800C4F20200006800F0CA
:103760000C00082800F08880FFE704988069022890
:103770005FD1FFE76021C4F2472100200860FFF716
:103780007DF80390FFE743F60000C4F202000068F2
:1037900000F000710020B0EB516F0CD0FFE7FFF795
:1037A0006DF80399401A032804D3FFE703208DF82E
:1037B0001700BAE0E7E70499C869D1F820C04B6A5E
:1037C0008A6A40EA0C0040EA8310D2034FF6FF7386
:1037D0009A43A2F580321043CA6A40EA0260096B3C
:1037E00040EA017043F60401C4F20201086060215E
:1037F000C4F2472101200860FFF740F80390FFE77B
:1038000043F60000C4F20200006800F000710020DE
:10381000B0EB516F0CD1FFE7FFF730F80399401A76
:10382000032804D3FFE703208DF817007DE0E7E7C6
:1038300021E06021C4F2472100200860FFF71EF854
:103840000390FFE743F60000C4F20200006800F0B6
:1038500000710020B0EB516F0CD0FFE7FFF70EF8BE
:103860000399401A032804D3FFE703208DF81700BB
:103870005BE0E7E7FFE753E004988069012804D1A3
:10388000FFE701208DF817004FE043F60400C4F273
:103890000200006802900498806901283AD0FFE78E
:1038A000029800F480000499C969884232D1FFE788
:1038B000029800F03F000499096A88422AD1FFE784
:1038C000029847F6C07108400499496AB0EB811F1D
:1038D00020D1FFE7029800F440300499896AC903B7
:1038E0004FF6FF729143A1F58031884212D1FFE774
:1038F000029800F070600499C96AB0EB016F09D1B9
:10390000FFE7029800F0E0400499096BB0EB017FFB
:1039100004D0FFE701208DF8170006E0FFE7FFE77E
:10392000FFE700208DF81700FFE79DF8170006B0AD
:1039300080BD000080B584B00290029820B9FFE7F6
:1039400001208DF80F0072E00298406A60B9FFE72D
:1039500002984068B0F5827F01D1FFE703E0029949
:103960000020C861FFE705E0029900200861029984
:103970004861FFE7029900208862029890F85100A0
:1039800040B9FFE70299002081F85000029800F04A
:1039900053F8FFE70299022081F85100029801686C
:1039A000086820F040000860029A0192116850688F
:1039B000D2F808C0D36800F482700CF4044C604460
:1039C00003F400631844136903F0020318445369B5
:1039D00003F001031844936903F400731844D36996
:1039E00003F038031844136A03F080031843926A03
:1039F00002F4005210430860029801688369426A29
:103A0000042000EA134002F01002104448600298BB
:103A10000168C86920F40060C86102990020486507
:103A2000029A012182F851108DF80F00FFE79DF8EE
:103A30000F0004B080BD000080B588B00790002062
:103A4000069005900490039002900798006843F256
:103A50000001C4F20101884233D1FFE7FFE70020F3
:103A6000019043F64400C4F20200016841F4805121
:103A70000160006800F4805001900198FFE7FFE7C3
:103A80000020009043F63000C4F20200016841F0CB
:103A900001010160006800F0010000900098FFE75C
:103AA000E020029002200390002004900320059063
:103AB000052006900020C4F2020002A9FEF7E0FCF7
:103AC000FFE708B080BD000080B582B0019001988A
:103AD00001F0B6FF02B080BD81B0009001B0704728
:103AE00081B0009001B0704785B003900291FFE76C
:103AF000039890F83C00012804D1FFE702208DF8DC
:103B000013007EE00399012081F83C00FFE7FFE706
:103B10000399022081F83D000398006840680190F5
:103B20000398006880680090019820F07000019070
:103B30000298016801980843019001980399096867
:103B40004860039800680021C4F2010188423CD01B
:103B5000FFE703980068B0F1804F36D0FFE7039885
:103B6000006840F20041C4F2000188422DD0FFE716
:103B70000398006840F60001C4F20001884224D096
:103B8000FFE70398006840F60041C4F20001884254
:103B90001BD0FFE70398006840F20041C4F2010126
:103BA000884212D0FFE70398006844F20001C4F293
:103BB0000101884209D0FFE70398006841F600013F
:103BC000C4F2000188420ED1FFE7009820F0800087
:103BD000009002984168009808430090009803996B
:103BE00009688860FFE70399012081F83D00FFE73D
:103BF0000399002081F83C00FFE700208DF81300B6
:103C0000FFE79DF8130005B07047000080B582B053
:103C10000090009820B9FFE701208DF807003FE0F1
:103C2000009890F83D0040B9FFE70099002081F826
:103C30003C00009800F038F8FFE70099022081F876
:103C40003D00009951F8040B01F0A0FF00990120FC
:103C500081F84600FFE70099012081F83E000099B5
:103C600081F83F00009981F84000009981F84100F7
:103C7000FFE7FFE70099012081F84200009981F8F1
:103C80004300009981F84400009981F84500FFE75E
:103C90000099012081F83D0000208DF80700FFE722
:103CA0009DF8070002B080BD80B584B003900398F2
:103CB0000068B0F1804F1BD1FFE7FFE700200290C2
:103CC00043F64000C4F20200016841F001010160C6
:103CD000006800F0010002900298FFE71C200090AD
:103CE00001210022FEF7FCFF0098FEF7EFFF1BE02A
:103CF0000398006840F20041C4F20001884212D1EA
:103D0000FFE7FFE70020019043F64000C4F2020005
:103D1000016841F002010160006800F002000190BA
:103D20000198FFE7FFE7FFE704B080BD83B0019093
:103D3000019890F83D00012804D0FFE701208DF89C
:103D40000B006AE00199022081F83D0001980168AA
:103D5000C86840F00100C860019800680021C4F202
:103D6000010188423CD0FFE701980068B0F1804F24
:103D700036D0FFE70198006840F20041C4F200012C
:103D800088422DD0FFE70198006840F60001C4F298
:103D90000001884224D0FFE70198006840F6004106
:103DA000C4F2000188421BD0FFE70198006840F28E
:103DB0000041C4F20101884212D0FFE70198006877
:103DC00044F20001C4F20101884209D0FFE70198E2
:103DD000006841F60001C4F20001884212D1FFE7F9
:103DE00001980068806800F007000090009806289D
:103DF00007D0FFE701980168086840F001000860FB
:103E0000FFE706E001980168086840F001000860DB
:103E1000FFE700208DF80B00FFE79DF80B0003B0D3
:103E20007047000080B586B00490039100208DF8A3
:103E30000B00FFE7049890F83C00012804D1FFE74D
:103E400002208DF81700ABE00499012081F83C00B6
:103E5000FFE7FFE70499022081F83D00049800681D
:103E600080680190019820F077000190019820F47B
:103E70007F40019001980499096888600398006860
:103E80000090002872D0FFE7009810286ED0FFE75E
:103E9000009820286AD0FFE70098302866D0FFE716
:103EA0000098402855D0FFE70098502837D0FFE70A
:103EB0000098602840D0FFE7009870280BD0FFE7FB
:103EC0000098B0F5805F05D0FFE70098B0F5005F7F
:103ED00016D052E055E004980068039B5A68996830
:103EE000DB6801F047FF0498006880680190019842
:103EF00040F077000190019804990968886040E0DB
:103F000004980068039B5A689968DB6801F032FFE7
:103F100004980168886840F48040886031E0049823
:103F20000068039A5168D26801F054FF0498006851
:103F3000502101F039FF24E004980068039A516889
:103F4000D26801F06FFF04980068602101F02CFF37
:103F500017E004980068039A5168D26801F03AFFAC
:103F600004980068402101F01FFF0AE004980068EF
:103F70000399096801F018FF03E001208DF80B0098
:103F8000FFE70499012081F83D00FFE70499002034
:103F900081F83C00FFE79DF80B008DF81700FFE764
:103FA0009DF8170006B080BD81B0009001B0704749
:103FB00080B584B0039003980068C06802900398AD
:103FC0000068006901909DF804008007002824D54E
:103FD000FFE79DF80800800700281DD5FFE703983C
:103FE00001686FF0020008610399012008770398C7
:103FF00000688069800720B1FFE70398FFF7D4FFCE
:1040000006E0039800F0E2F8039800F0E3F8FFE719
:10401000039900200877FFE7FFE79DF804004007B9
:10402000002825D5FFE79DF80800400700281ED589
:10403000FFE7039801686FF004000861039902200C
:10404000087703980068806910F4407F04D0FFE788
:104050000398FFF7A9FF06E0039800F0B7F803986C
:1040600000F0B8F8FFE7039900200877FFE7FFE7C3
:104070009DF804000007002824D5FFE79DF80800FC
:10408000000700281DD5FFE7039801686FF00800BE
:10409000086103990420087703980068C0698007C5
:1040A00020B1FFE70398FFF77FFF06E0039800F0D9
:1040B0008DF8039800F08EF8FFE703990020087749
:1040C000FFE7FFE79DF80400C006002825D5FFE7BD
:1040D0009DF80800C00600281ED5FFE70398016878
:1040E0006FF01000086103990820087703980068B2
:1040F000C06910F4407F04D0FFE70398FFF754FF36
:1041000006E0039800F062F8039800F063F8FFE718
:10411000039900200877FFE7FFE79DF80400C00738
:1041200078B1FFE79DF80800C00748B1FFE70398A2
:1041300001686FF001000861039800F023F9FFE7C0
:10414000FFE79DF804000006002810D5FFE79DF862
:1041500008000006002809D5FFE7039801686FF002
:10416000800008610398FFF7B7FCFFE7FFE79DF8C1
:1041700004004006002810D5FFE79DF8080040061F
:10418000002809D5FFE7039801686FF04000086137
:10419000039800F019F9FFE7FFE79DF80400800697
:1041A000002810D5FFE79DF808008006002809D5F3
:1041B000FFE7039801686FF0200008610398FFF79C
:1041C0008FFCFFE7FFE704B080BD000081B00090E6
:1041D00001B0704780B582B0019040F23060C2F209
:1041E0000000002100F002F802B080BD80B588B068
:1041F0000790069100208DF81700069804900C286F
:1042000035D80499DFE801F0073333331233333301
:104210001D333333280007980168C86820F4007004
:10422000C8600798406AFDF73DFE24E007980168E2
:10423000C86820F48060C8600798806AFDF732FE85
:1042400019E007980168C86820F40060C860079802
:10425000C06AFDF727FE0EE007980168C86820F4E1
:104260008050C8600798006BFDF71CFE03E001203A
:104270008DF81700FFE79DF8170000287DD1FFE7B4
:10428000079800680699002201F058FD0798016818
:1042900001200022C4F20102914203900CD0FFE7FA
:1042A000079800684FF60041CBF6FE710844B0FA5B
:1042B00080F040090390FFE70398C007D8B1FFE7FB
:1042C000FFE707980068006A41F21111084210D117
:1042D000FFE707980068006A40F24441084207D1AE
:1042E000FFE707980168486C20F400404864FFE746
:1042F000FFE7FFE7FFE7FFE707980068006A41F282
:104300001111084210D1FFE707980068006A40F2D7
:104310004441084207D1FFE707980168086820F088
:1043200001000860FFE7FFE7FFE7069828B9FFE70D
:104330000799012081F83E001EE00698042806D166
:10434000FFE70799012081F83F00029012E00698EC
:10435000082806D1FFE70799012081F84000019065
:1043600005E00799012081F841000190FFE70198DD
:104370000290FFE70298FFE7FFE79DF8170008B0FB
:1043800080BD000080B582B00190019840F2E851F4
:10439000C2F20001884211D1FFE740F26A70C2F216
:1043A0000000B0EE000ADFED060A9FED061AFCF7EA
:1043B00057FC00F0B1FDFCF7B9F8FFE702B080BD93
:1043C0000000E1450060D14581B0009001B0704728
:1043D00080B586B004900391ADF80A20049890F857
:1043E000420020284DD1FFE7039820B1FFE7BDF838
:1043F0000A0020B9FFE701208DF8170045E0049975
:104400000120086304990020486304980399BDF8CB
:104410000A2002F011F88DF809009DF8090058BB38
:10442000FFE70498006B012821D1FFE7FFE7002098
:104430000190049800680068019004980068406842
:1044400001900198FFE7FFE7FFE70498006850E854
:10445000030F40F010000090FFE7009904980268F5
:1044600042E803100028F0D1FFE7FFE703E0012056
:104470008DF80900FFE7FFE79DF809008DF81700A8
:1044800003E002208DF81700FFE79DF8170006B043
:1044900080BD000080B586B00590ADF8121005987B
:1044A00040F2C061C2F20001884240F09680FFE70E
:1044B00040F20C31C2F200010A20087040F2C6300E
:1044C000C2F200000290417A817240F27C72C2F224
:1044D000000203921178537841EA03216FF3DF2140
:1044E000018051789378C90841EA43116FF3DF21C5
:1044F0004180917892F803C01379890941EA8C01CF
:1045000041EA83216FF3DF218180117953794908D2
:1045100041EAC3116FF3DF21C1805179890901722A
:104520005179C1F3011141729179D37941EA0321A3
:104530008181117A537A41EA0321C181917AD37A38
:1045400041EA03210182117B8174517BC174917B0B
:10455000D27B41EA02218182007A02280FD1FFE753
:1045600040F2F470C2F200004FF4FA714180818091
:1045700040F24271C2F20001FCF756FAFFE740F246
:10458000C630C2F20000807A032812D1FFE740F261
:10459000C630C2F20000407A02280AD1FFE740F29A
:1045A0000C20C2F200000168088800F54040088035
:1045B000FFE740F2C060C2F20000019040F27C715F
:1045C000C2F200011222FFF703FF0198C06B0168DD
:1045D000086820F00800086009E0059840F278615A
:1045E000C2F20001884201D1FFE7FFE7FFE706B012
:1045F00080BD000080B584B0039000200290039835
:1046000000684069C0B2C0090290039890F8410068
:10461000212823D1FFE7029800B3FFE7FFE7FFE778
:104620000398006850E8050F20F080000190FFE734
:1046300001990398026842E805100028F0D1FFE7CD
:10464000FFE70398806B28B1FFE70398806BFDF7C5
:10465000B3FBFFE7039801F07FFDFFE703980068D5
:104660004069C0F380100290039890F8420022281D
:1046700023D1FFE7029800B3FFE7FFE7FFE70398C6
:10468000006850E8050F20F040000090FFE7009917
:104690000398026842E805100028F0D1FFE7FFE721
:1046A0000398C06B28B1FFE70398C06BFDF784FB4C
:1046B000FFE7039801F0F2FCFFE7002004B080BDA3
:1046C00081B0009001B0704780B592B01190119800
:1046D00000680068109011980068C0680F901198E9
:1046E000006840690E9000200D900C90109800F02A
:1046F0000F000D900D9888B9FFE79DF840008006E7
:1047000000280AD5FFE79DF83C008006002804D564
:10471000FFE7119801F03CFDEAE1FFE70D98002862
:1047200000F0C280FFE79DF83800C00738B9FFE706
:10473000BDF83C0010F4907F00F0B680FFE79DF8D4
:104740004000C00758B1FFE79DF83D00C00730B1F9
:10475000FFE71199486C40F001004864FFE79DF8BD
:104760004000400700280BD5FFE79DF83800C00740
:1047700030B1FFE71199486C40F002004864FFE750
:104780009DF84000800700280BD5FFE79DF8380012
:10479000C00730B1FFE71199486C40F0040048644D
:1047A000FFE79DF840000007002811D5FFE79DF8BE
:1047B0003C008006002805D4FFE79DF83800C007BC
:1047C00030B1FFE71199486C40F008004864FFE7FA
:1047D0001198406C002866D0FFE79DF840008006E5
:1047E00000280AD5FFE79DF83C008006002804D584
:1047F000FFE7119801F0CCFCFFE7119800684069D1
:10480000C0F380100C901198406C0007002804D46D
:10481000FFE70C9800283ED0FFE7119801F03EFC1E
:10482000119800684069400600282FD5FFE7FFE790
:10483000FFE71198006850E8050F20F040000B904A
:10484000FFE70B991198026842E805100028F0D1A3
:10485000FFE7FFE71198C06B98B1FFE71198C16BB4
:1048600045F6D960C0F6000008651198C06BFDF7E9
:1048700019FB28B1FFE71198C06B016D8847FFE76E
:1048800003E01198FFF71CFFFFE703E01198FFF723
:1048900017FFFFE706E01198FFF712FF11990020BC
:1048A0004864FFE7FFE723E11198006B012840F01F
:1048B000FF80FFE79DF84000C006002840F1F88027
:1048C000FFE79DF83C00C006002840F1F180FFE7BB
:1048D000FFE700200A901198006800680A9011987C
:1048E000006840680A900A98FFE7119800684069DC
:1048F0004006002840F18280FFE71198C06B0068F5
:104900004068ADF82600BDF82600002875D0FFE706
:10491000BDF826001199898D88426EDAFFE7BDF84F
:1049200026001199C8851198C06BC069B0F5807FC9
:1049300058D0FFE7FFE7FFE71198006850E8030F42
:1049400020F480700890FFE708991198026842E807
:1049500003100028F0D1FFE7FFE7FFE7FFE711981A
:10496000006850E8050F20F001000790FFE7079965
:104970001198026842E805100028F0D1FFE7FFE730
:10498000FFE7FFE71198006850E8050F20F04000AE
:104990000690FFE706991198026842E80510002882
:1049A000F0D1FFE7FFE71199202081F8420011992B
:1049B00000200863FFE7FFE71198006850E8030F45
:1049C00020F010000590FFE705991198026842E871
:1049D00003100028F0D1FFE7FFE71198C06BFDF747
:1049E000EBF9FFE71199022048631198818DC28D80
:1049F000891A89B2FFF74EFDFFE779E01199888D9A
:104A0000C98D401AADF812001198C08D00284ED003
:104A1000FFE7BDF81200002849D0FFE7FFE7FFE7F6
:104A20001198006850E8030F20F490700390FFE79E
:104A300003991198026842E803100028F0D1FFE7BB
:104A4000FFE7FFE7FFE71198006850E8050F20F047
:104A500001000290FFE702991198026842E80510F0
:104A60000028F0D1FFE7FFE71199202081F84200EC
:104A7000119900200863FFE7FFE71198006850E8EC
:104A8000030F20F010000190FFE7019911980268D0
:104A900042E803100028F0D1FFE7FFE71199022058
:104AA00048631198BDF81210FFF7F4FCFFE71FE010
:104AB0009DF84000000600280AD5FFE79DF83C005D
:104AC0000006002804D5FFE7119801F03BFD0FE038
:104AD0009DF84000400600280AD5FFE79DF83C00FD
:104AE0004006002804D5FFE7119801F021FBFFE7FD
:104AF00012B080BD80B582B00090009820B9FFE769
:104B000001208DF8070040E00098806908B1FFE7B8
:104B100000E0FFE7009890F8410040B9FFE70099F6
:104B2000002081F84000009800F034F8FFE7009979
:104B3000242081F8410000980168C86820F40050E2
:104B4000C860009801F0DAFB00980168086920F459
:104B50009040086100980168486920F02A00486187
:104B600000980168C86840F40050C86000990020AF
:104B70004864009A202182F84110009A82F842107D
:104B8000009948638DF80700FFE79DF8070002B021
:104B900080BD000080B590B00F9000200E900D9069
:104BA0000C900B900A900F98006844F20041C4F2F8
:104BB0000001884268D1FFE7FFE70020099043F633
:104BC0004000C4F20200016841F400310160006855
:104BD00000F4003009900998FFE7FFE700200890F3
:104BE00043F63000C4F20200016841F001010160A7
:104BF000006800F0010008900898FFE70C200A9078
:104C000002200B90002004900C9003200D900720B0
:104C10000E900020C4F202000AA9FDF731FC0499AD
:104C200040F27C40C2F20000059046F28802C4F2D5
:104C3000020202604FF0006242608160C1604FF486
:104C40008062026141618161C1614FF44032026260
:104C50004162FDF7D9FA18B1FFE7FBF7FDFFFFE767
:104C6000FFE70F9840F27C41C2F20001C1630F9848
:104C70008863FFE72620039002210022FEF730F828
:104C80000398FEF723F86AE00F98006844F60001E5
:104C9000C4F20001884261D1FFE7FFE700200790DE
:104CA00043F64000C4F20200016841F48021016033
:104CB000006800F4802007900798FFE7FFE70020D6
:104CC000069043F63000C4F20200016841F004018E
:104CD0000160006800F0040006900698FFE74FF4BA
:104CE00084600A9002200B90002001900C90032019
:104CF0000D9007200E9040F60000C4F202000AA9B1
:104D0000FDF7BEFB019940F2DC40C2F200000290C8
:104D100046F22802C4F2020202604FF000624260D2
:104D20008160C1604FF48062026141618161C16153
:104D30004FF4403202624162FDF766FA18B1FFE7B4
:104D4000FBF78AFFFFE7FFE70F9840F2DC41C2F272
:104D50000001C1630F988863FFE7FFE7FFE710B02A
:104D600080BD000080B584B002900191ADF80220B2
:104D7000029890F84200202817D1FFE7019820B14F
:104D8000FFE7BDF8020020B9FFE701208DF80F0012
:104D90000FE002990020086302980199BDF80220F3
:104DA00001F04AFB8DF80F0003E002208DF80F00A0
:104DB000FFE79DF80F0004B080BD000081B00090B7
:104DC00001B0704781B0009001B0704780B58AB0E3
:104DD00008900791ADF81A200593002002900898DA
:104DE00090F84100202840F08180FFE7079820B12B
:104DF000FFE7BDF81A0020B9FFE701208DF8270072
:104E000078E00899002048640899212081F8410041
:104E1000FDF734FD0290BDF81A0008998884BDF8AA
:104E20001A000899C88408988068B0F5805F09D195
:104E3000FFE70898006928B9FFE700200490079869
:104E4000039004E00798049000200390FFE7FFE739
:104E50000898C08C78B3FFE70898029B05996A46CA
:104E600011608021002201F0B7FB40B1FFE70899F3
:104E7000202081F8410003208DF827003AE00498B3
:104E800058B9FFE7039800886FF35F200899096815
:104E9000486003980230039008E00498007808996D
:104EA00009684860049801300490FFE70899C88CAD
:104EB0000138C884CCE70898029B05996A461160BE
:104EC0004021002201F088FB40B1FFE70899202033
:104ED00081F8410003208DF827000BE0089920207D
:104EE00081F8410000208DF8270003E002208DF8B2
:104EF0002700FFE79DF827000AB080BD81B0009031
:104F000001B07047FFE7FEE740F2F931C2F200015D
:104F1000012008707047000080B58AB040F600009C
:104F2000C4F2020007900221FDF778FC01460798C1
:104F300008910121FDF772FC014608980844099088
:104F400040F20040C4F202002021FDF767FC014658
:104F50000998084440F21021C2F200010978884201
:104F60005AD0FFE740F21C40C2F200000178013144
:104F70000170007831284ED1FFE740F21C41C2F2A7
:104F800000010020087040F60000C4F20200049006
:104F90000221FDF743FC0146049805910121FDF72C
:104FA0003DFC014605980844069040F20040C4F2DA
:104FB00002002021FDF732FC01460698084440F229
:104FC0001021C2F200010978884201D1FFE721E0F7
:104FD00040F60000C4F2020001900221FDF71EFC21
:104FE0000146019802910121FDF718FC0146029843
:104FF0000844039040F20040C4F202002021FDF773
:105000000DFC01460398084440F21021C2F2000151
:105010000870FFE7FFE7FFE740F21020C2F2000050
:1050200000780AB080BD000080B582B040F22C400C
:10503000C2F20000009046F20041C4F2000101609B
:1050400009214160002101918160C1604FF48032EB
:1050500002614FF480124261017641768176C17619
:1050600001774177FCF7C8FB18B1FFE7FBF7F4FDC8
:10507000FFE702B080BD000080B582B040F254402E
:10508000C2F20000009046F60001C4F20001016087
:1050900009214160002101918160C1604FF480329B
:1050A00002614FF480124261017641768176C176C9
:1050B00001774177FCF7A0FB18B1FFE7FBF7CCFDC8
:1050C000FFE702B080BD000080B584B0FFE700209C
:1050D000039043F63000C4F20200016841F400116D
:1050E0000160006800F4001003900398FFE70C20B3
:1050F0000090002201921146FDF7F2FD0098FDF7A5
:10510000E5FD019A102002901146FDF7E9FD029895
:10511000FDF7DCFD04B080BD80B590B000200F909D
:105120000E900D900C900B90FFE700200A9043F634
:105130003000C4F20200016841F00401016000681F
:1051400000F004000A900A98FFE7FFE700200990AA
:1051500043F63000C4F20200016841F080010160B2
:10516000006800F0800009900998FFE7FFE7002041
:10517000089043F63000C4F20200016841F00101DA
:105180000160006800F0010008900898FFE7FFE761
:105190000020079043F63000C4F20200016841F09D
:1051A00002010160006800F0020007900798FFE725
:1051B0000020C4F20200019010210291002204920A
:1051C000FDF744FB0299049A40F60000C4F2020085
:1051D0000390FDF73BFB0398049942F201020B9206
:1051E0000C91012105910D910BA90691FDF748F94C
:1051F0000398059A069902230B934FF488130C9396
:105200000D92FDF73DF90198DDF808C0049A059B61
:105210000699CDF82CC00C930D920E92FDF730F943
:10522000DDF808C00398049A059B0699CDF82CC0B8
:105230000C930D920E92FDF723F9049A05980699A6
:1052400020230B930C920D9040F20040C4F2020018
:10525000FDF716F910B080BD80B582B040F23C5029
:10526000C2F20000019045F20041C4F20001016069
:1052700048F2A061C0F20101416000218160C1607B
:105280004FF48042026141618161C1610162FDF7B9
:10529000FBFA18B1FFE7FBF7DFFCFFE702B080BDC8
:1052A00080B582B040F29050C2F20000019043F20B
:1052B0000001C4F2010101604FF4827141600021DC
:1052C0008160C16002220261012242614FF40072DA
:1052D00082611822C2610162416281620A21C16257
:1052E000FEF728FB18B1FFE7FBF7B6FCFFE702B0BB
:1052F00080BD000080B588B0002101910791069122
:10530000059104910391029140F2E850C2F200002D
:105310004FF08042026040F283324260816040F28E
:10532000E732C260016180218161FEF76FFC18B134
:10533000FFE7FBF791FCFFE74FF48050049040F249
:10534000E850C2F2000004A9FEF76CFD18B1FFE7B7
:10535000FBF782FCFFE700200290039040F2E85048
:10536000C2F2000002A9FEF7BFFB18B1FFE7FBF78E
:1053700073FCFFE708B080BD80B588B000210191C3
:1053800007910691059104910391029140F23060DA
:10539000C2F2000040F20042C4F20002026041602A
:1053A00081607022C26001618161FEF72FFC18B13B
:1053B000FFE7FBF751FCFFE74FF48050049040F209
:1053C0003060C2F2000004A9FEF72CFD18B1FFE71F
:1053D000FBF742FCFFE700200290039040F23060B0
:1053E000C2F2000002A9FEF77FFB18B1FFE7FBF74E
:1053F00033FCFFE708B080BD80B582B040F2786032
:10540000C2F20000019044F20041C4F200010160C8
:105410004FF4E131416000218160C16001610C22E3
:1054200042618161C161FFF765FB18B1FFE7FBF7DE
:1054300013FCFFE702B080BD80B582B040F2C060CF
:10544000C2F20000019044F60001C4F200010160C4
:1054500048F2A061C0F2010141604FF480518160C7
:105460000021C1604FF4806202610C2242618161BF
:10547000C161FFF73FFB18B1FFE7FBF7EDFBFFE76B
:1054800002B080BDFFE7FEE780B590B08DED0F0A5A
:10549000CDED0E0A0F9802F07BFD41EC100B8DED67
:1054A000000B0E9802F074FD41EC100B51EC100B48
:1054B0009FED590B53EC102B0793069202F070FBF3
:1054C00041EC100B51EC100B9FED550B53EC102BD6
:1054D0000993089202F064FB9DED000B41EC110B67
:1054E00051EC110B53EC102B02F0FCF841EC100BBB
:1054F00051EC100B02F0C4F840F26C71C2F20001E2
:105500000D9108600F9802F043FD41EC100B8DEDFA
:10551000020B0E9802F03CFD069A079B41EC100B23
:1055200051EC100B02F03CFB089A099B41EC100B6C
:1055300051EC100B02F034FB9DED020B41EC110B12
:1055400053EC112B51EC100B02F034FC41EC100B1E
:1055500051EC100B02F094F80D9948600F9802F08E
:1055600017FD41EC100B8DED040B0E9802F010FDB1
:10557000069A079B41EC100B51EC100B02F010FB4C
:10558000089A099B41EC100B51EC100B02F008FB40
:105590009DED040B41EC110B51EC110B53EC102B56
:1055A00002F0A0F841EC100B51EC100B02F068F87F
:1055B0000D9988600F9802F0EBFC41EC100B8DED1B
:1055C0000A0B0E9802F0E4FC069A079B41EC100BC4
:1055D00051EC100B02F0E4FA089A099B41EC100B15
:1055E00051EC100B02F0DCFA9DED0A0B41EC110BB3
:1055F00053EC112B51EC100B02F0DCFB41EC100BC7
:1056000051EC100B02F03CF80D99C86001F03AFB28
:1056100010B080BD00BF00BF39B4C876BE9FF63F52
:105620000000000000206D40FFE7FEE788B0079013
:1056300006910592079800F0070004900498C0F1C5
:105640000700052803D3FFE70420019004E0049835
:10565000C0F107000190FFE701980390049804301F
:10566000062803D8FFE70020009003E004980338E1
:105670000090FFE70098029006980399012202FA31
:1056800001F101390840029B984005999A40013A7E
:105690001140084308B0704780B584B00390029170
:1056A0008DF807209DF8071040F28430C2F2000008
:1056B00001F074F8B8B3FFE703980078A5282AD161
:1056C000FFE79DF80700132825D1FFE7039800782E
:1056D0000299087002990398D0F801004860029975
:1056E0000398D0F80500886002990398D0F8090063
:1056F000086102990398D0F80D00C86040F2284173
:10570000C2F20001002008709FED0B0ADFED0B0ACA
:1057100000F028F906E040F22841C2F20001012021
:105720000870FFE706E040F22841C2F200010120C4
:105730000870FFE704B080BD00004843CDCCCC3EEC
:1057400080B582B040F21070C2F2000000780128EB
:1057500014D1FFE740F27860C2F20000019040F2FD
:10576000B031C2F200011522FEF732FE0198C06B83
:105770000168086820F0080008601BE040F2DC3196
:10578000C2F200015A20087040F2EC31C2F200016E
:10579000087040F27860C2F200000268D16841F0FF
:1057A0001001D16040F28431C2F200012422FFF7DF
:1057B000D9FAFFE702B080BD80B540F22840C2F2BE
:1057C0000000007801280FD1FFE7DFED640AB0EE9A
:1057D000600AFFF759FE01F055FA40F20A71C2F271
:1057E000000100200880B7E040F22840C2F200002B
:1057F0000078002840F0AF80FFE740F2F930C2F2B5
:105800000000007801283DD1FFE740F27030C2F27D
:10581000000090ED040AB7EE001AB4EE410AF1EE72
:1058200010FA19D1FFE79FED4D0ADFED4D0AFFF7A2
:105830002BFE01F027FA40F26A70C2F200000088E5
:1058400040F20C71C2F20001488040F20A71C2F2CB
:1058500000010A20088014E040F27030C2F200001B
:1058600090ED011A90ED020AF1EE410AFFF70CFEED
:1058700001F008FA40F20A71C2F20001002008802B
:10588000FFE767E040F2F930C2F200000078032839
:1058900019D1FFE7DFED310AB0EE600AFFF7F4FD42
:1058A00001F0F0F940F26A70C2F20000008840F2A4
:1058B0000C71C2F20001488040F20A71C2F200018C
:1058C0000020088045E040F2F930C2F20000007884
:1058D00002283DD1FFE740F27030C2F2000090EDA7
:1058E000040AB7EE001AB4EE410AF1EE10FA19D12B
:1058F000FFE79FED1A0ADFED1A0AFFF7C5FD01F079
:10590000C1F940F26A70C2F20000008840F20C71E6
:10591000C2F20001488040F20A71C2F200010A207E
:10592000088014E040F27030C2F2000090ED011ADD
:1059300090ED020AF1EE410AFFF7A6FD01F0A2F98F
:1059400040F20A71C2F2000100200880FFE7FFE781
:10595000FFE7FFE7FFE7FFE780BD00BF00000000B3
:10596000CDCC4C3E82B08DED010ACDED000A40F267
:105970007030C2F2000090ED010A9DED001AB4EE05
:10598000410AF1EE10FA07DBFFE7009840F27031B0
:10599000C2F2000148601BE040F27030C2F2000029
:1059A00090ED010A9DED001AB1EE411AB4EE410AE4
:1059B000F1EE10FA0BDCFFE79DED000AB1EE400AB4
:1059C00040F27030C2F2000080ED010AFFE7FFE70D
:1059D00040F27030C2F2000090ED020A9DED011A13
:1059E000B4EE410AF1EE10FA07DBFFE7019840F24E
:1059F0007031C2F2000188601BE040F27030C2F2E8
:105A0000000090ED020A9DED011AB1EE411AB4EECC
:105A1000410AF1EE10FA0BDCFFE79DED010AB1EE51
:105A2000400A40F27030C2F2000080ED020AFFE747
:105A3000FFE702B0704700007047000070470000A9
:105A400080B582B0009000980138B0F1807F03D318
:105A5000FFE70120019019E0009801384EF214018F
:105A6000CEF2000108604FF0FF300F2100F0F4FE8D
:105A70004EF21801CEF20001002008604EF2100232
:105A8000CEF20002072111600190FFE7019802B0F9
:105A900080BD000080B5FDF791F880BD80B594B061
:105AA00007A83421FAF7CEFC002006900590049058
:105AB00003900290FFE70020019043F64000C4F2FB
:105AC0000200016841F080510160006800F08050E0
:105AD00001900198FFE7FFE70020009047F20000E7
