:020000040800F2
:10000000780800204D020008DD200008A11F00082C
:10001000D920000843040008C521000800000000A2
:10002000000000000000000000000000E3200008C5
:100030006904000800000000E1200008E520000835
:1000400067020008670200086702000867020008EC
:1000500067020008670200086702000867020008DC
:1000600067020008670200086702000867020008CC
:1000700067020008670200086702000867020008BC
:1000800067020008670200086702000867020008AC
:1000900049040008670200086702000867020008B8
:1000A000670200086702000867020008670200088C
:1000B000670200086702000867020008670200087C
:1000C000670200086702000867020008670200086C
:1000D000670200086702000867020008670200085C
:1000E000670200086702000867020008670200084C
:1000F000670200086702000867020008670200083C
:10010000670200086702000867020008670200082B
:10011000670200086702000867020008670200081B
:100120006702000867020008590400086702000817
:1001300067020008670200086702000867020008FB
:1001400067020008670200086702000867020008EB
:1001500067020008670200086702000867020008DB
:1001600067020008670200086702000867020008CB
:10017000670200086702000867020008000000002C
:1001800067020008670200086702000867020008AB
:10019000670200086702000867020008670200089B
:1001A00000000000000000006702000800F002F8F4
:1001B00000F03CF80AA090E8000C82448344AAF1C5
:1001C0000107DA4501D100F031F8AFF2090EBAE8C3
:1001D0000F0013F0010F18BFFB1A43F0010318477B
:1001E000B0300000D0300000103A24BF78C878C189
:1001F000FAD8520724BF30C830C144BF04680C602D
:10020000704700000023002400250026103A28BF74
:1002100078C1FBD8520728BF30C148BF0B60704778
:100220001FB503F01FF81FBD10B510BD00F0CFF8CB
:100230001146FFF7F5FF02F0FBFC00F0EDF803B408
:10024000FFF7F2FF03BC00F0F5F800000948804713
:1002500009480047FEE7FEE7FEE7FEE7FEE7FEE7A8
:10026000FEE7FEE7FEE7FEE704480549054A064BC0
:1002700070470000ED200008AD0100087802002062
:1002800078080020780400207804002053EA020C4B
:1002900000F069802DE9F04B4FF00006002B1FBFE6
:1002A000B3FA83F503FA05F424FA05F65E4012BFAB
:1002B0001643B2FA82F502FA05F4C5F120051EBF15
:1002C00022FA05FC44EA0C04203556EA044C4FEAB5
:1002D000144418BF641C4FF000084FF0000990420E
:1002E00071EB030C39D3002919BFB1FA81F701FA78
:1002F00007F6B0FA80F700FA07F6C7F120071EBF2D
:1003000020FA07FC46EA0C062037B6FBF4FCA7EB04
:100310000507103F07F01F0BCBF120060CFA0BFB73
:100320002CFA06F644BFB3460026202FA4BF5E4633
:100330004FF0000B5BEA060C08BF4FF0010B19EB06
:100340000B09ABFB027C48EB0608C01B06FB02CC8A
:100350000BFB03CC71EB0C01C1E70B460246414697
:100360004846BDE8F08B13B54FF000004FF0000198
:10037000AFF30080BDE81C4070474FF0000200B5AD
:10038000134694469646203922BFA0E80C50A0E8B8
:100390000C50B1F12001BFF4F7AF090728BFA0E866
:1003A0000C5048BF0CC05DF804EB890028BF40F832
:1003B000042B08BF704748BF20F8022B11F0804F74
:1003C00018BF00F8012B704770477047704775469B
:1003D00000F02CF8AE4605006946534620F00700B1
:1003E000854618B020B5FFF73FFFBDE820404FF02D
:1003F00000064FF000074FF000084FF0000B21F00F
:100400000701AC46ACE8C009ACE8C009ACE8C009DB
:10041000ACE8C0098D46704710B50446AFF30080C4
:100420002046BDE81040FFF70ABF000000487047B3
:100430001802002001491820ABBEFEE7260002008A
:10044000704700BFFEE7000010B5024800F027FA31
:1004500010BD00004801002010B5024800F0ECFC7F
:1004600010BD0000B8010020704772B600BFFEE763
:1004700010B5024692F82030012B01D0022B06D194
:1004800010684069084314686061002010BD506A1C
:1004900040F4802050620120F8E7F0B504460D4694
:1004A0001E4694F8207020688368A86800B900E0B0
:1004B00000BF012F01D0022F7DD103F0806030B941
:1004C00003F0006018B903F0805000287ED0C3F319
:1004D0000161012088403060A86860B9B5F800C0AB
:1004E000E86840EA4C5C206800F5C07000EB011041
:1004F000C0F800C00FE0D5E901C040EACC00D5F853
:100500000CC040EA0C00D4F800C00CF5C07C0CEB29
:10051000011CCCF80000D5F810C0206800F5C070B0
:1005200000EB0110C0F804C0287D01280ED120681E
:1005300000F5C07000EB0110406840F4807C20683A
:1005400000F5C07000EB0110C0F804C0D0790006BF
:1005500092F806C040EA0C4092F805C040EA0C2030
:1005600092F804C040EA0C00D4F800C00CF5C07C3E
:100570000CEB011CCCF80C00D078000692F802C0FD
:1005800040EA0C4092F801C040EA0C2092F800C00A
:1005900040EA0C00D4F800C00CF5C07C0CEB011C48
:1005A000CCF80800206800F5C07000EB011000686E
:1005B00040F0010C01E00FE008E0206800F5C07099
:1005C00000EB0110C0F800C00020F0BD606A40F4EC
:1005D000001060620120F8E7606A40F480206062E9
:1005E0000120F2E7F0B504460A46216894F820504D
:1005F000012D01D0022D7ED1424901F5007108681C
:1006000040F001000860086820F47C500860086829
:10061000566A40EA06200860107D00F01F0601209F
:1006200000FA06F3C8699843C861A1F50071D06962
:10063000C8B9D1F80C029843C1F80C02908880B276
:10064000968940EA064601F51070576940F8376010
:10065000108880B2168940EA064601F51070576985
:1006600000EBC7004660D069012819D1D1F80C020F
:100670001843C1F80C02908880B2168840EA0646FA
:1006800001F51070576940F83760908980B216897B
:1006900040EA064601F51070576900EBC700466056
:1006A000906928B9D1F804029843C1F8040204E023
:1006B000D1F804021843C1F80402106928B9D1F82E
:1006C00014029843C1F8140204E0D1F8140218434C
:1006D000C1F81402106A012804D1D1F81C02184391
:1006E000C1F81C02D1F8000220F00100C1F800029C
:1006F0000020F0BDFFE7606A40F4802060620120C6
:10070000F7E7000000640040704770B5044694F8B5
:100710002050012D01D0022D7DD151B92068C06833
:1007200000F0030080B9606A40F4001060620120AC
:1007300070BD2068006900F0030028B9606A40F4C9
:10074000001060620120F3E7206800F5D87000EB2C
:100750000110006800F004009060906840B92068C3
:1007600000F5D87000EB01100068400D106007E044
:10077000206800F5D87000EB01100068C0085060D8
:10078000206800F5D87000EB0110006800F002004E
:10079000D060206800F5D87000EB0110406800F0D0
:1007A0000F00082802D30820106108E0206800F537
:1007B000D87000EB0110406800F00F001061206855
:1007C00000F5D87000EB0110406800F47F40000A8B
:1007D0009061206800F5D87000EB01104068000CB3
:1007E0005061206800F5D87000EB01108068187027
:1007F000206800F5D87000EB0110806800F47F409D
:10080000000A5870206800F5D87000EB011080686D
:1008100000F47F0000E03CE0000C9870206800F5D8
:10082000D87000EB01108068000ED870206800F5C9
:10083000D87000EB0110C0681871206800F5D870FE
:1008400000EB0110C06800F47F40000A5871206876
:1008500000F5D87000EB0110C06800F47F00000CB8
:100860009871206800F5D87000EB0110C068000E88
:10087000D87131B92068C06840F020002668F06067
:1008800005E02068006940F0200026683061002003
:100890004EE7606A40F480206062012048E72DE95D
:1008A000F05F04460025206846692068D0F804906F
:1008B000206887682068D0F80CA02068D0F810B0B5
:1008C0002068D0F8188006F00100002855D007F005
:1008D0000100C0B101202168886007F0020018B152
:1008E000204600F0A2FA0EE007F0040010B145F433
:1008F000006508E007F0080010B145F4805502E0FB
:10090000204600F091FA07F48070C8B14FF480706F
:100910002168886007F4007018B1204600F087FA5B
:100920000EE007F4806010B145F4005508E007F4CC
:10093000006010B145F4804502E0204600F076FAF0
:1009400007F48030C8B14FF480302168886007F424
:10095000003018B1204600F06CFA0EE007F4802059
:1009600010B145F4004508E007F4002010B145F44B
:10097000803502E0204600F05BFA06F0080038B14E
:100980000AF0100020B145F4007510202168C860FD
:1009900006F0040040B10AF0080028B108202168E0
:1009A000C860204600F0A6F906F0020038B12068C1
:1009B000C06800F0030010B1204600F09DF906F079
:1009C000400038B10BF0100020B145F480651020D4
:1009D0002168086106F0200040B10BF0080028B142
:1009E000082021680861204600F0ECF906F01000AC
:1009F00038B12068006900F0030010B1204600F013
:100A0000E2F906F4003040B109F0100028B11020DE
:100A100021684860204600F0D7F906F4803040B1E4
:100A200009F0080028B1082021684860204600F03D
:100A300001FA06F4004088B309F0040078B306F424
:100A4000807020B108F0010008B145F0010506F4FE
:100A5000007020B108F0020008B145F0020506F46C
:100A6000806020B108F0040008B145F0040506F4E8
:100A70000060A0B108F0700088B108F07000402854
:100A800017D006DC10280BD020280CD0302819D124
:100A90000CE0502810D0602814D110E01DE019E0BF
:100AA00045F008050FE045F010050CE045F0200585
:100AB00009E045F0400506E045F0800503E045F417
:100AC000807500E000BF00BF2068806920F07000E2
:100AD000216888610420216848602DB1606A28433C
:100AE00060622046FFF710FEBDE8F09F70B5044637
:100AF0000CB9012070BD94F8200010B9204600F018
:100B0000AFF82068006840F001002168086000F03C
:100B100093FC05460DE000F08FFC401B0A2808D925
:100B2000606A40F400306062052084F820000120F3
:100B3000E0E72068406800F001000028EBD0206862
:100B4000006820F002002168086000F075FC05468E
:100B50000DE000F071FC401B0A2808D9606A40F4DF
:100B600000306062052084F820000120C2E7206880
:100B7000406800F002000028EBD1207E012806D159
:100B80002068006840F080002168086005E0206867
:100B9000006820F0800021680860607E012806D18E
:100BA0002068006840F040002168086005E0206887
:100BB000006820F0400021680860A07E012806D16E
:100BC0002068006840F020002168086005E0206887
:100BD000006820F0200021680860E07E012806D12E
:100BE0002068006820F010002168086005E0206897
:100BF000006840F0100021680860207F012806D1BD
:100C00002068006840F008002168086005E020685E
:100C1000006820F0080021680860607F012806D184
:100C20002068006840F004002168086005E0206842
:100C3000006820F0040021680860D4E9020108433C
:100C400021690843616908436168491E08432168B6
:100C5000C86100206062012084F82000002049E77C
:100C600010B586B00446142101A8FFF786FB1E4983
:100C70002068884235D100BF002000901B480068E2
:100C800040F00070194908600846006800F00070E4
:100C9000009000BF00BF002000901448103800688A
:100CA00040F008001149103908600846006800F05B
:100CB0000800009000BF0320019002200290002055
:100CC0000390032004900920059001A9084800F032
:100CD000A7FA00221146142000F03AFC142000F07C
:100CE00023FC06B010BD0000006400404038024004
:100CF000000C02407047000010B58AB0044601ABFA
:100D000003AA00212B48FFF700FD0398B0F5017FEF
:100D100021D80399A1F2012108B200EB4002264B31
:100D2000039923F812109DF805109DF8042041EA5C
:100D3000022100EB400203EB420251809DF80710B4
:100D40009DF8062041EA022109B200EB400203EBC4
:100D50004202918025E00398B0F5017F21D90399E3
:100D6000A1F2052108B200EB4002144B039923F8CD
:100D700012109DF805109DF8042041EA022100EBB5
:100D8000400203EB420251809DF807109DF80620B7
:100D900041EA022109B200EB400203EB42029180DA
:100DA00000BF00224FF48041054800F03FFB0AB02D
:100DB00010BD000048010020080100202001002093
:100DC0000014024070477047704770B5044694F8AD
:100DD0002000012822D1022084F820002068006829
:100DE00020F001002168086000F026FB05460DE0B8
:100DF00000F022FB401B0A2808D9606A40F400304A
:100E00006062052084F82000012070BD20684068E1
:100E100000F001000028EBD16062F6E7606A40F460
:100E2000002060620120F0E770477047704770470C
:100E30007047704770470000F8B5044600200090E6
:100E40008C4800684FF41651B0FBF1F7A56D2E6881
:100E500094F85C1008208840304098B12068006801
:100E600000F0040070B12068006820F004002168E0
:100E7000086094F85C1008208840A860606D40F01D
:100E80000100606594F85C1001208840304068B132
:100E90002068406900F0800040B194F85C100120A7
:100EA0008840A860606D40F00200606594F85C10B6
:100EB00004208840304068B12068006800F00200DB
:100EC00040B194F85C1004208840A860606D40F048
:100ED0000400606594F85C1010208840304078B3BE
:100EE0002068006800F0080050B394F85C101020EF
:100EF0008840A8602068006800F4802080B12068E5
:100F0000006800F4002028B9206CC8B12046216C8C
:100F1000884715E0A06C98B12046A16C88470FE087
:100F20002068006800F4807028B92068006820F00C
:100F3000080021680860206C10B12046216C8847A9
:100F400094F85C10202088403040002865D020684C
:100F5000006800F0100000285FD094F85C1020209A
:100F60008840A86094F83500052828D120680068DA
:100F700020F01600216808602068406920F0800099
:100F800021684861206C08B9A06C28B1206800680D
:100F900020F008002168086094F85C103F20884029
:100FA000A860012084F8350000BF002084F83400D8
:100FB00000BF206D10B12046216D8847F8BD206824
:100FC000006800F4802080B12068006800F40020F0
:100FD00028B9606C10B12046616C88471DE0E06B59
:100FE000D8B12046E16B884717E02068006800F41C
:100FF000807068B92068006820F0100021680860DF
:10100000012084F8350000BF002084F8340000BFC0
:10101000E06B10B12046E16B8847606D38B3606DBE
:1010200000F00100F0B1052084F835002068006868
:1010300020F001002168086000BF0098401C00906B
:10104000B84200D905E02068006800F001000028DF
:10105000F3D100BF012084F8350000BF002084F8E0
:10106000340000BFE06C10B12046E16C884700BF3F
:10107000A4E70000D40000202DE9F041044600253B
:1010800000F0DAF9074614B90120BDE8F081606A82
:1010900000B100BF022084F8350000BF002084F8B2
:1010A000340000BF2068006820F00100216808605B
:1010B0000AE000F0C1F9C01B052805D920206065B1
:1010C000032084F83500E0E72068006800F00100A4
:1010D0000028EED12068056821480540D4E90101C7
:1010E0000843E16808432169084361690843A1692D
:1010F0000843E1690843216A08430543606A0428FC
:1011000003D1D4E90B01084305432068056020683A
:10111000456925F00705606A0543606A04280DD11A
:10112000A06A0543E06A48B1204601F06FFA28B191
:1011300040206065012084F83500A6E720684561FD
:10114000204601F003FD064694F85C103F208840DD
:10115000B06000206065012084F83500002094E72D
:101160003F8010F02DE9F04704460D4616461F4615
:101170004FF00008D4F8589000BF94F834000128CC
:1011800002D10220BDE8F087012084F8340000BFBE
:1011900094F83500012825D1022084F8350000207C
:1011A00060653B4632462946204601F0BBF894F87C
:1011B0005C103F208840C9F808002068006840F0B3
:1011C000160021680860206C28B12068006840F093
:1011D0000800216808602068006840F0010021686C
:1011E000086006E000BF002084F8340000BF4FF024
:1011F00002084046C6E7000070B5044600F01CF93E
:1012000006462546681C10B104480078054400BF16
:1012100000F012F9801BA842FAD370BDD000002064
:10122000F8B502460B460025002400200021DFE02F
:10123000012606FA01F51E6806EA0504AC4273D1E0
:101240001E7906F00306012E04D01E7906F003066F
:10125000022E13D190684F000326BE40B0434F00CA
:10126000DE68BE4030439060506801268E40B04337
:101270001E79C6F300168E40304350601E7906F08A
:101280000306032E09D0D0684F000326BE40B043AA
:101290004F009E68BE403043D0601E7906F00306C2
:1012A000022E13D1CF0802F1200656F827004E0770
:1012B000F70E0F26BE40B0434F07FF0E1E69BE401B
:1012C0003043CF0802F1200646F8270010684F008F
:1012D0000326BE40B0431E7906F003064F00BE4011
:1012E000304310605E6806F44036002E7FD000BFA9
:1012F00000260096404E366846F480463E4F3E60DB
:101300003E46366806F48046009600BF3B4E8F0886
:1013100056F827008E07370F0F26BE40B043384ED1
:10132000B24202D100262EE061E0364EB24201D137
:10133000012628E0344EB24201D1022623E0334E8A
:10134000B24201D103261EE0314EB24201D1042641
:1013500019E0304EB24201D1052614E02E4EB242C1
:1013600001D106260FE02D4EB24201D107260AE038
:101370002B4EB24201D1082605E02A4EB24201D1DD
:10138000092600E00A268F073F0FBE4030431B4E60
:101390008F0846F82700244E3068A0435E6806F4A4
:1013A000801606B12043204E3060361D3068A043C1
:1013B0005E6806F4001606B120431B4E361D3060F1
:1013C000194E361F3068A0435E6806F4003606B139
:1013D0002043154E361F3060361F3068A0435E68CC
:1013E00006F4803606B120430F4E083E3060491C9B
:1013F0001029FFF41DAFF8BD443802400838014001
:10140000000002400004024000080240000C0240BC
:10141000001002400014024000180240001C02406C
:101420000020024000240240083C01400AB18161D2
:1014300001E00B04836170470148006870470000B9
:10144000C80000200348006803490978084401499E
:1014500008607047C8000020D000002010B50D487B
:10146000006840F400700B4908600846006840F4CA
:10147000806008600846006840F4807008600320BF
:1014800000F0A4F80F2000F007F800F02BF800207F
:1014900010BD0000003C024070B504460E480078C4
:1014A0004FF47A71B1FBF0F00C490968B1FBF0F52B
:1014B000284600F02DFC08B1012070BD102C07D289
:1014C00000222146501E00F043F80548046001E068
:1014D0000120F2E70020F0E7D0000020D400002037
:1014E000CC00002008B500BF002000900D48006827
:1014F00040F480400B4908600846006800F48040D2
:10150000009000BF00BF00200090081F006840F05E
:101510008050091F08600846006800F08050009065
:1015200000BF08BD443802400146084600280DDBD4
:1015300000BF00BF00F01F0301229A4043099B0037
:1015400003F1E023C3F8002100BF00BF00BF7047D4
:101550002DE9F05F80460D461646002701F060FB3E
:10156000074639462A46334601F00700C0F1070A0C
:10157000BAF1040F02D94FF0040A01E0C0F1070AE2
:10158000D14600F1040ABAF1070F02D24FF0000A67
:1015900001E0A0F1030AD4464FF0010A0AFA09FA61
:1015A000AAF1010A0AEA020A0AFA0CFA4FF0010B40
:1015B0000BFA0CFBABF1010B0BEA030B4AEA0B0431
:1015C0002146404601F02CF9BDE8F09F00BF00F035
:1015D0000702064B19684FF6FF031940044B0B43F3
:1015E00043EA0221014B196000BF70470CED00E097
:1015F0000000FA0570B504460D460CB9012070BD17
:101600005848006800F00F00A84209D255490D70F3
:101610000846006800F00F00A84201D00120EEE764
:10162000207800F0020002281DD1207800F004008C
:10163000042805D14C48006840F4E0504A4908604D
:10164000207800F00800082805D14748006840F4D9
:101650006040454908604448006820F0F000A168F7
:10166000084341490860207800F00100A8B3606891
:10167000012807D13C4808380068C0F34040B8B999
:101680000120BCE76068022802D06068032807D107
:10169000354808380068C0F3406048B90120AEE71B
:1016A000314808380068C0F3400008B90120A6E7B7
:1016B0002D48006820F00300616808432A4908604B
:1016C000FFF7BAFE064609E0FFF7B6FE801B41F2BF
:1016D0008831884202D9032091E707E02248006858
:1016E00000F00C006168B0EB810FEDD11D4800687F
:1016F00000F00F00A84209D91A490D700846006889
:1017000000F00F00A84201D0012078E7207800F017
:101710000400042807D11448006820F4E050E16870
:10172000084311490860207800F00800082808D113
:101730000D48006820F46040216940EAC1000A4970
:10174000086000F03FF808490968C1F30311074A2F
:10175000515CC8400649086006480068FFF79CFED7
:1017600000204CE7003C0240083802407632000876
:10177000D4000020CC000020014800687047000021
:10178000D400002000B5FFF7F7FF04490968C1F352
:101790008221034A515CC84000BD00000838024065
:1017A0008632000800B5FFF7E7FF04490968C1F376
:1017B0004231034A515CC84000BD00000838024075
:1017C000863200082DE9F047002400250026A146B6
:1017D0002548006800F00C0020B1042805D0082836
:1017E0003AD105E0DFF8849039E0DFF8849036E004
:1017F0001D48001F006800F03F041B48001F0068E0
:1018000000F4800078B11A481749091F0968C1F32C
:101810008811A0FB01700146224600233846FEF7DE
:1018200035FD05460EE011480F49091F0968C1F34F
:101830008811A0FB01700146224600233846FEF7BE
:1018400025FD05460848001F0068C0F30140401C04
:101850004600B5FBF6F902E0DFF8109000BF00BFCC
:101860004846BDE8F0870000083802400024F40034
:10187000001BB700F8B504460CB90120F8BD20786C
:1018800000F00100002874D0F948006800F00C0056
:1018900004280DD0F648006800F00C00082813D189
:1018A000F348001F006800F48000B0F5800F0BD1F2
:1018B000EF4808380068C0F34040002859D06068FD
:1018C000002856D10120D9E700BF6068B0F5803FFD
:1018D00008D1E7480838006840F48030E449083906
:1018E00008601EE06068B0F5A02F0DD1E048083810
:1018F000006840F48020DE49083908600846006826
:1019000040F4803008600CE0D9480838006820F4C2
:101910008030D749083908600846006820F48020E4
:10192000086000BF606890B1FFF786FD054606E0DD
:10193000FFF782FD401B642801D903209EE7CC48B5
:1019400008380068C0F340400028F1D011E0FFF7EC
:1019500073FD054606E0FFF76FFD401B642801D9C3
:1019600003208BE7C24808380068C0F340400028D5
:10197000F1D1207800F0020002285FD1BC48006855
:1019800000F00C0058B1BA48006800F00C000828BC
:101990001CD1B748001F006800F48000B0B9B448FB
:1019A00008380068C0F3400020B1E068012801D089
:1019B000012063E7AE480838006820F0F80021698C
:1019C00040EAC100AA490839086037E0E06800B37E
:1019D0000120A8490860FFF72FFD054606E0FFF744
:1019E0002BFD401B022801D9032047E7A0480838F7
:1019F0000068C0F340000028F1D09D480838006816
:101A000020F0F800216940EAC100994908390860CE
:101A100014E0002097490860FFF70EFD054606E038
:101A2000FFF70AFD401B022801D9032026E7904852
:101A300008380068C0F340000028F1D1207800F099
:101A4000080008282CD16069A8B101208A490860E3
:101A5000FFF7F2FC054606E0FFF7EEFC401B02280C
:101A600001D903200AE782486C300068C0F34000C7
:101A70000028F1D014E000207F490860FFF7DCFC6B
:101A8000054606E0FFF7D8FC401B022801D90320D9
:101A9000F4E677486C300068C0F340000028F1D1CC
:101AA000207800F0040004286FD1002770483830F7
:101AB000006800F0805088B900BF002000906C489A
:101AC0003830006840F08050694938310860084675
:101AD000006800F08050009000BF01276748006850
:101AE00000F48070B0B96548006840F480706349C4
:101AF0000860FFF7A1FC054606E0FFF79DFC401BD0
:101B0000022801D90320B9E65C48006800F480701F
:101B10000028F2D000BFA068012808D154486830DE
:101B2000006840F001005249683108601DE0A0687B
:101B300005280DD14E486830006840F004004C493B
:101B4000683108600846006840F0010008600CE059
:101B500047486830006820F0010045496831086056
:101B60000846006820F00400086000BFA068A8B123
:101B7000FFF762FC054609E0FFF75EFC401B41F2FF
:101B80008831884202D9032078E626E03848683058
:101B90000068C0F340000028EED013E0FFF74CFCD3
:101BA000054608E0FFF748FC401B41F288318842B7
:101BB00001D9032062E62E4868300068C0F3400077
:101BC0000028EFD1012F07D129483830006820F0D4
:101BD000805027493831086000BFA069002845D0EF
:101BE0002348006800F00C0008285ED0A069022895
:101BF00046D100201F490866FFF71EFC054606E097
:101C0000FFF71AFC401B022801D9032036E61848CA
:101C100008380068C0F340600028F1D1D4E907011A
:101C20000843616A40EA81110122A06AC2EB5000B8
:101C300041EA00412C20005D41EA00600C49091F87
:101C4000086001200B490866FFF7F6FB054606E031
:101C5000FFF7F2FB401B022801D903200EE60448DF
:101C600008380068C0F340600028F1D04AE0000066
:101C70000838024000004742800E47420070004092
:101C8000002021490866FFF7D7FB054606E0FFF76D
:101C9000D3FB401B022801D90320EFE51B48006855
:101CA000C0F340600028F2D12CE0A069012800D1E7
:101CB000E4E51648001D0668A069012820D006F456
:101CC0008001E06981421BD106F03F01206A814218
:101CD00016D147F6C0703040616AB0EB811F0FD15A
:101CE00006F440310122A06AC2EB5000B1EB004F74
:101CF00006D106F070612C20005DB1EB006F01D0C1
:101D00000120BBE50020B9E5000047420038024051
:101D100070B504462546681EB0F1807F01D30120CE
:101D20000FE0681E4FF0E02148610F214FF0FF30B7
:101D300000F076FD00204FF0E02188610720086167
:101D4000002070BDF8B504460E46174694F84200D0
:101D500020282DD106B10FB90120F8BD0120206344
:101D6000002060633A463146204600F0C9F9054636
:101D7000E5B9206B012818D100BF00200090206831
:101D80000068009020684068009000BF00BF00BF5E
:101D900021680C3151E8001F41F0100021680C311E
:101DA00041E80002002AF3D100E001252846D4E7EB
:101DB0000220D2E770B504460D4624480078234936
:101DC000497840EA0120C0F30A00214908801F48F1
:101DD0004078C0101D49897840EA4110C0F30A00DC
:101DE0001B4948801948807880111849C97840EA11
:101DF00081001649097940EA8120C0F30A0014499C
:101E000088801248007940101049497940EAC11091
:101E1000C0F30A000E49C8800C48407900118008C0
:101E200008720A484079C0F301104872122207492B
:101E30000848FFF787FF0748C06B0068006820F07C
:101E400008000449C96B0968086070BD36010020AC
:101E50002C01002070010020704710B504460CB919
:101E6000012010BDA06900B100E000BF94F841005E
:101E700028B9002084F84000204600F029F82420EA
:101E800084F841002068C06820F400502168C860D0
:101E9000204600F085FA2068006920F4904021680F
:101EA00008612068406920F02A00216848612068A4
:101EB000C06840F400502168C860002060642020A1
:101EC00084F8410084F842000020606300BFC8E746
:101ED00010B586B00446142101A8FEF74EFA2A492F
:101EE000206888424DD100BF00200090274800683C
:101EF00040F01000254908600846006800F0100016
:101F0000009000BF00BF00200090204814380068F7
:101F100040F002001D49143908600846006800F0CE
:101F20000200009000BFC02001900220029000201B
:101F30000390032004900720059001A91448FFF79F
:101F40006FF91448144908604FF0006048600021A0
:101F500011488160C1604FF48061016100214161DD
:101F60008161C1614FF44031016200214162FFF79C
:101F700083F808B1FEF779FA00BF0748E06384638D
:101F800000BF06B010BD0000001001404438024000
:101F90000004024040640240B801002070477047CE
:101FA00000BFFEE710B50D480D49086004204860E9
:101FB00000210B488160C1604FF4C0210161002104
:101FC0004161017641768176C17601774177FEF7EE
:101FD0008DFD08B1FEF749FA10BD00000064004015
:101FE0004801002008B500BF002000900A480068A2
:101FF00040F48000084908600846006800F480004A
:10200000009000BF002211463A20FFF7A1FA3A20C3
:10201000FFF78AFA08BD00003038024008B500BF5B
:10202000002000901B48006840F00100194908603A
:102030000846006800F00100009000BF00BF0020CB
:1020400000900846006840F00200086008460068FA
:1020500000F00200009000BF00BF00200090084682
:10206000006840F0080008600846006800F00800BA
:10207000009000BF00BF002000900846006840F0BC
:10208000800008600846006800F08000009000BFF3
:1020900008BD00003038024010B50C480C490860FB
:1020A0000C4848604FF48051094881600021C160AC
:1020B0004FF4806101610C21416100218161C161A6
:1020C000FFF7CBFE08B1FEF7D0F910BD00100140BC
:1020D00070010020A086010000BFFEE700BFFEE700
:1020E0007047704710B5FFF7ADF910BD03480068A1
:1020F00040F47000014908607047000088ED00E07E
:1021000077B581B0044615460298A062A5850020E7
:102110006064222084F842002748E16BC8632748A6
:10212000E16B08642648E16BC8640020E16B086538
:1021300002AE32682368191D2B46E06BFFF712F8D8
:1021400000BF002000902068006800902068406870
:10215000009000BF206970B100BF00BF21680C3142
:1021600051E8001F41F4807021680C3141E8000201
:10217000002AF3D100BF00BF00BF2168143151E82D
:10218000001F41F001002168143141E80002002ADB
:10219000F3D100BF00BF00BF2168143151E8001F18
:1021A00041F040002168143141E80002002AF3D1D7
:1021B00000BF002004B070BD49280008692700084E
:1021C0005123000800BFFEE72DE9F0430346B3F8B2
:1021D0000E80A3F81080A2EB01080FFA88F8A3F88C
:1021E0000E80B3F90E60B3F91070D3ED000AB3F9A5
:1021F0000E8000EE108AB8EEC00A20EE800ABDEE16
:10220000C00A10EE108A0FFA88F5B3F9128000EEBA
:10221000108AB8EEC00A93ED011AB3F90E8000EEF1
:10222000908AF8EEE00A01EE200ABDEEC00A10EE38
:10223000108A0FFA88F8A3F81280B3F912C0B3F924
:102240001280B3F90A90C84503DDB3F80A80A3F8F9
:102250001280B3F80E80B3F81090A8EB0908B3F819
:10226000089008FB09F80FFA88F405EB0408B3F8A6
:102270001290C8440FFA88F0B3F90C80804501DA57
:10228000B3F90C00BDE8F08370B52249224800F094
:10229000F9FB282520484088A0F57A6004B2032C79
:1022A00003DC14F1030F00DB00241C48B0F900002C
:1022B000694201FB040000B2184908800846B0F9E1
:1022C0000200694201FB040000B21449488008463C
:1022D000B0F90400694201FB040000B20F49888094
:1022E0000846B0F90600694201FB040000B20B4940
:1022F000C8800B49094800F0FFFB4FF47A6006499B
:1023000048800449044800F0BDFB0549034800F03B
:10231000F3FB70BD20010020BC000020B4000020B1
:102320000801002030B50468246824F4802405687E
:102330002C60046863608468402C04D10468A26047
:102340000468E16003E00468A1600468E26030BDF5
:1023500070B506460025B46B20684069C0F3C0150F
:1023600094F84100212805D125B10020E0842046C1
:1023700000F042FA20684069C0F3801594F84200EA
:10238000222805D125B10020E085204600F0FEF985
:10239000606C40F0100060642046FFF75DFD70BD8A
:1023A0002DE9F84F04462068006920F44050E168A8
:1023B0000843216808612169A068084361690843EE
:1023C000E169084300902068C06849F20C618843C5
:1023D000009908432168C8602068406920F4407073
:1023E000A16908432168486176492068884203D082
:1023F00075492068884203D1FFF7D4F9814602E08D
:10240000FFF7C0F98146E069B0F5004F6CD10220BA
:102410006168A0FB015003461920A9FB007001462A
:102420002A463846FDF732FF6421B0FBF1F04FEA4F
:10243000001A02206168A0FB01510B461920A9FB7C
:1024400000712A463846FDF721FF83460220616865
:10245000A0FB015003461920A9FB00712A4638460B
:10246000FDF714FF6421B0FBF1F000EBC00101EBBC
:102470000010ABEB8000322101EBC0006421B0FB07
:10248000F1F000F0F8000AEB400A02206168A0FBBE
:10249000015003461920A9FB007001462A46384620
:1024A000FDF7F4FE834602206168A0FB015003465D
:1024B0001920A9FB00712A463846FDF7E7FE642182
:1024C000B0FBF1F000EBC00101EB0010ABEB8000C2
:1024D000322101EBC0006421B0FBF1F000F00700F5
:1024E0005044216888606AE004206168A0FB0150C4
:1024F00003461920A9FB007001462A463846FDF71D
:10250000C5FE824604206168A0FB015003461920E5
:10251000A9FB007001462A463846FDF7B7FE642144
:10252000B0FBF1F000EBC00101EB0010AAEB800062
:10253000322101EB00106421B0FBF1F000F0F00A51
:1025400004206168A0FB017003461920A9FB00511B
:102550003A462846FDF79AFE6421B0FBF1F00AEBFB
:10256000001A04206168A0FB01510B461920A9FB49
:1025700000712A463846FDF789FE834604206168CB
:10258000A0FB015003461920A9FB007001462A4612
:102590003846FDF77BFE6421B0FBF1F000EBC00193
:1025A00001EB0010ABEB8000322101EB0010642145
:1025B000B0FBF1F000F00F00504421688860BDE8E6
:1025C000F88F0000001001400014014000B58BB0EE
:1025D0000120099000200790012008900020019020
:1025E000029003900490069005900A9001A9064875
:1025F000FDF7F8FF0448FEF7E8FB02210248FDF76B
:1026000037FF0BB000BD000048010020014600204C
:102610008A6A8B69CBB932B1012A0DD0022A03D064
:10262000032A10D10EE000BFCB6A03F08073B3F130
:10263000807F00D1012007E0CB6AB3F1C07F00D1D9
:10264000012001E000E000BF34E08B69B3F5005FDA
:102650001AD132B1012A07D0022A03D0032A11D19C
:102660000AE000BF01200EE0CB6A03F08073B3F1F3
:10267000807F00D1012006E0CB6AB3F1C07F00D19A
:10268000012000E000BF15E032B1012A05D0022A86
:1026900004D0032A0CD103E000BF00BF012008E0F2
:1026A000CB6A03F08073B3F1807F00D1012000E09A
:1026B00000BF00BF7047000000B593B0302107A8ED
:1026C000FDF75BFE142102A8FDF757FE00BF0020B6
:1026D00001902348006840F0805021490860084676
:1026E000006800F08050019000BF00BF0020019002
:1026F0001C48006820F4404040F4804019490860BC
:102700000846006800F44040019000BF0120079097
:102710000004089002200D9041050E9106210F91B2
:1027200048211091022111910421129107A8FFF76D
:10273000A1F808B1FDF799FE0F2002900220039046
:10274000002004904FF48050059000200690022154
:1027500002A8FEF74FFF08B1FDF787FE13B000BDDA
:10276000403802400070004070B50546AC6B012057
:102770006063206B012805D1A08D41082046FFF73A
:1027800019FB02E02046FFF70AFC70BD00BF00BF46
:1027900002680C3252E8002F22F4907102680C3269
:1027A00042E80013002BF3D100BF00BF00BF026856
:1027B000143252E8002F22F001010268143242E87C
:1027C0000013002BF3D100BF016B01290ED100BF14
:1027D00000BF02680C3252E8002F22F0100102689C
:1027E0000C3242E80013002BF3D100BF202180F807
:1027F000421000210163704700BF00BF02680C3225
:1028000052E8002F22F0C00102680C3242E80013A7
:10281000002BF3D100BF202180F841107047000049
:1028200010B5002804DB0A07130E054A135406E00E
:102830000A07140E034A00F00F031B1FD45410BDE7
:1028400000E400E018ED00E070B50546AC6B2868C8
:10285000006800F48070002842D1E08500BF00BF0E
:1028600021680C3151E8001F21F4807021680C317F
:1028700041E80002002AF3D100BF00BF00BF216879
:10288000143151E8001F21F001002168143141E8A2
:102890000002002AF3D100BF00BF00BF216814313D
:1028A00051E8001F21F040002168143141E8000286
:1028B000002AF3D100BF202084F84200206B0128B9
:1028C0000ED100BF00BF21680C3151E8001F21F07C
:1028D000100021680C3141E80002002AF3D100BF4A
:1028E00000206063206B012804D1A18D2046FFF7F2
:1028F00061FA02E02046FFF751FB70BDF7B52DED00
:10290000088B012401250126BDF82600A0F5806072
:1029100000B255490880BDF82400A0F5806000B2DF
:10292000524908809DF82800032803D1002050490F
:10293000088010E09DF82800012804D14FF4A87009
:102940004B49088007E09DF82800022803D14FF684
:10295000B060474908804448B0F9000040426043F5
:102960004249B1F9001005FB11004149B1F90010CD
:1029700006FB110000EB400000B23E4908803A48D7
:10298000B0F9000060433949B1F9001005FB1100AE
:102990003749B1F9001006FB110000EB400000B20E
:1029A0003449488060423049B1F9001048432F490A
:1029B000B1F9001005FB01002D49B1F9001006FB2B
:1029C000110000EB400000B22A498880604226498D
:1029D000B1F90010494248432449B1F9001005FB00
:1029E00001002349B1F9001006FB110000EB400083
:1029F00000B22049C880BDF82010A1F5806000F029
:102A000032FA41EC1B0B9FED1C0B53EC102B00F02A
:102A100041FA41EC190B1A49B1F9020000F023FA0E
:102A200041EC1A0B53EC192B00F046F941EC180B52
:102A300000F0EAF900B2124948800846B0F90200F5
:102A400041F6FE71884202DD03200D4948800C48A2
:102A5000B0F90200022803DA41F6FE700849488006
:102A6000BDEC088BFEBD0000C2000020C0000020AD
:102A7000C4000020B40000209A9999999999B9BF8F
:102A8000BC000020F8B506460F46002426E004EB03
:102A9000440007EB4000408805B236F91400401BA3
:102AA000B0F5805F03DD05F5005005B208E036F9AA
:102AB0001400401B10F5805F02DAA5F5005005B246
:102AC00036F9142004EB84010A4B03EB81002946FC
:102AD000FFF77AFB2DF81400601C84B2022CD6DBC1
:102AE000BDF90210BDF9000000231A4600F070F88D
:102AF000F8BD00008C0000202DE9FC4105460E4683
:102B0000002412E035F9142004EB440306EB4303E0
:102B1000B3F9041004EB84030B4F07EB8300FFF7BA
:102B200053FB2DF81400601C84B2042CEADBBDF9C1
:102B30000630BDF90420BDF90210BDF9000000F017
:102B40001FF8BDE8FC810000140000200146087851
:102B500010381823B0FBF3F20848805CC865032ADC
:102B600005D908686FF30900001D886503E008684F
:102B70006FF309008865886D704700006E320008A9
:102B8000F8B507460C4615461E464FF400700D4931
:102B9000086000208860C86008200861380A0A4977
:102BA00008704F70200A8870CC70280A08714D7127
:102BB000300A8871CE716B460A4602490348FDF718
:102BC0006CFCF8BDD8000020000000204801002067
:102BD000F8B507460C4615461E464FF4FF700D49E2
:102BE000086000208860C86008200861380A0A4927
:102BF00008704F70200A8870CC70280A08714D71D7
:102C0000300A8871CE716B460A4602490348FDF7C7
:102C100044FCF8BDF000002008000020480100201E
:102C200002480068C0F30220704700000CED00E08D
:102C30000EB5FEF713FCFFF73FFDFFF7EFF9FFF7C7
:102C4000D1F9FFF7AFF9FFF727FA1548FEF7BDF8FE
:102C5000FFF7BCFC122213491348FFF773F8124820
:102C6000C06B0068006820F008000F49C96B096854
:102C7000086014E00D4801680091416801910089E5
:102C8000ADF80800029A0098FFF738FEFFF7FCFA4B
:102C900007490848FFF730FF0120FEF7ADFAE9E7E2
:102CA0004801002036010020700100202C01002086
:102CB00008010020B400002010B591EA030F48BFBE
:102CC00083F0004300F1EC81841A71EB030C05D210
:102CD000121943EB0C03001B61EB0C01DFF824E13C
:102CE0004FEA1154A4EB135C1EEA430F18BF9EEA8F
:102CF000445F73D023EA0E03DCF1200E21EA045175
:102D000043F4801332D322FA0CFE10EB0E0023FAA8
:102D10000CFE41EB0E01CCF1200E03FA0EFE10EB7F
:102D20000E0051F10001B1F5801FCCF1200E32D21E
:102D300001EB045112FA0EF2BDE8104058BF704783
:102D4000401C38BF5FEA420218BF7047002814BF1A
:102D500020F0010041F100014FEA410313F5001F8B
:102D600038BF7047A1F1C04100F08CB9012A43EB94
:102D70000302ACF1200CDCF11F0E32BF4FF0000E4D
:102D800023FA0CF310EB030041EB0451B4EB115F99
:102D9000D0D0A1EB045101F5801149085FEA300061
:102DA00001EB04510ED350F1000038BF12FA0EFEB1
:102DB00008D1BDE81040C9E7401C38BF5FEA4202B5
:102DC000CAD1C3E7BDE810404FEA410313F5001F25
:102DD00038BF7047A1F1C04100F054B99EEA445F8A
:102DE00008D011EA5E0FBDE8104004BF01F00041B9
:102DF00000207047BDE8104070B500F0F5F800BF46
:102E000064FBBE3E0000E0FF4FEA41034FEA53532C
:102E1000A3F58063D3F11E03C8BFD3F1210C0CDDF1
:102E20004FF0004242EAC12242EA505232FA03FC19
:102E30008CEAE17CACEBE1707047102BC4BF002042
:102E4000704703F5787CBCF1FF3F04D06FF000427F
:102E500082EA2100704770B500F0C6F849922480DC
:102E600000207047F2E710F0004248BF4042B0FA3D
:102E700080F310FA03F10AD0C3F11D0303F5806358
:102E80004FEA415002EB035202EBD12170474FF061
:102E900000007047DFF848C170B51CEA111E1EBF64
:102EA0001CEA13159EEA0C0F95EA0C0F00F06F80D8
:102EB00081EA030423EA4C134EEAD47E21EA4C1142
:102EC00041F4801143F48013AE44A1FB024CA0FBFB
:102ED0000365AEF17F7E361955EB0C05A1FB034C63
:102EE0004CF10003A0FB021C16EB0C06654153F1EC
:102EF0000003094218BF46F0010613F4007F0BD10E
:102F00004FEA03314FEA0530340341EA155140EAF4
:102F100016506FF003020AE04FEAC3214FEAC520C2
:102F2000F40241EA555140EA56506FF0020202EBBA
:102F30002E4201EB025585EACE710AD05FEA440CBD
:102F400018BF24F0004450F1000041F1000120EAD4
:102F5000D47040F2FE7C624500D270BDA84214BF1E
:102F60004FF080444FF04044002E08BF0024BEF1D3
:102F7000806FA8BFA1F1C041BDE8704080F282809F
:102F80004FF0000001F1C04101F0004170479EEA9E
:102F90000C0F0CEA131518BF95EA0C0F06D04FF072
:102FA000000081EA030E0EF0004170BD00F01CF835
:102FB0008900013E00F007B800F009B84FEA430C61
:102FC0005FEA5C5C08D081EA030100F05BB84FEA7D
:102FD000410C5FEA5C5CF6D14FF00000014970479C
:102FE0000000FF070000F87F0EF1020E2EF0030E26
:102FF0005EF8046B364205D4012A43EB030515F550
:10300000001F12D8012841EB010C1CF5001F0CD841
:103010000ED14FEAD17C15F5001F0CEB4C0C0CF1D6
:10302000020C08BF4CEBD37C04E04FF0080C01E02D
:103030004FEAD37C0CEB4C0526FA05F606F00706A2
:10304000B6F1040C06D20EEB860CBDE870404CF0D5
:10305000010C6047DFE80CF0090B02024FF0004161
:103060004FF00000A1F5002170BD1946104601285F
:1030700051EB010418BFD4F5001484BF002001F007
:10308000004170BD0808A0F500114FEA31017047FA
:1030900010B591EA030F48BF83F000433FF514AE2B
:1030A000841A71EB030C07D212198CF0004C43EB1D
:1030B0000C03001B61EB0C01DFF8A4E14FEA115493
:1030C000A4EB135C1EEA430F18BF9EEA445F00F0B6
:1030D000B08023EA6E03524221EA0451C3EB6E032F
:1030E00038BF5B1EDCF1200E25D322FA0CFE10EB5C
:1030F0000E0043FA0CFE41EB0E01CCF1200E03FA58
:103100000EFE10EB0E0051F10001CCF1200E29D47F
:1031100012FA0EF201EB0451BDE8104058BF70479F
:10312000401C1CBFB2F1004F704700280CBF491C67
:1031300020F00100704712EB020E43EB030218BFB0
:103140004FF0010E4EEA4202ACF1200CDCF11E0EF3
:1031500054D943FA0CFE10EB0E0051F1FF31CCF1C3
:103160001E0ED5D50EF1010E12FA0EFE404141EBB6
:10317000010101EB445C5FEA5C5C10D910EBDE708E
:1031800001EB045138BFBEF1004FBDE8104018BF3D
:10319000704700280CBF491C20F00100704730D256
:1031A0004FEAD42C11F5001124F400641BD0B1FABD
:1031B00081F20B3AA41AA41ED2F12003914030FAF6
:1031C00003F31943904001EBCC71002C01EB045147
:1031D000BDE81040A8BF704701F1C0414FF00000AA
:1031E00001F000417047B0FA80F310FA03F100D10A
:1031F00010BDE41A173C4805C90AE4E701EB045185
:1032000010BD491001EB0451BDE810404FEA3000F9
:1032100002E04FF0000170474A0008BF0042F8D0BA
:10322000B2F5001F28BF704701F000414FF00000C9
:1032300070479EEA445F07D011EA5E0FBDE8104078
:1032400004BF002100207047BDE8104070B5FFF7B3
:10325000CBFE00BF40DFF63E83F0004110467047D2
:103260000000E0FF4FF04070E1EE100A70470006EA
:1032700010160006101600000000000000000102F9
:10328000030406070809000000000102030400000F
:10329000B032000800000020D8000000E80100085B
:1032A00088330008D8000020A007000004020008AE
:1032B000000000000000000000000000000000000E
:1032C000000000000000A0409A99193E0000001084
:1032D00000500000000000000000A0409A99193E34
:1032E0000000001000500000000000000000A0409E
:1032F0009A99193E000000100050000000000000E4
:103300000000A0409A99193E0000001000500000F3
:10331000000000000000A0400AD7233C0000B80BCA
:1033200088130000000000000000A0400AD7233CE2
:103330000000B80B88130000000000000000A0404F
:103340000AD7233C0000401F401F0000000000007F
:103350000000A0400AD7233C0000401F401F00008F
:10336000000000000000000000000000A00FA00FFF
:10337000000000000000000000000000100000003D
:08338000010000000024F4002C
:04000005080001AD41
:00000001FF
