:020000040800F2
:10000000D807002029020008CF1F0008391E000869
:10001000CD1F00081F040008412600080000000052
:10002000000000000000000000000000D31F0008D6
:100030002505000800000000D11F0008D51F00089A
:10004000430200084302000843020008430200087C
:10005000430200084302000843020008430200086C
:10006000430200084302000843020008430200085C
:100070007504000843020008430200084302000818
:10008000430200084302000843020008430200083C
:10009000210400084302000843020008430200084C
:1000A000430200084302000843020008430200081C
:1000B000430200084302000843020008430200080C
:1000C00043020008430200084302000843020008FC
:1000D00043020008430200084302000843020008EC
:1000E00043020008430200084302000843020008DC
:1000F00043020008430200084302000843020008CC
:100100004302000843020008792000084302000867
:1001100043020008430200084302000843020008AB
:10012000430200084302000843020008430200089B
:10013000430200084302000843020008430200088B
:10014000430200084302000843020008430200087B
:10015000430200084302000843020008430200086B
:10016000430200084302000843020008430200085B
:100170004302000843020008430200080000000098
:10018000430200084302000800F002F800F03CF8C7
:100190000AA090E8000C82448344AAF10107DA45E2
:1001A00001D100F031F8AFF2090EBAE80F0013F0F8
:1001B000010F18BFFB1A43F001031847282800005D
:1001C00048280000103A24BF78C878C1FAD85207EE
:1001D00024BF30C830C144BF04680C6070470000C1
:1001E0000023002400250026103A28BF78C1FBD840
:1001F000520728BF30C148BF0B6070471FB502F0DF
:10020000DBFB1FBD10B510BD00F0CFF81146FFF7A6
:10021000F5FF02F045FA00F0EDF803B4FFF7F2FF46
:1002200003BC00F0F5F80000094880470948004782
:10023000FEE7FEE7FEE7FEE7FEE7FEE7FEE7FEE796
:10024000FEE7FEE704480549054A064B70470000F3
:100250006920000889010008D8010020D807002083
:10026000D8030020D803002053EA020C00F0698074
:100270002DE9F04B4FF00006002B1FBFB3FA83F5BA
:1002800003FA05F424FA05F65E4012BF1643B2FAEB
:1002900082F502FA05F4C5F120051EBF22FA05FC1D
:1002A00044EA0C04203556EA044C4FEA144418BFC3
:1002B000641C4FF000084FF00009904271EB030CF2
:1002C00039D3002919BFB1FA81F701FA07F6B0FA5C
:1002D00080F700FA07F6C7F120071EBF20FA07FCD7
:1002E00046EA0C062037B6FBF4FCA7EB0507103FE7
:1002F00007F01F0BCBF120060CFA0BFB2CFA06F6CD
:1003000044BFB3460026202FA4BF5E464FF0000B2B
:100310005BEA060C08BF4FF0010B19EB0B09ABFBB6
:10032000027C48EB0608C01B06FB02CC0BFB03CC8F
:1003300071EB0C01C1E70B46024641464846BDE859
:10034000F08B13B54FF000004FF00001AFF30080C9
:10035000BDE81C4070474FF0000200B513469446BC
:100360009646203922BFA0E80C50A0E80C50B1F10D
:100370002001BFF4F7AF090728BFA0E80C5048BF21
:100380000CC05DF804EB890028BF40F8042B08BFBF
:10039000704748BF20F8022B11F0804F18BF00F8BB
:1003A000012B7047704770477047754600F02CF876
:1003B000AE4605006946534620F00700854618B052
:1003C00020B5FFF73FFFBDE820404FF000064FF09B
:1003D00000074FF000084FF0000B21F00701AC467A
:1003E000ACE8C009ACE8C009ACE8C009ACE8C00999
:1003F0008D46704710B50446AFF300802046BDE837
:100400001040FFF70ABF0000004870477801002045
:1004100001491820ABBEFEE7260002007047FEE748
:10042000014800F0F4B900006000002038B50E4C1F
:100430004FF4FF7525600025A560E560082525615E
:100440000A4C050A25706070080AA070E170100A55
:1004500020716271180AA071E3716B46224602494D
:10046000034800F074F838BD20000020040000208C
:1004700060000020014800F0EBBB000018010020E4
:1004800001681823CAB2103AB2FBF3F2054B6FF3BE
:100490000901032A9B5CC36500D9091D81650846D3
:1004A00070470000C229000810B5014600208B6982
:1004B0008A6A4FF0C07453B1B3F5005F15D072B1C2
:1004C000012A0CD0022A0AD0032A09D104E01AB169
:1004D000012A06D0022A03D1C96AC90100D5012028
:1004E00010BDC96AA142FAD010BD002AF7D0012A76
:1004F000F2D0022AF3D0032AF3D010BD30B504683D
:10050000256825F480252560046863608368402B96
:10051000036803D099600068C26030BD9A600068CB
:10052000C16030BD704772B6FEE790F82020012A06
:1005300007D0022A05D0416A41F48021416201209E
:100540007047006842690A43426100207047F0B575
:1005500090F820500468A468012D05D0022D03D026
:10056000416A41F480214DE014F0406F01D1E50073
:1005700045D5C4F301640125A5401D608D684FF485
:10058000C0739DB1CE6835434E6845EAC60506681E
:1005900003EB0417F5514FF4C275076805EB04151A
:1005A0000E697E51097D012905D009E00E88CD68CC
:1005B00045EA4655EBE701684E5946F480764E51C0
:1005C0001179D2F805504FF4C67641EA0521056845
:1005D00006EB0416A9511178D2F801204FF4C47526
:1005E00041EA0221026805EB04155151006803EB52
:1005F0000411425842F0010242500020F0BD416A0D
:1006000041F4001141620120F0BD000010B590F8E6
:100610002020012A07D0022A05D0416A41F4802116
:100620004162012010BD3B48D0F8002242F0010297
:10063000C0F80022D0F8002222F47C52C0F8002238
:10064000D0F800224B6A42EA0322C0F800220A7D59
:1006500002F01F0301229A40D0F81C329343C0F8E5
:100660001C32CB69B3B9D0F80C329343C0F80C32CA
:100670008C894B6864F31F434C6900EBC404C4F8D5
:1006800040320C890B6864F31F434C6900EBC404CF
:10069000C4F84432CB69012B16D1D0F80C32134385
:1006A000C0F80C320C884B6864F31F434C6900EBB4
:1006B000C404C4F840320C89CB6864F31F434C690E
:1006C00000EBC404C4F844328B69002BD0F8043228
:1006D0000ED01343C0F804320B69002BD0F814324B
:1006E00008D01343C0F81432096A012904D008E085
:1006F0009343EFE79343F5E7D0F81C121143C0F89A
:100700001C12D0F8001221F00101C0F800120020E4
:1007100010BD000000640040704770B590F82040A4
:10072000012C05D0022C03D0416A41F4802128E03D
:10073000046809B32469A40720D04FF4D87405686D
:1007400004EB01142D5915F00405956005682D5929
:100750001AD0ED08556005682C5904F00204D460E5
:100760004FF4DA74056804EB01142E5906F00F06F5
:10077000082E0CD308250DE0E468DCE7416A41F45B
:1007800000114162012070BD6D0D1560E3E72D5928
:1007900005F00F05156105682D59C5F3072595610D
:1007A00005682C59240C54614FF4DC72046802EB88
:1007B0000112A4581C700468A458240A5C700468D0
:1007C000A458240C9C700468A258120EDA704FF4DE
:1007D000DE72046802EB0112A4581C710468A4586C
:1007E000240A5C710468A458240C9C710468A25803
:1007F000120EDA71006829B1016941F0200101612E
:10080000002070BDC16841F02001C160F8E72DE90A
:10081000F05F0546006800244669D0F804908768B8
:10082000D0F80CB0D0F810A0D0F81880F10748D05C
:10083000F90714D001218160B80703D5284600F0DC
:1008400000FA0CE0780702D54FF4006407E038079F
:1008500002D54FF4805402E0284600F0F1F9F80583
:1008600016D529684FF480708860B80503D52846EE
:1008700000F0E9F90CE0780502D544F4005407E0F3
:10088000380502D544F4804402E0284600F0DAF945
:10089000F80316D529684FF480308860B80303D573
:1008A000284600F0D2F90CE0780302D544F4004465
:1008B00007E0380302D544F4803402E0284600F013
:1008C000C3F9300707D55FEACB6004D5296810204B
:1008D00044F40074C86070074FF0080707D55FEA5A
:1008E0000B7004D52868C760284600F057F9B00798
:1008F00006D52868C068800702D0284600F050F965
:10090000700607D55FEACA6004D52968102044F450
:1009100080640861B00607D55FEA0A7004D52868CC
:100920000761284600F05CF9F00606D528680069E2
:10093000800702D0284600F054F9B00308D55FEADA
:10094000C96005D5296810204860284600F04AF99A
:10095000F00307D55FEA097004D528684760284688
:1009600000F074F9300446D55FEA497040D5F005CF
:1009700004D55FEAC87001D044F00104B00504D585
:100980005FEA887001D544F00204700504D55FEA7F
:10099000487001D544F00404300529D518F0700FD3
:1009A00026D008F07000402815D006DC102809D0A9
:1009B00020280AD0302816D10AE050280ED060280E
:1009C00011D10EE044F008040DE044F010040AE0F8
:1009D00044F0200407E044F0400404E044F08004C4
:1009E00001E044F480742868816921F0700181611C
:1009F000296804204860002C05D0686A204368629A
:100A00002846FFF789FEBDE8F09F70B5040003D0CB
:100A100094F8200010B104E0012070BD204600F0E1
:100A200081F82068016841F00101016000F092FB4B
:100A30000546052604E000F08DFB401B0A2811D86E
:100A400020684068C007F6D02068016821F00201E4
:100A5000016000F07FFB05460BE000F07BFB401BD4
:100A60000A2806D9606A40F40030606284F8206089
:100A7000D2E7206840688007EFD4207E01282068F4
:100A800001683DD021F080010160607E012820686E
:100A9000016838D021F040010160A07E0128206863
:100AA000016833D021F020010160E07E0128206838
:100AB00001682ED041F010010160207F01282068DC
:100AC000016829D021F008010160607F01282068B9
:100AD000016824D021F004010160D4E90201084337
:100AE000D4E90412114308436168491E0843216890
:100AF000C86100206062012084F82000002070BDE1
:100B000041F08001C0E741F04001C5E741F020011C
:100B1000CAE721F01001CFE741F00801D4E741F026
:100B20000401D9E710B586B0044614216846FFF7E2
:100B300012FC17492068884227D116480021026814
:100B400042F000720260006800F0007005901148E9
:100B50001038026842F0080202600068022200F0C9
:100B6000080005900320CDE90210CDE9000209201C
:100B700004906946084800F0EFF90022114614205D
:100B800000F056FB142000F045FB06B010BD00003D
:100B90000064004040380240000C024070470000F2
:100BA00000B589B007AB6A4600210A48FFF7B5FDDA
:100BB000BDF81C00002241BA07480180BDF81E1094
:100BC00049BA41804FF48041044800F0BDFA09B0B1
:100BD00000BD000060000020000000200014024062
:100BE000704770477047000070B5044690F82000C9
:100BF000012804D0606A40F40020606218E00220FE
:100C000084F820002068016821F00101016000F0F3
:100C1000A1FA05460EE000BF00F09CFA401B0A282E
:100C200008D9606A40F400306062052084F8200032
:100C3000012070BD20684068C007EDD1606270BDC2
:100C400070477047704770477047704770470000A3
:100C50002DE9F84304464FF00009CDF800906348B1
:100C60004FF41651A56D0068B0FBF1F72E6894F8AB
:100C70005C10082000FA01F131420FD021680A68A7
:100C800052070BD50A6822F004020A6094F85C103F
:100C90008840A860606D40F00100606594F85C10C9
:100CA0004FF0010808FA01F0304208D02168496984
:100CB000090604D5A860606D40F00200606594F8F4
:100CC0005C1004208840304208D0216809688907F8
:100CD00004D5A860606D40F00400606594F85C1075
:100CE00010208840304218D021680968090714D5BF
:100CF000A86020680168490304D50068000308D58E
:100D0000A16C07E00168C90503D4016821F008015E
:100D10000160216C09B12046884794F85C102020BE
:100D20008840304231D021680968C9062DD5A860B5
:100D300094F8350005282068016806D0490347D596
:100D4000006800031DD4616C1CE021F016010160F5
:100D50002068416921F080014161206C08B9A06CD4
:100D600020B12068016821F00801016094F85C104E
:100D70003F208840A86084F8358084F83490216D45
:100D80001FE0E16B09B120468847606D00282BD039
:100D9000606DC00714D0052084F835002068016814
:100DA00021F0010101600098401C0090B84203D876
:100DB00020680068C007F6D184F8358084F8349044
:100DC000E16C002910D001B02046BDE8F04308478F
:100DD0000168C905D5D4016821F01001016084F8CB
:100DE000358084F83490CCE7BDE8F8831C000020FF
:100DF0002DE9F041044600F0ADF906465CB1022051
:100E000084F83500002584F834502068016821F00A
:100E1000010101600DE00120BDE8F08100F09AF9C8
:100E2000801B052805D920206065032084F8350043
:100E3000F2E720680068C007F0D1226811682048F6
:100E40000140D4E901031843D4E90336334318437E
:100E500063691843A3691843E3691843236A184375
:100E60000843616A042903D1D4E90B1319430843E9
:100E7000106020684069666A20F0070130460E4322
:100E8000012704280CD1A06A0643E06A40B120463D
:100E9000FFF70AFB20B14020606584F83570BAE79F
:100EA000206846612046FFF7EBFA94F85C203F216A
:100EB00091408160656584F835700020ACE70000E2
:100EC0003F8010F02DE9F0410446866D90F8340023
:100ED000002501280DD0012084F8340094F83570E5
:100EE0000020012F07D084F8340002252846BDE8F1
:100EF000F0810220FBE7022784F835706065204608
:100F0000FFF7FCFA94F85C103F208840B06020683E
:100F1000016841F016010160206C20B12068016871
:100F200041F0080101602068016841F001010160A1
:100F3000DCE7000070B5044600F00CF90546601CC3
:100F400002D004480078044400F004F9401BA04299
:100F5000FAD370BD100000202DE9F84FDFF8BCA1D6
:100F60000022012503264FF00F090AF1040BAAF114
:100F7000040E00BF0B6805FA02F42340A34270D1AF
:100F80000F7907F00307012F01D0022F16D18768D0
:100F90004FEA420806FA08FC27EA0C07D1F80CC011
:100FA0000CFA08FC4CEA070CC0F808C04768A743D5
:100FB0000C79C4F3001494403C4344600C79E4433E
:100FC000A4070AD0C4684FEA420C06FA0CF7BC43E7
:100FD0008F6807FA0CF72743C7600C7904F0030405
:100FE000022C12D1D40800EB840CDCF82040570707
:100FF000FF0E09FA07F824EA0804D1F8108008FA6D
:1010000007F848EA0408CCF8208004684FEA420C4C
:1010100006FA0CF7BC430F7907F0030707FA0CF741
:10102000274307604C6814F4403F70D03C4C27685D
:1010300047F480472760246822F0030704F48044C3
:101040000094384C07EB040CDCF8084897074FEA8B
:10105000177809FA08F7BC43334FB84202D100278A
:1010600024E054E0314FB84201D101271EE0304F57
:10107000B84201D1022719E02E4FB84201D103270F
:1010800014E02D4FB84201D104270FE02B4FB84296
:1010900001D105270AE02A4FB84201D1062705E011
:1010A000284FB84201D1072700E0082707FA08F7C0
:1010B0002743CCF80878DAF800405746D1F804C046
:1010C0009C435FEACC2C00D51C433C60DBF800401D
:1010D0005F46D1F804C09C435FEA8C2C00D51C43CA
:1010E0003C60DEF800407746D1F804C09C435FEADC
:1010F0008C3C00D51C433C60084F083F3C68D1F84D
:1011000004C09C435FEACC3C00D51C433C60521CAD
:10111000102AFFF42FAFBDE8F88F0000083C014013
:101120004438024000300140000002400004024008
:1011300000080240000C024000100240001402406F
:1011400000180240001C02400AB181617047090486
:10115000FBE7000001488068704700001000002095
:1011600002488168027811448160704710000020B5
:101170000B4810B5016841F400710160016841F449
:1011800080610160016841F480710160032000F01A
:101190006FF80F2000F006F800F024F8002010BDD2
:1011A000003C024070B50D4D04464FF47A7128782A
:1011B000B1FBF0F00A490968B1FBF0F000F00CFB5C
:1011C00048B9102C07D200222146501E00F030F8FA
:1011D00000206C6070BD012070BD00001000002078
:1011E0001C0000200A4808B5016841F480410160F4
:1011F000006800F4804000900548001F016841F03D
:1012000080510160006800F08050009008BD00002F
:1012100044380240002809DB00F01F020121914000
:101220004009800000F1E020C0F800117047000084
:10123000F0B40E4B1B680C46C3F30223C3F1070541
:10124000042D00D90425191D072901D2002300E02F
:10125000DB1E012606FA05F1491E214099409E40F9
:10126000761E16403143F0BC01F0EBB90CED00E006
:10127000064900F0070208684FF6FF03184040EAED
:101280000220034A10430860704700000CED00E0A4
:101290000000FA052DE9F0470E46050065D0DFF89D
:1012A0001481D8F80000F7B200F00700B04207D26E
:1012B00088F80070D8F8000000F00700B04254D160
:1012C00028683D4C810712D5400703D5206840F4BB
:1012D000E05020602878000703D5206840F4604083
:1012E00020602068A96820F0F0000843206028787A
:1012F000C0072DD0304968680839012812D002286B
:1013000013D0032811D00968890700292DDA216834
:1013100021F0030101432160FFF71CFF814641F2E8
:10132000883A0EE009688903EFE709688901ECE76C
:10133000FFF710FFA0EB0901514502D90320BDE8DA
:10134000F0872068696800F00C00B0EB810FEFD1E6
:10135000D8F80010404601F00701B14207D90770E4
:10136000006800F00700B04201D00120E7E72878CC
:10137000400705D52068E96820F4E0500843206064
:101380002878000706D52068296920F4604040EAE3
:10139000C100206000F038F82168084AC1F3031149
:1013A000515CC8400649086006480068FFF7FAFE2D
:1013B0000020C4E7003C024008380240CA29000867
:1013C0001C0000201400002004480549006809683A
:1013D000044AC1F38221515CC84070471C000020C0
:1013E00008380240DA2900080448054900680968FD
:1013F000044AC1F34231515CC84070471C000020D0
:1014000008380240DA290008154810B5006810F0C5
:101410000C02144813D01449042A0FD0082A0ED104
:101420000F4C241F2268236802F03F025B0207D59D
:101430002068C0F38810A0FB010106E0084610BD3B
:101440002168C1F38811A1FB00010023FEF70CFF06
:101450002168C1F30141491C4900B0FBF1F010BD06
:10146000083802400024F400001BB7002DE9F84FB3
:1014700004006ED02078DFF84C93C007A9F1040572
:101480004AD009F104000168C1F38101012908D0A3
:101490000068C0F3810002280AD1D9F80000400298
:1014A00006D52868800337D560680028E1D033E08E
:1014B0006068B0F5803F10D0B0F5A02F286810D03C
:1014C00020F480302860286820F48020286060683C
:1014D000A8B1FFF73FFE06460DE0286840F48030D3
:1014E000F4E740F480202860F7E700BFFFF732FE02
:1014F000801B642873D828688003F7D50CE0FFF7B9
:1015000029FE064605E000BFFFF724FE801B642885
:10151000F0D828688003F7D42078DFF8AC82800701
:101520004FF0000A3ED5A748001D016811F00C0FCE
:1015300008D00068C0F3810002280BD1D9F8000060
:10154000400207D42868800716D5E068012800D13A
:1015500012E033E1E068B8B10120C8F80000FFF7FD
:10156000F9FD064605E000BFFFF7F4FD801B0228E9
:10157000C0D828688007F7D52868216920F0F800CE
:1015800040EAC10028600DE0C8F800A0FFF7E2FDC6
:10159000064604E0FFF7DEFD801B02281FD82868FE
:1015A0008007F7D42078000722D5864F87486169E5
:1015B000703771B101210160FFF7CCFD064604E0F0
:1015C000FFF7C8FD801B022809D838688007F7D5C7
:1015D0000EE0C0F800A0FFF7BDFD064605E082E082
:1015E000FFF7B8FD801B02287DD838688007F7D444
:1015F0002078400768D5DFF8CCB100270BF13C0B11
:10160000DBF80000C0000BD4DBF8001041F0805183
:10161000CBF80010DBF80000012700F080500090AC
:101620006B4E3068C00510D4306840F48070306074
:10163000FFF790FD009005E0FFF78CFD0099401A40
:10164000022850D83068C005F6D55E4EA0686C36CA
:1016500001280FD00528306810D020F0010030603C
:10166000306820F004003060A068B8B1FFF772FD68
:1016700000900FE0306840F00100F4E740F0040013
:101680003060F7E7FFF766FD0099411A41F28830B4
:10169000814266D830688007F4D50EE0FFF75AFD26
:1016A000009007E0FFF756FD0099411A41F288309B
:1016B000814256D830688007F4D42FB1DBF800108F
:1016C00021F08051CBF80010A069C8B33D49091D35
:1016D0000968C1F3810102294AD00228504607D087
:1016E000C8F8600000E03CE0FFF734FD04463BE052
:1016F0004746C8F86000FFF72DFD064605E000BF2D
:10170000FFF728FD801B02282BD828688001F7D41A
:10171000D4E907010843A16A2E4A490802EB0141B6
:10172000626A41EA8211084394F82C1040EA016190
:10173000C9F8001001203866FFF70CFD044606E0EA
:101740003EE000BFFFF706FD001B022809D828680D
:101750008001F7D534E000BFFFF7FCFC001B022836
:1017600002D90320BDE8F88F28688001F4D427E06F
:101770000128F7D0D9F80000E26900F48001914215
:101780001CD1226A00F03F01914217D147F6C07187
:10179000626A0140B1EB821F10D1A26A4FF0FF33A1
:1017A00000F4403103EB5202B1EB024F06D194F842
:1017B0002C1000F07060B0EB016F01D00120D1E778
:1017C0000020CFE70438024000004742800E474225
:1017D000007000400000FFFF10B5401EB0F1807F98
:1017E00001D3012010BD4FF0E02460610F2160178C
:1017F00000F027FF0020A06107202061002010BD1D
:101800007047704770B590F83C20012A32D001240F
:1018100080F83C40022280F83D2003685A689D68A9
:1018200022F070060A6832435A60134B02689A42EB
:1018300014D0B2F1804F11D0104B9A420ED0104B01
:101840009A420BD00F4B9A4208D00F4B9A4205D0C8
:101850000E4B9A4202D00E4B9A4204D1496825F0B1
:1018600080031943916080F83D40002180F83C10CE
:10187000084670BD022070BD000001400004004019
:1018800000080040000C00400004014000400140FE
:101890000018004010B5040003D094F83D0010B1CA
:1018A00007E0012010BD002084F83C00204600F035
:1018B0001FF8022084F83D00211D206800F0E2FBA3
:1018C000012084F8460084F83E0084F83F0084F844
:1018D000400084F8410084F8420084F8430084F812
:1018E000440084F8450084F83D00002010BD00004D
:1018F00008B500680B49884212D10B48016841F0D5
:10190000080101600068002200F008000090114604
:101910003220FFF78DFCBDE808403220FFF77ABC8B
:1019200008BD0000000C00404038024070B504467D
:1019300090F83C000025012817D0012684F83C606F
:10194000022084F83D002068826822F0770222F4A9
:101950007F4282600868502838D00DDC20284FD0A4
:1019600005DC90B3102811D14AE0022070BD302868
:1019700046D040280AD13BE060282FD070280DD0F7
:10198000B0F5805F03D0B0F5005F12D0012584F878
:101990003D60002084F83C00284670BDCB68D1E94A
:1019A0000121206800F0DAFB2068816841F07701AE
:1019B00009E0CB68D1E90121206800F0CFFB206865
:1019C000816841F480418160E1E719E0CA684968B3
:1019D000206800F097FC5021206806E0CA6849683A
:1019E000206800F0A0FC6021206800F0C1FBCEE779
:1019F000CA684968206800F085FC40212068F4E747
:101A0000226801461046F0E770472DE9F041044690
:101A10000068C66805694FF00007A90713D5B1072C
:101A200011D5F91E016101202077206880698007A7
:101A3000204602D0FFF7E8FF04E000F07EF82046E1
:101A400000F010F92777680716D5700714D52168BC
:101A50006FF004000861022020772068806910F48C
:101A6000407F204602D0FFF7CFFF04E000F065F88A
:101A7000204600F0F7F82777280715D5300713D54B
:101A800021686FF008000861042020772068C06991
:101A90008007204602D0FFF7B7FF04E000F04DF8C2
:101AA000204600F0DFF82777E80616D5F00614D5B3
:101AB00021686FF010000861082020772068C06955
:101AC00010F4407F204602D0FFF79EFF04E000F0B4
:101AD00034F8204600F0C6F82777E80708D0F0076A
:101AE00006D021686FF001000861204600F0BBF8C5
:101AF000280608D5300606D521686FF080000861F9
:101B00002046FFF77DFE680608D5700606D52168D9
:101B10006FF040000861204600F0A6F8A8060AD53C
:101B2000B00608D521686FF0200008612046BDE8A6
:101B3000F041FFF766BEBDE8F081704770B504461E
:101B400090F83C0000260D4601280FD0012084F8B3
:101B50003C006AB1042A1DD0082A2FD00C2A3FD09D
:101B60000126002084F83C00304670BD022070BD84
:101B7000206800F005FB2068816941F0080181615F
:101B80002068816921F004018161206881692A69E6
:101B9000114311E0206800F023FB2068816941F4C3
:101BA000006181612068816921F480618161206820
:101BB00081692A6941EA02218161D2E7206800F047
:101BC00045FB2068C16941F00801C1612068C16915
:101BD00021F00401C1612068C1692A69114311E043
:101BE000206800F067FB2068C16941F40061C161B1
:101BF0002068C16921F48061C1612068C1692A69D6
:101C000041EA0221C161ACE710B5040003D094F8A9
:101C10003D0010B107E0012010BD002084F83C0019
:101C2000204600F01EF8022084F83D00211D2068A7
:101C300000F028FA012084F8460084F83E0084F879
:101C40003F0084F8400084F8410084F8420084F8A2
:101C5000430084F8440084F8450084F83D000020E7
:101C600010BD704770477047704738B5044690F80C
:101C70004200202801D0022038BD61B15AB10120B4
:101C8000206300206063204600F092FC0028F3D11E
:101C9000216B012901D0012038BD21680A684968FB
:101CA000009121680C3151E8002F42F0100241E808
:101CB0000023002BF5D138BD194910B50888C0F3B1
:101CC0000A02A1F1140002804A78D3088A7843EA14
:101CD0004213C3F30A034380CB78920942EA830399
:101CE0000A7943EA8223C3F30A03838049795208BD
:101CF00042EAC112C2F30A02C2808A090272C1F327
:101D000001114172122206490648FFF7AEFF05484D
:101D1000C06B0068016821F00801016010BD00007F
:101D20004C000020D0000020704770B5040004D0A3
:101D300094F84100002510B106E0012070BD84F840
:101D40004050204600F024F8242084F84100206808
:101D5000C16821F40051C160204600F0A3FB206857
:101D6000016921F4904101612068416921F02A0153
:101D700041612068C16841F40051C1606564202060
:101D800084F8410084F842006563002070BD0000C3
:101D900070B586B0064614216846FEF7DCFA204985
:101DA000306888423AD11F480025016841F48021FB
:101DB0000160006800F4802005901A48103801681E
:101DC00041F0040101600068694600F004000590DC
:101DD0004FF4406000900220CDE9010503200390FC
:101DE000072004901048FFF7B7F8114C0F48206007
:101DF0004FF00060C4E901054014C4E90350656177
:101E00004FF44030A561C4E9075020466562FEF7F3
:101E1000EFFF08B1FEF787FBF463A66306B070BD61
:101E2000004800404038024000080240286002405C
:101E30001801002070477047FEE700000E4810B5FB
:101E40000C4901600421416000214FF4C0228160EF
:101E5000C0E903124161017641768176C17601774E
:101E60004177FEF7D2FD002803D0BDE81040FEF711
:101E70005ABB10BD0064004060000020094808B54E
:101E8000016841F4001101600068002200F40010B4
:101E9000009011460C20FFF7CBF9BDE808400C205C
:101EA000FFF7B8B930380240114808B5016841F071
:101EB00001010160016801F001010091016841F038
:101EC00008010160016801F008010091016841F01A
:101ED00004010160016801F004010091016841F012
:101EE00080010160006800F08000009008BD0000E3
:101EF0003038024010B58EB000240794089409943D
:101F00000A940B941C2168460C94FEF724FA1D4891
:101F10001B49C0E90014611EC0E90241802104612F
:101F20008161FFF7B7FC08B1FEF7FDFA4FF480506E
:101F3000079007A91348FFF7F9FC08B1FEF7F3FA79
:101F40001048FFF761FE08B1FEF7EDFA0B940BA9FC
:101F50000C480C94FFF756FC08B1FEF7E4FA602039
:101F6000CDE900040220029000226946049405484D
:101F7000FFF7E4FD002801D0FEF7D5FA0EB010BD42
:101F8000000C0040880000200E4810B50C4901608C
:101F90000D4941604FF48051816000214FF480620F
:101FA000C0E903120C22C0E90521C161FFF7BDFEA3
:101FB000002803D0BDE81040FEF7B5BA10BD000000
:101FC00000480040D0000020A0860100FEE7FEE7A8
:101FD00070477047FFF7C4B830B593B030216846FA
:101FE000FEF7B9F914210CA8FEF7B5F91C48002535
:101FF000016841F080510160006800F0805011904C
:102000001848016841F4804101600068022400F42E
:102010008040119001200090000401908001CDE9E2
:1020200006400C2008909020CDE9090404200B9074
:102030006846FFF71BFA08B172B6FEE70CA90F203D
:1020400081E831004FF48050CDE90F0502210CA842
:10205000FFF720F9002801D072B6FEE713B030BDBB
:1020600040380240007000400248016841F47001AD
:102070000160704788ED00E00148FFF7C6BC000032
:1020800088000020F0B50268294C2A4D2A4E2B4FBB
:102090002B4B4FF0804CA04209D0604507D0A8429E
:1020A00005D0B04203D0B84201D0984204D122F00A
:1020B000700E4A6842EA0E02A0421BD0604519D059
:1020C000A84217D0B04215D0B84213D0984211D0D0
:1020D0001C4DA8420ED01C4DA8420BD01B4DA8424F
:1020E00008D01B4DA84205D01A4DA84202D01A4D67
:1020F000A84203D122F44075CA682A434D6922F0F0
:1021000080022A4302608A68C2620A688262A04230
:1021100001D0984201D1096901630121416101693E
:10212000C90703D0016921F001010161F0BD000080
:10213000000001400004004000080040000C004086
:1021400000040140004001400044014000480140BB
:1021500000180040001C00400020004010B58468BA
:1021600042EA032224F47F440A432243826010BDE2
:10217000826822F070020A4342F0070181607047D2
:10218000F0B5036A026A22F00102026242688469C1
:10219000124E24F073050C682C4323F002058B6863
:1021A0002B430D4DA84201D0B04205D123F00807C2
:1021B000CB683B4323F00403A84201D0B04205D1D1
:1021C0004D6922F4407215438A692A434260846152
:1021D000496841630362F0BD000001400004014012
:1021E000F0B5026A036A23F010030362436884694E
:1021F0000D6824F4E64444EA05248D6822F02002A8
:1022000042EA05120F4D104EA84201D0B04206D14D
:10221000CF6822F0800242EA071222F04002A84270
:1022200001D0B04207D14D6923F4406343EA8503EE
:102230008D6943EA85034360846149688163026272
:10224000F0BD00000000014000040140F0B5026A4A
:10225000036A23F4807303624368C46922F4007242
:1022600024F073050C68124E2C438D6842EA052257
:102270000E4DA84201D0B04206D1CF6822F40062D0
:1022800042EA072222F48062A84201D0B04207D17C
:102290004D6923F4405343EA05138D6943EA05135E
:1022A0004360C4614968C1630262F0BD000001403F
:1022B0000004014030B5046A026A22F480520262CE
:1022C0004268C3690D6823F4E64343EA05238D6839
:1022D00024F4005444EA0534084DA84202D0084DC5
:1022E000A84204D14D6922F4804242EA851242603C
:1022F000C36149680164046230BD00000000014010
:102300000004014010B5036A046A24F00104046269
:10231000846924F0F00444EA021423F00A020A4318
:102320008461026210BD10B5036A046A24F01004CF
:102330000462846923F0A00324F4704444EA023266
:1023400043EA01118261016210BD70B5846B20689F
:10235000406994F84110C0F3C0100025212904D130
:1023600018B1E584204600F08EF82068406994F8A2
:102370004210C0F38010222904D118B1E58520460F
:1023800000F05AF8606C40F0100060642046FFF7DF
:10239000CBFC70BD10B50146806B096809684FF031
:1023A0000002C9052ED4C28501680C3151E8003FF6
:1023B00023F4807341E80034002CF5D10168143116
:1023C00051E8003F23F0010341E80034002CF5D12F
:1023D0000168143151E8003F23F0400341E8003424
:1023E000002CF5D1202180F84210016B012909D180
:1023F00001680C3151E8003F23F0100341E800343C
:10240000002CF5D14263016B012902D0FFF712FDC8
:1024100010BD818DFFF750FC10BD10B5806B012100
:102420004163016B012902D0FFF705FD10BD818DCD
:102430004908FFF741FC10BD01680C3151E8002F3D
:1024400022F4907241E80023002BF5D10168143189
:1024500051E8002F22F0010241E80023002BF5D1C2
:10246000016B012909D101680C3151E8002F22F0DC
:10247000100241E80023002BF5D1202180F8421002
:1024800000210163704701680C3151E8002F22F0F0
:10249000C00241E80023002BF5D1202180F8411033
:1024A0007047000070B5044600680169E26821F4D5
:1024B0004051114301612169A068E26908436169E3
:1024C000114308432168CA6849F20C639A430243E6
:1024D000CA6020684169A26921F4407111434161D9
:1024E00031492068884202D03049884202D1FEF743
:1024F0007BFF01E0FEF768FFE269002319216425F4
:102500003226B2F5004F626828D0A0FB0101930F7C
:102510009200FDF7A9FE0146B0FBF5F06FF018023E
:10252000504301EB800006EB0010B0FBF5F000F02B
:10253000F002B1FBF5F002EB0012B1FBF5F06FF029
:102540001803584301EB800006EB0010B0FBF5F0D8
:1025500000F00F0021681044886070BDA0FB0101ED
:1025600092185B41FDF780FE0146B0FBF5F00201D9
:10257000B1FBF5F06FF01803584301EB800006EB58
:10258000C000B0FBF5F000F0F80002EB4002B1FB38
:10259000F5F0584301EB800006EBC000B0FBF5F00E
:1025A00000F00700D6E700000010014000140140D1
:1025B00038B5816204468285002013466064222279
:1025C00084F84220E56B1B4AEA63E56B1A4A2A64E9
:1025D000E56B1A4AEA64E26B10650A462168E06B13
:1025E000091DFEF76FFC20680168406800902069B3
:1025F00048B120680C3050E8001F41F4807140E879
:102600000012002AF5D12068143050E8001F41F074
:10261000010140E80012002AF5D12068143050E88A
:10262000001F41F0400140E80012002AF5D10020CF
:1026300038BD0000952300081B2400084B23000828
:10264000FEE70907090E002804DB00F1E02080F80E
:102650000014704700F00F0000F1E02080F8141D16
:102660007047000000B58BB000200121CDE90601C4
:1026700008910090049001900290039005900990B9
:1026800069460648FDF7C2FF0448FEF7ADFA02218D
:102690000248FDF74AFF0BB000BD000060000020BB
:1026A0002DED028BFEF764FDFFF796FCFFF7FCFBB8
:1026B000FFF7E4FBFFF7C2FBFFF71CFCFFF764FC2E
:1026C0001548FEF791FAFFF7CDFF1222134914487F
:1026D000FFF7CBFA1248C06B0068016821F00801CF
:1026E00001600E4D9FED0F8B104C143D2888A0F516
:1026F000806000F04CF853EC182B00F05FF800F00D
:1027000017F8002301B220601A461846FDF78EFE26
:102710000120FEF70FFCE9E7600000204C000020DC
:10272000D0000020000000000000F83F0C00002056
:102730004FEA41034FEA5353A3F58063D3F11E03DD
:10274000C8BFD3F1210C0CDD4FF0004242EAC12298
:1027500042EA505232FA03FC8CEAE17CACEBE170C5
:102760007047102BC4BF0020704703F5787CBCF184
:10277000FF3F04D06FF0004282EA2100704770B53D
:1027800000F0C6F84992248000207047F2E710F06C
:10279000004248BF4042B0FA80F310FA03F10AD079
:1027A000C3F11D0303F580634FEA415002EB03526E
:1027B00002EBD12170474FF000007047DFF848C1AD
:1027C00070B51CEA111E1EBF1CEA13159EEA0C0F01
:1027D00095EA0C0F00F06F8081EA030423EA4C13A2
:1027E0004EEAD47E21EA4C1141F4801143F4801367
:1027F000AE44A1FB024CA0FB0365AEF17F7E36190F
:1028000055EB0C05A1FB034C4CF10003A0FB021C93
:1028100016EB0C06654153F10003094218BF46F060
:10282000010613F4007F0BD14FEA03314FEA053064
:10283000340341EA155140EA16506FF003020AE0F2
:102840004FEAC3214FEAC520F40241EA555140EA5C
:1028500056506FF0020202EB2E4201EB025585EA60
:10286000CE710AD05FEA440C18BF24F0004450F146
:10287000000041F1000120EAD47040F2FE7C624584
:1028800000D270BDA84214BF4FF080444FF04044C6
:10289000002E08BF0024BEF1806FA8BFA1F1C04187
:1028A000BDE8704080F282804FF0000001F1C0412D
:1028B00001F0004170479EEA0C0F0CEA131518BF97
:1028C00095EA0C0F06D04FF0000081EA030E0EF0DF
:1028D000004170BD00F01CF88900013E00F007B80F
:1028E00000F009B84FEA430C5FEA5C5C08D081EA6B
:1028F000030100F05BB84FEA410C5FEA5C5CF6D183
:102900004FF00000014970470000FF070000F87F0A
:102910000EF1020E2EF0030E5EF8046B364205D463
:10292000012A43EB030515F5001F12D8012841EBDE
:10293000010C1CF5001F0CD80ED14FEAD17C15F507
:10294000001F0CEB4C0C0CF1020C08BF4CEBD37CC1
:1029500004E04FF0080C01E04FEAD37C0CEB4C058F
:1029600026FA05F606F00706B6F1040C06D20EEBC1
:10297000860CBDE870404CF0010C6047DFE80CF0BD
:10298000090B02024FF000414FF00000A1F50021B9
:1029900070BD19461046012851EB010418BFD4F54B
:1029A000001484BF002001F0004170BD0808A0F5AC
:1029B00000114FEA310170474FF04070E1EE100A0C
:1029C00070470006101600061016000000000000F8
:1029D00000000102030406070809000000000102CC
:1029E00003040000042A000800000020200000006A
:1029F000C4010008242A000820000020B8070000B5
:102A0000E0010008000000000000000000000000DD
:102A100000000000010000001000000000000000A5
:042A20000024F4009A
:040000050800018965
:00000001FF
