:020000040800F2
:10000000E806002029020008F1160008D9150008AA
:10001000ED1600083B04000815170008000000005A
:10002000000000000000000000000000F7160008BB
:100030003F04000800000000F5160008F91600084B
:10004000430200084302000843020008430200087C
:10005000430200084302000843020008430200086C
:10006000430200084302000843020008430200085C
:10007000430200084302000843020008430200084C
:10008000430200084302000843020008430200083C
:10009000430200084302000843020008430200082C
:1000A000430200084302000843020008430200081C
:1000B000430200084302000843020008430200080C
:1000C00043020008430200084302000843020008FC
:1000D00043020008430200084302000843020008EC
:1000E00043020008430200084302000843020008DC
:1000F00043020008430200084302000843020008CC
:1001000043020008430200084302000843020008BB
:1001100043020008430200084302000843020008AB
:10012000430200084302000843020008430200089B
:10013000430200084302000843020008430200088B
:10014000430200084302000843020008430200087B
:10015000430200084302000843020008430200086B
:10016000430200084302000843020008430200085B
:100170004302000843020008430200080000000098
:10018000430200084302000800F002F800F03CF8C7
:100190000AA090E8000C82448344AAF10107DA45E2
:1001A00001D100F031F8AFF2090EBAE80F0013F0F8
:1001B000010F18BFFB1A43F001031847B4300000C9
:1001C000D4300000103A24BF78C878C1FAD852075A
:1001D00024BF30C830C144BF04680C6070470000C1
:1001E0000023002400250026103A28BF78C1FBD840
:1001F000520728BF30C148BF0B6070471FB503F0DE
:1002000020F81FBD10B510BD00F0E2F81146FFF751
:10021000F5FF02F055FB00F000F903B4FFF7F2FF21
:1002200003BC00F003F90000094880470948004773
:10023000FEE7FEE7FEE7FEE7FEE7FEE7FEE7FEE796
:10024000FEE7FEE704480549054A064B70470000F3
:100250000117000889010008E8000020E8060020D6
:10026000E8020020E802002053EA020C00F0698056
:100270002DE9F04B4FF00006002B1FBFB3FA83F5BA
:1002800003FA05F424FA05F65E4012BF1643B2FAEB
:1002900082F502FA05F4C5F120051EBF22FA05FC1D
:1002A00044EA0C04203556EA044C4FEA144418BFC3
:1002B000641C4FF000084FF00009904271EB030CF2
:1002C00039D3002919BFB1FA81F701FA07F6B0FA5C
:1002D00080F700FA07F6C7F120071EBF20FA07FCD7
:1002E00046EA0C062037B6FBF4FCA7EB0507103FE7
:1002F00007F01F0BCBF120060CFA0BFB2CFA06F6CD
:1003000044BFB3460026202FA4BF5E464FF0000B2B
:100310005BEA060C08BF4FF0010B19EB0B09ABFBB6
:10032000027C48EB0608C01B06FB02CC0BFB03CC8F
:1003300071EB0C01C1E70B46024641464846BDE859
:10034000F08B13B54FF000004FF00001AFF30080C9
:10035000BDE81C4070474FF0000200B513469446BC
:100360009646203922BFA0E80C50A0E80C50B1F10D
:100370002001BFF4F7AF090728BFA0E80C5048BF21
:100380000CC05DF804EB890028BF40F8042B08BFBF
:10039000704748BF20F8022B11F0804F18BF00F8BB
:1003A000012B704770477047704710B500F008F890
:1003B000006810BD10B5044600F002F8046010BDDE
:1003C00000487047840000200048704784000020E7
:1003D0007546FFF7F9FFAE4605006946534620F023
:1003E0000700854618B020B5FFF72CFFBDE8204078
:1003F0004FF000064FF000074FF000084FF0000BE1
:1004000021F00701AC46ACE8C009ACE8C009ACE893
:10041000C009ACE8C0098D46704710B50446AFF37B
:1004200000802046BDE81040FFF7F7BE01491820C4
:10043000ABBEFEE726000200704700BFFEE7704734
:1004400072B600BFFEE7000070B5044600F00EF97A
:1004500006462546681C10B104480078054400BFD4
:1004600000F004F9801BA842FAD370BD18000020E8
:10047000F8B502460B460025002400200021D5E0F7
:10048000012606FA01F51E6806EA0504AC4273D19E
:100490001E7906F00306012E04D01E7906F003062D
:1004A000022E13D190684F000326BE40B0434F0088
:1004B000DE68BE4030439060506801268E40B043F5
:1004C0001E79C6F300168E40304350601E7906F048
:1004D0000306032E09D0D0684F000326BE40B04368
:1004E0004F009E68BE403043D0601E7906F0030680
:1004F000022E13D1CF0802F1200656F827004E072E
:10050000F70E0F26BE40B0434F07FF0E1E69BE40D8
:100510003043CF0802F1200646F8270010684F004C
:100520000326BE40B0431E7906F003064F00BE40CE
:10053000304310605E6806F44036002E75D000BF70
:10054000002600963B4E366846F48046394F3E60A2
:100550003E46366806F48046009600BF364E8F0849
:1005600056F827008E07370F0F26BE40B043334E94
:10057000B24202D1002624E057E0314EB24201D10E
:1005800001261EE02F4EB24201D1022619E02E4E66
:10059000B24201D1032614E02C4EB24201D104260E
:1005A0000FE02B4EB24201D105260AE0294EB2429D
:1005B00001D1062605E0284EB24201D1072600E00F
:1005C00008268F073F0FBE4030431B4E8F0846F86A
:1005D0002700224E3068A0435E6806F4801606B1FC
:1005E00020431E4E3060361D3068A0435E6806F41E
:1005F000001606B12043194E361D3060174E361FC7
:100600003068A0435E6806F4003606B12043134EFE
:10061000361F3060361F3068A0435E6806F48036AF
:1006200006B120430D4E083E3060491C1029FFF4EE
:1006300027AFF8BD443802400838014000000240AE
:100640000004024000080240000C0240001002407A
:100650000014024000180240001C0240083C014007
:100660000AB1816101E00B048361704701480068B1
:100670007047000010000020034800680349097813
:10068000084401490860704710000020180000204D
:1006900010B50D48006840F400700B49086008462A
:1006A000006840F4806008600846006840F480708C
:1006B0000860032000F090F80F2000F007F800F029
:1006C0002BF8002010BD0000003C024070B504462D
:1006D0000E4800784FF47A71B1FBF0F00C490968CC
:1006E000B1FBF0F5284600F05DFF08B1012070BDB8
:1006F000102C07D200222146501E00F02FF805488A
:10070000046001E00120F2E70020F0E7180000207B
:100710001C0000201400002008B500BF002000903D
:100720000D48006840F480400B49086008460068A6
:1007300000F48040009000BF00BF00200090081F20
:10074000006840F08050091F08600846006800F00B
:100750008050009000BF08BD443802402DE9F05F92
:1007600080460D461646002701F014FE074639461E
:100770002A46334601F00700C0F1070ABAF1040F18
:1007800002D94FF0040A01E0C0F1070AD14600F196
:10079000040ABAF1070F02D24FF0000A01E0A0F1FB
:1007A000030AD4464FF0010A0AFA09FAAAF1010A2B
:1007B0000AEA020A0AFA0CFA4FF0010B0BFA0CFBD8
:1007C000ABF1010B0BEA030B4AEA0B04214640464E
:1007D00001F05EFCBDE8F09F00BF00F00702064B91
:1007E00019684FF6FF031940044B0B4343EA0221FB
:1007F000014B196000BF70470CED00E00000FA05E6
:1008000070B504460D460CB9012070BD584800680B
:1008100000F00700A84209D255490D70084600684B
:1008200000F00700A84201D00120EEE7207800F098
:10083000020002281DD1207800F00400042805D110
:100840004C48006840F4E0504A490860207800F0C5
:100850000800082805D14748006840F46040454931
:1008600008604448006820F0F000A168084341494E
:100870000860207800F00100A8B36068012807D163
:100880003C4808380068C0F34040B8B90120BCE7D4
:100890006068022802D06068032807D1354808380C
:1008A0000068C0F3406048B90120AEE7314808381D
:1008B0000068C0F3400008B90120A6E72D48006891
:1008C00020F00300616808432A490860FFF7CEFE64
:1008D000064609E0FFF7CAFE801B41F288318842D4
:1008E00002D9032091E707E02248006800F00C00DD
:1008F0006168B0EB810FEDD11D48006800F0070082
:10090000A84209D91A490D700846006800F007008E
:10091000A84201D0012078E7207800F004000428E4
:1009200007D11448006820F4E050E16808431149F9
:100930000860207800F00800082808D10D480068F9
:1009400020F46040216940EAC1000A49086000F0D3
:1009500019F808490968C1F30311074A515CC840F6
:100960000649086006480068FFF7B0FE00204CE723
:10097000003C024008380240563200081C000020AB
:10098000140000202DE9F047002400250026A14690
:100990002548006800F00C0020B1042805D0082884
:1009A0003AD105E0DFF8849039E0DFF8849036E052
:1009B0001D48001F006800F03F041B48001F00682E
:1009C00000F4800078B11A481749091F0968C1F37B
:1009D0008811A0FB01700146224600233846FFF72C
:1009E00043FC05460EE011480F49091F0968C1F391
:1009F0008811A0FB01700146224600233846FFF70C
:100A000033FC05460848001F0068C0F30140401C45
:100A10004600B5FBF6F902E0DFF8109000BF00BF1A
:100A20004846BDE8F0870000083802400024F40082
:100A300000127A00F8B504460CB90120F8BD207800
:100A400000F00100002874D0F948006800F00C00A4
:100A500004280DD0F648006800F00C00082813D1D7
:100A6000F348001F006800F48000B0F5800F0BD140
:100A7000EF4808380068C0F34040002859D060684B
:100A8000002856D10120D9E700BF6068B0F5803F4B
:100A900008D1E7480838006840F48030E449083954
:100AA00008601EE06068B0F5A02F0DD1E04808385E
:100AB000006840F48020DE49083908600846006874
:100AC00040F4803008600CE0D9480838006820F411
:100AD0008030D749083908600846006820F4802033
:100AE000086000BF606890B1FFF7C0FD054606E0F2
:100AF000FFF7BCFD401B642801D903209EE7CC48CA
:100B000008380068C0F340400028F1D011E0FFF73A
:100B1000ADFD054606E0FFF7A9FD401B642801D99D
:100B200003208BE7C24808380068C0F34040002823
:100B3000F1D1207800F0020002285FD1BC480068A3
:100B400000F00C0058B1BA48006800F00C0008280A
:100B50001CD1B748001F006800F48000B0B9B44849
:100B600008380068C0F3400020B1E068012801D0D7
:100B7000012063E7AE480838006820F0F8002169DA
:100B800040EAC100AA490839086037E0E06800B3CC
:100B90000120A8490860FFF769FD054606E0FFF758
:100BA00065FD401B022801D9032047E7A04808380B
:100BB0000068C0F340000028F1D09D480838006864
:100BC00020F0F800216940EAC1009949083908601D
:100BD00014E0002097490860FFF748FD054606E04D
:100BE000FFF744FD401B022801D9032026E7904867
:100BF00008380068C0F340000028F1D1207800F0E8
:100C0000080008282CD16069A8B101208A49086031
:100C1000FFF72CFD054606E0FFF728FD401B0228E4
:100C200001D903200AE782486C300068C0F3400015
:100C30000028F1D014E000207F490860FFF716FD7E
:100C4000054606E0FFF712FD401B022801D90320EC
:100C5000F4E677486C300068C0F340000028F1D11A
:100C6000207800F0040004286FD100277048383045
:100C7000006800F0805088B900BF002000906C48E8
:100C80003830006840F080506949383108600846C3
:100C9000006800F08050009000BF0127674800689E
:100CA00000F48070B0B96548006840F48070634912
:100CB0000860FFF7DBFC054606E0FFF7D7FC401BAA
:100CC000022801D90320B9E65C48006800F480706E
:100CD0000028F2D000BFA068012808D1544868302D
:100CE000006840F001005249683108601DE0A068CA
:100CF00005280DD14E486830006840F004004C498A
:100D0000683108600846006840F0010008600CE0A7
:100D100047486830006820F00100454968310860A4
:100D20000846006820F00400086000BFA068A8B171
:100D3000FFF79CFC054609E0FFF798FC401B41F2D9
:100D40008831884202D9032078E626E038486830A6
:100D50000068C0F340000028EED013E0FFF786FCE7
:100D6000054608E0FFF782FC401B41F288318842CB
:100D700001D9032062E62E4868300068C0F34000C5
:100D80000028EFD1012F07D129483830006820F022
:100D9000805027493831086000BFA069002845D03D
:100DA0002348006800F00C0008285ED0A0690228E3
:100DB00046D100201F490866FFF758FC054606E0AB
:100DC000FFF754FC401B022801D9032036E61848DF
:100DD00008380068C0F340600028F1D1D4E9070169
:100DE0000843616A40EA81110122A06AC2EB500007
:100DF00041EA00412C20005D41EA00600C49091FD6
:100E0000086001200B490866FFF730FC054606E044
:100E1000FFF72CFC401B022801D903200EE60448F2
:100E200008380068C0F340600028F1D04AE00000B4
:100E30000838024000004742800E474200700040E0
:100E4000002021490866FFF711FC054606E0FFF780
:100E50000DFC401B022801D90320EFE51B48006868
:100E6000C0F340600028F2D12CE0A069012800D135
:100E7000E4E51648001D0668A069012820D006F4A4
:100E80008001E06981421BD106F03F01206A814266
:100E900016D147F6C0703040616AB0EB811F0FD1A8
:100EA00006F440310122A06AC2EB5000B1EB004FC2
:100EB00006D106F070612C20005DB1EB006F01D00F
:100EC0000120BBE50020B9E50000474200380240A0
:100ED000014691F85100704710B504460CB9012045
:100EE00010BD606A38B96068B0F5827F00D105E056
:100EF0000021E16102E00021216161610021A16224
:100F000094F8510028B9002084F85000204600F0E1
:100F100047F8022084F851002068006820F0400063
:100F200021680860A08800F48270218901F40441DE
:100F30000843A18901F400610843217C01F002010A
:100F40000843217D01F001010843218B01F4007168
:100F50000843217F01F0380108432021095D01F099
:100F600080010843218D01F4005108432168086085
:100F70000421A06901EA104094F8241001F0100146
:100F80000843216848602068C06920F40060216837
:100F9000C86100206065012084F8510000209FE7AF
:100FA00010B586B00446142101A8FFF7D4F92849EA
:100FB0002068884249D100BF002000902548006881
:100FC00040F48050234908600846006800F48050CF
:100FD000009000BF00BF002000901E481438006839
:100FE00040F002001B49143908600846006800F010
:100FF0000200009000BF00BF00200090084600687B
:1010000040F0010008600846006800F00100009010
:1010100000BF1820019002200290002003900320BE
:1010200004900520059001A90B48FFF721FA8020C4
:1010300001900220029000200390032004900520DC
:10104000059001A90548FFF713FA06B010BD00008E
:1010500000300140443802400004024000000240D9
:101060002DE9F8430446884616461D464FF0000910
:101070006068B0F5827F0DD1A06858B9042084F86B
:1010800051003346424641462046009500F076F92D
:10109000BDE8F88300BF94F85000012801D1022078
:1010A000F6E7012084F8500000BFFFF7DFFA07469B
:1010B00094F85100012802D04FF002097EE0B8F107
:1010C000000F00D016B94FF0010977E0042084F832
:1010D000510000206065C4F83880A687E687206349
:1010E000A086E08620646064A068B0F5004F0BD154
:1010F0002068006820F040002168086020680068CF
:1011000020F48040216808602068006800F04000FA
:10111000402805D02068006840F040002168086041
:10112000E068F8B91AE02068806800F0010050B16A
:101130002068007BA16B0870A06B401CA063E08F4F
:10114000401EE0870AE0FFF791FAC01BA84201D3D6
:10115000681C00B915B94FF003092FE0E08F002893
:10116000E1D11EE01AE02068806800F0010050B173
:101170002068C068A16B0880A06B801CA063E08F12
:10118000401EE0870AE0FFF771FAC01BA84201D3B6
:10119000681C00B915B94FF003090FE0E08F002873
:1011A000E1D13A462946204600F0CEFF08B1202082
:1011B0006065606D08B14FF0010900BF012084F83F
:1011C000510000BF002084F8500000BF48465FE790
:1011D0002DE9F84F0446884616461D464FF0000A92
:1011E00000BF94F85000012802D10220BDE8F88F1A
:1011F000012084F8500000BFFFF738FA0746B146D7
:1012000094F85100012802D04FF0020AACE0B8F186
:10121000000F00D016B94FF0010AA5E0032084F8B2
:10122000510000206065C4F83080A686E686A06381
:10123000A087E08760642064A068B0F5004F0BD100
:101240002068006820F0400021680860206800687D
:1012500040F48040216808602068006800F0400089
:10126000402805D02068006840F0400021680860F0
:10127000E068B0F5006F2FD1606810B1B9F1010FCF
:1012800009D1206B00882168C860206B801C206316
:10129000E08E401EE0861BE02068806800F00200BF
:1012A00002280AD1206B00882168C860206B801C4E
:1012B0002063E08E401EE0860AE0FFF7D7F9C01BEE
:1012C000A84201D3681C00B915B94FF0030A4BE0DE
:1012D000E08E0028E0D12EE0606810B1B9F1010F76
:1012E00009D1206B007821680873206B401C2063B3
:1012F000E08E401EE0861BE02068806800F002005F
:1013000002280AD1206B007821680873206B401CEA
:101310002063E08E401EE0860AE0FFF7A7F9C01BBD
:10132000A84201D3681C00B915B94FF0030A1BE0AD
:10133000E08E0028E0D13A462946204600F0F4FF2E
:1013400008B120206065A06848B900BF0020009067
:101350002068C068009020688068009000BF606DC1
:1013600008B14FF0010A00BF012084F8510000BF0E
:10137000002084F8500000BF504637E72DE9FF5F9A
:101380000446884691461D460E9E0120029000208C
:10139000019000BF94F85000012803D1022004B04E
:1013A000BDE8F09F012084F8500000BFFFF75EF910
:1013B000074694F851B060680390AA46BBF1010F4C
:1013C0000BD00398B0F5827F04D1A06810B9BBF1AF
:1013D000040F02D002200190DAE0B8F1000F03D030
:1013E000B9F1000F00D015B901200190D0E094F8B8
:1013F0005100042802D0052084F8510000206065C7
:10140000C4F83890E587A587C4F83080E586A586BE
:10141000206460642068006800F04000402805D027
:101420002068006840F0400021680860E068B0F57E
:10143000006F4AD1606810B1BAF1010F09D1206B79
:1014400000882168C860206B801C2063E08E401EED
:10145000E08633E02068806800F00200022810D1A6
:10146000E08E70B1029801280BD1206B00882168B2
:10147000C860206B801C2063E08E401EE086002048
:1014800002902068806800F0010068B1E08F58B1D8
:101490002068C068A16B0880A06B801CA063E08FEF
:1014A000401EE08701200290FFF7E0F8C01BB04229
:1014B00004D3701C10B10320019069E0E08E002875
:1014C000C8D1E08F0028C5D14AE0606810B1BAF1F8
:1014D000010F09D1206B007821680873206B401C34
:1014E0002063E08E401EE08634E02068806800F0D3
:1014F0000200022810D1E08E70B1029801280BD1B1
:10150000206B007821680873206B401C2063E08EFC
:10151000401EE086002002902068806800F00100F4
:1015200068B1E08F58B12068C068A16B0870A06BEB
:10153000401CA063E08F401EE08701200290FFF76F
:1015400095F8C01BB04201D3701C00B916B9032036
:1015500001901DE0E08E0028C7D1E08F0028C4D1A3
:101560003A463146204600F0DFFE20B101200190CE
:10157000202060650CE0A06848B900BF0020009002
:101580002068C068009020688068009000BF00BF9D
:10159000012084F8510000BF002084F8500000BFF3
:1015A0000198FCE670B504462546681EB0F1807FC0
:1015B00001D301200FE0681E4FF0E02148610F21A8
:1015C0004FF0FF3000F064FD00204FF0E021886113
:1015D00007200861002070BD00BFFEE700B587B09E
:1015E000142102A8FEF7B7FE00BF002001902B488F
:1015F000006840F00200294908600846006800F0D1
:101600000200019000BF00BF002001900846006862
:1016100040F0010008600846006800F001000190F9
:1016200000BF00BF002001900846006840F00400A1
:1016300008600846006800F00400019000BF00BF89
:10164000002001900846006840F0800008600846CD
:10165000006800F08000019000BF012210211048B6
:10166000FEF7FEFF012211460E48FEF7F9FF10209B
:1016700002900120039004900020059002A90848E0
:10168000FEF7F6FE012002900390002004900590E2
:1016900002A90448FEF7ECFE07B000BD3038024056
:1016A000000002400004024010B50E480E490860D8
:1016B0004FF48270486000210B488160C160016175
:1016C00041614FF4007181611821C1610021016203
:1016D000416281620A21C162FFF7FEFB08B1FEF799
:1016E000AFFE10BD003001402000002000BFFEE72B
:1016F00000BFFEE77047704710B5FEF7BDFF10BD95
:101700000348006840F47000014908607047000019
:1017100088ED00E000BFFEE710B586B0044603A9DF
:10172000412000F095FD04AA0621122000F0C4FC1F
:101730009DF810009DF8111000EB012000B2ADF8EB
:1017400004009DF812009DF8131000EB012000B278
:10175000ADF806009DF814009DF8151000EB01206F
:1017600000B2ADF80800BDF9040000EE100AB8EEB2
:10177000C00ADFED100A20EE200A84ED000ABDF950
:10178000060000EE100AB8EEC00ADFED0A0A20EEED
:10179000200A84ED010ABDF9080000EE100AB8EE37
:1017A000C00ADFED040A20EE200A84ED020A06B02A
:1017B00010BD0000E7416B3A10B52DED028B86B0ED
:1017C000044603A90F2000F07FFD9DF80C000528BA
:1017D00013D2DFE800F00306090C0F009FED308AFA
:1017E0000EE09FED308A0BE09FED2F8A08E09FED21
:1017F0002F8A05E09FED2E8A02E09FED298A00BF27
:1018000000BF04AA0621022000F0E8FC9DF81000A9
:101810009DF8111000EB012000B2ADF804009DF816
:1018200012009DF8131000EB012000B2ADF8060085
:101830009DF814009DF8151000EB012000B2ADF8E2
:101840000800BDF9040000EE100AB8EEC00AC0EEB0
:10185000080A9FED180A20EE800A84ED000ABDF9FF
:10186000060000EE100AB8EEC00AC0EE080A9FEDAE
:10187000110A20EE800A84ED010ABDF9080000EE8D
:10188000100AF8EEC00A80EE880ADFED0A0A20EEA0
:10189000200A84ED020A06B0BDEC028B10BD0000E8
:1018A0006F1283416F1203426F1283426F12034320
:1018B0006F12834335FA8E3C70B505460C462846B8
:1018C000FFF72AFF2046FFF777FF2146284600F062
:1018D00069F970BD38B504460D460022102115483F
:1018E000FEF7BEFE04F07F0000904FF47A730122F1
:1018F00069461148FFF76CFC00BF0F48FFF7E8FA94
:101900000328FAD000954FF47A73012269460A48F9
:10191000FFF75EFC00BF0848FFF7DAFA0328FAD0A9
:101920000120FEF791FD012210210248FEF798FEEA
:1019300038BD0000000002402000002038B50446F9
:101940000D46002201211548FEF78AFE04F07F00B3
:1019500000904FF47A73012269461148FFF738FC72
:1019600000BF0F48FFF7B4FA0328FAD000954FF4F0
:101970007A73012269460A48FFF72AFC00BF08482B
:10198000FFF7A6FA0328FAD0012211460348FEF712
:1019900067FE0120FEF758FD38BD0000000402403C
:1019A0002000002010B5B6217E20FFF793FF3220E3
:1019B000FEF74AFD04217D20FFF78CFF00217C20EB
:1019C000FFF788FFB6211420FFF7B8FF3220FEF79B
:1019D0003BFD00211120FFF7B1FF00214120FFF75F
:1019E00079FF8C214020FFF775FF02210F20FFF7C0
:1019F000A5FF00211020FFF7A1FF10BD2DE9F04148
:101A00002DED088B04460D461646614890ED001AF0
:101A100021EE011AD0ED011A90ED012A01EEC21A51
:101A2000D0ED021A90ED022A01EEC21AD0ED031A8F
:101A300090ED032A01EE821AF0EE410A90ED001AB1
:101A4000D0ED011A21EE211AD0ED021A90ED032AF1
:101A500001EE821AF0EE001A21EE211AB0EE410AD0
:101A600000F018FD10EE107A384601F079FB41ECD9
:101A7000190B9FED480B53EC102B01F089F941EC49
:101A8000180B9FED460B53EC102B01F029F841EC9D
:101A90001A0B00F04BFF20603D4890ED010AD0ED9D
:101AA000030A20EE200AD0ED000A90ED021A00EEA3
:101AB000C10AF0EE000A20EE208AB0EE480A00F0DB
:101AC0000DFDB1EE400A10EE107A384601F048FBE9
:101AD00041EC1B0B9FED2F0B53EC102B01F058F931
:101AE00041EC1A0B9FED2D0B53EC102B00F0F8FF7F
:101AF00041EC190B00F01AFF2860254890ED001A00
:101B000021EE011AD0ED011A90ED012A01EE821AA0
:101B1000D0ED021A90ED022A01EEC21AD0ED031A9E
:101B200090ED032A01EEC21AF0EE410A90ED011A7F
:101B3000D0ED021A21EE211AD0ED001A90ED032A01
:101B400001EE821AF0EE001A21EE211AB0EE410ADF
:101B500000F0A0FC10EE107A384601F001FB41ECD9
:101B6000180B9FED0C0B53EC102B01F011F941EC0D
:101B70001A0B9FED0A0B53EC102B00F0B1FF41EC58
:101B8000190B00F0D3FE3060BDEC088BBDE8F0818E
:101B9000000000200000000000806640182D445422
:101BA000FB21094030B52DED108B85B005460C4664
:101BB000D5ED000A60EEA00A95ED011AD5ED011AE7
:101BC00041EE210A95ED021AD5ED021A41EE210AE5
:101BD000B0EE600A00F052FCB0EE40AAB5EEC0AA2A
:101BE000F1EE10FA11DD95ED000AC0EE0A0AC5ED1E
:101BF000000A95ED010AC0EE0A0AC5ED010A95ED4D
:101C0000020AC0EE0A0AC5ED020AF04890ED000A89
:101C1000F0EE409A90ED010AB0EE408A90ED020A93
:101C2000F0EE408A90ED030AB0EE409A28EE090AE1
:101C300009EEE80AF0EE000A60EE20AA29EE880A12
:101C400008EE890AF0EE000A20EE20BA29EEA90A71
:101C500008EE480A08EEE80AF0EE40BA49EE09BA82
:101C600095ED010A20EE2B0AD5ED020AB0EE40DA1E
:101C700000EECBDA95ED020A20EE2A0AD5ED000A35
:101C8000F0EE40DA40EEEBDA95ED000A20EE0B0ABA
:101C9000D5ED010AB0EE40EA00EEEAEA1DEE100AC8
:101CA00001F05EFA41EC1C0B9FEDC90B53EC102BBD
:101CB00001F06EF8CDE90201C74890ED000A10EE80
:101CC000101A084601F04CFACDE900019DED020B17
:101CD00053EC102B9DED000B51EC100B00F058FE57
:101CE00041EC1F0B00F022FEBB4908601DEE900A7C
:101CF00001F036FA41EC1F0B9FEDB50B53EC102BA6
:101D000001F046F8CDE90001B34890ED010A10EE6C
:101D1000101A084601F024FA41EC1C0B9DED000B53
:101D200053EC102B00F034FECDE902019DED020BC7
:101D300051EC100B00F0FAFDA74948601EEE100AA6
:101D400001F00EFA9FEDA20B53EC102BCDE9000130
:101D50009DED000B51EC100B01F01AF841EC1F0B3C
:101D60009D4890ED020A10EE101A084601F0F8F9AD
:101D700041EC1C0B53EC1F2B00F00AFECDE90201D5
:101D80009DED020B51EC100B00F0D0FD92498860E4
:101D9000B6EE000A2DEE000A0846D0ED000A9FEDCF
:101DA0008F1A01EE200AD4ED000A30EE200A84EDED
:101DB000000AB6EE000A2DEE800AD0ED010A9FED72
:101DC000871A01EE200AD4ED010A30EE200A84EDD4
:101DD000010AB6EE000A2EEE000AD0ED020A9FEDCF
:101DE0007F1A01EE200AD4ED020A30EE200A84EDBB
:101DF000020A94ED000AF1EE480A20EE200AD4ED22
:101E0000010A08EEE00AD4ED020A09EE600A10EEBB
:101E1000101A084601F0A4F941EC1C0B9FED6C0B65
:101E200053EC102B00F0B4FF41EC1F0B19EE900A9D
:101E300001F096F953EC1F2BCDE900019DED000B4D
:101E400051EC100B00F0A4FDCDE902019DED020B59
:101E500051EC100B00F06AFD09EE900A94ED000AB7
:101E600020EE290AD4ED020A08EEA00AD4ED010AF8
:101E700009EE600A10EE101A084601F071F941EC03
:101E80001C0B9FED530B53EC102B00F081FFCDE9A1
:101E9000000118EE100A01F063F941EC1F0B9DEDF3
:101EA000000B53EC102B00F073FDCDE902019DED0A
:101EB000020B51EC100B00F039FD08EE100A94ED06
:101EC000010A20EE290AD4ED020A08EE600AD4EDD8
:101ED000000A09EE200A10EE101A084601F040F937
:101EE00041EC1C0B9FED3A0B53EC102B00F050FF14
:101EF000CDE9000118EE900A01F032F941EC1F0B18
:101F00009DED000B53EC102B00F042FDCDE90201DA
:101F10009DED020B51EC100B00F008FD08EE900A4D
:101F200094ED020A20EE290AD4ED010A08EE200AF7
:101F3000D4ED000A08EEE00A10EE101A084601F08F
:101F40000FF941EC1C0B9FED220B53EC102B00F012
:101F50001FFF41EC1F0B19EE100A01F001F953ECC1
:101F60001F2BCDE900019DED000B51EC100B00F093
:101F70000FFDCDE902019DED020B51EC100B00F0BD
:101F8000D5FC09EE100A69EEA90A48EE080A48EEE7
:101F9000A80A49EE090AB0EE600A00F06FFAB0EE46
:101FA00040AA89EE8A0A094880ED000A88EE0A0AEA
:101FB00080ED010A88EE8A0A80ED020A89EE0A0A9B
:101FC00080ED030A05B0BDEC108B30BD0000002091
:101FD0007B14AE47E17A843F78000020CDCCCC3D25
:101FE00000B593B0302107A8FEF7B5F9142102A877
:101FF000FEF7B1F900BF002001902348006840F0CF
:102000008050214908600846006800F08050019027
:1020100000BF00BF002001901C48006840F48040D1
:102020001A4908600846006800F48040019000BF2B
:10203000012007900004089002200D9041050E91A8
:1020400004210F91A82110910221119104211291D4
:1020500007A8FEF7EFFC08B1FEF7F2F90F20029097
:1020600002200390002004904FF4A05005904FF4FC
:1020700080500690052102A8FEF7C2FB08B1FEF7CA
:10208000DFF913B000BD000040380240007000408E
:1020900010B5002804DB0A07130E054A135406E0A6
:1020A0000A07140E034A00F00F031B1FD45410BD7F
:1020B00000E400E018ED00E02DE9FC4105460E4685
:1020C0001746002210211E48FEF7CAFA45F080008C
:1020D00001904FF47A73012201A91A48FFF778F8AA
:1020E00000BF1848FEF7F4FE0328FAD04FF47A73C5
:1020F000012269461348FEF7B3FF00BF1148FEF7FF
:10210000E7FE0428FAD0002410E04FF47A7301228D
:1021100069460C48FEF7A4FF00BF0A48FEF7D8FE48
:102120000428FAD09DF800003855641CB442ECDB5A
:10213000012210210248FEF793FABDE8FC8100005D
:102140000000024020000020F8B504460E46154667
:102150006068B0F5827F0DD1A068B0F5004F03D064
:10216000A068B0F5806F05D12068006820F04000BD
:10217000216808606068B0F5827F1FD1A068B0F563
:10218000806F0DD03346002280212046009500F05C
:1021900009F908B3606D40F0200060650320F8BDC8
:1021A0003346002201212046009500F0FBF898B14B
:1021B000606D40F0200060650320F0E733460022A8
:1021C00001212046009500F0EDF828B1606D40F047
:1021D000200060650320E2E70020E0E72DE9FC41F4
:1021E00005460E461746002201211748FEF738FA29
:1021F00045F0800001904FF47A73012201A9134841
:10220000FEF7E6FF00BF1148FEF762FE0328FAD092
:10221000002410E04FF47A73012269460B48FEF760
:102220001FFF00BF0948FEF753FE0428FAD09DF8AF
:1022300000003855641CB442ECDB01221146024810
:10224000FEF70EFABDE8FC810004024020000020E9
:1022500038B504460D46002210211948FEF700FA51
:1022600044F0800000904FF47A73012269461548CB
:10227000FEF7AEFF00BF1348FEF72AFE0328FAD090
:102280004FF47A73012229460E48FEF7E9FE00BF9B
:102290000C48FEF71DFE0428FAD04FF47A73012291
:1022A00029460848FEF7DCFE00BF0648FEF710FE90
:1022B0000428FAD0012210210148FEF7D1F938BDD7
:1022C000000002402000002038B504460D460022E0
:1022D00001211348FEF7C4F944F0800000904FF448
:1022E0007A73012269460F48FEF772FF00BF0D485E
:1022F000FEF7EEFD0328FAD04FF47A730122294647
:102300000848FEF7ADFE00BF0648FEF7E1FD0428D1
:10231000FAD0012211460248FEF7A2F938BD0000AA
:1023200000040240200000207CB504460D461646FD
:10233000164800681821B0FBF1F01549B0FBF1F028
:102340004FF47A71484301906068B0F5827F0DD1F7
:102350002B46002280212046009600F023F898B1F9
:10236000606D40F02000606503207CBD00BF0198D7
:1023700000B908E00198401E019020688068C0F311
:10238000C0100028F3D100BF0020EEE71C000020A1
:1023900040420F0002480068C0F30220704700006E
:1023A0000CED00E02DE9F84F04460D4690461E4620
:1023B000DDF82890FEF75AF9A0EB0900371AFEF76E
:1023C00055F982462C480068C0F3CB307843009022
:1023D00045E0701C002842D0FEF748F9A0EB0A0047
:1023E000B84200D2A7BB2068406820F0E000216816
:1023F00048606068B0F5827F0DD1A068B0F5004FED
:1024000003D0A068B0F5806F05D12068006820F087
:10241000400021680860A06AB0F5005F0DD100BFE0
:102420002068006820F40050216808602068006877
:1024300040F400502168086000BF012084F851007A
:1024400000BF002084F8500000BF0320BDE8F88FD3
:10245000FFE7009800B900270098401E0090206810
:1024600080682840A84201D1012000E000204045BA
:10247000AFD10020EAE700001C00002010B52DEDD0
:10248000028BB0EE408AB0EE480A00F0E5F9BDECF0
:10249000028B10BD10B52DED028BB0EE408AF0EE30
:1024A000608AF0EE680AB0EE480A00F0ADF8BDECC4
:1024B000028B10BD4100080218BF04200A0E18BF8D
:1024C00040F001004FF07F4232EA010108BF40F0C6
:1024D0000200012808BF05207047000010B54FF02A
:1024E0000E402DED028BB0EE408A18EE104A00EB44
:1024F0004400B0F1506F4AD84FF0FC40B0EB440FAD
:1025000022D2B0EEC80AF7EE000A30EEC00AF6EEAC
:10251000000A60EE208A18EE900A00F0E7F901EE5A
:10252000100A14F0004F1DBFDFED2D0A9FED2D0A9C
:10253000B1EE411ADFED2C0A08BF9FED2C0AF8EE30
:10254000001A21EE218A05E0DFED290A68EE088AEB
:10255000B0EE600A9FED271ADFED271A30EE080A69
:1025600048EE811A9FED251A08EEA11ADFED241A14
:1025700048EE811A9FED231A08EEA11A68EE281A78
:10258000BDEC028B01EE810A30EE200A10BD4FF047
:10259000E440B0EB440F0CD918EE100AFFF78AFFA5
:1025A000042808BF00F084F9B0EE480ABDEC028BA5
:1025B00010BD4FF07F40B0EB440F07D2B0EE480A99
:1025C000BDEC028BBDE8104000F063B90120FDF7BF
:1025D000F1FEBDEC028BBDE8104000F061B90000D7
:1025E0000000C9BF22AAFDB90000C93F22AAFD39D7
:1025F0000000000024FE1C3DC78AD83C1E67383D01
:102600001B93993DAFAA2A3E10EE100A10B510EEAA
:10261000901A4FF0684202EB40032DED028BB3F1AC
:10262000654F3CBF02EB4102B2F1654F7CD200BF67
:10263000C0F3C753C1F3C7529A1A1B2A09DD10F021
:10264000004F14BF9FED6E0A9FED6E0ABDEC028B2A
:1026500010BD12F11A0F1BDA11F0004F09D010F063
:10266000004F0CBF9FED680A9FED680ABDEC028B1E
:1026700010BD80EE208A18EE100AFFF71BFF042819
:1026800008BF00F015F9B0EE480ABDEC028B10BD92
:102690004200B2EB410F37D910F0004F19BFDFED08
:1026A0005C1A9FED5C1ADFED5C1A9FED5C1AB0EED0
:1026B000602A0A46F1EE400A80F00041B0EE420A7C
:1026C00010460A1A5200B2F1807F34D2484010F00E
:1026D000004FDFED532A9FED533A1DBFBEEE002A97
:1026E00071EEE21A31EE431AB6EE002A04BF71EE23
:1026F000A21A31EE031AF0EE402A42EE602A40EEB2
:10270000020A82EEA02A18E011F0004F04BF9FEDEC
:10271000461AF0EE411AD4D010F0004F1CBFDFED86
:10272000431A9FED431A00E026E004BFDFED411A93
:102730009FED411AC5E780EE202A22EE020ADFED66
:102740003F0ADFED3F2ABDEC028B40EE202ADFED91
:102750003D0A40EE220ADFED3C2A40EE202ADFED62
:102760003B0A40EE220A22EE000A00EE201A31EE69
:10277000020A30EE210A10BD4FF07F42B2EB400F4B
:1027800028BFB2EB410F05D2BDEC028BBDE8104073
:1027900000F082B840EA01035B0008BF41F0FF414E
:1027A0000BD0B2EB400F08BFB2EB410F08D120F0C5
:1027B000804000EE100A21F0804100EE901A37E7C9
:1027C000B2EB400F12BF5FEA410240F0FF4001F060
:1027D00000413FF42DAF4A0092EA40033FF528AF95
:1027E000002AACBF9FED1A1A9FED1A1A20EE010ABB
:1027F00060EE810A10EE100A10EE901A18E7000041
:10280000DB0FC9BFDB0FC93FDB0F4940DB0F49C0FE
:102810000000C9BF22AAFDB90000C93F22AAFD39A4
:102820000060ED3EC30ACE3700000000000049C042
:1028300022AA7DBA0000494022AA7D3A2DAD65BD8D
:102840008FB8D53D0FB511BE61C84C3EA8AAAABE2F
:102850000000804F0000802F10B52DED028BB1EEEF
:10286000C08A18EE100A20F00040C0F1FF40C00FEF
:102870000AD010EE100A20F00040C0F1FF40C00F57
:1028800004BF0120FDF796FDB0EE480ABDEC028BB7
:1028900010BD30EE000A704730EE200A704700008D
:1028A000DFED020A80EEA00A704700000000000081
:1028B0009FED020A20EE000A7047000000000010A1
:1028C0008AB0FDF7E5FEFFF78BFBFEF787FEFEF70C
:1028D000EBFEFFF767F808E004A907A8FEF7ECFF96
:1028E00003AA02A901A8FFF789F8F5E710B500EEE1
:1028F000100A2DED028BB1EEC08A18EE100A20F0FE
:102900000040C0F1FF40C00F0AD010EE100A20F0C6
:102910000040C0F1FF40C00F04BF0120FDF74AFD99
:1029200018EE100ABDEC028B10BD000021F0004231
:10293000A2F16052B2F5801F01F0004328BFD2F12E
:102940007F6C0BD95FEA001C43EAC20242EB507075
:1029500018BF704728BF20F001007047B2F5801FF4
:10296000BCBF184670474FEA410C1CF5001F02D24D
:10297000084600F06BBC70B500F0B4FA00000089A6
:10298000FFF7F6BF4FF00040A0F580007047000051
:1029900010B591EA030F48BF83F0004300F1FE82B7
:1029A000841A71EB030C05D2121943EB0C03001BC4
:1029B00061EB0C01DFF824E14FEA1154A4EB135C46
:1029C0001EEA430F18BF9EEA445F73D023EA0E034A
:1029D000DCF1200E21EA045143F4801332D322FAB1
:1029E0000CFE10EB0E0023FA0CFE41EB0E01CCF1B5
:1029F000200E03FA0EFE10EB0E0051F10001B1F5AE
:102A0000801FCCF1200E32D201EB045112FA0EF2EB
:102A1000BDE8104058BF7047401C38BF5FEA420213
:102A200018BF7047002814BF20F0010041F10001D9
:102A30004FEA410313F5001F38BF7047A1F1C041B1
:102A400000F09EBA012A43EB0302ACF1200CDCF14A
:102A50001F0E32BF4FF0000E23FA0CF310EB0300F1
:102A600041EB0451B4EB115FD0D0A1EB045101F55F
:102A7000801149085FEA300001EB04510ED350F198
:102A8000000038BF12FA0EFE08D1BDE81040C9E7B9
:102A9000401C38BF5FEA4202CAD1C3E7BDE810401C
:102AA0004FEA410313F5001F38BF7047A1F1C04141
:102AB00000F066BA9EEA445F08D011EA5E0FBDE8F6
:102AC000104004BF01F0004100207047BDE81040F5
:102AD00070B500F007FA00BF64FBBE3E0000E0FFE7
:102AE0002DE9C04130B4DFF8A0C23CEA111418BF90
:102AF0003CEA131400F0EC8081EA03051CEA11148F
:102B000044EAD57418BF1CEA131500F0C780A4EB83
:102B100005044FF0004545EAC12145EAC32341EAD7
:102B2000505143EA525304F17F74994204F5003442
:102B30004FEAC0204FEAC22208BF904200F09C80BA
:102B40004FEA13650FF24016765D4FEA134506FB18
:102B500005F7C7F1807706FB07F74FEAD737A7FBE2
:102B600003687642C8F58038A7FB06CE38BFA8F1C7
:102B7000010807FB08E64FF0000EA6FB028CE6FBFF
:102B800003CEDCF1000CCEF1004E38BFAEF1010EE9
:102B9000A6FB0C584FF000074FF00005E6FB0E8730
:102BA000A1FB08C6A0FB07CE16EB0E0645F10005FB
:102BB000E1FB076515F1E04E7EBFA4F580345FEAC6
:102BC00046066D4116F1800745F100054FEA1727CB
:102BD0004FEA066647EA0567A6F1DE46B6F1805F72
:102BE0004FEA15251FD9384624F0010C05EBC471B6
:102BF000BCF1FE6F01EB0C1102D8F0BCBDE8008106
:102C000024425CBF01F5801E9EEAC47F02D4F0BC62
:102C1000BDE80081244238D4F0BCA1F1C041BDE838
:102C2000004100F0ADB94FEAD22242EA43524FEAE6
:102C3000D323A7FB02864FEAD02040EA415007FB8E
:102C400003661EEA0E0F4FEAD12105FB026658BF4C
:102C5000A6EB0056B6EB00564FEA520E4EEAC37E84
:102C600018EB0E0E56EB530EBDD518EB02085E4165
:102C70007F1C55F10005B6E74FF480154FF00007B3
:102C80004FF000064FF00008ADE7F0BC4FF0000039
:102C900001F1C04101F00041BDE8008111EA0C1FC3
:102CA0000CEA131500D00CE013EA0C1F00F025808D
:102CB0004FF00000F0BC81EA030101F00041BDE8E3
:102CC0000081F0BCBDE8004181EA030100F058B981
:102CD000F0BCBDE8004170B500F004F9097EFC3E8F
:102CE00000F007B881EA03014FF0000001F0004155
:102CF000704781EA030100F043B9F0BCBDE8004130
:102D00004FF0000021497047FFFDFBF9F7F5F4F2A1
:102D1000F0EEEDEBE9E8E6E4E3E1E0DEDDDBDAD876
:102D2000D7D5D4D3D1D0CFCDCCCBCAC8C7C6C5C4D4
:102D3000C2C1C0BFBEBDBCBBBAB9B8B7B6B5B4B3EB
:102D4000B2B1B0AFAEADACABAAA9A8A8A7A6A5A4D6
:102D5000A3A3A2A1A09F9F9E9D9C9C9B9A9999989A
:102D60009797969595949393929191908F8F8E8E3D
:102D70008D8C8C8B8B8A89898888878786858584CA
:102D800084838382828181800000FF070000F87FB6
:102D9000DFF848C170B51CEA111E1EBF1CEA1315EE
:102DA0009EEA0C0F95EA0C0F00F06F8081EA030495
:102DB00023EA4C134EEAD47E21EA4C1141F48011EF
:102DC00043F48013AE44A1FB024CA0FB0365AEF1BB
:102DD0007F7E361955EB0C05A1FB034C4CF100032B
:102DE000A0FB021C16EB0C06654153F100030942DF
:102DF00018BF46F0010613F4007F0BD14FEA0331F0
:102E00004FEA0530340341EA155140EA16506FF09D
:102E100003020AE04FEAC3214FEAC520F40241EA67
:102E2000555140EA56506FF0020202EB2E4201EB80
:102E3000025585EACE710AD05FEA440C18BF24F02F
:102E4000004450F1000041F1000120EAD47040F24A
:102E5000FE7C624500D270BDA84214BF4FF0804492
:102E60004FF04044002E08BF0024BEF1806FA8BF81
:102E7000A1F1C041BDE8704080F282804FF00000B7
:102E800001F1C04101F0004170479EEA0C0F0CEACD
:102E9000131518BF95EA0C0F06D04FF0000081EA19
:102EA000030E0EF0004170BD00F01CF88900013ED9
:102EB00000F007B800F009B84FEA430C5FEA5C5C29
:102EC00008D081EA030100F05BB84FEA410C5FEAE9
:102ED0005C5CF6D14FF00000014970470000FF072D
:102EE0000000F87F0EF1020E2EF0030E5EF8046B68
:102EF000364205D4012A43EB030515F5001F12D80D
:102F0000012841EB010C1CF5001F0CD80ED14FEA33
:102F1000D17C15F5001F0CEB4C0C0CF1020C08BF1A
:102F20004CEBD37C04E04FF0080C01E04FEAD37C7B
:102F30000CEB4C0526FA05F606F00706B6F1040C74
:102F400006D20EEB860CBDE870404CF0010C6047D9
:102F5000DFE80CF0090B02024FF000414FF00000D7
:102F6000A1F5002170BD19461046012851EB01045E
:102F700018BFD4F5001484BF002001F0004170BDDB
:102F80000808A0F500114FEA3101704710B591EA29
:102F9000030F48BF83F000433FF502AD841A71EB85
:102FA000030C07D212198CF0004C43EB0C03001BEE
:102FB00061EB0C01DFF8A4E14FEA1154A4EB135CC0
:102FC0001EEA430F18BF9EEA445F00F0B08023EA78
:102FD0006E03524221EA0451C3EB6E0338BF5B1EFD
:102FE000DCF1200E25D322FA0CFE10EB0E0043FA82
:102FF0000CFE41EB0E01CCF1200E03FA0EFE10EB9D
:103000000E0051F10001CCF1200E29D412FA0EF27B
:1030100001EB0451BDE8104058BF7047401C1CBF75
:10302000B2F1004F704700280CBF491C20F001008E
:10303000704712EB020E43EB030218BF4FF0010E74
:103040004EEA4202ACF1200CDCF11E0E54D943FAD8
:103050000CFE10EB0E0051F1FF31CCF11E0ED5D558
:103060000EF1010E12FA0EFE404141EB010101EB9F
:10307000445C5FEA5C5C10D910EBDE7001EB04513C
:1030800038BFBEF1004FBDE8104018BF70470028A0
:103090000CBF491C20F00100704730D24FEAD42CFD
:1030A00011F5001124F400641BD0B1FA81F20B3A3F
:1030B000A41AA41ED2F12003914030FA03F319435D
:1030C000904001EBCC71002C01EB0451BDE81040A5
:1030D000A8BF704701F1C0414FF0000001F000416E
:1030E0007047B0FA80F310FA03F100D110BDE41A72
:1030F000173C4805C90AE4E701EB045110BD49102B
:1031000001EB0451BDE810404FEA300002E04FF0FF
:10311000000170474A0008BF0042F8D0B2F5001F16
:1031200028BF704701F000414FF0000070479EEA51
:10313000445F07D011EA5E0FBDE8104004BF0021D4
:1031400000207047BDE8104070B5FFF7CBFE00BF10
:1031500040DFF63E83F00041104670470000E0FF7C
:1031600043004FEAD30C4FEA3C0C43401FBF4007DB
:103170000CF1605113F0FE4F70471CF0006F03D14B
:1031800000200CF0004170470CF0004343EA5070FF
:1031900010B540EACC0000F00EF800BF000000922D
:1031A0004FEA0001FFF7ECBE4FF000414FF0000086
:1031B000A1F5002170470EF1020E2EF0030E5EF80D
:1031C000044B244204D44FEA4102B2F17F4F11D89C
:1031D0004FEA4003B3F17F4F0CD80ED14FEAD07CB9
:1031E000B2F17F4F0CEB4C0C0CF1020C08BF4CEB16
:1031F000D17C04E04FF0080C01E04FEAD17C0CEBED
:103200004C0324FA03F404F00704B4F1040C06D2CE
:103210000EEB840CBDE810404CF0010C6047DFE879
:103220000CF0070802024FF00040A0F5800010BD2E
:103230000846420018BFD2F1807288BF00F00040FB
:1032400010BD4FF04070E1EE100A7047FF2141EAD7
:10325000D050C005704700000000000000000102CF
:10326000030406070809000000000102030400002F
:10327000903200080000002020000000C401000877
:10328000B032000820000020C8060000E00100085D
:103290000000803F0000000000000000000000006F
:1032A0000000000010000000010000000024F400F5
:040000050800018965
:00000001FF
